S0100000534550345F494F542E73726563AD
S1130000E5C0000003C1000001C10000FFC0000002
S1130010FDC00000FBC00000F9C00000F7C00000F4
S1130020F5C00000F3C00000F1C00000EFC0000004
S11300308FC50000EBC00000E9C00000E7C000006D
S1130040E5C00000E3C00000E1C00000DFC0000024
S1130050DDC00000DBC00000D9C00000D7C0000034
S1130060D5C000000C94AD200C94FF20CFC000003C
S1130070CDC00000CBC00000C9C00000C7C0000054
S1130080C5C00000C3C00000C1C00000BFC0000064
S11300900C9443210C949521B9C000000C94E025E4
S11300A0B5C00000B3C00000B1C00000AFC0000084
S11300B0ADC00000ABC00000A9C00000A7C0000094
S11300C0A5C00000A3C00000A1C000000C94D92169
S11300D00C942B229BC000000C946F220C94C12220
S11300E095C00000881888188818BF18C718DC182D
S11300F088188818BF18C718022672267226722616
S1130100722672267226722602267226722672269B
S11301107226722672267226042672267226722689
S1130120722672267226722672267226722672260B
S11301307226722672267226042672267226722669
S113014072267226722672267226722672267226EB
S113015072267226722672266E26722672267226DF
S11301607226722672267226392672267226722604
S113017072267226722672267226722672267226BB
S113018072267226722672262D26722672267226F0
S1130190722672267226722651260E94D80C8091ED
S11301A0AB15823008F00ED40E940519F6CFCF9318
S11301B0DF931F92CDB7DEB7CE0101960E940516DC
S11301C049810E94FA170E945118F6CF11241FBECC
S11301D0CFEFD1E2DEBFCDBF00E00CBF17E0A0E05F
S11301E0B2E0ECEEFAE500E00BBF02C007900D921E
S11301F0A838B107D9F727E1A8E8B7E001C01D92F4
S1130200AC37B207E1F7A4D10C94742DF9CE0E9457
S11302102B1F882321F08FE692E00E94692A8AE549
S11302209FE190936D1780936C179F938F9384E84D
S113023092E09F938F930E94562A64E771E080E0D6
S113024090E00E94A4100F900F900F900F90DFCFBA
S1130250DEDFEF92FF920F93E12CF12C01E020E01E
S113026030E040EC50E06DE872E088E291E00E94FA
S11302709F0D0F91FF90EF9008950F931F93CF93CD
S1130280DF93CDB7DEB764970FB6F894DEBF0FBE29
S1130290CDBF81E00E9478240E94AD1B0E942A1EDB
S11302A09F938F9381E992E09F938F930E94562AA4
S11302B00E942B1D0E942A1E9F938F9384EA92E032
S11302C09F938F930E94562A8E010F5F1F4FC80180
S11302D00E94BF1B0E942A1E1F930F939F938F930C
S11302E08DEB92E09F938F930E94562AC8010E943F
S11302F0DB1B0E942A1E9F938F931F930F9381ED04
S113030092E09F938F930E94562AA80166EE72E0B2
S113031087E093E00E94091E0E942A1E9F938F93F8
S11303201F930F9386EE92E09F938F9387E093E061
S11303309F938F9388E193E09F938F930E94562A13
S11303400E940E1C0E942A1E9F938F938EE493E0BA
S11303509F938F930E94562A0FB6F894DEBF0FBE68
S1130360CDBF81E00E94081D0E942A1E9F938F9397
S11303708DE593E09F938F930E94562A84EF91E03A
S11303800E94131D0E942A1E9F938F9381E08F93D6
S113039084EF8F938EE793E09F938F930E94562A66
S11303A00FB6F894DEBF0FBECDBF1AE080E00E9406
S11303B0141C082F0E942A1E9F938F931F921F9331
S11303C08EE993E09F938F930E94562A0F900F908B
S11303D00F900F900F900F90083059F080E00E941A
S11303E0DC2466E371E080E090E00E94A4101150E8
S11303F0E9F6083021F481E00E94BE2408C081E0BF
S11304000E94CD2480E00E949B24DCD2FECF64961F
S11304100FB6F894DEBF0FBECDBFDF91CF911F9111
S11304200F910895CF93DF9300D01F92CDB7DEB71D
S113043081E00E949F1B62E070E080E090E00E94F7
S1130440A41080E00E949F1B66E970E080E090E0C9
S11304500E94A4100E94581B10DFE8E8F7E086E031
S1130460818382E080830E94290E69837A838B834F
S11304709C8348EA58E460E070E0CE0101960E9453
S11304803F10D0907017C090711710916E170091A3
S11304906F17F0906C17E0906D170F931F938EEB0E
S11304A093E09F938F930E94562A809171178F93A4
S11304B0809170178F9384ED93E09F938F930E94A4
S11304C0562AE8E8F7E0C282D38204831583E682E1
S11304D0F78283E00E94EE2468E877E080E00E94DF
S11304E03D1C0E942A1E9F938F938BEE93E09F9353
S11304F08F930E94562A0FB6F894DEBF0FBECDBF6D
S1130500B8CFEF92FF920F93E12CF12C082F20E04B
S113051030E048E851E060E074E082E192E00E945B
S11305209F0D0F91FF90EF90089587E094E00E9453
S1130530692A83E00E94061F0E94BC1960E070E0F3
S113054081E00C945F1B089584DE0C947B1908955C
S113055080E00E94232383E0D4DFE7DFF5DF85E03A
S11305600E942A248FE194E00E94692A0E94EB0DE4
S113057080E090E00895EAEAF7E0AEEAB7E0B183FC
S1130580A08313821282E6E5F5E1F093A907E093D4
S1130590A807138212821182108288EA9DE01396C2
S11305A09C938E931297ED93FC939093A50780935D
S11305B0A4079093A7078093A60780E090E8909300
S11305C09F0780939E070895CF93DF93EC01AAEAD7
S11305D0B7E001C0DF01ED91FC911197EC17FD0725
S11305E0C8F312968D919C9113979D01280F391F82
S11305F0C217D30749F42A813B81820F931F1396B4
S11306009C938E931297ED018A819B819E01280F02
S1130610391FE217F307C1F42091A8073091A90705
S1130620E217F30771F022813381820F931F9B83BA
S11306308A83ED91FC9111978081918199838883BC
S113064005C03983288302C0F983E883CA17DB070E
S113065011F0CD93DC93DF91CF910895EF92FF9247
S11306600F931F93CF93DF938C010E94230E8091ED
S1130670A8079091A907892B09F47DDF80919E0733
S113068090919F0780239123892B09F076C001154F
S1130690110549F0C80104960817190718F000E07D
S11306A010E001C08C010115110509F469C08091A5
S11306B0A6079091A7078017910708F464C0C0911A
S11306C0AA07D091AB07EAEAF7E002C0FE01EC0109
S11306D08A819B818017910720F4888199810097F2
S11306E0A9F78091A8079091A907C817D90709F419
S11306F04DC0E080F18084E0E80EF11C888199818E
S1130700918380832A813B81201B310B2930310561
S113071048F0CE01800F911FFC01338322831B8399
S11307200A8352DF2A813B818091A6079091A70713
S1130730821B930B9093A7078093A6074091A4076D
S11307405091A5078417950720F49093A5078093EB
S1130750A40780919E0790919F07282B392B3B83F8
S11307602A83198218828091A2079091A307019687
S11307709093A3078093A2070BC0E12CF12C08C02F
S1130780E12CF12C05C0E12CF12C02C0E12CF12C60
S11307900E94630FE114F10411F40E941119C701BE
S11307A0DF91CF911F910F91FF90EF9008950F93D8
S11307B01F93CF93DF93009791F1EC0124974A8123
S11307C05B8120919E0730919F07BA0162237323B6
S11307D0672B29F168817981672B09F5209530957C
S11307E0242335233B832A830E94230E8A819B8101
S11307F02091A6073091A707820F931F9093A70714
S11308008093A607CE01E0DE8091A0079091A10716
S113081001969093A1078093A0070E94630FDF9134
S1130820CF911F910F910895FC01039692838183C8
S11308304FEF5FEFBA0143835483658376839087D8
S113084087839287818710820895FC01138612861C
S113085008950F931F93CF93DF93EB0108811981C0
S11308602A813B810F3F4FEF14072407340721F4FB
S1130870FC01A185B28511C0DC01139601C0DF0122
S11308801496ED91FC911597408151816281738199
S1130890041715072607370790F71496ED91FC9176
S11308A01597FD83EC83D783C683BF83AE831596E8
S11308B0DC93CE9314979B878A87FC0120812F5F5A
S11308C02083DF91CF911F910F910895CF93DF93F0
S11308D0FC01A285B385C481D581868197819F83DC
S11308E08E83C681D781848195819D838C83119663
S11308F08D919C911297E817F90731F486819781BD
S113090012969C938E931197138612868C91815024
S11309108C938C91DF91CF910895A89590EC88E108
S11309200FB6F894A895809360000FBE9093600072
S11309300895FC0160833197708331971082319759
S11309401082319720E820833197108231971082EA
S11309503197108277974083319750838697089513
S1130960DCDFA0911916B0911A16CD91CDBFDD919F
S1130970DEBFFF91EF91DF91CF91BF91AF919F9136
S11309808F917F916F915F914F913F912F911F9123
S11309900F91FF90EF90DF90CF90BF90AF909F901A
S11309A08F907F906F905F904F903F902F901F900B
S11309B00F900CBE0F900BBE0F900FBE0F900895BA
S11309C081E008950F920FB6F8940F920BB60F9230
S11309D00CB60F921F9211242F923F924F925F9266
S11309E06F927F928F929F92AF92BF92CF92DF923B
S11309F0EF92FF920F931F932F933F934F935F9325
S1130A006F937F938F939F93AF93BF93CF93DF9312
S1130A10EF93FF93A0911916B0911A160DB60D928B
S1130A200EB60D920E94BF10A0911916B0911A161D
S1130A30CD91CDBFDD91DEBFFF91EF91DF91CF91DD
S1130A40BF91AF919F918F917F916F915F914F91E2
S1130A503F912F911F910F91FF90EF90DF90CF90D6
S1130A60BF90AF909F908F907F906F905F904F90CA
S1130A703F902F901F900F900CBE0F900BBE0F90C5
S1130A800FBE0F9008950F920FB6F8940F920BB605
S1130A900F920CB60F921F9211242F923F924F92F5
S1130AA05F926F927F928F929F92AF92BF92CF92FA
S1130AB0DF92EF92FF920F931F932F933F934F93E5
S1130AC05F936F937F938F939F93AF93BF93CF93D2
S1130AD0DF93EF93FF93A0911916B0911A160DB6F8
S1130AE00D920EB60D9213BE0E94370E81110E9414
S1130AF0BF10A0911916B0911A16CD91CDBFDD91FA
S1130B00DEBFFF91EF91DF91CF91BF91AF919F91A4
S1130B108F917F916F915F914F913F912F911F9191
S1130B200F91FF90EF90DF90CF90BF90AF909F9088
S1130B308F907F906F905F904F903F902F901F9079
S1130B400F900CBE0F900BBE0F900FBE0F90089528
S1130B509ADF18950FB6F8940F92FC01868D8111D7
S1130B6002C081E001C080E00F900FBE08950FB66F
S1130B70F8940F92FC01268D878D281302C081E022
S1130B8001C080E00F900FBE08950F931F93CF9381
S1130B90DF93EC01042F1E8D48A141110CC0888104
S1130BA09981892B09F042C08C819D810E94D012C9
S1130BB01D821C8242C0011117C050E08A819B81B2
S1130BC00E94F72928A18A819B81820F911D9B8312
S1130BD08A832C813D818217930750F18881998102
S1130BE09B838A8380E029C050E08E819F810E948C
S1130BF0F72988A190E09195819591092E813F81F3
S1130C00280F391F3F832E834881598124173507C4
S1130C1030F42C813D81820F931F9F838E83023099
S1130C2049F4112349F0115080E007C080E005C069
S1130C3080E003C080E001C080E01F5F1E8FDF9171
S1130C40CF911F910F910895FC0140A14423A9F075
S1130C5050E026813781240F351F37832683848112
S1130C6095812817390720F08081918197838683A5
S1130C70CB01668177810C94F72908951F93CF9354
S1130C80DF93EC010FB6F8940F921AA10BC08B8975
S1130C90882351F0CE0143960E947D1181110E9458
S1130CA0B912115011169CF38FEF8AA30F900FBE47
S1130CB00FB6F8940F9219A10BC08885882351F0C0
S1130CC0CE0108960E947D1181110E94B912115023
S1130CD011169CF38FEF89A30F900FBEDF91CF9174
S1130CE01F910895CF93DF93EC010FB6F8940F9200
S1130CF0E881F9818F8D28A190E030E0829FA001E6
S1130D00839F500D929F500D11244E0F5F1F5D83E2
S1130D104C831E8EFB83EA830197289FA001299FA1
S1130D20500D389F500D1124CF01840F951F9F83C0
S1130D308E838FEF89A38AA361110BC088858823D2
S1130D4071F0CE0108960E947D11882341F03ADEAD
S1130D5006C0CE01089668DDCE01439665DD0F908E
S1130D600FBE81E0DF91CF9108950F931F93F80197
S1130D70611103C01183008302C051834083878FB4
S1130D8060A361E0CF01AEDF1F910F910895DF9260
S1130D90EF92FF920F931F93CF93DF93F82EE62EDB
S1130DA0D42E869FC0011124839658DCEC01009751
S1130DB041F08C012D2DAC014D5D5F4F6E2D8F2DBB
S1130DC0D4DFCE01DF91CF911F910F91FF90EF906F
S1130DD0DF900895CF92DF92EF92FF920F931F93CB
S1130DE0CF93DF93CDB7DEB729970FB6F894DEBF64
S1130DF00FBECDBF7C016B012E833F83488759878B
S1130E0010E00FB6F8940F92F701968D878D98171E
S1130E1010F00230B1F4402FB601C701B6DEF7017D
S1130E209389992341F0C70143960E947D11882339
S1130E3021F0C8DD02C08111C5DD0F900FBE81E035
S1130E404AC08E819F81A885B985892B8A2B8B2BDB
S1130E5021F40F900FBE80E03EC0111105C0CE01F9
S1130E6001960E94421211E00F900FBEECD60FB60D
S1130E70F8940F92F70181A18F3F09F411A2F701B1
S1130E8082A18F3F09F412A20F900FBEBE016A5FC8
S1130E907F4FCE0101960E945312811118C0C701E1
S1130EA066DE882381F04E815F8168857985C7017C
S1130EB008960E942411C701E1DE0E94630F81118C
S1130EC0A0CF80DD9ECFC701D9DEFDD79ACFC70161
S1130ED0D5DEF9D780E029960FB6F894DEBF0FBEB1
S1130EE0CDBFDF91CF911F910F91FF90EF90DF90D5
S1130EF0CF900895EF92FF920F931F93CF93DF93B8
S1130F008A01FC01568D378D531710F02230F9F405
S1130F10422F7801EC011AA18E8DCE0136DE1F3FDF
S1130F2081F48B898823A9F0CE0143960E947D1118
S1130F30882389F0E114F10481F081E0F7018083D2
S1130F400DC0FF24F394F10EFAA281E007C080E003
S1130F5005C081E003C081E001C081E0DF91CF9151
S1130F601F910F91FF90EF900895CF92DF92EF922F
S1130F70FF920F931F93CF93DF93CDB7DEB72997DB
S1130F800FB6F894DEBF0FBECDBF8C016B012E836C
S1130F903F8348875987E12C0FB6F8940F92F801E4
S1130FA0F68CFF2099F0B601C8014EDEFA94F801E0
S1130FB0F68E8085882331F0C80108960E947D1141
S1130FC0811100DD0F900FBE81E04FC08E819F81A3
S1130FD0A885B985892B8A2B8B2B21F40F900FBE02
S1130FE080E043C0E11006C0CE0101960E94421287
S1130FF0EE24E3940F900FBE26D60FB6F8940F920A
S1131000F80181A18F3F09F411A2F80182A18F3F59
S113101009F412A20F900FBEBE016A5F7F4FCE018A
S113102001960E945312811117C0C80193DD8823D1
S113103079F04E815F8168857985C80143960E9465
S11310402411C8011BDE3FD78111A6CFBBDCA4CF7E
S1131050C80114DE38D7A0CFC80110DE34D7C801C8
S113106079DD882309F498CF80E029960FB6F894A7
S1131070DEBF0FBECDBFDF91CF911F910F91FF90C7
S1131080EF90DF90CF900895CF93DF93EC010FB6EC
S1131090F8940F9289A18F3F09F419A28AA18F3F76
S11310A009F41AA20F900FBE8E8D811104C0CE01D7
S11310B043960E943B11CE01E1DDDF91CF9108956B
S11310C0FC014481558122813381240F351F8081A5
S11310D09181B901681B790BCB016417750710F076
S11310E0841B950B08950F93FC018FE0DF011D9283
S11310F08A95E9F775876487558344833783268304
S113110006870F910895AF92BF92CF92DF92EF922C
S1131110FF920F931F93CF93DF936C015B017A01CE
S1131120FC01C281D381048115810C1B1D0B401766
S1131130510708F48A01F60184859585A801B50153
S11311408C0F9D1F0E94F7290E151F0558F4A70147
S1131150401B510BB501600F711FF6018485958505
S11311600E94F729CE018E0D9F1DF6012481358141
S11311708217930710F0821B930BF60193838283EB
S1131180C701DF91CF911F910F91FF90EF90DF90F6
S1131190CF90BF90AF900895CF92DF92EF92FF92DD
S11311A00F931F93CF93DF931F921F92CDB7DEB798
S11311B07C016B015A83498321153105C1F0FC017F
S11311C0868580FD08C04217530708F49A013A83C4
S11311D0298381E00FC02017310758F042E050E026
S11311E0BE016F5F7F4FC7018EDF81E003C080E0E7
S11311F001C080E0882331F049815A81B601C701DA
S113120082DF02C080E090E00F900F90DF91CF91D9
S11312101F910F91FF90EF90DF90CF900895AF92C0
S1131220BF92CF92DF92EF92FF920F931F93CF93CF
S1131230DF937C015B01E9014217530708F4EA01DB
S1131240209781F1F7010081118184819581801BB0
S1131250910B6E018C179D0708F46C01F7016485EE
S11312607585600F711FA601C5010E94F729CC1670
S1131270DD0658F4AE014C195D09F70164857585E6
S1131280C5018C0D9D1D0E94F7290C0F1D1FF70130
S1131290848195810817190710F0081B190BF701B1
S11312A011830083CE01DF91CF911F910F91FF90A5
S11312B0EF90DF90CF90BF90AF9008956F927F92A0
S11312C08F929F92AF92BF92CF92DF92EF92FF9252
S11312D00F931F93CF93DF931F921F92CDB7DEB767
S11312E06C014B015A01790101151105B1F0FC01A2
S11312F060807180A801BE016F5F7F4F90DF89819C
S11313009A81E01AF10AA816B90630F4F60171823E
S11313106082A12CB12C01C05C019701A501B4012C
S1131320C6017DDF0F900F90DF91CF911F910F9138
S1131330FF90EF90DF90CF90BF90AF909F908F90F1
S11313407F906F900895CF92DF92EF92FF920F9368
S1131350CF93DF93EC016B01413011F401E001C044
S113136000E0C114D10419F4CC24C394D12CCE01CF
S11313704096C817D90720F4219670D97C0102C081
S1131380E12CF12CE114F10439F09601AE01B7011E
S1131390615F7F4FC701A7DEC701DF91CF910F9136
S11313A0FF90EF90DF90CF9008950F930FB6F894CD
S11313B00F92FC0120853185232B71F4228533851E
S11313C0232B61F426813781448155816485758599
S11313D0068589DE81E003C080E001C080E00F90D3
S11313E00FBE0F910895FC01248135818081918184
S11313F0820F931F42815381841B950B019782179F
S1131400930710F0821B930B08952F923F924F92F3
S11314105F926F927F928F929F92AF92BF92CF9280
S1131420DF92EF92FF920F931F93CF93DF93CDB789
S1131430DEB72B970FB6F894DEBF0FBECDBF4C01BD
S11314407B876A871A010E831F8328873987FC01EB
S1131450848195810197268520FF0CC02A01F2E042
S11314604F0E511C8415950558F41E821F82188650
S1131470198606C08417950710F02A0101C02C01B3
S11314808E819F81A885B985892B8A2B8B2B09F4A2
S113149036C0CE010196E0D70FB6F8940F92C4017E
S11314A0A2DF3C018415950538F560E080E090E00A
S11314B00E94EB150E94BD12F401938782870F905E
S11314C00FBEAE80BF80C884D984E12CF12C00E02B
S11314D010E0980140E050E0BA0180E00E942B1334
S11314E0F40113861286BE016A5F7F4FCE01019616
S11314F0DAD7882389F205C00F900FBE02C0612C91
S1131500712C6114710419F4C4016DDF3C01820172
S11315109301A1016A857B85C4013EDE6C01892BA0
S1131520E9F0C401CDDDF4012681378182179307E8
S1131530A8F089D3F40180859185892B71F0808589
S11315409185E12CF12C00E020E030E0A90160E07D
S11315500E94D213F40111861086B5D4C6012B96CD
S11315600FB6F894DEBF0FBECDBFDF91CF911F91B0
S11315700F91FF90EF90DF90CF90BF90AF909F902E
S11315808F907F906F905F904F903F902F90089531
S1131590AF92BF92CF92DF92EF92FF920F931F937D
S11315A0CF93DF93EC017B015A0169018E8580FFA3
S11315B004C08A010E5F1F4F01C08A01CE0113DFF0
S11315C09C01A501B701CE01E7DD5C01892BC1F0C7
S11315D0CE0176DD2E813F818217930788F08885BE
S11315E09985892B69F088859985E12CF12C00E097
S11315F020E030E0A90160E00E94C9141986188631
S1131600C501DF91CF911F910F91FF90EF90DF9073
S1131610CF90BF90AF9008954F925F926F927F9258
S11316208F929F92AF92BF92CF92DF92EF92FF92EE
S11316300F931F93CF93DF93EC012B013A015801D1
S113164069018E8580FF05C06894882481F8912CF7
S113165002C0812C912CA114B104C104D10431F134
S11316600FB6F8940F92CE012BDD7C0188169906F3
S113167040F060E080E090E00E94EB157ED799870F
S113168088870F900FBE8E149F0498F0E12CF12CE4
S113169000E010E0980140E050E0BA0180E0DBD7C0
S11316A019861886CE010CDD7C0103C0CE0108DD4D
S11316B07C018E149F04E8F484019701A301B20114
S11316C0CE01FCDD6C01892BB1F0BDD28A859B85EE
S11316D0892B69F08A859B85E12CF12C00E020E0C0
S11316E030E0A90160E00E94D2131B861A86EBD376
S11316F002C0C12CD12CC601DF91CF911F910F9153
S1131700FF90EF90DF90CF90BF90AF909F908F901D
S11317107F906F905F904F900895E0919315F091B2
S11317209415808181110CC08FEF9FEFDC018093B1
S11317305D1590935E15A0935F15B09360150895A1
S1131740E0919315F09194150780F085E02D808148
S11317509181A281B38180935D1590935E15A093CE
S11317605F15B09360150895CF93DF93EC018B8DD3
S11317709C8D1DD8CE011BD8DF91CF9108954F9237
S11317805F926F927F928F929F92AF92BF92CF920D
S1131790DF92EF92FF920F93CF93DF932C015B01C3
S11317A04A013901E60165EA70E08B8D9C8D0E9447
S11317B0002A8B8D9C8D21E0821A9108880E991E37
S11317C0A114B10489F415C0822F90E0F501E80F4B
S11317D0F91F3081DE01A80FB91F5D963C9380810B
S11317E0882329F02F5F01C020E0203168F31CA674
S11317F001C01D8E0A3008F009E00A8F0DA71EA64D
S1131800CE01029622D8CE010E961FD8DB87CA8756
S11318108AE090E0A0E0B0E0801B9109A109B10941
S11318208E879F87A88BB98BDF8BCE8B84E0FE01DC
S1131830BF96DF011D928A95E9F71BAAA301B201A5
S1131840C40177D899838883E114F10419F0F7016E
S1131850D183C083DF91CF910F91FF90EF90DF9000
S1131860CF90BF90AF909F908F907F906F905F903C
S11318704F900895CF93C0E009C02BE0C29FC001F0
S1131880112485559A4E0E941404CF5FCA30A8F3E0
S113189080EA95E10E94140485E995E10E9414040C
S11318A086E895E10E9414048BE795E10E941404F4
S11318B08FE695E10E94140480EA95E190939415D3
S11318C08093931585E995E19093921580939115F2
S11318D0CF910895CF93DF93EC010FB6F8940F9254
S11318E080916E158F5F80936E158091191690917B
S11318F01A16892B51F4D0931A16C0931916809195
S11319006E15813091F4B6DF10C080916815811195
S11319100CC0E0911916F0911A16928D8A8D8917D0
S113192020F0D0931A16C0931916809161158F5F19
S113193080936115EA8D809169158E1710F4E093F8
S113194069158BE08E9FF0011124E555FA4E018054
S1131950F281E02DFF83EE83268137813987288742
S1131960A681B7819E012E5F3F4F15963C932E931F
S1131970149737832683EA8D8E9FF0011124E55551
S1131980FA4EFD87EC8780818F5F80830F900FBEB6
S113199080916815882349F0E0911916F0911A1680
S11319A0928D8A8D981708F40DD8DF91CF91089500
S11319B0CF93DF931BC00FB6F8940F92E09182157A
S11319C0F0918315C085D185CE0102960E946604EC
S11319D080916E15815080936E1580917A15815097
S11319E080937A150F900FBECE01BEDE80917A15DA
S11319F08111E1CFDF91CF9108958F929F92AF92A1
S1131A00BF92CF92DF92EF92FF92CF93DF936B015D
S1131A107C01C42F80906A1590906B15A0906C1572
S1131A20B0906D158091191690911A1602960E9425
S1131A3066048FEFC816D806E806F806B1F5CC237D
S1131A40A1F1EFE6F5E1A181B281C0911916D0911F
S1131A501A16BF83AE83C0911916D0911A16169622
S1131A608D919C911797998788871696CD91DC91D3
S1131A7017978091191690911A1602969D838C835C
S1131A808091191690911A16029617969C938E932C
S1131A901697A0911916B0911A161D96FC93EE9301
S1131AA01C9780818F5F80833FC0C80CD91CEA1CBF
S1131AB0FB1CE0911916F0911A16C282D382E482BB
S1131AC0F582C814D904EA04FB0468F46091191679
S1131AD070911A1680919115909192156E5F7F4FB7
S1131AE00E94290421C06091191670911A168091E0
S1131AF09315909194156E5F7F4F0E9429048091F5
S1131B005D1590915E15A0915F15B0916015C81692
S1131B10D906EA06FB0640F4C0925D15D0925E1524
S1131B20E0925F15F0926015DF91CF91FF90EF90F6
S1131B30DF90CF90BF90AF909F908F9008952F9299
S1131B403F924F925F926F927F928F929F92AF9249
S1131B50BF92CF92DF92EF92FF920F93CF93DF93D6
S1131B603C011B014A012901CA010E942E036C0198
S1131B70892B71F084E390E00E942E03EC01892B01
S1131B8019F0DC8ECB8E06C0C6010E94D70302C0BA
S1131B90C0E0D0E0209761F0A12CB12C6E0192013D
S1131BA0A401B101C301EBDDCE0194DE81E001C0EB
S1131BB08FEFDF91CF910F91FF90EF90DF90CF9057
S1131BC0BF90AF909F908F907F906F905F904F9059
S1131BD03F902F900895EF92FF920F930F2EFBE505
S1131BE0EF2EF5E1FF2EF02D00E020E030E040EC98
S1131BF050E06BE274E08DEC90E0A1DF813011F4F1
S1131C000E948F168130C9F4F8948FEF9FEFDC01A6
S1131C1080935D1590935E15A0935F15B093601546
S1131C2081E08093681510926A1510926B151092DA
S1131C306C1510926D150E94B004809106020F91EC
S1131C40FF90EF90089580915A158F5F80935A15F5
S1131C5008950FB6F8940F9260916A1570916B1500
S1131C6080916C1590916D150F900FBE0895CF92D1
S1131C70DF92EF92FF92CF93DF9380915A158111F7
S1131C8005C1C0906A15D0906B15E0906C15F0906A
S1131C906D158FEFC81AD80AE80AF80AC0926A15B7
S1131CA0D0926B15E0926C15F0926D15C114D104AD
S1131CB0E104F104B1F4809193159091941520916D
S1131CC09115309192153093941520939315909318
S1131CD0921580939115809162158F5F80936215A0
S1131CE01CDD80915D1590915E15A0915F15B091FA
S1131CF06015C816D906EA06FB0620F480E0B2C0D7
S1131D0081E001C080E0E0919315F09194159081F9
S1131D1091110CC04FEF5FEFBA0140935D155093E2
S1131D205E1560935F15709360159CC0E0919315E8
S1131D30F09194150780F085E02D0084F185E02D65
S1131D404281538164817581C416D506E606F7067F
S1131D5048F440935D1550935E1560935F1570933E
S1131D60601580C0A485B585C681D781208531855D
S1131D703F832E83C085D185268137813D832C8383
S1131D8011964D915C9112979F012E5F3F4F421720
S1131D90530731F44085518512965C934E93119705
S1131DA0158614869C9191509C93A08DB18D1097AB
S1131DB009F1C289D389448955895F834E83C489D3
S1131DC0D589428953895D834C8311966D917C91A9
S1131DD01297AF01425F5F4F6417750731F444896E
S1131DE0558912965C934E931197118E108E9C9187
S1131DF091509C93A28D909169159A1710F4A09319
S1131E0069159BE09A9FD0011124A555BA4E1196ED
S1131E100D90BC91A02DB783A68316964D915C912D
S1131E201797518740871696CD91DC9117973D837C
S1131E302C8317963C932E931697A28D9A9FD001CC
S1131E401124A555BA4EB587A4879C919F5F9C9396
S1131E50228DE0911916F0911A16928D291708F027
S1131E604FCF51CFE0911916F0911A16E28D9BE0F5
S1131E70E99FF0011124E555FA4E9081923008F063
S1131E8081E090916315911116C016C0809164157C
S1131E9090916515A0916615B09167150196A11DE5
S1131EA0B11D8093641590936515A0936615B09346
S1131EB0671580E001C081E0DF91CF91FF90EF9042
S1131EC0DF90CF900895CF92DF92EF92FF92CF935D
S1131ED0DF930FB6F8940F9280915A158150809336
S1131EE05A1580915A158111BEC080916E158111C9
S1131EF088C0BCC0E0918D15F0918E150084F185E9
S1131F00E02DA08DB18DC289D389848995899F8361
S1131F108E83C489D589828993899D838C83119604
S1131F202D913C911297CF010E962817390731F461
S1131F308489958912969C938E931197118E108E95
S1131F408C9181508C93A485B585C681D781808579
S1131F5091859F838E83C085D185868197819D835A
S1131F608C8311968D919C9112979F012E5F3F4F08
S1131F708217930731F48085918512969C938E93F2
S1131F801197158614868C9181508C93A28D809123
S1131F9069158A1710F4A09369158BE08A9FD00104
S1131FA01124A555BA4E11960D90BC91A02DB7835E
S1131FB0A68316964D915C91179751874087169684
S1131FC0CD91DC9117973D832C8317963C932E93E8
S1131FD01697A28D8A9FD0011124A555BA4EB587B4
S1131FE0A4878C918F5F8C93928DA0911916B091D8
S1131FF01A165A968C91981730F081E080936315E5
S113200002C0E0E0F0E080918615811173CFEF2BE0
S113201009F083DBC0906415D0906515E0906615D7
S1132020F0906715C114D104E104F104A1F01FDE9E
S1132030882319F081E08093631581E0C81AD108E0
S1132040E108F108A1F71092641510926515109239
S113205066151092671580916315882331F00E94EC
S1132060E20481E003C080E001C080E00F900FBE75
S1132070DF91CF91FF90EF90DF90CF9008958F92F2
S11320809F92AF92BF92CF92DF92EF92FF921F93F3
S1132090CF93DF93EC016A017B01D5DD80906A1553
S11320A090906B15A0906C15B0906D1588819981F6
S11320B0AA81BB81AC01BD014C0D5D1D6E1D7F1D50
S11320C088169906AA06BB0660F4481759076A07DA
S11320D07B0798F484169506A606B70680F010E0F0
S11320E013C0481759076A077B0758F084169506EA
S11320F0A606B70640F010E007C010E005C011E0E6
S113210003C011E001C011E0488359836A837B83D3
S1132110112341F0CB01BA01681979098A099B0995
S113212040E06BDCD0DE811102C00E94E204812F0A
S1132130DF91CF911F91FF90EF90DF90CF90BF90F0
S1132140AF909F908F900895CF92DF92EF92FF927D
S11321506B017C01672B682B692B39F074DD40E03F
S1132160C701B6014ADCAFDE01C080E0811102C0C4
S11321700E94E204FF90EF90DF90CF900895809149
S11321805A15882321F081E08093631508951092F5
S11321906315E0911916F0911A1620813181E091AE
S11321A01916F0911A16838D948D8217930760F097
S11321B06091191670911A16635E7F4F80911916FB
S11321C090911A160E941D198091691501C08150C1
S11321D0282F30E09BE0929FF001939FF00D112493
S11321E0E555FA4E9081992391F39BE0929FA001CB
S11321F0939F500D1124DF010180F281E02D0480B2
S1132200F581E02D1296FC93EE93119742555A4EA8
S1132210E417F50729F444815581FD015283418374
S11322209BE0929FF001939FF00D1124E555FA4E27
S11322300180F281E02D2085318530931A16209398
S11322401916809369150895CF92DF92EF92FF9249
S11322506A017B016091191670911A16625F7F4FB3
S11322600E94290441E0C701B601C7DBFF90EF904B
S1132270DF90CF900895CF93DF93FC01CB01BA0197
S1132280A181B281C0911916D0911A16BB8BAA8B69
S1132290C0911916D0911A1616964D915C91179704
S11322A05D8B4C8B1696CD91DC9117974091191646
S11322B050911A16425F5F4F5D834C83409119160B
S11322C050911A16425F5F4F17965C934E93169780
S11322D0A0911916B0911A165996FC93EE9358973B
S11322E030813F5F3083222319F06FEF7FEFCB0102
S11322F0422F83DBDF91CF910895CF93DF93DC01ED
S11323001796ED91FC9118970084F185E02DA08D2E
S1132310B18DC289D389848995899F838E83C48929
S1132320D589828993899D838C8311968D919C9103
S113233012979F01225F3F4F8217930731F48489DC
S1132340958912969C938E931197118E108E8C9171
S113235081508C9380915A15811152C0A485B58502
S1132360C681D781808591859F838E83C085D185E1
S1132370868197819D838C8311968D919C91129770
S11323809F012E5F3F4F8217930731F4808591851B
S113239012969C938E931197158614868C91815076
S11323A08C93A28D809169158A1710F4A0936915F6
S11323B08BE08A9FD0011124A555BA4E11960D9039
S11323C0BC91A02DB783A68316964D915C91179767
S11323D0518740871696CD91DC9117973D832C83C6
S11323E017963C932E931697A28D8A9FD0011124A1
S11323F0A555BA4EB587A4878C918F5F8C931CC06A
S113240046E855E1DA011196CD91DC911297D38B10
S1132410C28B8E819F81958B848B8E819F81DC0101
S113242015963C932E9314973F832E83518F408FA0
S1132430DA018C918F5F8C93928DE0911916F09153
S11324401A16828D891720F481E08093631501C0E8
S113245080E0DF91CF9108950FB6F8940F92209108
S11324606215FC01208340916A1550916B156091AF
S11324706C1570916D1541835283638374830F903F
S11324800FBE089520916215FC01208340916A15C6
S113249050916B1560916C1570916D154183528349
S11324A06383748308958F929F92AF92BF92CF9269
S11324B0DF92EF92FF920F931F93CF93DF93FB0171
S11324C00FB6F8940F92C0906A15D0906B15E090F7
S11324D06C15F0906D15DC0111960D911D912D91E7
S11324E03C91149746015701801A910AA20AB30A33
S11324F040815181628173814F3FBFEF5B076B075E
S11325007B0739F1EC01B881A0916215BA1759F033
S1132510C016D106E206F30630F010821182128250
S1132520138281E017C084169506A606B70658F4F0
S1132530481959096A097B0940835183628373836B
S1132540A1DF80E007C0108211821282138281E031
S113255001C080E00F900FBEDF91CF911F910F91CA
S1132560FF90EF90DF90CF90BF90AF909F908F90AF
S1132570089581E0809363150895809119169091D0
S11325801A16089580916815882331F080915A15A0
S1132590811104C082E0089581E0089580E00895E7
S11325A00F931F93CF93DF93FC01892B09F449C048
S11325B086A5815086A7228D95A5291709F443C0C5
S11325C0811143C0EF018F010E5F1F4FC8010E94AC
S11325D06604EDA5EA8F8AE090E0A0E0B0E08E1BEF
S11325E09109A109B1098E879F87A88BB98B809126
S11325F069158E1710F4E09369158BE08E9FF00136
S11326001124E555FA4E0180F281E02DFF83EE831B
S11326102681378139872887A681B78115961C932F
S11326200E93149717830683EA8D8E9FF00111246D
S1132630E555FA4EFD87EC8780818F5F808381E0CA
S113264005C080E003C080E001C080E0DF91CF914D
S11326501F910F9108954F925F926F927F92AF9264
S1132660BF92CF92DF92EF92FF920F931F93CF937B
S1132670DF93280139010FB6F8940F92E0911916EF
S1132680F0911A16C82FD0E0EC0FFD1F83A98230F9
S113269071F1E0911916F0911A16CE01880F991F65
S11326A0880F991FE80FF91F87A590A9A1A9B2A9BE
S11326B04095509560957095482359236A237B2350
S11326C047A750AB61AB72ABE0911916F0911A16A3
S11326D0EC0FFD1F81E083ABA114B104C104D1044C
S11326E031F041E0C601B50188D90E94E2040F909F
S11326F00FBE0FB6F8940F92E114F104A1F0E0912B
S11327001916F0911A16CE01880F991F880F991F78
S1132710E80FF91F87A590A9A1A9B2A9F7018083A1
S11327209183A283B383E0911916F0911A16EC0FEA
S1132730FD1F83A98230E9F4E0911916F0911A166D
S1132740CE01880F991F880F991FE80FF91F87A5DD
S113275090A9A1A9B2A9409450946094709448227D
S113276059226A227B2247A650AA61AA72AA81E052
S113277001C080E02091191630911A16C20FD31FA0
S11327801BAA0F900FBEDF91CF911F910F91FF9065
S1132790EF90DF90CF90BF90AF907F906F905F905D
S11327A04F9008958F929F92AF92BF92EF92FF92B3
S11327B00F93CF93DF93DC010FB6F8940F92E114DB
S11327C0F10489F0E62FF0E0EE0FFF1FEE0FFF1F7C
S11327D0E80FF91F87A490A8A1A8B2A8F7018082E6
S11327E09182A282B38270E0FD01E60FF71F83A9F4
S11327F092E093AB023001F118F4013031F04DC096
S1132800033079F10430D1F148C0660F771F660FA9
S1132810771FFD01E60FF71F87A490A8A1A8B2A80F
S1132820BA01A901482959296A297B2947A750AB2C
S113283061AB72AB01E034C0660F771F660F771F80
S1132840FD01E60FF71F47A550A961A972A94F5FC3
S11328505F4F6F4F7F4F47A750AB61AB72AB01E047
S11328601FC0660F771F660F771FFD01E60FF71F66
S113287027A730AB41AB52AB01E012C0823079F0F4
S1132880660F771F660F771FFD01E60FF71F27A757
S113289030AB41AB52AB01E003C001E001C000E04A
S11328A0813009F069C01C96ED91FC911D97169634
S11328B0CD91DC91179718968D919C9119979F83D0
S11328C08E831896CD91DC91199716968D919C91D3
S11328D017979D838C83818192819D012E5F3F4F49
S11328E08217930731F418968D919C9119979283CE
S11328F081831D961C921E921C9780818150808337
S11329005A96EC915A97809169158E1710F4E093BA
S113291069158BE08E9FF0011124E555FA4E018074
S1132920F281E02D1796FC93EE931697468157811A
S113293019965C934E931897C681D7813D832C8357
S1132940378326835A96EC915A978E9FF00111246F
S1132950E555FA4E1D96FC93EE931C9780818F5F8C
S113296080835A969C91E0911916F0911A16828DE3
S1132970891710F40E94E2040F900FBE802FDF919C
S1132980CF910F91FF90EF90BF90AF909F908F9059
S113299008958F929F92AF92BF92CF92DF92EF925F
S11329A0FF920F93CF93DF93DC01E114F10489F0DC
S11329B0E62FF0E0EE0FFF1FEE0FFF1FE80FF91FE9
S11329C087A490A8A1A8B2A8F70180829182A282CC
S11329D0B38270E0FD01E60FF71F93A982E083AB99
S11329E0023001F118F4013031F04DC0033079F1B7
S11329F00430D1F148C0660F771F660F771FFD01C1
S1132A00E60FF71F87A490A8A1A8B2A8BA01A9014C
S1132A10482959296A297B2947A750AB61AB72AB76
S1132A2081E034C0660F771F660F771FFD01E60F44
S1132A30F71F47A550A961A972A94F5F5F4F6F4F58
S1132A407F4F47A750AB61AB72AB81E01FC0660FED
S1132A50771F660F771FFD01E60FF71F27A730AB1F
S1132A6041AB52AB81E012C0923079F0660F771F10
S1132A70660F771FFD01E60FF71F27A730AB41ABA9
S1132A8052AB81E003C081E001C080E0913009F0E5
S1132A9096C090915A1591115FC01C96ED91FC91CE
S1132AA01D971696CD91DC91179718962D913C9110
S1132AB019973F832E831896CD91DC91199716961A
S1132AC02D913C9117973D832C83418152819D0127
S1132AD02E5F3F4F4217530731F418964D915C9186
S1132AE01997528341831D961C921E921C979081C4
S1132AF0915090835A96EC915A97909169159E172C
S1132B0010F4E09369159BE09E9FF0011124E555B4
S1132B10FA4E0180F281E02D1796FC93EE931697FE
S1132B204681578119965C934E931897C681D78135
S1132B303D832C83378326835A96EC915A979E9F24
S1132B40F0011124E555FA4E1D96FC93EE931C9763
S1132B5090819F5F908321C066E875E1FB01C1818C
S1132B60D2815396DC93CE9352972E813F81559612
S1132B703C932E9354974E815F819D01225F3F4F7A
S1132B80FA01358324833F832E8359967C936E9375
S1132B905897FB0190819F5F90835A962C91E09106
S1132BA01916F0911A16928D921748F4C114D10493
S1132BB019F091E0F601908391E090936315DF9111
S1132BC0CF910F91FF90EF90DF90CF90BF90AF9097
S1132BD09F908F900895009721F4809119169091F9
S1132BE01A160FB6F8940F9270E0FC01E60FF71F67
S1132BF023A9223031F4FC01E60FF71F13AA81E068
S1132C0001C080E00F900FBE0895DC01E09125160D
S1132C10F0912616808191E0811190E09C939111AE
S1132C2008C00780F085E02D6081718182819381E5
S1132C30089560E070E0CB010895CF92DF92EF92A7
S1132C40FF920F931F93FC01428353836483758324
S1132C50938782870417150726073707C0F00C19D6
S1132C601D092E093F0986859785A089B189081712
S1132C7019072A073B0700F5BF016E5F7F4F80915C
S1132C802316909124160E94290480E018C00C1584
S1132C901D052E053F0528F44C155D056E057F05C1
S1132CA068F4BF016E5F7F4F8091251690912616C0
S1132CB00E94290480E003C081E001C081E01F91EB
S1132CC00F91FF90EF90DF90CF9008950FB6F89496
S1132CD00F928091211690912216892BE9F482E3B8
S1132CE096E10E94140487E296E10E94140482E3B0
S1132CF096E1909326168093251687E296E19093A9
S1132D0024168093231640E067E08AE00E94C706F9
S1132D1090932216809321160F900FBE0895EF9280
S1132D20FF920F93D3DF8091211690912216892B65
S1132D3091F00F2EFFE1EF2EF6E1FF2EF02D03E0D0
S1132D4020E030E040EC50E060E374E087ED90E098
S1132D500E949F0D01C080E00F91FF90EF900895B5
S1132D608F929F92AF92BF92CF92DF92EF92FF9297
S1132D700F931F93CF93DF93CDB7DEB727970FB68B
S1132D80F894DEBF0FBECDBFE0912116F09122165C
S1132D90309781F169832A833B834C835D839F83CE
S1132DA08E836630F4F4EEDB823069F400E0A70130
S1132DB09601BE016F5F7F4F80912116909122167C
S1132DC00E94EA0618C000E020E030E0A901BE013C
S1132DD06F5F7F4F80912116909122160E94EA0620
S1132DE00AC020E0A801BE016F5F7F4FCF010E949F
S1132DF07A0701C080E027960FB6F894DEBF0FBEB5
S1132E00CDBFDF91CF911F910F91FF90EF90DF9095
S1132E10CF90BF90AF909F908F9008958F929F9284
S1132E20AF92BF92CF92DF92EF92FF920F931F93D4
S1132E30CF93DF933BC00780F085E02D80809180A5
S1132E40A280B380C085D1858E010E5F1F4FC8015B
S1132E500E946604EC89FD89CE0119958E8982FF52
S1132E6025C08E859F85A889B989880D991DAA1DBD
S1132E70BB1D88169906AA06BB0670F48A839B8339
S1132E80AC83BD83DB87CA87B801809125169091F6
S1132E9026160E9429040AC0C12CD12C760100E018
S1132EA010E0A501940160E0CE015ADFE0912516FF
S1132EB0F091261680818111BECF809123169091C6
S1132EC024169093261680932516F0932416E093E7
S1132ED02316DF91CF911F910F91FF90EF90DF9018
S1132EE0CF90BF90AF909F908F900895CF92DF9234
S1132EF0EF92FF92CF93DF93EC010E94290E6B01B6
S1132F007C0180911B1690911C16A0911D16B09106
S1132F101E16C816D906EA06FB0620F47FDF81E0F8
S1132F20888301C01882C0921B16D0921C16E092AE
S1132F301D16F0921E16C701B601DF91CF91FF90C6
S1132F40EF90DF90CF9008954F925F926F927F92AF
S1132F508F929F92AF92BF92CF92DF92EF92FF92A5
S1132F600F931F93CF93DF934B015C0129013A0127
S1132F70E0912516F09126160780F085E02DC08596
S1132F80D185CE0102960E9466048E8982FF1BC001
S1132F904E855F8568897989480D591D6A1D7B1D99
S1132FA07501640193018201CE0147DE882369F033
S1132FB0C12CD12C760100E010E0A501940160E061
S1132FC0CE01CEDE02C08E7F8E8BEC89FD89CE01D0
S1132FD01995DF91CF911F910F91FF90EF90DF90A2
S1132FE0CF90BF90AF909F908F907F906F905F90A5
S1132FF04F9008958F929F92AF92BF92CF92DF929B
S1133000EF92FF921F93CF93DF931F92CDB7DEB75A
S11330106B017C01142F0E94230ECE01019666DF02
S11330204B015C01898181112DC011110DC08C14DB
S11330309D04AE04BF0440F00E94630FA5019401F7
S1133040C701B60181DF20C0112341F0E0912316AE
S1133050F0912416808111E0811110E0B701A601DE
S1133060481959096A097B09212F809121169091E9
S113307022160E9444080E94630F811105C00E9419
S1133080E20402C00E94630F0F90DF91CF911F9161
S1133090FF90EF90DF90CF90BF90AF909F908F9074
S11330A00895AF92BF92CF92DF92EF92FF920F9367
S11330B01F93CF93DF93CDB7DEB728970FB6F8945D
S11330C0DEBF0FBECDBF82C0898188230CF47EC0D1
S11330D0AE80BF80D5011C968D919C911D97892B44
S11330E021F0C50102960E946604CE010896FEDE18
S11330F08B019C01E9810E2E000CFF0BEA30F105D7
S113310008F064C08827EE58FF4F8F4F0C94CA28EC
S1133110F50186898160868BCA80DB80EC80FD8026
S113312046855785608971894C0D5D1D6E1D7F1D17
S1133130C50183DD882309F449C0D5015496ED9176
S1133140FC915597C5011995F501868982FF3EC00A
S11331504A815B816C817D8186859785A089B1894F
S11331609A01AB01280F391F4A1F5B1FC12CD12CB8
S1133170760100E010E060E0C501F2DD27C0D50172
S113318056968C9156978E7F56968C931FC0F50158
S113319086898160868B4A815B816C817D814687CB
S11331A05787608B718B400F511F621F731F68011B
S11331B07901C50142DD0AC0F501868981FD04C09B
S11331C0C5010E94D70302C08E7F868B20E030E0C9
S11331D0A901BE016F5F7F4F809121169091221645
S11331E00E94B507811170CF28960FB6F894DEBF00
S11331F00FBECDBFDF91CF911F910F91FF90EF9044
S1133200DF90CF90BF90AF900895089584B1806807
S113321084B985B1806885B9089583B1806883B91C
S11332200895F4DF2FEF80E792E021508040904032
S1133230E1F700C00000F1DFF5CFE8DF2FEF87EA08
S113324091E6215080409040E1F700C00000E5DFA6
S1133250F5CFAAD081113FC066E070E080E090E035
S11332600E94A410B6D081112DC063E070E080E00C
S113327090E00E94A410D3D090937117809370179C
S1133280F4D080936E1790936F179F938F9388E376
S113329094E09F938F930E94562A809171178F9385
S11332A0809170178F9382E494E09F938F930E9490
S11332B0562A8DB79EB708960FB6F8949EBF0FBED8
S11332C08DBF11C08DE494E09F938F930E94562A82
S11332D00F900F9008C087E794E09F938F930E940C
S11332E0562A0F900F9064E771E080E090E00C9410
S11332F0A410AFDFFECFEF92FF920F93E12CF12CDD
S113330001E020E030E040EC50E060EA74E089E75E
S113331099E10E949F0D0F91FF90EF900895653001
S1133320F1F4FA0180818F7390E0982F882721812E
S1133330822B90930A02809309028281F0E48F9F8A
S1133340C0011124FA01238126952695822B90939E
S113335008028093070281E080933D16089564304B
S113336051F080E090E490930802809307029093D8
S11333700A028093090208950F931F930FE819E13D
S113338020E034E244EF50E060E087E20E94102540
S113339090933F1680933E1621E0892B09F020E09C
S11333A0822F1F910F91089580913E1690913F16A0
S11333B0009759F040E060E070E00E94612584309D
S11333C031F410923D1680E0089582E0089583E080
S11333D0089580913E1690913F16009739F064E06D
S11333E00E94AD25853021F083E0089582E00895A0
S11333F080E008956091090270910A0280E090E0F3
S11334000E94B72720E030E048EC52E40E944528AF
S113341020E038EF4FE756E40C941E270895EADFC6
S113342020E030E040E251E40E9445280E948B27CE
S1133430CB010895609107027091080280E090E04A
S11334400E94B72720E030E045E253E40E9445287B
S113345020E038EF4FE756E40E941E2720E030E0DA
S113346040E252E40C94B9260895E4DF20E030E011
S113347040E251E40E9445280E948627CB0108952A
S11334800F931F93CF93DF931F921F92CDB7DEB795
S11334908C0119822DC0E0917716EC3250F481E052
S11334A08E0F80937716F0E0E755F94E8A8180837A
S11334B002C0109277168A818A30D1F4409177162F
S11334C050E0FA01E955F94E1082415051099E012C
S11334D02F5F3F4F69EA76E180917A1690917B16CF
S11334E00E94C80A898181110E94E2041092771611
S11334F0BE016E5F7F4FC80110D6882361F20F9022
S11335000F90DF91CF911F910F9108950F931F9307
S1133510CF93DF938C01EB0180917A1690917B1607
S11335200E94D509B80180E496E10E94372A2097C9
S113353079F0E0E4F6E101900020E9F7319780E2C8
S113354090E091838083BE0180E496E10E942C2A5E
S1133550E0E4F6E1DF010D900020E9F711978DE03A
S11335609AE011969C938E9312961C9201900020DF
S1133570E9F73197E054F641AE2F80E496E1AC01CF
S11335806A2F80917C1690917D1672D5811111C09D
S113359008E215E020E030E04DE250E063E077E13E
S11335A080917A1690917B160E940C0B83E097E130
S11335B002C080E090E0DF91CF911F910F910895B8
S11335C02F923F924F925F926F927F928F929F922F
S11335D0AF92BF92CF92DF92EF92FF920F931F931D
S11335E0CF93DF935C01FC0101900020E9F7319750
S11335F06F01C81AD90A5C2C0F2EFDE48F2EF7E058
S11336009F2EF02DE12CF12C4C2C3701F40101817B
S11336101281E80109900020E9F72197C01BD10B22
S11336203C2EF9E0CF16D10458F0F4012080FEE0DE
S11336302F1206C0B801C5010E94072A892B09F57B
S1133640442D351408F44C2F50E0B801C5010E94F4
S11336503E2A892B49F4F301EE0FFF1FE60DF71DF7
S1133660E35BF84F20800DC08FEFE81AF80AE3E01F
S11336708E0E911CF1E1EF16F10439F668942224C0
S113368024F8822DDF91CF911F910F91FF90EF903D
S1133690DF90CF90BF90AF909F908F907F906F906E
S11336A05F904F903F902F90089530DF89CF089519
S11336B080917A1690917B160C94D50908958F9277
S11336C09F92AF92CF92EF920F931F93CF93C82FF5
S11336D08B0141E060E070E088EC90E00E94A30977
S11336E090937B1680937A1610937916009378162C
S11336F00F2EF0E48F2EFAE19F2EF02D6894AA2469
S1133700A6F86894CC24C6F8E12C00E023E040E05D
S113371051EE60E070E08C2FDED390937D168093A1
S11337207C16E7E0F1E0808180618083CF911F9176
S11337300F91EF90CF90AF909F908F900895882332
S113374031F0E8E0F1E080818F7E80830895E8E045
S1133750F1E0808180618083089560E070E083ED12
S113376094E0D4DEE3E0F7E101900020E9F731973B
S1133770E350F74181E0759708F080E00895CF9316
S1133780DF93EC0160E070E084EE94E0BFDEE3E000
S1133790F7E101900020E9F7E451F74139F463E0DF
S11337A077E1CE010E94372A80E002C0188281E0CE
S11337B0DF91CF910895FC0101900020E9F79F016A
S11337C0215131092817390729F4BC0182E195E018
S11337D06CCF089589E00895FC0101900020E9F779
S11337E09F01215131092817390729F4BC0181E2CD
S11337F095E05BCF089589E00895FC0101900020D5
S1133800E9F79F01215231092817390729F4BC012E
S113381080E395E04ACF089589E0089560E070E080
S11338208FE695E042CF08950F931F93E82FF0E0C1
S1133830EE0FFF1FE75BF84F6081718188E795E029
S113384034DF811114C008E215E020E030E04DE2DD
S113385050E063E077E180917A1690917B160E94A4
S11338600C0B882321F083E097E1AADE03C083E0F8
S113387097E1A6DE1F910F9108950F931F93CF93A5
S1133880DF931F92CDB7DEB7DB0111969C911197A0
S1133890953108F0B4C0992381F160E070E0272FDE
S11338A030E0462F50E0FD01E40FF51F9281929520
S11338B09F709A3010F0995C01C0905DF901EC564C
S11338C0F94E90832F5F3F4FFD01E40FF51F928166
S11338D09F70492F50E04A30510514F0995C01C0A3
S11338E0905DF901EC56F94E90837E5F6F5F1196FF
S11338F09C911197691798F201C070E0E72FF0E0EE
S1133900EC56F94E10824C91811103C081E895E088
S113391002C083E895E024E936E13F932F931F9298
S11339204F939F938F9387E895E09F938F9386EDB2
S113393096E19F938F930E94992A60E070E086ED50
S113394096E1B3DE0FB6F894DEBF0FBECDBF811192
S113395059C008E215E020E030E04DE250E063E0B9
S113396077E180917A1690917B160E940C0B882344
S113397009F447C083E097E123DE8E3009F042C0AA
S113398087E089838091781690917916892BA9F123
S1133990BE016F5F7F4F83E097E168D180937E160D
S11339A0E981F0E0ED5FF84EDF010D900020E9F7CA
S11339B01197AE1BBF0BAA2391F0BB27CD01019732
S11339C09C0112F42F5F3F4F3595279520937F1666
S11339D0AF014F5F5F4F64E180E896E173D101E08E
S11339E010E020E030E046E150E06EE776E18091BF
S11339F07816909179160E94050A8EE003C084E13E
S1133A0001C080E00F90DF91CF911F910F91089535
S1133A10813019F067E975E002C060E776E08BE970
S1133A2095E043CE08959F938F938CEC95E09F93FC
S1133A308F9386ED96E19F938F930E94992A60E07D
S1133A4070E086ED96E131DE0F900F900F900F90AD
S1133A500F900F9008952F923F924F925F926F9222
S1133A607F928F929F92AF92BF92CF92DF92EF920A
S1133A70FF920F931F93CF93DF93CDB7DEB7A09739
S1133A800FB6F894DEBF0FBECDBF69EF75E085E0D9
S1133A9096E03CDD95DD8111A3C080E2E2E2F2E034
S1133AA0DE01119601900D928A95E1F79E012F5F38
S1133AB03F4F6901E12CF12C0F2EF1E1AF2EF6E01E
S1133AC0BF2EF02D06ED16E10F2EFAE24F2EF6E092
S1133AD05F2EF02D0F2EF1E48F2EF6E09F2EF02DA9
S1133AE00F2EFBE56F2EF6E07F2EF02D3E2C2F2CB3
S1133AF0FF92EF92BF92AF921F930F930E94992A65
S1133B0060E070E0C80102DD5BDD0F900F900F9064
S1133B100F900F900F90811163C032E03E15E8F4CE
S1133B20F60183818F9382818F9381818F9380812A
S1133B308F93FF92EF925F924F921F930F930E9485
S1133B40992A60E070E0C801E1DC3ADD0FB6F89430
S1133B50DEBF0FBECDBF811143C02F923F929F9213
S1133B608F921F930F930E94992A60E070E0C8011E
S1133B70CDDC26DD0F900F900F900F900F900F90DB
S1133B8081112EC02F923F927F926F921F930F93B9
S1133B900E94992A60E070E0C801B8DC11DD0F9042
S1133BA00F900F900F900F900F90811119C03FEF5D
S1133BB0E31AF30A84E0C80ED11C98E0E916F10474
S1133BC009F094CF60E070E083E796E09FDCF8DCD6
S1133BD0811106C060E070E084E896E097DCF0DCD8
S1133BE0A0960FB6F894DEBF0FBECDBFDF91CF9184
S1133BF01F910F91FF90EF90DF90CF90BF90AF9007
S1133C009F908F907F906F905F904F903F902F90F8
S1133C100895EF92FF920F931F93CF93DF93EC01DC
S1133C208B017A0181E0F4DE81110DC0CE01D4DD77
S1133C30811109C0C801E1DD811105C0C701BBDDE7
S1133C40811101C0EBDDDF91CF911F910F91FF90A6
S1133C50EF90089590E0FC01EE0FFF1F8E0F9F1F61
S1133C60FC01E35BF84F818192810895DC010097A8
S1133C7029F1FB012081FC0101900020E9F7319733
S1133C80E81BF90B822F90E0E817F907C8F080E0F1
S1133C9008C0880F382F330F330F830F8053890FD9
S1133CA02F5FFD01E20FF11D908130ED390F3A30A5
S1133CB010F49111EECFFB012083089580E0089564
S1133CC080E008950F931F93CF93DF93DC01EA0103
S1133CD02097E1F1FA0101900020E9F73197E41B04
S1133CE0F50B329710F532C08D01040F151F30E02B
S1133CF0AE01420F531FFA019081913428F097537B
S1133D00592F5295507F03C0592F5295507F2C0F35
S1133D103D1FF9019181913410F0975301C09053E4
S1133D20950FF80190838F5F01C080E0282F220F48
S1133D30482F50E0FE0101900020E9F73197EC1B79
S1133D40FD0B4E175F0710F48613CECFDF91CF9192
S1133D501F910F91089580913317860F8093331725
S1133D6090913617913079F028F09230A9F0933081
S1133D7019F108956F3F09F048C01092331781E09C
S1133D80809336170895663809F03FC010923217B1
S1133D9082E0809336170895E091321781E08E0F08
S1133DA080933217F0E0E05DF84E6083823069F56D
S1133DB083E08093361708959091321721E0290FFC
S1133DC020933217963009F581110EC0E0E3F7E134
S1133DD0808190E0982F88272181820F911D9093F4
S1133DE038178093371704C010923817109237177A
S1133DF010923617E0913417F0913517309729F067
S1133E008091371790913817199508958F929F9242
S1133E10AF92CF92EF920F930F2EFBEA8F2EFEE11B
S1133E209F2EF02D6894AA24A4F86894CC24C4F896
S1133E30E12C00E023E040E855E260E070E04BD084
S1133E4090933A17809339170F91EF90CF90AF90DA
S1133E509F908F900895CF93DF93CDB7DEB72997C6
S1133E600FB6F894DEBF0FBECDBF89E0E2E4F2E006
S1133E709E012F5F3F4FD90101900D928A95E1F782
S1133E8010923817109237178091391790913A177A
S1133E90009731F0422F532F69E0EAD080E001C04F
S1133EA082E029960FB6F894DEBF0FBECDBFDF9136
S1133EB0CF91089520913717309138172115310586
S1133EC029F4FC011182108281E00895FC01318300
S1133ED0208380E008952F923F924F925F926F92D9
S1133EE07F928F929F92AF92CF92EF92FF920F9315
S1133EF01F93CF93DF93CDB7DEB7F82E2A013B0192
S1133F0088E090E00E94D2288C018F2D90E0FC0183
S1133F10EE0FFF1FE55CF84E1183008301151105B8
S1133F2009F469C0880F991FFC01E55FFD4F80818A
S1133F309181D8018D939C938C2D90E0880F991FCB
S1133F40880F991F0E94D2281C0186E090E00E94ED
S1133F50D2287C014C2DB101F0D6F801F582E4821F
S1133F608A2D90E0880F991F880F991F0E94D228EC
S1133F701C0186E090E00E94D2287C014A2DB10108
S1133F80DCD6D8011396FC92EE92129717969C9267
S1133F908E921697FFB6F894ED91FC91119736978F
S1133FA08081826080838D909C90C301B201DFD7B1
S1133FB020E030E040E051E40E9445289B01AC0140
S1133FC060E074E284E79BE439D720E030E040E825
S1133FD05FE3CFD6A0D7F40132976083D801ED9187
S1133FE0FC911197359788E98083ED91FC91349782
S1133FF086E08083FFBEC801DF91CF911F910F91AE
S1134000FF90EF90CF90AF909F908F907F906F90A4
S11340105F904F903F902F900895CF93DF93DC01F2
S1134020892B01F11296ED91FC9113979381828172
S11340302581981B922384819817B1F0838126955A
S11340402823C081D181C20FD11D68838F5F9581E0
S113405089238383ED91FC913597808180628083ED
S113406080E003C081E001C082E0DF91CF91089538
S1134070EF92FF920F931F93CF93DF937C010097EE
S113408009F441C0DC011296ED91FC9113979381E0
S11340908281981B858198238481891B8617A8F1C6
S11340A0662341F1842F952FDC016150462F50E0A7
S11340B04F5F5F4F480F591FE701EA81FB819381EE
S11340C082812581981B92238481981779F08C91A1
S11340D0938126952923608171818B01020F111D23
S11340E0E80188839F5F8581982393831196A417A1
S11340F0B50711F7D701ED91FC9135978081806266
S1134100808380E003C081E001C082E0DF91CF9131
S11341101F910F91FF90EF9008950097D1F0DC016B
S11341201496ED91FC91159793818281981799F0DB
S11341309281858186958923A081B181A80FB11DC3
S11341408C91DB018C939F5F85819823928380E01F
S1134150089581E0089583E008951F920F920FB6A9
S11341600F9211240BB60F922F933F934F935F93AB
S11341706F937F938F939F93AF93BF93CF93DF936B
S1134180EF93FF93A0913B17B0913C17109711F157
S11341906091C6001496ED91FC91159793818281EC
S11341A02581981B92238481981761F08381269539
S11341B02823C081D181C20FD11D68838F5F95816F
S11341C0892383831696ED91FC911797309711F00C
S11341D0CD011995FF91EF91DF91CF91BF91AF91EF
S11341E09F918F917F916F915F914F913F912F910B
S11341F00F900BBE0F900FBE0F901F9018951F923B
S11342000F920FB60F9211240BB60F922F938F9328
S11342109F93AF93BF93EF93FF93E0913B17F0917C
S11342203C173097B9F00280F381E02D93818281AD
S11342309817B1F092818581282F26952923A08192
S1134240B181A20FB11D2C919F5F8923828320939A
S1134250C6000BC0E1ECF0E080818F7D808305C057
S1134260E1ECF0E080818F7D8083FF91EF91BF913D
S1134270AF919F918F912F910F900BBE0F900FBE16
S11342800F901F9018951F920F920FB60F92112442
S11342900BB60F922F933F934F935F936F937F933C
S11342A08F939F93AF93BF93CF93DF93EF93FF933A
S11342B0A0913D17B0913E17109711F16091CE0077
S11342C01496ED91FC911597938182812581981B19
S11342D092238481981761F0838126952823C081D5
S11342E0D181C20FD11D68838F5F95818923838318
S11342F01696ED91FC911797309711F0CD01199511
S1134300FF91EF91DF91CF91BF91AF919F918F91E9
S11343107F916F915F914F913F912F910F900BBEC1
S11343200F900FBE0F901F9018951F920F920FB60B
S11343300F9211240BB60F922F938F939F93AF93E9
S1134340BF93EF93FF93E0913D17F0913E173097A1
S1134350B9F00280F381E02D938182819817B1F046
S113436092818581282F26952923A081B181A20FCE
S1134370B11D2C919F5F892382832093CE000BC0B3
S1134380E9ECF0E080818F7D808305C0E9ECF0E00A
S113439080818F7D8083FF91EF91BF91AF919F9139
S11343A08F912F910F900BBE0F900FBE0F901F9007
S11343B018951F920F920FB60F9211240BB60F92FD
S11343C02F933F934F935F936F937F938F939F9319
S11343D0AF93BF93CF93DF93EF93FF93A0913F17D6
S11343E0B0914017109711F16091D6001496ED9199
S11343F0FC911597938182812581981B9223848156
S1134400981761F0838126952823C081D181C20F3A
S1134410D11D68838F5F9581892383831696ED91DF
S1134420FC911797309711F0CD011995FF91EF91F9
S1134430DF91CF91BF91AF919F918F917F916F91B8
S11344405F914F913F912F910F900BBE0F900FBE34
S11344500F901F9018951F920F920FB60F92112470
S11344600BB60F922F938F939F93AF93BF93EF93BA
S1134470FF93E0913F17F09140173097B9F0028015
S1134480F381E02D938182819817B1F09281858127
S1134490282F26952923A081B181A20FB11D2C912B
S11344A09F5F892382832093D6000BC0E1EDF0E067
S11344B080818F7D808305C0E1EDF0E080818F7D78
S11344C08083FF91EF91BF91AF919F918F912F9135
S11344D00F900BBE0F900FBE0F901F9018951F9258
S11344E00F920FB60F9211240BB60F922F933F9396
S11344F04F935F936F937F938F939F93AF93BF93E8
S1134500CF93DF93EF93FF93A0914117B09142179C
S1134510109711F1609136011496ED91FC91159765
S1134520938182812581981B92238481981761F05D
S1134530838126952823C081D181C20FD11D688330
S11345408F5F9581892383831696ED91FC9117974C
S1134550309711F0CD011995FF91EF91DF91CF9133
S1134560BF91AF919F918F917F916F915F914F9187
S11345703F912F910F900BBE0F900FBE0F901F9085
S113458018951F920F920FB60F9211240BB60F922B
S11345902F938F939F93AF93BF93EF93FF93E091E8
S11345A04117F09142173097B9F00280F381E02D62
S11345B0938182819817B1F092818581282F269565
S11345C02923A081B181A20FB11D2C919F5F892362
S11345D08283209336010BC0E1E3F1E080818F7D7B
S11345E0808305C0E1E3F1E080818F7D8083FF91CA
S11345F0EF91BF91AF919F918F912F910F900BBE2F
S11346000F900FBE0F901F901895CF93DF931F92BA
S1134610CDB7DEB7BE016F5F7F4F80914317909196
S113462044177BDD8111F6CF898190E00F90DF91F3
S1134630CF910895682F8091431790914417EDDC32
S113464080E090E008958F929F92AF92CF92EF9284
S11346500F93812C912C6894AA24A7F86894CC24F5
S1134660C7F8E12C00E023E040E051EE60E070E0A8
S113467032DC9093441780934317E6E7F7E183E134
S113468092E091838083938382830F91EF90CF9004
S1134690AF909F908F90089590E0FC01EE0FFF1F64
S11346A0E80FF91FEE0FFF1FEB5BF84E238121117A
S11346B01FC09C01220F331FF901E80FF91FEE0FF1
S11346C0FF1FEB5BF84EA081B1814C91F901E80F1B
S11346D0F91FEE0FFF1FEB5BF84E81E090E00280C4
S11346E002C0880F991F0A94E2F7842B8C930895D3
S11346F0FC01EE0FFF1FDF01A80FB91FAA0FBB1F9C
S1134700AB5BB84E0D90BC91A02D2C91E80FF91F16
S1134710EE0FFF1FEB5BF84E81E090E0028002C0D9
S1134720880F991F0A94E2F7809582238C93089549
S113473090E0FC01EE0FFF1FE80FF91FEE0FFF1FC3
S1134740EB5BF84E2381211120C09C01220F331F03
S1134750F901E80FF91FEE0FFF1FEB5BF84EA08184
S1134760B1814C91F901E80FF91FEE0FFF1FEB5BCC
S1134770F84E81E090E0028002C0880F991F0A94ED
S1134780E2F7809584238C930895FC01EE0FFF1FBC
S1134790DF01A80FB91FAA0FBB1FAB5BB84E0D906A
S11347A0BC91A02D2C91E80FF91FEE0FFF1FEB5BBE
S11347B0F84E81E090E0028002C0880F991F0A94AD
S11347C0E2F7822B8C930895CC24C394D12C689463
S11347D0BB24B2F8C5E4D7E110E08C81813081F0CC
S11347E018F1823061F5E881F9812081C6010A80DF
S11347F002C0880F991F0A94E2F7822780831FC0A2
S11348008D818F5F863010F48D8319C01D82E881FD
S1134810F9812081C6010A8002C0880F991F0A9479
S1134820E2F7822780830BC00D81002329F0812FBA
S11348307FDF01500D8303C0BC82812F2DDF1F5FFA
S11348402696143051F66CE070E080E090E00E940F
S1134850A410C0CFEF92FF920F931F93CF93DF93D7
S1134860082F80E487B9C5E4D7E10F2EF8E2EF2ED4
S1134870F12CF02DF982E88286E08A831B8214E011
S11348801C8380E009DF80E887B9FF82EE8287E03D
S1134890888719861A8781E0FFDE80E283BB84E380
S11348A090E09D878C8785E08E871F86188B82E039
S11348B0F3DE80E18093010182E091E09B8B8A8B9F
S11348C01C8B1D8A1E8B83E0E7DEE12CF12C20E09B
S11348D030E040EC50E060E877E084EE93E20E9440
S11348E09F0DDF91CF911F910F91FF90EF9008954D
S11348F0CF93DF9390E0FC01EE0FFF1FDF01A80FC1
S1134900B91FAA0FBB1FAB5BB84ECD91DC911197B9
S1134910488121E030E012960C90129702C0220FD9
S1134920331F0A94E2F724272883FD0181E084835E
S1134930DF91CF910895CF93DF9390E0FC01EE0FC8
S1134940FF1FDF01A80FB91FAA0FBB1FAB5BB84E37
S1134950CD91DC911197488121E030E012960C90C2
S1134960129702C0220F331F0A94E2F724272883E8
S1134970FD0182E08483DF91CF910895282F30E0F8
S1134980F901EE0FFF1FE20FF31FEE0FFF1FEB5BAA
S1134990F84E93E09483CCCE0895282F30E0F901AB
S11349A0EE0FFF1FE20FF31FEE0FFF1FEB5BF84E3E
S11349B094E0948371CE089590E0FC01EE0FFF1F04
S11349C0DF01A80FB91FAA0FBB1FAB5BB84E26E0CF
S11349D015962C931597FD011482089590E0FC011F
S11349E0EE0FFF1FDF01A80FB91FAA0FBB1FAB5BA0
S11349F0B84E15961C921597FD0114820895809166
S1134A006B1781110CC08CE08093B8008FEF8093FA
S1134A10BB0084E08093BC0081E080936B17089511
S1134A20AF92BF92CF92DF92EF92FF920F931F93B8
S1134A30CF93DF93A82EB62E69017A0184E090E02B
S1134A40B1D3EC01892B61F1A88281E0B81212C0C4
S1134A50C701B60120EA36E841E050E079D3DA0133
S1134A60C9014097A109B109B695A795979587956E
S1134A70898311C0C701B60120E83AE146E050E05D
S1134A8067D3DA01C9014097A109B109B695A79581
S1134A909795879589831B830A838C2F9D2F02C04A
S1134AA080E090E0DF91CF911F910F91FF90EF9004
S1134AB0DF90CF90BF90AF9008958091BC0081703B
S1134AC00895FF920F931F93CF93DF930097D1F133
S1134AD04A30D0F5F42E8B01EC01EFDF811136C0A2
S1134AE080915E1790915F17C817D90741F087DF4F
S1134AF089818093B800D0935F17C0935E1781E0DB
S1134B008F0D809360178881880F80936117FF2031
S1134B1089F0F801A2E6B7E14FEF4F0D642F70E082
S1134B20CB010196B801680F791F81918D93E61727
S1134B30F707D9F788EF8093210285EA8093BC00B8
S1134B4084E005C086E003C087E001C082E0DF9115
S1134B50CF911F910F91FF9008951F93CF93DF93EF
S1134B60009729F16B3028F5162FEC01A6DF81118F
S1134B7022C080915E1790915F17C817D90741F042
S1134B803EDF89818093B800D0935F17C0935E178E
S1134B90109360178881880F81608093611788EF74
S1134BA08093210285EA8093BC0085E005C086E0FD
S1134BB003C087E001C082E0DF91CF911F91089587
S1134BC01F920F920FB60F9211240BB60F922F93D0
S1134BD03F934F935F936F937F938F939F93AF9381
S1134BE0BF93EF93FF93E091B9008E2F90E0FC0107
S1134BF03897E135F10508F075C08827E458FF4F70
S1134C008F4FC8C210925D17E0915D1780916017B5
S1134C10E81770F481E08E0F80935D17F0E0EF5990
S1134C20F84E80818093BB0085E88093BC0072C0FD
S1134C3084E98093BC0080915E1790915F17DC013A
S1134C401296ED91FC911397309709F463C020E01C
S1134C5040E050E064E019955DC0E0915D1781E0AB
S1134C608E0F80935D178091BB00F0E0EF59F84EF2
S1134C7080838091B900803411F410925D172091E3
S1134C805D1730E08091601790E00197281739078D
S1134C9024F485EC8093BC003DC085E88093BC007F
S1134CA039C08091BB00E0915D17F0E0EF59F84EF8
S1134CB0808384E98093BC0080915E1790915F1794
S1134CC0DC011296ED91FC911397309719F1209124
S1134CD0601741E657E165E019951CC085EA8093A9
S1134CE0BC0018C08091B9008093210284E08093B5
S1134CF0BC0080915E1790915F17DC011296ED91D4
S1134D00FC911397309731F020E040E050E060913F
S1134D1021021995FF91EF91BF91AF919F918F91CE
S1134D207F916F915F914F913F912F910F900BBEA7
S1134D300F900FBE0F901F901895FC01411101C0F8
S1134D4052D3842F90E09C01215031098223932374
S1134D50892B09F048D3413808F045D312821382D5
S1134D604483440F415045837183608380E090E025
S1134D7008955058BB27AA270ED04DC13ED130F01C
S1134D8043D120F031F49F3F11F41EF433C10EF4EB
S1134D90E095E7FB29C1E92F4FD180F3BA176207E9
S1134DA073078407950718F071F49EF567C10EF434
S1134DB0E0950B2EBA2FA02D0B01B90190010C0127
S1134DC0CA01A0011124FF27591B99F0593F50F43F
S1134DD0503E68F11A16F040A22F232F342F442797
S1134DE0585FF3CF469537952795A795F04053958F
S1134DF0C9F77EF41F16BA0B620B730B840BBAF05F
S1134E009150A1F0FF0FBB1F661F771F881FC2F7C9
S1134E100EC0BA0F621F731F841F48F487957795DD
S1134E206795B795F7959E3F08F0B3CF9395880F94
S1134E3008F09927EE0F9795879508950CD0EBC04D
S1134E40E3D040F0DAD030F021F45F3F19F0CCC069
S1134E50511115C1CFC0F0D098F39923C9F355234C
S1134E60B1F3951B550BBB27AA2762177307840759
S1134E7038F09F5F5F4F220F331F441FAA1FA9F30F
S1134E8033D00E2E3AF0E0E830D091505040E69501
S1134E90001CCAF729D0FE2F27D0660F771F881F62
S1134EA0BB1F261737074807AB07B0E809F0BB0B51
S1134EB0802DBF01FF2793585F4F2AF09E3F510575
S1134EC068F092C0DCC05F3FECF3983EDCF386955B
S1134ED077956795B795F7959F5FC9F7880F911DEB
S1134EE09695879597F90895E1E0660F771F881FD7
S1134EF0BB1F621773078407BA0720F0621B730B8A
S1134F00840BBA0BEE1F88F7E095089504D06894DB
S1134F10B111B5C0089598D088F09F5790F0B92F7B
S1134F209927B751A0F0D1F0660F771F881F991FFA
S1134F301AF0BA95C9F712C0B13081F09FD0B1E030
S1134F4008959CC0672F782F8827B85F39F0B93F40
S1134F50CCF3869577956795B395D9F73EF49095FC
S1134F608095709561957F4F8F4F9F4F0895E8947A
S1134F7009C097FB3EF490958095709561957F4F9D
S1134F808F4F9F4F9923A9F0F92F96E9BB2793954B
S1134F90F695879577956795B795F111F8CFFAF45B
S1134FA0BB0F11F460FF1BC06F5F7F4F8F4F9F4F8C
S1134FB016C0882311F096E911C0772321F09EE8EA
S1134FC0872F762F05C0662371F096E8862F70E050
S1134FD060E02AF09A95660F771F881FDAF7880F2A
S1134FE09695879597F9089597F99F6780E870E0FB
S1134FF060E008959FEF80EC089500240A9416164B
S1135000170618060906089500240A9412161306B2
S1135010140605060895092E0394000C11F4882340
S113502052F0BB0F40F4BF2B11F460FF04C06F5F5C
S11350307F4F8F4F9F4F089557FD9058440F551F32
S113504059F05F3F71F04795880F97FB991F61F006
S11350509F3F79F087950895121613061406551F7D
S1135060F2CF4695F1DF08C0161617061806991FE9
S1135070F1CF86957105610508940895E894BB27DE
S113508066277727CB0197F908950BD0C4CFB5DFF6
S113509028F0BADF18F0952309F0A6CFABCF11247E
S11350A0EECFCADFA0F3959FD1F3950F50E0551FC3
S11350B0629FF001729FBB27F00DB11D639FAA2769
S11350C0F00DB11DAA1F649F6627B00DA11D661FB8
S11350D0829F2227B00DA11D621F739FB00DA11DD9
S11350E0621F839FA00D611D221F749F3327A00D93
S11350F0611D231F849F600D211D822F762F6A2F2F
S113510011249F5750408AF0E1F088234AF0EE0FB3
S1135110FF1FBB1F661F771F881F91505040A9F7C0
S11351209E3F510570F060CFAACF5F3FECF3983EED
S1135130DCF3869577956795B795F795E7959F5F27
S1135140C1F7FE2B880F911D9695879597F90895C1
S1135150A1E21A2EAA1BBB1BFD010DC0AA1FBB1F77
S1135160EE1FFF1FA217B307E407F50720F0A21BE9
S1135170B30BE40BF50B661F771F881F991F1A9456
S113518069F760957095809590959B01AC01BD0180
S1135190CF010895EE0FFF1F881F8BBF0790F69174
S11351A0E02D19940F931F93CF93DF9382309105D1
S11351B010F482E090E0E0917417F091751720E00C
S11351C030E0A0E0B0E0309719F1408151810281D4
S11351D0138148175907C8F08417950769F4109785
S11351E031F012960C93129713961C9327C00093D8
S11351F074171093751722C02115310519F0421741
S1135200530718F49A01BD01EF01DF01F801DBCF68
S113521021153105F9F0281B390B2430310580F4B0
S11352208A819B816115710521F0FB01938382833F
S113523004C09093751780937417FE01329644C08E
S1135240FE01E20FF31F81939193225031093983B8
S113525028833AC02091721730917317232B41F49D
S11352602091020230910302309373172093721736
S113527020910002309101022115310541F42DB72E
S11352803EB74091040250910502241B350BE09176
S11352907217F0917317E217F307A0F42E1B3F0B5C
S11352A02817390778F0AC014E5F5F4F2417350794
S11352B048F04E0F5F1F50937317409372178193FA
S11352C0919302C0E0E0F0E0CF01DF91CF911F9114
S11352D00F910895CF93DF93009709F481C0FC01E7
S11352E0329713821282A0917417B0917517109798
S11352F081F420813181820F931F209172173091A4
S113530073172817390751F5F0937317E093721741
S113531067C0ED0120E030E0CE17DF0740F44A819A
S11353205B819E0141155105F1F0EA01F5CFD3836C
S1135330C28340815181840F951FC817D90759F43E
S113534088819981840F951F0296918380838A8135
S11353509B81938382832115310529F4F09375177A
S1135360E09374173DC0E901FB83EA8349915991A5
S1135370C40FD51FEC17FD0761F480819181840F60
S1135380951F0296E90199838883828193819B8387
S11353908A83E0E0F0E012968D919C911397009738
S11353A019F0FD01DC01F7CF8D919C9111979D01BE
S11353B02E5F3F4F820F931F209172173091731706
S11353C02817390769F4309729F410927517109249
S11353D0741702C013821282B0937317A0937217CA
S11353E0DF91CF91089581E090E0F8947DC3FB01B3
S11353F0DC0102C001900D9241505040D8F708954D
S1135400DC0101C06D9341505040E0F70895FB0169
S113541051915523B1F0BF01DC01052E4D91442378
S113542069F010D0D9F7CD010190002049F04D91D9
S1135430411108D0C9F3FB014111EECF81E090E0A6
S113544001970895402539F0403229F440294B57FB
S1135450465E08F018940895FB01DC010D900020CD
S1135460E9F7119701900D920020E1F70895FB01EF
S1135470DC0101900D920020E1F70895FB01DC01AD
S11354804150504088F08D9181341CF08B350CF4E0
S1135490805E619161341CF06B350CF4605E861B98
S11354A0611171F3990B0895881BFCCFCF93DF939F
S11354B0CDB7DEB7AE014A5F5F4FFA0161917191DA
S11354C0AF01809178179091791761D0DF91CF91D6
S11354D008950F931F93CF93DF93E0917817F09182
S11354E07917238121FF1BC08C01D0E0C0E0F801B3
S11354F081918F016091781770917917DB0118966B
S1135500ED91FC911997882331F01995892B79F342
S1135510DFEFCFEFECCF8AE01995892B19F08FEFED
S11355209FEF02C08D2F9C2FDF91CF911F910F9180
S113553008950F931F93CF93DF93CDB7DEB72E97C4
S11355400FB6F894DEBF0FBECDBF0E891F8986E06B
S11355508C831A8309838FEF9FE79E838D83AE012B
S1135560465E5F4F688D798DCE01019610D0EF8134
S1135570F885E00FF11F10822E960FB6F894DEBF67
S11355800FBECDBFDF91CF911F910F9108952F9240
S11355903F924F925F926F927F928F929F92AF92BF
S11355A0BF92CF92DF92EF92FF920F931F93CF930C
S11355B0DF93CDB7DEB72B970FB6F894DEBF0FBEDF
S11355C0CDBF6C017B018A01FC01178216828381A5
S11355D081FFBFC1CE0101963C01F6019381F70121
S11355E093FD859193FF81917F01882309F4ADC1D7
S11355F0853239F493FD859193FF81917F01853242
S113560021F4B60190E0D6D1E8CF912C212C312C95
S1135610FFE1F315D8F08B3279F038F4803279F069
S11356208332A1F4232D20611DC08D3261F08033BB
S113563069F4232D216016C0832D8260382EE32D5A
S1135640E4603E2E2AC0F32DF8601DC037FC2DC047
S113565020ED280F2A3040F08E32B9F436FC75C1A3
S1135660232D2064322E19C036FE06C08AE0989E8F
S1135670200D1124922E11C0EAE02E9E200D11243B
S1135680222EF32DF0623F2E08C08C3621F4832D98
S11356908068382E02C0883641F4F70193FD859165
S11356A093FF81917F018111B3CF982F9F7D9554F2
S11356B0933028F40C5F1F4F9FE399830DC083360A
S11356C031F0833771F0833509F055C020C0F801FB
S11356D0808189830E5F1F4F88248394912C53010A
S11356E012C02801F2E04F0E511CF801A080B180D5
S11356F036FE03C0692D70E002C06FEF7FEFC50175
S11357004ED14C018201F32DFF773F2E15C02801A5
S113571022E0420E511CF801A080B18036FE03C085
S1135720692D70E002C06FEF7FEFC5012DD14C01F0
S1135730F32DF0683F2E820133FC19C0822D90E0D6
S113574088169906A0F4B60180E290E033D12A9439
S1135750F5CFF50137FC859137FE81915F01B601E4
S113576090E028D121102A9421E0821A9108811412
S1135770910479F7E1C0843611F0893639F5F801DE
S113578037FE07C060817181828193810C5F1F4F56
S113579008C060817181072E000C880B990B0E5F85
S11357A01F4FF32DFF763F2E97FF09C090958095EC
S11357B0709561957F4F8F4F9F4FF0683F2E2AE081
S11357C030E0A30133D1882E861844C0853731F4E4
S11357D0232D2F7EB22E2AE030E025C0932D997F11
S11357E0B92E8F36C1F018F4883579F0AEC0803701
S11357F019F0883721F0A9C0E92FE061BE2EB4FE6C
S11358000DC0FB2DF460BF2E09C034FE0AC0292F41
S11358102660B22E06C028E030E005C020E130E06A
S113582002C020E132E0F801B7FE07C06081718157
S1135830828193810C5F1F4F06C06081718180E07B
S113584090E00E5F1F4FA301F1D0882E8618FB2D28
S1135850FF773F2E36FE0DC0232D2E7FA22E8914F6
S113586058F434FE0BC032FC09C0832D8E7EA82E62
S113587005C0B82CA32C03C0B82C01C0B92CA4FEBD
S11358800FC0FE01E80DF11D8081803321F49A2DB3
S1135890997EA92E09C0A2FE06C0B394B39404C095
S11358A08A2D867809F0B394A3FC10C0A0FE06C02C
S11358B0B21480F4280C922C9B180DC0B21458F426
S11358C0B60180E290E076D0B394F8CFB21418F425
S11358D02B1802C0982C212CA4FE0FC0B60180E323
S11358E090E068D0A2FE16C0A1FC03C088E790E057
S11358F002C088E590E0B6010CC08A2D867851F08C
S1135900A1FE02C08BE201C080E2A7FC8DE2B601D9
S113591090E050D0891430F4B60180E390E04AD08E
S11359209A94F8CF8A94F301E80DF11D8081B601B1
S113593090E040D08110F6CF222009F44ECEB6017B
S113594080E290E037D02A94F7CFF60186819781E0
S113595002C08FEF9FEF2B960FB6F894DEBF0FBEF9
S1135960CDBFDF91CF911F910F91FF90EF90DF900A
S1135970CF90BF90AF909F908F907F906F905F90EB
S11359804F903F902F900895FC0105906150704016
S11359900110D8F7809590958E0F9F1F0895FC01F4
S11359A06150704001900110D8F7809590958E0F4A
S11359B09F1F08950F931F93CF93DF93FB012381C0
S11359C021FD03C08FEF9FEF2CC022FF16C046813C
S11359D05781248135814217530744F4A081B18152
S11359E09D012F5F3F4F318320838C932681378124
S11359F02F5F3F4F3783268314C08B01EC01FB01DB
S1135A000084F185E02D1995892BE1F6D8011696CD
S1135A108D919C911797019617969C938E93169748
S1135A20CE01DF91CF911F910F910895FA01AA271A
S1135A30283051F1203181F1E8946F936E7F6E5FCD
S1135A407F4F8F4F9F4FAF4FB1E03ED0B4E03CD07B
S1135A50670F781F891F9A1FA11D680F791F8A1F5E
S1135A60911DA11D6A0F711D811D911DA11D20D0C5
S1135A7009F468943F912AE0269F11243019305D7F
S1135A803193DEF6CF010895462F4770405D419370
S1135A90B3E00FD0C9F7F6CF462F4F70405D4A33BD
S1135AA018F0495D31FD4052419302D0A9F7EACF85
S1135AB0B4E0A6959795879577956795BA95C9F7B4
S1135AC000976105710508959B01AC010A2E0694A7
S1135AD05795479537952795BA95C9F7620F731F60
S10F5AE0841F951FA01D0895F894FFCFAB
S1135AEC00007C1720000900400040C600CE00D600
S1135AFC00360100000003000000001A23052300F7
S1135B0C00F8A027BE33E034C1332042C43360E52F
S1135B1CAE33A0F2B133E0FFB433200DB833601AC6
S1135B2CBB33FF0186000000000079FF0179A0005F
S1135B3C000000E6FF0179000000000086FF0187E9
S1135B4C000000000078FF01880000000000004302
S1135B5C4F32204D4541535552494E4720464149F9
S1135B6C4C454400434F323A2025640A00434F32DB
S1135B7C00466163746F72795265736574203E25B7
S1135B8C733C0A00436F6E66696775726520746FA7
S1135B9C204555383638203E25733C0A0047657439
S1135BAC204857455549203E25733C3A2025730A15
S1135BBC00536574204465764555493A2025732075
S1135BCC3E25733C0A004641313546363430344167
S1135BDC443244373746383738353134343033432C
S1135BEC3734323244440046324444453245383228
S1135BFC3644453942413500536574204F54414174
S1135C0C204964656E7469747920617070455549D6
S1135C1C3A2573206170704B45593A25732064659D
S1135C2C764555493A2573203E25733C0A00536149
S1135C3C7665206D6163203E25733C0A00536574C0
S1135C4C20416461707469766520446174612052EA
S1135C5C6174653A204F4E203E25733C0A0053650F
S1135C6C742052656365697665722044656C61794C
S1135C7C3A202564206D73203E25733C0A004A6F3C
S1135C8C696E204E6574776F726B205472696573FC
S1135C9C4C6566743A2564203E25733C0A005445D1
S1135CAC4D50204245464F52452053454E443A20D0
S1135CBC25640A0048554D4944204245464F5245F7
S1135CCC2053454E443A2025640A0055706C6F618C
S1135CDC64204D657373616765203E25733C0A002F
