S0100000534550345F494F542E73726563AD
S1130000E5C0000004C1000002C1000000C10000FE
S1130010FEC00000FCC00000FAC00000F8C00000F0
S1130020F6C00000F4C00000F2C00000F0C0000000
S1130030DCC30000ECC00000EAC00000E8C000001F
S1130040E6C00000E4C00000E2C00000E0C0000020
S1130050DEC00000DCC00000DAC00000D8C0000030
S1130060D6C000000C94FB230C944D24D0C0000097
S1130070CEC00000CCC00000CAC00000C8C0000050
S1130080C6C00000C4C00000C2C00000C0C0000060
S11300900C9491240C94E324BAC000000C94A82A74
S11300A0B6C00000B4C00000B2C00000B0C0000080
S11300B0AEC00000ACC00000AAC00000A8C0000090
S11300C0A6C00000A4C00000A2C000000C94272514
S11300D00C9479259CC000000C94BD250C940F262B
S11300E096C000009F189F189F18D618DE18F318A2
S11300F09F189F18D618DE18CA2A3A2B3A2B3A2B87
S11301003A2B3A2B3A2B3A2BCA2A3A2B3A2B3A2B34
S11301103A2B3A2B3A2B3A2BCC2A3A2B3A2B3A2B22
S11301203A2B3A2B3A2B3A2B3A2B3A2B3A2B3A2BA3
S11301303A2B3A2B3A2B3A2BCC2A3A2B3A2B3A2B02
S11301403A2B3A2B3A2B3A2B3A2B3A2B3A2B3A2B83
S11301503A2B3A2B3A2B3A2B362B3A2B3A2B3A2B77
S11301603A2B3A2B3A2B3A2B012B3A2B3A2B3A2B9C
S11301703A2B3A2B3A2B3A2B3A2B3A2B3A2B3A2B53
S11301803A2B3A2B3A2B3A2BF52A3A2B3A2B3A2B89
S11301903A2B3A2B3A2B3A2B192B0E94EF0B8091D6
S11301A01316823008F05BD20E941C19F6CFCF934D
S11301B0DF931F92CDB7DEB7CE0101960E941C16C5
S11301C049810E9411180E946818F6CF11241FBE9D
S11301D0CFEFD1E2DEBFCDBF00E00CBF18E0A0E05E
S11301E0B2E0E8E2F4E600E00BBF02C007900D9233
S11301F0A630B107D9F728E1A6E0B8E001C01D9206
S1130200A231B207E1F70E942E1C0C941232F8CEF0
S1130210E2E1F8E0A6E1B8E0B183A08313821282A0
S1130220EEEBF5E1F0931108E093100813821282CB
S11302301182108288EA9DE013969C938E93129704
S1130240ED93FC9390930D0880930C0890930F0802
S113025080930E0880E090E8909307088093060846
S11302600895CF93DF93EC01A2E1B8E001C0DF0170
S1130270ED91FC911197EC17FD07C8F312968D913F
S11302809C9113979D01280F391FC217D30749F476
S11302902A813B81820F931F13969C938E9312970E
S11302A0ED018A819B819E01280F391FE217F30714
S11302B0C1F42091100830911108E217F30771F08E
S11302C022813381820F931F9B838A83ED91FC915A
S11302D01197808191819983888305C0398328830C
S11302E002C0F983E883CA17DB0711F0CD93DC93CE
S11302F0DF91CF910895EF92FF920F931F93CF93C5
S1130300DF938C010E943A0D80911008909111089E
S1130310892B09F47DDF80910608909107088023DA
S11303209123892B09F076C00115110549F0C80104
S113033004960817190718F000E010E001C08C01BA
S11303400115110509F469C080910E0890910F08F8
S11303508017910708F464C0C0911208D091130863
S1130360E2E1F8E002C0FE01EC018A819B81801782
S1130370910720F4888199810097A9F7809110084A
S113038090911108C817D90709F44DC0E080F18095
S113039084E0E80EF11C88819981918380832A810D
S11303A03B81201B310B2930310548F0CE01800FF1
S11303B0911FFC01338322831B830A8352DF2A812A
S11303C03B8180910E0890910F08821B930B9093B0
S11303D00F0880930E0840910C0850910D08841763
S11303E0950720F490930D0880930C0880910608DB
S11303F090910708282B392B3B832A831982188272
S113040080910A0890910B08019690930B088093B1
S11304100A080BC0E12CF12C08C0E12CF12C05C01A
S1130420E12CF12C02C0E12CF12C0E947A0EE11493
S1130430F10411F40E942819C701DF91CF911F9193
S11304400F91FF90EF9008950F931F93CF93DF9335
S1130450009791F1EC0124974A815B812091060871
S113046030910708BA0162237323672B29F168814D
S11304707981672B09F520953095242335233B8317
S11304802A830E943A0D8A819B8120910E08309123
S11304900F08820F931F90930F0880930E08CE01CC
S11304A0E0DE80910808909109080196909309086C
S11304B0809308080E947A0EDF91CF911F910F91CB
S11304C00895FC010396928381834FEF5FEFBA0195
S11304D04383548365837683908787839287818758
S11304E010820895FC011386128608950F931F93BA
S11304F0CF93DF93EB01088119812A813B810F3F60
S11305004FEF14072407340721F4FC01A185B285B9
S113051011C0DC01139601C0DF011496ED91FC912A
S1130520159740815181628173810417150726074D
S1130530370790F71496ED91FC911597FD83EC83A2
S1130540D783C683BF83AE831596DC93CE9314976B
S11305509B878A87FC0120812F5F2083DF91CF91C5
S11305601F910F910895CF93DF93FC01A285B3856A
S1130570C481D581868197819F838E83C681D781EB
S1130580848195819D838C8311968D919C91129782
S1130590E817F90731F48681978112969C938E931C
S11305A01197138612868C9181508C938C91DF91D4
S11305B0CF910895A89590EC88E10FB6F894A8958A
S11305C0809360000FBE909360000895FC016083E7
S11305D0319770833197108231971082319720E8D8
S11305E02083319710823197108231971082779748
S11305F040833197508386970895DCDFA09181165C
S1130600B0918216CD91CDBFDD91DEBFFF91EF9108
S1130610DF91CF91BF91AF919F918F917F916F9116
S11306205F914F913F912F911F910F91FF90EF9008
S1130630DF90CF90BF90AF909F908F907F906F90FE
S11306405F904F903F902F901F900F900CBE0F9093
S11306500BBE0F900FBE0F90089581E008950F9286
S11306600FB6F8940F920BB60F920CB60F921F921E
S113067011242F923F924F925F926F927F928F92AA
S11306809F92AF92BF92CF92DF92EF92FF920F931D
S11306901F932F933F934F935F936F937F938F9306
S11306A09F93AF93BF93CF93DF93EF93FF93A09167
S11306B08116B09182160DB60D920EB60D920E945F
S11306C0D60FA0918116B0918216CD91CDBFDD9148
S11306D0DEBFFF91EF91DF91CF91BF91AF919F91D9
S11306E08F917F916F915F914F913F912F911F91C6
S11306F00F91FF90EF90DF90CF90BF90AF909F90BD
S11307008F907F906F905F904F903F902F901F90AD
S11307100F900CBE0F900BBE0F900FBE0F9008955C
S11307200F920FB6F8940F920BB60F920CB60F926D
S11307301F9211242F923F924F925F926F927F9259
S11307408F929F92AF92BF92CF92DF92EF92FF92DD
S11307500F931F932F933F934F935F936F937F93C5
S11307608F939F93AF93BF93CF93DF93EF93FF93B5
S1130770A0918116B09182160DB60D920EB60D920F
S113078013BE0E944E0D81110E94D60FA0918116B6
S1130790B0918216CD91CDBFDD91DEBFFF91EF9177
S11307A0DF91CF91BF91AF919F918F917F916F9185
S11307B05F914F913F912F911F910F91FF90EF9077
S11307C0DF90CF90BF90AF909F908F907F906F906D
S11307D05F904F903F902F901F900F900CBE0F9002
S11307E00BBE0F900FBE0F9008959ADF1895DC0191
S11307F053962C915397222341F05A96ED91FC91F4
S11308005B9790818AE0891B089580E008950FB674
S1130810F8940F92FC01868D811102C081E001C021
S113082080E00F900FBE08950FB6F8940F92FC016C
S1130830268D878D281302C081E001C080E00F90CF
S11308400FBE08950F931F93CF93DF93EC01042FF2
S11308501E8D48A141110CC088819981892B09F012
S113086042C08C819D810E946E121D821C8242C0F6
S1130870011117C050E08A819B810E94952E28A106
S11308808A819B81820F911D9B838A832C813D8168
S11308908217930750F1888199819B838A8380E032
S11308A029C050E08E819F810E94952E88A190E0FE
S11308B09195819591092E813F81280F391F3F839E
S11308C02E83488159812417350730F42C813D81CA
S11308D0820F931F9F838E83023049F4112349F0C2
S11308E0115080E007C080E005C080E003C080E0D4
S11308F001C080E01F5F1E8FDF91CF911F910F9188
S11309000895FC0140A14423A9F050E026813781D9
S1130910240F351F3783268384819581281739074F
S113092020F08081918197838683CB0166817781D2
S11309300C94952E08951F93CF93DF93EC010FB67B
S1130940F8940F921AA10BC08B89882351F0CE0121
S113095043960E94941081110E94D01111501116D7
S11309609CF38FEF8AA30F900FBE0FB6F8940F92EB
S113097019A10BC08885882351F0CE0108960E94E6
S1130980941081110E94D011115011169CF38FEF15
S113099089A30F900FBEDF91CF911F910895CF933C
S11309A0DF93EC010FB6F8940F92E881F9818F8DF3
S11309B028A190E030E0829FA001839F500D929F78
S11309C0500D11244E0F5F1F5D834C831E8EFB83DD
S11309D0EA830197289FA001299F500D389F500D4D
S11309E01124CF01840F951F9F838E838FEF89A3DA
S11309F08AA361110BC08885882371F0CE01089603
S1130A000E949410882341F02ADE06C0CE01089685
S1130A1058DDCE01439655DD0F900FBE81E0DF9186
S1130A20CF9108950F931F93F801611103C01183AF
S1130A30008302C051834083878F60A361E0CF01AC
S1130A40AEDF1F910F910895DF92EF92FF920F9303
S1130A501F93CF93DF93F82EE62ED42E869FC001EA
S1130A601124839648DCEC01009741F08C012D2D74
S1130A70AC014D5D5F4F6E2D8F2DD4DFCE01DF9124
S1130A80CF911F910F91FF90EF90DF900895CF9237
S1130A90DF92EF92FF920F931F93CF93DF93CDB723
S1130AA0DEB729970FB6F894DEBF0FBECDBF7C0129
S1130AB06B012E833F834887598710E00FB6F89463
S1130AC00F92F701968D878D981710F00230B1F4CC
S1130AD0402FB601C701B6DEF7019389992341F08F
S1130AE0C70143960E949410882321F0B8DD02C008
S1130AF08111B5DD0F900FBE81E04CC08E819F81C6
S1130B00A885B985892B8A2B8B2B21F40F900FBED6
S1130B1080E040C0111105C0CE0101960E94591118
S1130B2011E00F900FBEA6D70FB6F8940F92F701FD
S1130B3081A18F3F09F411A2F70182A18F3F09F42B
S1130B4012A20F900FBEBE016A5F7F4FCE010196C5
S1130B500E946A11811119C0C70166DE882381F0E1
S1130B604E815F8168857985C70108960E943B1094
S1130B70C701E1DE0E947A0E8111A0CF70DD9ECF05
S1130B80C701D9DE0E947A0E99CFC701D4DE0E9434
S1130B907A0E80E029960FB6F894DEBF0FBECDBF63
S1130BA0DF91CF911F910F91FF90EF90DF90CF9045
S1130BB00895EF92FF920F931F93CF93DF938A01CF
S1130BC0FC01568D378D531710F02230F9F4422F63
S1130BD07801EC011AA18E8DCE0134DE1F3F81F421
S1130BE08B898823A9F0CE0143960E949410882310
S1130BF089F0E114F10481F081E0F70180830DC0F4
S1130C00FF24F394F10EFAA281E007C080E005C04E
S1130C1081E003C081E001C081E0DF91CF911F91A9
S1130C200F91FF90EF900895CF92DF92EF92FF9291
S1130C300F931F93CF93DF93CDB7DEB729970FB6EA
S1130C40F894DEBF0FBECDBF8C016B012E833F83B2
S1130C5048875987E12C0FB6F8940F92F801F68C67
S1130C60FF2099F0B601C8014CDEFA94F801F68E23
S1130C708085882331F0C80108960E949410811160
S1130C80EEDC0F900FBE81E04FC08E819F81A8855E
S1130C90B985892B8A2B8B2B21F40F900FBE80E012
S1130CA043C0E11006C0CE0101960E945911EE2402
S1130CB0E3940F900FBEDED60FB6F8940F92F801AE
S1130CC081A18F3F09F411A2F80182A18F3F09F499
S1130CD012A20F900FBEBE016A5F7F4FCE01019634
S1130CE00E946A11811117C0C80191DD882379F02F
S1130CF04E815F8168857985C80143960E943B10C7
S1130D00C80119DEF7D78111A6CFA9DCA4CFC80189
S1130D1012DEF0D7A0CFC8010EDEECD7C80177DD14
S1130D20882309F498CF80E029960FB6F894DEBFA3
S1130D300FBECDBFDF91CF911F910F91FF90EF9028
S1130D40DF90CF900895EF92FF920F931F93CF936C
S1130D50DF93CDB7DEB729970FB6F894DEBF0FBE89
S1130D60CDBF8C014E835F8368877987E12CF12C9A
S1130D700FB6F8940F92F801868D8823C9F081503C
S1130D80868F80819181892B29F40E943013F80188
S1130D9095838483F8018085882331F0C8010896FF
S1130DA00E94941081115BDC0F900FBE81E06FC034
S1130DB08E819F81A885B985892B8A2B8B2B21F461
S1130DC00F900FBE80E063C0F11006C0CE01019603
S1130DD00E945911FF24F3940F900FBE4BD60FB607
S1130DE0F8940F92F80181A18F3F09F411A2F80140
S1130DF082A18F3F09F412A20F900FBEBE016A5F59
S1130E007F4FCE0101960E946A11811126C0C8014C
S1130E10FEDC8823F1F0F80180819181892B51F463
S1130E200FB6F8940F92848195810E94E711E82E01
S1130E300F900FBE4E815F8168857985C801439606
S1130E400E943B10C80177DD55D7811191CF07DC93
S1130E508FCFC80170DD4ED78BCFC8016CDD4AD768
S1130E60C801D5DC882309F483CFEE2079F00FB6CE
S1130E70F8940F92C801BBDC682FF8018481958136
S1130E800E94C9120F900FBE80E001C080E0299635
S1130E900FB6F894DEBF0FBECDBFDF91CF911F9187
S1130EA00F91FF90EF900895CF93DF93EC010FB66D
S1130EB0F8940F9289A18F3F09F419A28AA18F3F58
S1130EC009F41AA20F900FBE8E8D811104C0CE01B9
S1130ED043960E945210CE012EDDDF91CF910895EA
S1130EE0FC014481558122813381240F351F808187
S1130EF09181B901681B790BCB016417750710F058
S1130F00841B950B08950F93FC018FE0DF011D9264
S1130F108A95E9F7758764875583448337832683E5
S1130F2006870F910895AF92BF92CF92DF92EF920E
S1130F30FF920F931F93CF93DF936C015B017A01B0
S1130F40FC01C281D381048115810C1B1D0B401748
S1130F50510708F48A01F60184859585A801B50135
S1130F608C0F9D1F0E94952E0E151F0558F4A70186
S1130F70401B510BB501600F711FF60184859585E7
S1130F800E94952ECE018E0D9F1DF6012481358180
S1130F908217930710F0821B930BF60193838283CD
S1130FA0C701DF91CF911F910F91FF90EF90DF90D8
S1130FB0CF90BF90AF900895CF92DF92EF92FF92BF
S1130FC00F931F93CF93DF931F921F92CDB7DEB77A
S1130FD07C016B015A83498321153105C1F0FC0161
S1130FE0868580FD08C04217530708F49A013A83A6
S1130FF0298381E00FC02017310758F042E050E008
S1131000BE016F5F7F4FC7018EDF81E003C080E0C8
S113101001C080E0882331F049815A81B601C701BB
S113102082DF02C080E090E00F900F90DF91CF91BB
S11310301F910F91FF90EF90DF90CF900895AF92A2
S1131040BF92CF92DF92EF92FF920F931F93CF93B1
S1131050DF937C015B01E9014217530708F4EA01BD
S1131060209781F1F7010081118184819581801B92
S1131070910B6E018C179D0708F46C01F7016485D0
S11310807585600F711FA601C5010E94952ECC16AF
S1131090DD0658F4AE014C195D09F70164857585C8
S11310A0C5018C0D9D1D0E94952E0C0F1D1FF7016F
S11310B0848195810817190710F0081B190BF70193
S11310C011830083CE01DF91CF911F910F91FF9087
S11310D0EF90DF90CF90BF90AF9008956F927F9282
S11310E08F929F92AF92BF92CF92DF92EF92FF9234
S11310F00F931F93CF93DF931F921F92CDB7DEB749
S11311006C014B015A01790101151105B1F0FC0183
S113111060807180A801BE016F5F7F4F90DF89817D
S11311209A81E01AF10AA816B90630F4F601718220
S11311306082A12CB12C01C05C019701A501B4010E
S1131140C6017DDF0F900F90DF91CF911F910F911A
S1131150FF90EF90DF90CF90BF90AF909F908F90D3
S11311607F906F900895CF92DF92EF92FF920F934A
S1131170CF93DF93EC016B01413011F401E001C026
S113118000E0C114D10419F4CC24C394D12CCE01B1
S11311904096C817D90720F42196ADD87C0102C027
S11311A0E12CF12CE114F10439F09601AE01B70100
S11311B0615F7F4FC701A7DEC701DF91CF910F9118
S11311C0FF90EF90DF90CF9008950F930FB6F894AF
S11311D00F92FC0120853185232B71F42285338500
S11311E0232B61F42681378144815581648575857B
S11311F0068589DE81E003C080E001C080E00F90B5
S11312000FBE0F910895FC01248135818081918165
S1131210820F931F42815381841B950B0197821780
S1131220930710F0821B930B08952F923F924F92D5
S11312305F926F927F928F929F92AF92BF92CF9262
S1131240DF92EF92FF920F931F93CF93DF93CDB76B
S1131250DEB72B970FB6F894DEBF0FBECDBF4C019F
S11312607B876A871A010E831F8328873987FC01CD
S1131270848195810197268520FF0CC02A01F2E024
S11312804F0E511C8415950558F41E821F82188632
S1131290198606C08417950710F02A0101C02C0195
S11312A08E819F81A885B985892B8A2B8B2B09F484
S11312B036C0CE010196E7D70FB6F8940F92C40159
S11312C0A2DF3C018415950538F560E080E090E0EC
S11312D00E9402160E94D411F401938782870F9012
S11312E00FBEAE80BF80C884D984E12CF12C00E00D
S11312F010E0980140E050E0BA0180E00E944213FF
S1131300F40113861286BE016A5F7F4FCE010196F7
S1131310E1D7882389F205C00F900FBE02C0612C6B
S1131320712C6114710419F4C4016DDF3C01820154
S11313309301A1016A857B85C4013EDE6C01892B82
S1131340E9F0C401CDDDF4012681378182179307CA
S1131350A8F090D3F40180859185892B71F0808564
S11313609185E12CF12C00E020E030E0A90160E05F
S11313700E94E913F40111861086BCD4C6012B9691
S11313800FB6F894DEBF0FBECDBFDF91CF911F9192
S11313900F91FF90EF90DF90CF90BF90AF909F9010
S11313A08F907F906F905F904F903F902F90089513
S11313B0AF92BF92CF92DF92EF92FF920F931F935F
S11313C0CF93DF93EC017B015A0169018E8580FF85
S11313D004C08A010E5F1F4F01C08A01CE0113DFD2
S11313E09C01A501B701CE01E7DD5C01892BC1F0A9
S11313F0CE0176DD2E813F818217930788F08885A0
S11314009985892B69F088859985E12CF12C00E078
S113141020E030E0A90160E00E94E01419861886FB
S1131420C501DF91CF911F910F91FF90EF90DF9055
S1131430CF90BF90AF9008954F925F926F927F923A
S11314408F929F92AF92BF92CF92DF92EF92FF92D0
S11314500F931F93CF93DF93EC012B013A015801B3
S113146069018E8580FF05C06894882481F8912CD9
S113147002C0812C912CA114B104C104D10439F10E
S11314800FB6F8940F92CE012BDD7C0188169906D5
S113149040F060E080E090E00E94021685D79987D2
S11314A088870F900FBE8E149F04A0F0E12CF12CBE
S11314B000E010E0980140E050E0BA0180E00E94B2
S11314C0421319861886CE010BDD7C0103C0CE01C0
S11314D007DD7C018E149F04E8F484019701A301C5
S11314E0B201CE01FBDD6C01892BB1F0C3D28A8538
S11314F09B85892B69F08A859B85E12CF12C00E082
S113150020E030E0A90160E00E94E9131B861A86FE
S1131510F1D302C0C12CD12CC601DF91CF911F9110
S11315200F91FF90EF90DF90CF90BF90AF909F907E
S11315308F907F906F905F904F900895E091FB158E
S1131540F091FC15808181110CC08FEF9FEFDC01BD
S11315508093C5159093C615A093C715B093C8156D
S11315600895E091FB15F091FC150780F085E02DBE
S113157080819181A281B3818093C5159093C61512
S1131580A093C715B093C8150895CF93DF93EC01CA
S11315908B8D9C8D0E942402CE010E942402DF9137
S11315A0CF9108954F925F926F927F928F929F9204
S11315B0AF92BF92CF92DF92EF92FF920F93CF93AD
S11315C0DF932C015B014A013901E60165EA70E011
S11315D08B8D9C8D0E949E2E8B8D9C8D21E0821A7A
S11315E09108880E991EA114B10489F415C0822FA4
S11315F090E0F501E80FF91F3081DE01A80FB91F53
S11316005D963C938081882329F02F5F01C020E000
S1131610203168F31CA601C01D8E0A3008F009E0D1
S11316200A8F0DA71EA6CE0102960E947202CE0159
S11316300E960E947202DB87CA878AE090E0A0E0DF
S1131640B0E0801B9109A109B1098E879F87A88BFF
S1131650B98BDF8BCE8B84E0FE01BF96DF011D9238
S11316608A95E9F71BAAA301B201C4010E94E6020C
S113167099838883E114F10419F0F701D183C083BD
S1131680DF91CF910F91FF90EF90DF90CF90BF90BB
S1131690AF909F908F907F906F905F904F90089540
S11316A0CF93C0E009C02BE0C29FC00111248D5E1E
S11316B0994E0E946102CF5FCA30A8F388E096E198
S11316C00E9461028DEF95E10E9461028EEE95E128
S11316D00E94610283EE95E10E94610287ED95E12B
S11316E00E94610288E096E19093FC158093FB15BB
S11316F08DEF95E19093FA158093F915CF910895A4
S1131700CF93DF93EC010FB6F8940F928091D61526
S11317108F5F8093D6158091811690918216892BC4
S113172051F4D0938216C09381168091D6158130DE
S113173091F4B6DF10C08091D01581110CC0E091F6
S11317408116F0918216928D8A8D891720F0D0939C
S11317508216C09381168091C9158F5F8093C91535
S1131760EA8D8091D1158E1710F4E093D1158BE09A
S11317708E9FF0011124ED5EF94E0180F281E02D7F
S1131780FF83EE832681378139872887A681B78135
S11317909E012E5F3F4F15963C932E9314973783EB
S11317A02683EA8D8E9FF0011124ED5EF94EFD87AC
S11317B0EC8780818F5F80830F900FBE8091D0155E
S11317C0882351F0E0918116F0918216928D8A8DD2
S11317D0981710F40E942F03DF91CF910895CF93AF
S11317E0DF931BC00FB6F8940F92E091EA15F091C5
S11317F0EB15C085D185CE0102960E94B30280917B
S1131800D61581508093D6158091E215815080932E
S1131810E2150F900FBECE01B8DE8091E215811162
S1131820E1CFDF91CF9108958F929F92AF92BF92B3
S1131830CF92DF92EF92FF92CF93DF936B017C0103
S1131840C42F8090D2159090D315A090D415B09049
S1131850D515809181169091821602960E94B3024A
S11318608FEFC816D806E806F806B1F5CC23A1F127
S1131870E7EDF5E1A181B281C0918116D091821684
S1131880BF83AE83C0918116D091821616968D9136
S11318909C911797998788871696CD91DC91179715
S11318A0809181169091821602969D838C838091FB
S11318B0811690918216029617969C938E93169792
S11318C0A0918116B09182161D96FC93EE931C97FD
S11318D080818F5F80833FC0C80CD91CEA1CFB1C2D
S11318E0E0918116F0918216C282D382E482F5825D
S11318F0C814D904EA04FB0468F460918116709159
S113190082168091F9159091FA156E5F7F4F0E94AF
S1131910760221C060918116709182168091FB1528
S11319209091FC156E5F7F4F0E9476028091C515E1
S11319309091C615A091C715B091C815C816D906BF
S1131940EA06FB0640F4C092C515D092C615E09293
S1131950C715F092C815DF91CF91FF90EF90DF90FB
S1131960CF90BF90AF909F908F9008952F923F9209
S11319704F925F926F927F928F929F92AF92BF929B
S1131980CF92DF92EF92FF920F93CF93DF933C01BC
S11319901B014A012901CA010E947B016C01892BA8
S11319A071F084E390E00E947B01EC01892B19F033
S11319B0DC8ECB8E06C0C6010E94240202C0C0E0A9
S11319C0D0E0209761F0A12CB12C6E019201A4010A
S11319D0B101C301E7DDCE0193DE81E001C08FEFE9
S11319E0DF91CF910F91FF90EF90DF90CF90BF9058
S11319F0AF909F908F907F906F905F904F903F90AB
S1131A002F900895EF92FF920F930F2EF3ECEF2E89
S1131A10F5E1FF2EF02D00E020E030E040EC50E056
S1131A206FE672E08DEC90E0A1DF813011F40E944A
S1131A30A6168130C9F4F8948FEF9FEFDC018093F0
S1131A40C5159093C615A093C715B093C81581E02A
S1131A508093D0151092D2151092D3151092D415EC
S1131A601092D5150E94FD02809106020F91FF90FD
S1131A70EF9008958091C2158F5F8093C2150895E9
S1131A800FB6F8940F926091D2157091D31580918E
S1131A90D4159091D5150F900FBE0895CF92DF9273
S1131AA0EF92FF92CF93DF938091C215811105C10C
S1131AB0C090D215D090D315E090D415F090D515E0
S1131AC08FEFC81AD80AE80AF80AC092D215D09241
S1131AD0D315E092D415F092D515C114D104E104C4
S1131AE0F104B1F48091FB159091FC152091F91546
S1131AF03091FA153093FC152093FB159093FA1549
S1131B008093F9158091CA158F5F8093CA1516DDED
S1131B108091C5159091C615A091C715B091C815AF
S1131B20C816D906EA06FB0620F480E0B2C081E0BC
S1131B3001C080E0E091FB15F091FC1590819111BA
S1131B400CC04FEF5FEFBA014093C5155093C61513
S1131B506093C7157093C8159CC0E091FB15F09174
S1131B60FC150780F085E02D0084F185E02D42818D
S1131B70538164817581C416D506E606F70648F4D8
S1131B804093C5155093C6156093C7157093C81537
S1131B9080C0A485B585C681D781208531853F83E2
S1131BA02E83C085D185268137813D832C83119670
S1131BB04D915C9112979F012E5F3F4F421753073F
S1131BC031F44085518512965C934E931197158696
S1131BD014869C9191509C93A08DB18D109709F11E
S1131BE0C289D389448955895F834E83C489D58941
S1131BF0428953895D834C8311966D917C91129730
S1131C00AF01425F5F4F6417750731F4448955890A
S1131C1012965C934E931197118E108E9C91915055
S1131C209C93A28D9091D1159A1710F4A093D1157D
S1131C309BE09A9FD0011124AD5EB94E11960D9090
S1131C40BC91A02DB783A68316964D915C911797EE
S1131C50518740871696CD91DC9117973D832C834D
S1131C6017963C932E931697A28D9A9FD001112418
S1131C70AD5EB94EB587A4879C919F5F9C93228DDE
S1131C80E0918116F0918216928D291708F04FCFBA
S1131C9051CFE0918116F0918216E28D9BE0E99F8D
S1131CA0F0011124ED5EF94E9081923008F081E04C
S1131CB09091CB15911116C016C08091CC159091BE
S1131CC0CD15A091CE15B091CF150196A11DB11DD2
S1131CD08093CC159093CD15A093CE15B093CF15CA
S1131CE080E001C081E0DF91CF91FF90EF90DF9021
S1131CF0CF900895CF92DF92EF92FF92CF93DF932C
S1131D000FB6F8940F928091C21581508093C2153A
S1131D108091C2158111BEC08091D615811188C0F1
S1131D20BCC0E091F515F091F6150084F185E02D25
S1131D30A08DB18DC289D389848995899F838E832F
S1131D40C489D589828993899D838C8311962D9129
S1131D503C911297CF010E962817390731F48489E4
S1131D60958912969C938E931197118E108E8C9157
S1131D7081508C93A485B585C681D7818085918552
S1131D809F838E83C085D185868197819D838C8333
S1131D9011968D919C9112979F012E5F3F4F821750
S1131DA0930731F48085918512969C938E931197B5
S1131DB0158614868C9181508C93A28D8091D115B7
S1131DC08A1710F4A093D1158BE08A9FD0011124B7
S1131DD0AD5EB94E11960D90BC91A02DB783A6832C
S1131DE016964D915C911797518740871696CD9121
S1131DF0DC9117973D832C8317963C932E9316976B
S1131E00A28D8A9FD0011124AD5EB94EB587A487F7
S1131E108C918F5F8C93928DA0918116B0918216D4
S1131E205A968C91981730F081E08093CB1502C0BC
S1131E30E0E0F0E08091EE15811173CFEF2B09F013
S1131E407DDBC090CC15D090CD15E090CE15F090F0
S1131E50CF15C114D104E104F104A1F01FDE8823DD
S1131E6019F081E08093CB1581E0C81AD108E1080C
S1131E70F108A1F71092CC151092CD151092CE1541
S1131E801092CF158091CB15882331F00E942F0337
S1131E9081E003C080E001C080E00F900FBEDF91BD
S1131EA0CF91FF90EF90DF90CF9008958F929F9203
S1131EB0AF92BF92CF92DF92EF92FF921F93CF9394
S1131EC0DF93EC016A017B01D5DD8090D2159090FF
S1131ED0D315A090D415B090D51588819981AA8185
S1131EE0BB81AC01BD014C0D5D1D6E1D7F1D8816AF
S1131EF09906AA06BB0660F4481759076A077B07C8
S1131F0098F484169506A606B70680F010E013C070
S1131F10481759076A077B0758F084169506A606E2
S1131F20B70640F010E007C010E005C011E003C0A0
S1131F3011E001C011E0488359836A837B83112334
S1131F4041F0CB01BA01681979098A099B0940E07B
S1131F506BDCD0DE811102C00E942F03812FDF9140
S1131F60CF911F91FF90EF90DF90CF90BF90AF90F3
S1131F709F908F900895CF92DF92EF92FF926B0122
S1131F807C01672B682B692B39F074DD40E0C701B5
S1131F90B6014ADCAFDE01C080E0811102C00E94BC
S1131FA02F03FF90EF90DF90CF9008958091C2159A
S1131FB0882321F081E08093CB1508951092CB15EE
S1131FC0E0918116F091821620813181E091811691
S1131FD0F0918216838D948D8217930760F060913F
S1131FE0811670918216635E7F4F80918116909165
S1131FF082160E9434198091D11501C08150282F76
S113200030E09BE0929FF001939FF00D1124ED5E70
S1132010F94E9081992391F39BE0929FA001939FA5
S1132020500D1124DF010180F281E02D0480F5813F
S1132030E02D1296FC93EE9311974A5E594EE417E5
S1132040F50729F444815581FD01528341839BE0C6
S1132050929FF001939FF00D1124ED5EF94E0180E3
S1132060F281E02D208531853093821620938116EC
S11320708093D1150895CF92DF92EF92FF926A0177
S11320807B016091811670918216625F7F4F0E947E
S1132090760241E0C701B601C7DBFF90EF90DF9005
S11320A0CF900895CF93DF93FC01CB01BA01A181B6
S11320B0B281C0918116D0918216BB8BAA8BC0913C
S11320C08116D091821616964D915C9117975D8B6F
S11320D04C8B1696CD91DC911797409181165091B7
S11320E08216425F5F4F5D834C834091811650910D
S11320F08216425F5F4F17965C934E931697A0919A
S11321008116B09182165996FC93EE9358973081BC
S11321103F5F3083222319F06FEF7FEFCB01422F13
S113212083DBDF91CF910895CF93DF93DC01179682
S1132130ED91FC9118970084F185E02DA08DB18D6F
S1132140C289D389848995899F838E83C489D589DB
S1132150828993899D838C8311968D919C9112978A
S11321609F01225F3F4F8217930731F48489958939
S113217012969C938E931197118E108E8C91815090
S11321808C938091C215811152C0A485B585C681F6
S1132190D781808591859F838E83C085D1858681F3
S11321A097819D838C8311968D919C9112979F01A9
S11321B02E5F3F4F8217930731F4808591851296E5
S11321C09C938E931197158614868C9181508C93D1
S11321D0A28D8091D1158A1710F4A093D1158BE0AC
S11321E08A9FD0011124AD5EB94E11960D90BC9119
S11321F0A02DB783A68316964D915C9117975187AE
S113220040871696CD91DC9117973D832C831796C2
S11322103C932E931697A28D8A9FD0011124AD5E14
S1132220B94EB587A4878C918F5F8C931CC04EEEFA
S113223055E1DA011196CD91DC911297D38BC28BC3
S11322408E819F81958B848B8E819F81DC01159675
S11322503C932E9314973F832E83518F408FDA0142
S11322608C918F5F8C93928DE0918116F091821600
S1132270828D891720F481E08093CB1501C080E022
S1132280DF91CF9108950FB6F8940F922091CA155B
S1132290FC0120834091D2155091D3156091D4153F
S11322A07091D51541835283638374830F900FBE5D
S11322B008952091CA15FC0120834091D2155091B4
S11322C0D3156091D4157091D515418352836383DE
S11322D0748308958F929F92AF92BF92CF92DF92B0
S11322E0EF92FF920F931F93CF93DF93FB010FB6EF
S11322F0F8940F92C090D215D090D315E090D415D5
S1132300F090D515DC0111960D911D912D913C9104
S1132310149746015701801A910AA20AB30A408110
S11323205181628173814F3FBFEF5B076B077B076E
S113233039F1EC01B881A091CA15BA1759F0C01649
S1132340D106E206F30630F0108211821282138263
S113235081E017C084169506A606B70658F44819F6
S113236059096A097B094083518362837383A1DF1E
S113237080E007C0108211821282138281E001C0C2
S113238080E00F900FBEDF91CF911F910F91FF90CE
S1132390EF90DF90CF90BF90AF909F908F90089573
S11323A081E08093CB1508958091811690918216D7
S11323B008958091D015882331F08091C215811140
S11323C004C082E0089581E0089580E008950F93A9
S11323D01F93CF93DF93FC01892B09F477C0828D7F
S11323E0A0918116B09182165A969C91891708F093
S11323F063C04685578560897189772394F0A091DD
S11324008116B09182165A969C914AE050E060E0A1
S113241070E0491B51096109710946875787608B30
S1132420718B248535854BE0849FC00111248D5E1A
S1132430994E28173907B9F5EF018F010E5F1F4F29
S1132440C8010E94B302E0918116F0918216E28DD8
S1132450EA8F8091D1158E1710F4E093D1158BE09B
S11324608E9FF0011124ED5EF94E0180F281E02D82
S1132470FF83EE832681378139872887A681B78138
S113248015961C930E93149717830683EA8D8E9FDB
S1132490F0011124ED5EF94EFD87EC8780818F5F9A
S11324A0808381E016C0A0918116B09182165A965D
S11324B08C91828F81E00DC095A5E0918116F091F9
S11324C08216828D981720F080E003C080E001C05E
S11324D081E0DF91CF911F910F9108950F931F9386
S11324E0CF93DF93FC01892B09F449C086A5815061
S11324F086A7228D95A5291709F443C0811143C0ED
S1132500EF018F010E5F1F4FC8010E94B302EDA5BA
S1132510EA8F8AE090E0A0E0B0E08E1B9109A10967
S1132520B1098E879F87A88BB98B8091D1158E179F
S113253010F4E093D1158BE08E9FF0011124ED5E31
S1132540F94E0180F281E02DFF83EE8326813781ED
S113255039872887A681B78115961C930E93149703
S113256017830683EA8D8E9FF0011124ED5EF94EE8
S1132570FD87EC8780818F5F808381E005C080E0E8
S113258003C080E001C080E0DF91CF911F910F91E3
S113259008950F931F93CF93DF93FC01892B09F4C4
S11325A05AC085A5861708F4862F928D891709F4D9
S11325B052C026A5213009F04EC0828F468557852A
S11325C060897189772364F04AE050E060E070E04C
S11325D0481B51096109710946875787608B718BC4
S11325E0248535854BE0949FC00111248D5E994E5E
S11325F02817390781F5EF018F010E5F1F4FC801BE
S11326000E94B302EA8D8091D1158E1710F4E093E5
S1132610D1158BE08E9FF0011124ED5EF94E0180FF
S1132620F281E02DFF83EE83268137813987288765
S1132630A681B78115961C930E931497178306836E
S1132640EA8D8E9FF0011124ED5EF94EFD87EC8733
S113265080818F5F8083DF91CF911F910F910895C7
S11326608091811690918216892B39F0E091811620
S1132670F091821686A58F5F86A78091811690912E
S1132680821608954F925F926F927F92AF92BF929B
S1132690CF92DF92EF92FF920F931F93CF93DF932A
S11326A0280139010FB6F8940F92E0918116F09148
S11326B08216C82FD0E0EC0FFD1F83A9823071F180
S11326C0E0918116F0918216CE01880F991F880F30
S11326D0991FE80FF91F87A590A9A1A9B2A9409550
S11326E0509560957095482359236A237B2347A707
S11326F050AB61AB72ABE0918116F0918216EC0F96
S1132700FD1F81E083ABA114B104C104D10431F0F5
S113271041E0C601B50188D80E942F030F900FBE77
S11327200FB6F8940F92E114F104A1F0E091811630
S1132730F0918216CE01880F991F880F991FE80F18
S1132740F91F87A590A9A1A9B2A9F7018083918354
S1132750A283B383E0918116F0918216EC0FFD1FE2
S113276083A98230E9F4E0918116F0918216CE01BA
S1132770880F991F880F991FE80FF91F87A590A943
S1132780A1A9B2A94094509460947094482259220B
S11327906A227B2247A650AA61AA72AA81E001C0DC
S11327A080E02091811630918216C20FD31F1BAA9C
S11327B00F900FBEDF91CF911F910F91FF90EF907B
S11327C0DF90CF90BF90AF907F906F905F904F90CD
S11327D008958F929F92AF92BF92EF92FF920F93C0
S11327E0CF93DF93DC010FB6F8940F92E114F10458
S11327F089F0E62FF0E0EE0FFF1FEE0FFF1FE80F4A
S1132800F91F87A490A8A1A8B2A8F7018082918299
S1132810A282B38270E0FD01E60FF71F83A992E064
S113282093AB023001F118F4013031F04DC00330A4
S113283079F10430D1F148C0660F771F660F771F16
S1132840FD01E60FF71F87A490A8A1A8B2A8BA01BA
S1132850A901482959296A297B2947A750AB61ABAB
S113286072AB01E034C0660F771F660F771FFD015E
S1132870E60FF71F47A550A961A972A94F5F5F4FE3
S11328806F4F7F4F47A750AB61AB72AB01E01FC0E6
S1132890660F771F660F771FFD01E60FF71F27A747
S11328A030AB41AB52AB01E012C0823079F0660F1D
S11328B0771F660F771FFD01E60FF71F27A730ABC1
S11328C041AB52AB01E003C001E001C000E0813044
S11328D009F069C01C96ED91FC911D971696CD9157
S11328E0DC91179718968D919C9119979F838E83ED
S11328F01896CD91DC91199716968D919C91179706
S11329009D838C83818192819D012E5F3F4F82172D
S1132910930731F418968D919C9119979283818332
S11329201D961C921E921C978081815080835A961A
S1132930EC915A978091D1158E1710F4E093D1152C
S11329408BE08E9FF0011124ED5EF94E0180F2813F
S1132950E02D1796FC93EE931697468157811996AE
S11329605C934E931897C681D7813D832C8337831C
S113297026835A96EC915A978E9FF0011124ED5EAE
S1132980F94E1D96FC93EE931C9780818F5F808394
S11329905A969C91E0918116F0918216828D891746
S11329A010F40E942F030F900FBE802FDF91CF9160
S11329B00F91FF90EF90BF90AF909F908F900895EC
S11329C08F929F92AF92BF92CF92DF92EF92FF923B
S11329D00F93CF93DF93DC01E114F10489F0E62F28
S11329E0F0E0EE0FFF1FEE0FFF1FE80FF91F87A4A3
S11329F090A8A1A8B2A8F70180829182A282B38292
S1132A0070E0FD01E60FF71F93A982E083AB02306B
S1132A1001F118F4013031F04DC0033079F1043084
S1132A20D1F148C0660F771F660F771FFD01E60FCF
S1132A30F71F87A490A8A1A8B2A8BA01A9014829A0
S1132A4059296A297B2947A750AB61AB72AB81E056
S1132A5034C0660F771F660F771FFD01E60FF71F5F
S1132A6047A550A961A972A94F5F5F4F6F4F7F4F70
S1132A7047A750AB61AB72AB81E01FC0660F771FF5
S1132A80660F771FFD01E60FF71F27A730AB41AB99
S1132A9052AB81E012C0923079F0660F771F660F57
S1132AA0771FFD01E60FF71F27A730AB41AB52ABF1
S1132AB081E003C081E001C080E0913009F096C05C
S1132AC09091C21591115FC01C96ED91FC911D97D8
S1132AD01696CD91DC91179718962D913C911997E4
S1132AE03F832E831896CD91DC91199716962D91DC
S1132AF03C9117973D832C83418152819D012E5F28
S1132B003F4F4217530731F418964D915C91199732
S1132B10528341831D961C921E921C979081915062
S1132B2090835A96EC915A979091D1159E1710F470
S1132B30E093D1159BE09E9FF0011124ED5EF94EC8
S1132B400180F281E02D1796FC93EE93169746814F
S1132B50578119965C934E931897C681D7813D830C
S1132B602C83378326835A96EC915A979E9FF001C3
S1132B701124ED5EF94E1D96FC93EE931C97908103
S1132B809F5F908321C06EEE75E1FB01C181D2810C
S1132B905396DC93CE9352972E813F8155963C9366
S1132BA02E9354974E815F819D01225F3F4FFA011E
S1132BB0358324833F832E8359967C936E93589751
S1132BC0FB0190819F5F90835A962C91E09181162E
S1132BD0F0918216928D921748F4C114D10419F021
S1132BE091E0F601908391E09093CB15DF91CF9122
S1132BF00F91FF90EF90DF90CF90BF90AF909F9098
S1132C008F900895009721F48091811690918216F7
S1132C100FB6F8940F9270E0FC01E60FF71F23A99A
S1132C20223031F4FC01E60FF71F13AA81E001C042
S1132C3080E00F900FBE0895DC01E0918D16F091B5
S1132C408E16808191E0811190E09C93911108C0CF
S1132C500780F085E02D60817181828193810895E0
S1132C6060E070E0CB010895CF92DF92EF92FF9283
S1132C700F931F93FC01428353836483758393876B
S1132C8082870417150726073707C0F00C191D099A
S1132C902E093F0986859785A089B18908171907E8
S1132CA02A073B0700F5BF016E5F7F4F80918B16AB
S1132CB090918C160E94760280E018C00C151D05B8
S1132CC02E053F0528F44C155D056E057F0568F457
S1132CD0BF016E5F7F4F80918D1690918E160E947A
S1132CE0760280E003C081E001C081E01F910F9172
S1132CF0FF90EF90DF90CF9008950FB6F8940F9265
S1132D008091891690918A16892BE9F48AE996E1D3
S1132D100E9461028FE896E10E9461028AE996E1CD
S1132D2090938E1680938D168FE896E190938C166F
S1132D3080938B1640E067E08AE00E94240590931C
S1132D408A16809389160F900FBE0895EF92FF9212
S1132D500F93D3DF8091891690918A16892B91F075
S1132D600F2EF7E8EF2EF6E1FF2EF02D03E020E022
S1132D7030E040EC50E064E772E087ED90E00E94C0
S1132D80B60C01C080E00F91FF90EF9008958F92F0
S1132D909F92AF92BF92CF92DF92EF92FF920F93E6
S1132DA01F93CF93DF93CDB7DEB727970FB6F89471
S1132DB0DEBF0FBECDBFE0918916F0918A16309721
S1132DC081F169832A833B834C835D839F838E8354
S1132DD06630F4F4EEDA823069F400E0A70196017B
S1132DE0BE016F5F7F4F8091891690918A160E9471
S1132DF0470518C000E020E030E0A901BE016F5F84
S1132E007F4F8091891690918A160E9447050AC0C7
S1132E1020E0A801BE016F5F7F4FCF010E94D9055A
S1132E2001C080E027960FB6F894DEBF0FBECDBF79
S1132E30DF91CF911F910F91FF90EF90DF90CF9092
S1132E40BF90AF909F908F9008958F929F92AF9272
S1132E50BF92CF92DF92EF92FF920F931F93CF9383
S1132E60DF933BC00780F085E02D80809180A280B5
S1132E70B380C085D1858E010E5F1F4FC8010E94AB
S1132E80B302EC89FD89CE0119958E8982FF25C094
S1132E908E859F85A889B989880D991DAA1DBB1D9A
S1132EA088169906AA06BB0670F48A839B83AC83B2
S1132EB0BD83DB87CA87B80180918D1690918E16E9
S1132EC00E9476020AC0C12CD12C760100E010E0E9
S1132ED0A501940160E0CE015ADFE0918D16F091D6
S1132EE08E1680818111BECF80918B1690918C16A5
S1132EF090938E1680938D16F0938C16E0938B1618
S1132F00DF91CF911F910F91FF90EF90DF90CF90C1
S1132F10BF90AF909F908F900895CF92DF92EF92E1
S1132F20FF92CF93DF93EC010E94400D6B017C0173
S1132F308091831690918416A0918516B09186167F
S1132F40C816D906EA06FB0620F47FDF81E08883F1
S1132F5001C01882C0928316D0928416E09285161E
S1132F60F0928616C701B601DF91CF91FF90EF90E2
S1132F70DF90CF9008954F925F926F927F928F92DD
S1132F809F92AF92BF92CF92DF92EF92FF920F93F4
S1132F901F93CF93DF934B015C0129013A01E09128
S1132FA08D16F0918E160780F085E02DC085D185B1
S1132FB0CE0102960E94B3028E8982FF1BC04E8509
S1132FC05F8568897989480D591D6A1D7B1D7501C6
S1132FD0640193018201CE0147DE882369F0C12C8C
S1132FE0D12C760100E010E0A501940160E0CE014F
S1132FF0CEDE02C08E7F8E8BEC89FD89CE011995C1
S1133000DF91CF911F910F91FF90EF90DF90CF90C0
S1133010BF90AF909F908F907F906F905F904F90F4
S113302008958F929F92AF92BF92CF92DF92EF92C8
S1133030FF921F93CF93DF931F92CDB7DEB76B013F
S11330407C01142F0E943A0DCE01019666DF4B01DC
S11330505C01898181112DC011110DC08C149D0456
S1133060AE04BF0440F00E947A0EA5019401C7018A
S1133070B60181DF20C0112341F0E0918B16F0915D
S11330808C16808111E0811110E0B701A601481966
S113309059096A097B09212F8091891690918A1612
S11330A00E9454070E947A0E811105C00E942F03CA
S11330B002C00E947A0E0F90DF91CF911F91FF9072
S11330C0EF90DF90CF90BF90AF909F908F90089536
S11330D0AF92BF92CF92DF92EF92FF920F931F9322
S11330E0CF93DF93CDB7DEB728970FB6F894DEBF42
S11330F00FBECDBF82C0898188230CF47EC0AE8010
S1133100BF80D5011C968D919C911D97892B21F030
S1133110C50102960E94B302CE010896FEDE8B0121
S11331209C01E9810E2E000CFF0BEA30F10508F03A
S113313064C08827EE58FF4F8F4F0C94682DF5011B
S113314086898160868BCA80DB80EC80FD80468521
S11331505785608971894C0D5D1D6E1D7F1DC501EC
S113316083DD882309F449C0D5015496ED91FC917F
S11331705597C5011995F501868982FF3EC04A819C
S11331805B816C817D8186859785A089B1899A014F
S1133190AB01280F391F4A1F5B1FC12CD12C7601AC
S11331A000E010E060E0C501F2DD27C0D5015696CD
S11331B08C9156978E7F56968C931FC0F501868905
S11331C08160868B4A815B816C817D8146875787CC
S11331D0608B718B400F511F621F731F680179014F
S11331E0C50142DD0AC0F501868981FD04C0C5011F
S11331F00E94240202C08E7F868B20E030E0A90169
S1133200BE016F5F7F4F8091891690918A160E944C
S11332101406811170CF28960FB6F894DEBF0FBE46
S1133220CDBFDF91CF911F910F91FF90EF90DF9071
S1133230CF90BF90AF900895089584B1806884B909
S113324085B1806885B9089583B1806883B908958C
S1133250F4DF2FEF80E792E0215080409040E1F7C7
S113326000C00000F1DFF5CFE8DF2FEF87EA91E639
S1133270215080409040E1F700C00000E5DFF5CF29
S113328083E00C944F2208950F9364E771E080E08B
S113329090E00E94BB0F4FEF5FEFBA0180910418DA
S11332A0909105180E94A3060E947422882321F09D
S11332B08CE792E00E94072F83EA92E29093F7173B
S11332C08093F6179F938F9381E992E09F938F9356
S11332D00E94F42E00E020E030E0A90160E070E0FC
S11332E080910418909105180E9447050F900F9043
S11332F00F900F900F910895C7DFFECFEF92FF92CA
S11333000F93E12CF12C01E020E030E040EC50E0A0
S11333106AE972E08CE799E10E94B60C0F91FF9084
S1133320EF90089574C308950F9364E771E080E00B
S113333090E00E94BB0F4FEF5FEFBA01809102183B
S1133340909103180E94A3067AD381113FC066E0CE
S113335070E080E090E00E94BB0F86D381112DC005
S113336063E070E080E090E00E94BB0FA3D39093F1
S1133370FB178093FA17C3D38093F8179093F91728
S11333809F938F938EE992E09F938F930E94F42EE4
S11333908091FB178F938091FA178F9388EA92E0BC
S11333A09F938F930E94F42E8DB79EB708960FB605
S11333B0F8949EBF0FBE8DBF11C083EB92E09F9324
S11333C08F930E94F42E0F900F9008C08DED92E021
S11333D09F938F930E94F42E0F900F9000E020E0B3
S11333E030E0A90160E070E0809102189091031828
S11333F00E9447050F91089597DFFECFEF92FF9249
S11334000F93E12CF12C01E020E030E040EC50E09F
S113341066E073E08CEF99E10E94B60C0F91FF9087
S1133420EF9008958130F9F48CEF97E10E94EE2833
S1133430811119C06091FC177091FD178091FE17DE
S11334409091FF175DD260930018709301187F93D9
S11334506F938AE193E09F938F930E94F42E0F90D1
S11334600F900F900F90089582E19AE10C94AC288C
S113347008950F930E94C72864E771E080E090E00C
S11334800E94BB0F4FEF5FEFBA0180910618909135
S113349007180E94A3060E94DC28811105C084E25B
S11334A093E00E94072F0DC0853029F488E393E050
S11334B00E94072F06C0873021F48AE493E00E941B
S11334C0072F00E020E030E0A90160E070E0809187
S11334D00618909107180E9447050F910895C9DFB7
S11334E0FECFEF92FF920F93E12CF12C01E020E04C
S11334F030E040EC50E067E673E08FE69AE10E942A
S1133500B60C0F91FF90EF9008950F931F93CF93F4
S1133510DF93CDB7DEB764970FB6F894DEBF0FBE66
S1133520CDBF81E00E94C62761D4DDD69F938F93DF
S11335308DE693E09F938F930E94F42ED5D5D3D636
S11335409F938F9380E893E09F938F930E94F42E30
S11335508E010F5F1F4FC8015BD4C5D61F930F9315
S11335609F938F9389E993E09F938F930E94F42E06
S1133570C8016AD4B8D69F938F931F930F938DEA93
S113358093E09F938F930E94F42EA80162EC73E062
S113359083EE93E087D6A7D69F938F931F930F93C1
S11335A082EC93E09F938F9383EE93E09F938F93AA
S11335B084EF93E09F938F930E94F42E78D493D654
S11335C09F938F938AE294E09F938F930E94F42EAB
S11335D00FB6F894DEBF0FBECDBF81E062D583D6AF
S11335E09F938F9389E394E09F938F930E94F42E8B
S11335F084EF91E061D577D69F938F9381E08F9389
S113360084EF8F938AE594E09F938F930E94F42E26
S11336100FB6F894DEBF0FBECDBF1AE080E04DD4E4
S1133620082F61D69F938F931F921F938AE794E08C
S11336309F938F930E94F42E0F900F900F900F90F2
S11336400F900F90083059F080E00E942A2866E31A
S113365071E080E090E00E94BB0F1150F9F6083051
S113366021F481E00E940C2809C081E00E941B28FB
S113367080E00E94E9270E942F03FDCF64960FB6D5
S1133680F894DEBF0FBECDBFDF91CF911F910F9194
S11336900895CF93DF9300D01F92CDB7DEB781E0BA
S11336A097D362E070E080E090E00E94BB0F80E07E
S11336B08FD366E970E080E090E00E94BB0F41D3B5
S11336C024DFE5EAF6E188E0818382E080830E94DA
S11336D0400D69837A838B839C8348EA58E460E0D5
S11336E070E0CE0101960E94560F4FEF5FEFBA01D2
S11336F080910218909103180E94A306A090FA17D3
S11337009090FB17C090F817B090F91700E020E0F4
S113371030E0A90160E070E08091021890910318F4
S11337200E9447054FEF5FEFBA0180910418909112
S113373005180E94A306E090F617D090F71720E032
S113374030E0A90160E070E08091041890910518C0
S11337500E9447054FEF5FEFBA01809106189091E0
S113376007180E94A30610910018F090011820E099
S113377030E0A90160E070E080910618909107188C
S11337800E9447058091F9178F938091F8178F93C2
S11337908AE994E09F938F930E94F42E8091FB1703
S11337A08F938091FA178F9380EB94E09F938F937C
S11337B00E94F42EDF92EF9287EC94E09F938F9314
S11337C00E94F42EFF921F938CED94E09F938F93AD
S11337D00E94F42EE5EAF6E19282A382B482C582C5
S11337E0D682E782F086118783E00E943C2865EA4E
S11337F076E180E08BD377D59F938F9381EF94E02C
S11338009F938F930E94F42E0FB6F894DEBF0FBEE1
S1133810CDBF63CFEF92FF920F93E12CF12C082FD1
S113382020E030E048E851E066E075E089E49BE19F
S11338300E94B60C0F91FF90EF9008958DE095E0F3
S11338400E94072F1DDD6EDD0FDE60E070E081E079
S11338507FC2089553DDD2DD44CE08950F9380E0F6
S11338600E94712683E0D6DFE9DFF4DF85E00E9461
S1133870782743E060E081E00E94240590930318D8
S11338808093021843E060E081E00E942405909355
S113389005188093041843E060E081E00E94240549
S11338A0909307188093061800E020E030E0A90107
S11338B060E070E080910218909103180E9447051F
S11338C020E030E0A90160E070E08091041890915C
S11338D005180E94470520E030E0A90160E070E08F
S11338E080910618909107180E94470585E295E09B
S11338F00E94072F0E94020D80E090E00F9108952E
S113390004D06894B11150C0089533D088F09F5703
S113391090F0B92F9927B751A0F0D1F0660F771F17
S1133920881F991F1AF0BA95C9F712C0B13081F0F7
S11339303AD0B1E0089537C0672F782F8827B85F51
S113394039F0B93FCCF3869577956795B395D9F758
S11339503EF490958095709561957F4F8F4F9F4F62
S1133960089557FD9058440F551F59F05F3F71F06B
S11339704795880F97FB991F61F09F3F79F08795D2
S11339800895121613061406551FF2CF4695F1DF5B
S113399008C0161617061806991FF1CF86957105EB
S11339A0610508940895E894BB2766277727CB011F
S11339B097F908956530F1F4FA0180818F7390E0EE
S11339C0982F88272181822B90930A0280930902E1
S11339D08281F0E48F9FC0011124FA01238126958E
S11339E02695822B909308028093070281E08093AE
S11339F0BB160895643051F080E090E4909308027F
S1133A008093070290930A028093090208950F930A
S1133A101F930AED1CE120E034E244EF50E060E043
S1133A2087E20E94D8299093BD168093BC1621E0AA
S1133A30892B09F020E0822F1F910F910895809126
S1133A40BC169091BD16009759F040E060E070E01C
S1133A500E94292A843031F41092BB1680E0089524
S1133A6082E0089583E008958091BC169091BD167C
S1133A70009739F064E00E94752A853021F083E0D4
S1133A80089582E0089580E008956091090270919C
S1133A900A0280E090E00E94532C20E030E048ECE1
S1133AA052E40E94BC2C20E038EF4FE756E40C941B
S1133AB0E82B0895EADF20E030E040E251E40E9480
S1133AC0BC2C23DFCB01089560910702709108029A
S1133AD080E090E00E94532C20E030E045E253E483
S1133AE00E94BC2C20E038EF4FE756E40E94E82BFC
S1133AF020E030E040E252E40C94812B0895E4DFAE
S1133B0020E030E040E251E40E94BC2CF9DECB011D
S1133B1008950F931F93CF93DF931F921F92CDB7F6
S1133B20DEB78C0119822DC0E091F516EC3250F409
S1133B3081E08E0F8093F516F0E0E95DF84E8A81FE
S1133B40808302C01092F5168A818A30D1F44091A4
S1133B50F51650E0FA01EB5DF84E10824150510920
S1133B609E012F5F3F4F67E277E18091F8169091B5
S1133B70F9160E94D809898181110E942F0310929D
S1133B80F516BE016E5F7F4FC80115D6882361F21A
S1133B900F900F90DF91CF911F910F9108950F9384
S1133BA01F93CF93DF938C01EB018091F8169091D2
S1133BB0F9160E94E508B8018EEB96E10E94D52E15
S1133BC0209779F0EEEBF6E101900020E9F73197C8
S1133BD080E290E091838083BE018EEB96E10E94A7
S1133BE0CA2EEEEBF6E1DF010D900020E9F7119704
S1133BF08DE09AE011969C938E9312961C920190FC
S1133C000020E9F73197EE5BF641AE2F8EEB96E19B
S1133C10AC016A2F8091FA169091FB1677D5811129
S1133C2011C008E215E020E030E04DE250E061E828
S1133C3077E18091F8169091F9160E941C0A81E8A8
S1133C4097E102C080E090E0DF91CF911F910F9146
S1133C5008952F923F924F925F926F927F928F922C
S1133C609F92AF92BF92CF92DF92EF92FF920F9307
S1133C701F93CF93DF935C01FC0101900020E9F7CF
S1133C8031976F01C81AD90A5C2C0F2EFAEC8F2ECB
S1133C90F7E09F2EF02DE12CF12C4C2C3701F40190
S1133CA001811281E80109900020E9F72197C01BE6
S1133CB0D10B3C2EF9E0CF16D10458F0F40120804A
S1133CC0FEE02F1206C0B801C5010E94A52E892B63
S1133CD009F5442D351408F44C2F50E0B801C50102
S1133CE00E94DC2E892B49F4F301EE0FFF1FE60D31
S1133CF0F71DE653F84F20800DC08FEFE81AF80A3D
S1133D00E3E08E0E911CF1E1EF16F10439F66894AC
S1133D10222424F8822DDF91CF911F910F91FF90DF
S1133D20EF90DF90CF90BF90AF909F908F907F9057
S1133D306F905F904F903F902F90089530DF89CF20
S1133D4008958091F8169091F9160C94E508089559
S1133D508F929F92AF92CF92EF920F931F93CF9334
S1133D60C82F8B0141E060E070E088EC90E00E9495
S1133D70B3089093F9168093F8161093F7160093EE
S1133D80F6160F2EF9E88F2EFDE19F2EF02D689484
S1133D90AA24A6F86894CC24C6F8E12C00E023E019
S1133DA040E051EE60E070E08C2FDED39093FB1680
S1133DB08093FA16E7E0F1E0808180618083CF91FF
S1133DC01F910F91EF90CF90AF909F908F90089597
S1133DD0882331F0E8E0F1E080818F7E80830895CC
S1133DE0E8E0F1E0808180618083089560E070E024
S1133DF080E595E0D4DEE1E8F7E101900020E9F701
S1133E003197E158F74181E0759708F080E0089513
S1133E10CF93DF93EC0160E070E081E695E0BFDED4
S1133E20E1E8F7E101900020E9F7E259F74139F4BC
S1133E3061E877E1CE010E94D52E80E002C01882AD
S1133E4081E0DF91CF910895FC0101900020E9F712
S1133E509F01215131092817390729F4BC018FE842
S1133E6095E06CCF089589E00895FC01019000204D
S1133E70E9F79F01215131092817390729F4BC01B9
S1133E808EE995E05BCF089589E00895FC010190E7
S1133E900020E9F79F01215231092817390729F435
S1133EA0BC018DEA95E04ACF089589E0089560E069
S1133EB070E08CEE95E042CF08950F931F93E82FA6
S1133EC0F0E0EE0FFF1FEA53F84F6081718185EF38
S1133ED095E034DF811114C008E215E020E030E001
S1133EE04DE250E061E877E18091F8169091F9167F
S1133EF00E941C0A882321F081E897E1AADE03C00E
S1133F0081E897E1A6DE1F910F9108950F931F9307
S1133F10CF93DF931F92CDB7DEB7DB0111969C914F
S1133F201197953108F0B4C0992381F160E070E0F5
S1133F30272F30E0462F50E0FD01E40FF51F92815A
S1133F4092959F709A3010F0995C01C0905DF901D0
S1133F50EE5EF84E90832F5F3F4FFD01E40FF51F97
S1133F6092819F70492F50E04A30510514F0995CBA
S1133F7001C0905DF901EE5EF84E90837E5F6F5F45
S1133F8011969C911197691798F201C070E0E72F80
S1133F90F0E0EE5EF84E10824C91811103C08EEF7A
S1133FA095E002C080E096E022E137E13F932F9351
S1133FB01F924F939F938F9384E096E09F938F93E8
S1133FC084E597E19F938F930E94372F60E070E020
S1133FD084E597E1B3DE0FB6F894DEBF0FBECDBF24
S1133FE0811159C008E215E020E030E04DE250E0D4
S1133FF061E877E18091F8169091F9160E941C0A05
S1134000882309F447C081E897E123DE8E3009F064
S113401042C087E089838091F6169091F716892B28
S1134020A9F1BE016F5F7F4F81E897E168D180936A
S1134030FC16E981F0E0EF57F84EDF010D90002007
S1134040E9F71197AE1BBF0BAA2391F0BB27CD0153
S113405001979C0112F42F5F3F4F359527952093CC
S1134060FD16AF014F5F5F4F64E18EEF96E173D1B0
S113407001E010E020E030E046E150E06CEF76E152
S11340808091F6169091F7160E9415098EE003C0F0
S113409084E101C080E00F90DF91CF911F910F91D7
S11340A00895813019F064E176E002C06DEE76E0A7
S11340B088E196E043CE08959F938F9389E496E038
S11340C09F938F9384E597E19F938F930E94372F5B
S11340D060E070E084E597E131DE0F900F900F907F
S11340E00F900F900F9008952F923F924F925F92EE
S11340F06F927F928F929F92AF92BF92CF92DF92F4
S1134100EF92FF920F931F93CF93DF93CDB7DEB758
S1134110A0970FB6F894DEBF0FBECDBF66E776E07A
S113412082E896E03CDD95DD8111A3C080E2E2E205
S1134130F2E0DE01119601900D928A95E1F79E015D
S11341402F5F3F4F6901E12CF12C0F2EFEE8AF2EBB
S1134150F6E0BF2EF02D04E517E10F2EF7EA4F2EFF
S1134160F6E05F2EF02D0F2EFEEB8F2EF6E09F2E45
S1134170F02D0F2EF8ED6F2EF6E07F2EF02D3E2C55
S11341802F2CFF92EF92BF92AF921F930F930E9436
S1134190372F60E070E0C80102DD5BDD0F900F9007
S11341A00F900F900F900F90811163C032E03E1575
S11341B0E8F4F60183818F9382818F9381818F93B9
S11341C080818F93FF92EF925F924F921F930F9390
S11341D00E94372F60E070E0C801E1DC3ADD0FB6E1
S11341E0F894DEBF0FBECDBF811143C02F923F9222
S11341F09F928F921F930F930E94372F60E070E07D
S1134200C801CDDC26DD0F900F900F900F900F901A
S11342100F9081112EC02F923F927F926F921F9325
S11342200F930E94372F60E070E0C801B8DC11DD05
S11342300F900F900F900F900F900F90811119C055
S11342403FEFE31AF30A84E0C80ED11C98E0E916A4
S1134250F10409F094CF60E070E080EF96E09FDC19
S1134260F8DC811106C060E070E081E097E097DC43
S1134270F0DCA0960FB6F894DEBF0FBECDBFDF9181
S1134280CF911F910F91FF90EF90DF90CF90BF904F
S1134290AF909F908F907F906F905F904F903F90E2
S11342A02F900895EF92FF920F931F93CF93DF9374
S11342B0EC018B017A0181E0F4DE81110DC0CE01A5
S11342C0D4DD811109C0C801E1DD811105C0C70138
S11342D0BBDD811101C0EBDDDF91CF911F910F9107
S11342E0FF90EF90089590E0FC01EE0FFF1F8E0FFA
S11342F09F1FFC01E653F84F818192810895DC01F0
S1134300009729F1FB012081FC0101900020E9F7CD
S11343103197E81BF90B822F90E0E817F907C8F0F2
S113432080E008C0880F382F330F330F830F80537A
S1134330890F2F5FFD01E20FF11D908130ED390FE0
S11343403A3010F49111EECFFB012083089580E000
S1134350089580E008950F931F93CF93DF93DC01BA
S1134360EA012097E1F1FA0101900020E9F7319781
S1134370E41BF50B329710F532C08D01040F151FA5
S113438030E0AE01420F531FFA019081913428F0BE
S11343909753592F5295507F03C0592F5295507FF0
S11343A02C0F3D1FF9019181913410F0975301C0F6
S11343B09053950FF80190838F5F01C080E0282F00
S11343C0220F482F50E0FE0101900020E9F73197B9
S11343D0EC1BFD0B4E175F0710F48613CECFDF9155
S11343E0CF911F910F9108958091B117860F8093FB
S11343F0B1179091B417913079F028F09230A9F068
S1134400933019F108956F3F09F048C01092B11725
S113441081E08093B4170895663809F03FC0109284
S1134420B01782E08093B4170895E091B01781E04B
S11344308E0F8093B017F0E0E255F84E608382301F
S113444069F583E08093B41708959091B01721E043
S1134450290F2093B017963009F581110EC0EEEAAA
S1134460F7E1808190E0982F88272181820F911DA8
S11344709093B6178093B51704C01092B617109294
S1134480B5171092B417E091B217F091B3173097A3
S113449029F08091B5179091B617199508958F92C8
S11344A09F92AF92CF92EF920F930F2EF4EF8F2E35
S11344B0F1E29F2EF02D6894AA24A4F86894CC24E9
S11344C0C4F8E12C00E023E040E855E260E070E04D
S11344D04BD09093B8178093B7170F91EF90CF906C
S11344E0AF909F908F900895CF93DF93CDB7DEB7B1
S11344F029970FB6F894DEBF0FBECDBF89E0E2E482
S1134500F2E09E012F5F3F4FD90101900D928A95F1
S1134510E1F71092B6171092B5178091B7179091E2
S1134520B817009731F0422F532F69E0EFD080E0A5
S113453001C082E029960FB6F894DEBF0FBECDBF4E
S1134540DF91CF9108952091B5173091B6172115B9
S1134550310529F4FC011182108281E00895FC01E7
S11345603183208380E008952F923F924F925F928F
S11345706F927F928F929F92AF92CF92EF92FF921F
S11345800F931F93CF93DF93CDB7DEB7F82E2A0195
S11345903B0188E090E00E94702D8C018F2D90E00B
S11345A0FC01EE0FFF1FE754F84E11830083011541
S11345B0110509F46EC0880F991FFC01E55FFD4FDA
S11345C080819181D8018D939C938C2D90E0880FEC
S11345D0991F880F991F0E94702D1C0186E090E09E
S11345E00E94702D7C014C2DB1010E94652BF801B5
S11345F0F582E4828A2D90E0880F991F880F991F15
S11346000E94702D1C0186E090E00E94702D7C01B8
S11346104A2DB1010E94652BD8011396FC92EE92AB
S1134620129717969C928E921697FFB6F894ED9176
S1134630FC91119736978081826080838D909C9045
S1134640C301B2010E94532C20E030E040E051E469
S11346500E94BC2C9B01AC0160E074E284E79BE403
S11346600E94E82B20E030E040E85FE30E94812BC9
S11346704CD9F40132976083D801ED91FC911197E4
S1134680359788E98083ED91FC91349786E08083A7
S1134690FFBEC801DF91CF911F910F91FF90EF9062
S11346A0CF90AF909F908F907F906F905F904F903E
S11346B03F902F900895CF93DF93DC01892B01F174
S11346C01296ED91FC911397938182812581981B19
S11346D0922384819817B1F0838126952823C08181
S11346E0D181C20FD11D68838F5F95818923838314
S11346F0ED91FC91359780818062808380E003C0D6
S113470081E001C082E0DF91CF910895EF92FF92A2
S11347100F931F93CF93DF937C01009709F441C05B
S1134720DC011296ED91FC91139793818281981B81
S1134730858198238481891B8617A8F1662341F11A
S1134740842F952FDC016150462F50E04F5F5F4F5F
S1134750480F591FE701EA81FB81938182812581FA
S1134760981B92238481981779F08C9193812695D4
S11347702923608171818B01020F111DE801888357
S11347809F5F8581982393831196A417B50711F72A
S1134790D701ED91FC91359780818062808380E020
S11347A003C081E001C082E0DF91CF911F910F919E
S11347B0FF90EF9008950097D1F0DC011496ED91ED
S11347C0FC91159793818281981799F09281858144
S11347D086958923A081B181A80FB11D8C91DB013D
S11347E08C939F5F85819823928380E0089581E074
S11347F0089583E008951F920F920FB60F9211242B
S11348000BB60F922F933F934F935F936F937F93C6
S11348108F939F93AF93BF93CF93DF93EF93FF93C4
S1134820A091B917B091BA17109711F16091C60011
S11348301496ED91FC911597938182812581981BA3
S113484092238481981761F0838126952823C0815F
S1134850D181C20FD11D68838F5F958189238383A2
S11348601696ED91FC911797309711F0CD0119959B
S1134870FF91EF91DF91CF91BF91AF919F918F9174
S11348807F916F915F914F913F912F910F900BBE4C
S11348900F900FBE0F901F9018951F920F920FB696
S11348A00F9211240BB60F922F938F939F93AF9374
S11348B0BF93EF93FF93E091B917F091BA17309734
S11348C0B9F00280F381E02D938182819817B1F0D1
S11348D092818581282F26952923A081B181A20F59
S11348E0B11D2C919F5F892382832093C6000BC046
S11348F0E1ECF0E080818F7D808305C0E1ECF0E0A5
S113490080818F7D8083FF91EF91BF91AF919F91C3
S11349108F912F910F900BBE0F900FBE0F901F9091
S113492018951F920F920FB60F9211240BB60F9287
S11349302F933F934F935F936F937F938F939F93A3
S1134940AF93BF93CF93DF93EF93FF93A091BB17E4
S1134950B091BC17109711F16091CE001496ED91AF
S1134960FC911597938182812581981B92238481E0
S1134970981761F0838126952823C081D181C20FC5
S1134980D11D68838F5F9581892383831696ED916A
S1134990FC911797309711F0CD011995FF91EF9184
S11349A0DF91CF91BF91AF919F918F917F916F9143
S11349B05F914F913F912F910F900BBE0F900FBEBF
S11349C00F901F9018951F920F920FB60F921124FB
S11349D00BB60F922F938F939F93AF93BF93EF9345
S11349E0FF93E091BB17F091BC173097B9F00280A8
S11349F0F381E02D938182819817B1F092818581B2
S1134A00282F26952923A081B181A20FB11D2C91B5
S1134A109F5F892382832093CE000BC0E9ECF0E0F2
S1134A2080818F7D808305C0E9ECF0E080818F7DFB
S1134A308083FF91EF91BF91AF919F918F912F91BF
S1134A400F900BBE0F900FBE0F901F9018951F92E2
S1134A500F920FB60F9211240BB60F922F933F9320
S1134A604F935F936F937F938F939F93AF93BF9372
S1134A70CF93DF93EF93FF93A091BD17B091BE172F
S1134A80109711F16091D6001496ED91FC91159751
S1134A90938182812581981B92238481981761F0E8
S1134AA0838126952823C081D181C20FD11D6883BB
S1134AB08F5F9581892383831696ED91FC911797D7
S1134AC0309711F0CD011995FF91EF91DF91CF91BE
S1134AD0BF91AF919F918F917F916F915F914F9112
S1134AE03F912F910F900BBE0F900FBE0F901F9010
S1134AF018951F920F920FB60F9211240BB60F92B6
S1134B002F938F939F93AF93BF93EF93FF93E09172
S1134B10BD17F091BE173097B9F00280F381E02DF4
S1134B20938182819817B1F092818581282F2695EF
S1134B302923A081B181A20FB11D2C919F5F8923EC
S1134B4082832093D6000BC0E1EDF0E080818F7D5D
S1134B50808305C0E1EDF0E080818F7D8083FF914B
S1134B60EF91BF91AF919F918F912F910F900BBEB9
S1134B700F900FBE0F901F9018951F920F920FB6B3
S1134B800F9211240BB60F922F933F934F935F9381
S1134B906F937F938F939F93AF93BF93CF93DF9341
S1134BA0EF93FF93A091BF17B091C017109711F125
S1134BB0609136011496ED91FC9115979381828151
S1134BC02581981B92238481981761F0838126950F
S1134BD02823C081D181C20FD11D68838F5F958145
S1134BE0892383831696ED91FC911797309711F0E2
S1134BF0CD011995FF91EF91DF91CF91BF91AF91C5
S1134C009F918F917F916F915F914F913F912F91E0
S1134C100F900BBE0F900FBE0F901F9018951F9210
S1134C200F920FB60F9211240BB60F922F938F93FE
S1134C309F93AF93BF93EF93FF93E091BF17F091CE
S1134C40C0173097B9F00280F381E02D93818281FF
S1134C509817B1F092818581282F26952923A08168
S1134C60B181A20FB11D2C919F5F89238283209370
S1134C7036010BC0E1E3F1E080818F7D808305C0C4
S1134C80E1E3F1E080818F7D8083FF91EF91BF911B
S1134C90AF919F918F912F910F900BBE0F900FBEEC
S1134CA00F901F901895CF93DF931F92CDB7DEB767
S1134CB0BE016F5F7F4F8091C1179091C2177BDD5A
S1134CC08111F6CF898190E00F90DF91CF91089503
S1134CD0682F8091C1179091C217EDDC80E090E0BD
S1134CE008958F929F92AF92CF92EF920F93812C5F
S1134CF0912C6894AA24A7F86894CC24C7F8E12CD2
S1134D0000E023E040E051EE60E070E02DDC9093A1
S1134D10C2178093C117ECE0F8E183E192E091833C
S1134D208083938382830F91EF90CF90AF909F9075
S1134D308F90089590E0FC01EE0FFF1FE80FF91F1C
S1134D40EE0FFF1FED53F84E238121111FC09C016C
S1134D50220F331FF901E80FF91FEE0FFF1FED5368
S1134D60F84EA081B1814C91F901E80FF91FEE0FC3
S1134D70FF1FED53F84E81E090E0028002C0880FDF
S1134D80991F0A94E2F7842B8C930895FC01EE0F8B
S1134D90FF1FDF01A80FB91FAA0FBB1FAD53B84EE9
S1134DA00D90BC91A02D2C91E80FF91FEE0FFF1F61
S1134DB0ED53F84E81E090E0028002C0880F991F05
S1134DC00A94E2F7809582238C93089590E0FC0185
S1134DD0EE0FFF1FE80FF91FEE0FFF1FED53F84E04
S1134DE02381211120C09C01220F331FF901E80FF8
S1134DF0F91FEE0FFF1FED53F84EA081B1814C91C6
S1134E00F901E80FF91FEE0FFF1FED53F84E81E093
S1134E1090E0028002C0880F991F0A94E2F78095FF
S1134E2084238C930895FC01EE0FFF1FDF01A80F6C
S1134E30B91FAA0FBB1FAD53B84E0D90BC91A02D46
S1134E402C91E80FF91FEE0FFF1FED53F84E81E090
S1134E5090E0028002C0880F991F0A94E2F7822B27
S1134E608C930895CC24C394D12C6894BB24B2F8B9
S1134E70C3ECD7E110E08C81813081F018F18230ED
S1134E8061F5E881F9812081C6010A8002C0880F9A
S1134E90991F0A94E2F7822780831FC08D818F5F58
S1134EA0863010F48D8319C01D82E881F981208138
S1134EB0C6010A8002C0880F991F0A94E2F782276C
S1134EC080830BC00D81002329F0812F7FDF0150E7
S1134ED00D8303C0BC82812F2DDF1F5F2696143003
S1134EE051F66CE070E080E090E00E94BB0FC0CF10
S1134EF0EF92FF920F931F93CF93DF93082F80E4D9
S1134F0087B9C3ECD7E10F2EF8E2EF2EF12CF02D88
S1134F10F982E88286E08A831B8214E01C8380E0A5
S1134F2009DF80E887B9FF82EE8287E088871986E7
S1134F301A8781E0FFDE80E283BB84E390E09D87F3
S1134F408C8785E08E871F86188B82E0F3DE80E1F4
S1134F508093010182E091E09B8B8A8B1C8B1D8ADC
S1134F601E8B83E0E7DEE12CF12C20E030E040EC06
S1134F7050E06DEF77E082E397E20E94B60CDF9198
S1134F80CF911F910F91FF90EF900895CF93DF93EE
S1134F9090E0FC01EE0FFF1FDF01A80FB91FAA0F5D
S1134FA0BB1FAD53B84ECD91DC911197488121E0E0
S1134FB030E012960C90129702C0220F331F0A940D
S1134FC0E2F724272883FD0181E08483DF91CF91D8
S1134FD00895CF93DF9390E0FC01EE0FFF1FDF01F4
S1134FE0A80FB91FAA0FBB1FAD53B84ECD91DC91CA
S1134FF01197488121E030E012960C90129702C07C
S1135000220F331F0A94E2F724272883FD0182E04C
S11350108483DF91CF910895282F30E0F901EE0FBA
S1135020FF1FE20FF31FEE0FFF1FED53F84E93E047
S11350309483CCCE0895282F30E0F901EE0FFF1FA2
S1135040E20FF31FEE0FFF1FED53F84E94E094832D
S113505071CE089590E0FC01EE0FFF1FDF01A80F51
S1135060B91FAA0FBB1FAD53B84E26E015962C935B
S11350701597FD011482089590E0FC01EE0FFF1FC7
S1135080DF01A80FB91FAA0FBB1FAD53B84E159669
S11350901C921597FD0114820895E091E317F09195
S11350A0E417309709F0199508956450623008F0B8
S11350B03BC02091E217223079F018F4213031F00E
S11350C030C0233081F02430A1F02BC022E02093A3
S11350D0E21761E00AC20895FA0180818093DF1724
S11350E082E0DBCF089524E02093E21764E0FDC161
S11350F00895FA01818190E0982F88272081822BDE
S11351009093DE178093DD17838190E0982F882792
S11351102281822B9093DC178093DB1781E0BDCF33
S1135120089580E0BACF08951092E21786E0B5CFD3
S113513008952091E5173091E6172115310541F0C6
S1135140462FBC01C90185D1823021F080E0089549
S113515087E0089585E008950F931F939093E417D3
S11351608093E31705E518E220E034E244EF50E0D1
S113517060E089E21DD19093E6178093E517892BAF
S113518011F080E001C088E01F910F910895CF9342
S1135190DF931F921F92CDB7DEB780EA898383E045
S11351A08A831092E21762E0CE010196C2DF0F906B
S11351B00F90DF91CF910895CF93DF931F92CDB7D6
S11351C0DEB784EB898383E08093E21761E0CE014C
S11351D00196AFDF0F90DF91CF9108952F923F9208
S11351E04F925F926F927F928F929F92AF92BF92F3
S11351F0CF92DF92EF92FF920F931F93CF93DF939F
S1135200C091DB17D091DC17CF3F2FEFD20741F0CD
S11352106091DD177091DE176F3FEFEF7E0759F451
S11352204FEF5FEF6FE77FE7FC01408351836283B9
S1135230738383E099C01C0180E090E034D32B0198
S11352403C01BE0180E090E02ED34B015C018091D3
S1135250E01790E0019624E6289FB001299F700D85
S113526011248091E117803269F08033A1F08031FC
S1135270E1F40F2EC12CD12CF8ECEF2EF1E4FF2E2B
S1135280F02D1BC00F2EC12CD12CF6EDEF2EF3E424
S1135290FF2EF02D12C00F2EC12CF0E5DF2EFAE107
S11352A0EF2EF6E4FF2EF02D08C00F2EC12CD12CCA
S11352B0F0E8EF2EFFE3FF2EF02D072E000C880BF5
S11352C0990BF3D2A701960157D320E030E04CECC0
S11352D053E47ED26B017C0125E83BEE41ED5FE3B4
S11352E0C501B40149D39B01AC01C301B20109D288
S11352F0A70196016DD2162FD72FC82F092F2DE3A2
S11353003AE047E15FE3C301B20136D32B013C012C
S113531026EF38E24CE55FE3C501B4012DD39B01D0
S1135320AC01C301B201EDD1A701960151D2C62E41
S1135330D72EE82EF92E262F372F482F592F612FDD
S11353407D2F8C2F902F14D3181624F01C2DDD2DB7
S1135350CE2D0F2D412F5D2F6C2F702FF101408327
S113536051836283738380E0DF91CF911F910F910A
S1135370FF90EF90DF90CF90BF90AF909F908F9071
S11353807F906F905F904F903F902F900895809101
S1135390F51781110CC08CE08093B8008FEF8093D7
S11353A0BB0084E08093BC0081E08093F5170895EE
S11353B0AF92BF92CF92DF92EF92FF920F931F931F
S11353C0CF93DF93A82EB62E69017A0184E090E092
S11353D087D3EC01892B61F1A88281E0B81212C055
S11353E0C701B60120EA36E841E050E04FD3DA01C4
S11353F0C9014097A109B109B695A79597958795D5
S1135400898311C0C701B60120E83AE146E050E0C3
S11354103DD3DA01C9014097A109B109B695A79511
S11354209795879589831B830A838C2F9D2F02C0B0
S113543080E090E0DF91CF911F910F91FF90EF906A
S1135440DF90CF90BF90AF9008958091BC008170A1
S11354500895FF920F931F93CF93DF930097D1F199
S11354604A30D0F5F42E8B01EC01EFDF811136C008
S11354708091E8179091E917C817D90741F087DFA1
S113548089818093B800D093E917C093E81781E02D
S11354908F0D8093EA178881880F8093EB17FF2084
S11354A089F0F801ACEEB7E14FEF4F0D642F70E0D7
S11354B0CB010196B801680F791F81918D93E6178E
S11354C0F707D9F788EF8093210285EA8093BC001F
S11354D084E005C086E003C087E001C082E0DF917C
S11354E0CF911F910F91FF9008951F93CF93DF9356
S11354F0009729F16B3028F5162FEC01A6DF8111F6
S113550022C08091E8179091E917C817D90741F094
S11355103EDF89818093B800D093E917C093E817E0
S11355201093EA178881880F81608093EB1788EFC6
S11355308093210285EA8093BC0085E005C086E063
S113554003C087E001C082E0DF91CF911F910895ED
S11355501F920F920FB60F9211240BB60F922F9336
S11355603F934F935F936F937F938F939F93AF93E7
S1135570BF93EF93FF93E091B9008E2F90E0FC016D
S11355803897E135F10508F075C08827E458FF4FD6
S11355908F4F9EC21092E717E091E7178091EA17A8
S11355A0E81770F481E08E0F8093E717F0E0E5517F
S11355B0F84E80818093BB0085E88093BC0072C064
S11355C084E98093BC008091E8179091E917DC018D
S11355D01296ED91FC911397309709F463C020E083
S11355E040E050E064E019955DC0E091E71781E088
S11355F08E0F8093E7178091BB00F0E0E551F84EE1
S113560080838091B900803411F41092E7172091BF
S1135610E71730E08091EA1790E0019728173907DF
S113562024F485EC8093BC003DC085E88093BC00E5
S113563039C08091BB00E091E717F0E0E551F84EE6
S1135640808384E98093BC008091E8179091E917E6
S1135650DC011296ED91FC911397309719F120918A
S1135660EA174BEE57E165E019951CC085EA809373
S1135670BC0018C08091B9008093210284E080931B
S1135680BC008091E8179091E917DC011296ED9126
S1135690FC911397309731F020E040E050E06091A6
S11356A021021995FF91EF91BF91AF919F918F9135
S11356B07F916F915F914F913F912F910F900BBE0E
S11356C00F900FBE0F901F901895FC01411101C05F
S11356D028D3842F90E09C01215031098223932305
S11356E0892B09F01ED3413808F01BD31282138290
S11356F04483440F415045837183608380E090E08C
S113570008955058BB27AA270ED021C112D130F0DA
S113571017D120F031F49F3F11F41EF407C10EF4A9
S1135720E095E7FBFDC0E92F0E94B11C78F3BA179E
S1135730620773078407950720F079F4A6F50C94A3
S1135740D31C0EF4E0950B2EBA2FA02D0B01B9013A
S113575090010C01CA01A0011124FF27591B99F0E3
S1135760593F50F4503E68F11A16F040A22F232FEF
S1135770342F4427585FF3CF469537952795A7953F
S1135780F0405395C9F77EF41F16BA0B620B730BE6
S1135790840BBAF09150A1F0FF0FBB1F661F771F57
S11357A0881FC2F70EC0BA0F621F731F841F48F40C
S11357B0879577956795B795F7959E3F08F0B1CF94
S11357C09395880F08F09927EE0F9795879508957C
S11357D00DD0BDC0B5D048F0ACD038F021F45F3F57
S11357E021F09EC051110C94D41CA0C00E94B11C85
S11357F088F39923B9F35523A1F3951B550BBB27C4
S1135800AA2762177307840738F09F5F5F4F220F40
S1135810331F441FAA1FA9F334D00E2E3AF0E0E838
S113582031D091505040E695001CCAF72AD0FE2F83
S113583028D0660F771F881FBB1F26173707480716
S1135840AB07B0E809F0BB0B802DBF01FF279358CD
S11358505F4F32F09E3F510570F062C00C94D41C2F
S11358605F3FE4F3983ED4F3869577956795B795B3
S1135870F7959F5FC9F7880F911D9695879597F9BE
S11358800895E1E0660F771F881FBB1F6217730737
S11358908407BA0720F0621B730B840BBA0BEE1F4C
S11358A088F7E0950895E89409C097FB3EF4909535
S11358B08095709561957F4F8F4F9F4F9923A9F0E5
S11358C0F92F96E9BB279395F69587957795679574
S11358D0B795F111F8CFFAF4BB0F11F460FF1BC0B8
S11358E06F5F7F4F8F4F9F4F16C0882311F096E94B
S11358F011C0772321F09EE8872F762F05C06623F9
S113590071F096E8862F70E060E02AF09A95660FB1
S1135910771F881FDAF7880F9695879597F908956A
S113592097F99F6780E870E060E008959FEF80EC4E
S1135930089500240A9416161706180609060895F1
S113594000240A9412161306140605060895092E57
S11359500394000C11F4882352F0BB0F40F4BF2BC6
S113596011F460FF04C06F5F7F4F8F4F9F4F089506
S113597069D008F48FEF08950CD0E9CFDADF28F06E
S1135980DFDF18F0952309F0CBCFD0CF11240C948E
S1135990D41C0E94B11C90F3959FC1F3950F50E065
S11359A0551F629FF001729FBB27F00DB11D639FCD
S11359B0AA27F00DB11DAA1F649F6627B00DA11D73
S11359C0661F829F2227B00DA11D621F739FB00D19
S11359D0A11D621F839FA00D611D221F749F332789
S11359E0A00D611D231F849F600D211D822F762F22
S11359F06A2F11249F57504092F0E9F088234AF00F
S1135A00EE0FFF1FBB1F661F771F881F915050406A
S1135A10A9F79E3F510578F083CF0C94D41C5F3FC7
S1135A20E4F3983ED4F3869577956795B795F79503
S1135A30E7959F5FC1F7FE2B880F911D969587957B
S1135A4097F90895990F0008550FAA0BE0E8FEEFA7
S1135A5016161706E807F907C0F012161306E4072E
S1135A60F50798F0621B730B840B950B39F40A2627
S1135A7061F0232B242B252B21F408950A2609F405
S1135A80A140A6958FEF811D811D0895A1E21A2ED4
S1135A90AA1BBB1BFD010DC0AA1FBB1FEE1FFF1FCE
S1135AA0A217B307E407F50720F0A21BB30BE40B1E
S1135AB0F50B661F771F881F991F1A9469F7609565
S1135AC07095809590959B01AC01BD01CF0108951F
S1135AD0EE0FFF1F881F8BBF0790F691E02D1994DE
S1135AE00F931F93CF93DF938230910510F482E0DC
S1135AF090E0E0910A18F0910B1820E030E0A0E06B
S1135B00B0E0309719F14081518102811381481727
S1135B105907C8F08417950769F4109731F0129665
S1135B200C93129713961C9327C000930A18109392
S1135B300B1822C02115310519F04217530718F428
S1135B409A01BD01EF01DF01F801DBCF2115310519
S1135B50F9F0281B390B2430310580F48A819B81AC
S1135B606115710521F0FB019383828304C0909336
S1135B700B1880930A18FE01329644C0FE01E20F0E
S1135B80F31F8193919322503109398328833AC0BA
S1135B902091081830910918232B41F42091020216
S1135BA030910302309309182093081820910002C1
S1135BB0309101022115310541F42DB73EB74091D2
S1135BC0040250910502241B350BE0910818F09152
S1135BD00918E217F307A0F42E1B3F0B2817390707
S1135BE078F0AC014E5F5F4F2417350748F04E0F35
S1135BF05F1F50930918409308188193919302C032
S1135C00E0E0F0E0CF01DF91CF911F910F91089573
S1135C10CF93DF93009709F481C0FC01329713827C
S1135C201282A0910A18B0910B18109781F4208168
S1135C303181820F931F2091081830910918281779
S1135C40390751F5F0930918E093081867C0ED017E
S1135C5020E030E0CE17DF0740F44A815B819E01EB
S1135C6041155105F1F0EA01F5CFD383C283408198
S1135C705181840F951FC817D90759F488819981D8
S1135C80840F951F0296918380838A819B819383DD
S1135C9082832115310529F4F0930B18E0930A1837
S1135CA03DC0E901FB83EA8349915991C40FD51F93
S1135CB0EC17FD0761F480819181840F951F029692
S1135CC0E90199838883828193819B838A83E0E0BD
S1135CD0F0E012968D919C911397009719F0FD01B5
S1135CE0DC01F7CF8D919C9111979D012E5F3F4F61
