S0100000534550345F494F542E73726563AD
S1130000E5C0000004C1000002C1000000C10000FE
S1130010FEC00000FCC00000FAC00000F8C00000F0
S1130020F6C00000F4C00000F2C00000F0C0000000
S1130030DCC30000ECC00000EAC00000E8C000001F
S1130040E6C00000E4C00000E2C00000E0C0000020
S1130050DEC00000DCC00000DAC00000D8C0000030
S1130060D6C000000C9477210C94C921D0C00000A4
S1130070CEC00000CCC00000CAC00000C8C0000050
S1130080C6C00000C4C00000C2C00000C0C0000060
S11300900C940D220C945F22BAC000000C94242806
S11300A0B6C00000B4C00000B2C00000B0C0000080
S11300B0AEC00000ACC00000AAC00000A8C0000090
S11300C0A6C00000A4C00000A2C000000C94A3229B
S11300D00C94F5229CC000000C9439230C948B23BF
S11300E096C00000D516D516D5160C171417291767
S11300F0D516D5160C1714174628B628B628B628D0
S1130100B628B628B628B6284628B628B628B6286B
S1130110B628B628B628B6284828B628B628B62859
S1130120B628B628B628B628B628B628B628B628DB
S1130130B628B628B628B6284828B628B628B62839
S1130140B628B628B628B628B628B628B628B628BB
S1130150B628B628B628B628B228B628B628B628AF
S1130160B628B628B628B6287D28B628B628B628D4
S1130170B628B628B628B628B628B628B628B6288B
S1130180B628B628B628B6287128B628B628B628C0
S1130190B628B628B628B62895280E94250B809143
S11301A0CD15823008F05BD20E945217F6CFCF9360
S11301B0DF931F92CDB7DEB7CE0101960E94521491
S11301C049810E9447160E949E16F6CF11241FBE35
S11301D0CFEFD1E2DEBFCDBF00E00CBF17E0A0E05F
S11301E0B2E0E0E2FFE500E00BBF02C007900D9231
S11301F0A03CB107D9F727E1A0ECB7E001C01D92FC
S1130200AC3CB207E1F70E94E9190C948E2FF8CEAA
S1130210ECECF7E0A0EDB7E0B183A0831382128287
S1130220E8E7F5E1F093CB07E093CA071382128263
S11302301182108288EA9DE013969C938E93129704
S1130240ED93FC939093C7078093C6079093C907D7
S11302508093C80780E090E89093C1078093C0071B
S11302600895CF93DF93EC01ACECB7E001C0DF015C
S1130270ED91FC911197EC17FD07C8F312968D913F
S11302809C9113979D01280F391FC217D30749F476
S11302902A813B81820F931F13969C938E9312970E
S11302A0ED018A819B819E01280F391FE217F30714
S11302B0C1F42091CA073091CB07E217F30771F01C
S11302C022813381820F931F9B838A83ED91FC915A
S11302D01197808191819983888305C0398328830C
S11302E002C0F983E883CA17DB0711F0CD93DC93CE
S11302F0DF91CF910895EF92FF920F931F93CF93C5
S1130300DF938C010E94700C8091CA079091CB07F7
S1130310892B09F47DDF8091C0079091C107802368
S11303209123892B09F076C00115110549F0C80104
S113033004960817190718F000E010E001C08C01BA
S11303400115110509F469C08091C8079091C90786
S11303508017910708F464C0C091CC07D091CD07F1
S1130360ECECF7E002C0FE01EC018A819B8180176E
S1130370910720F4888199810097A9F78091CA0791
S11303809091CB07C817D90709F44DC0E080F180DC
S113039084E0E80EF11C88819981918380832A810D
S11303A03B81201B310B2930310548F0CE01800FF1
S11303B0911FFC01338322831B830A8352DF2A812A
S11303C03B818091C8079091C907821B930B90933E
S11303D0C9078093C8074091C6075091C70784177F
S11303E0950720F49093C7078093C6078091C007B0
S11303F09091C107282B392B3B832A8319821882B9
S11304008091C4079091C50701969093C507809386
S1130410C4070BC0E12CF12C08C0E12CF12C05C061
S1130420E12CF12C02C0E12CF12C0E94B00DE1145E
S1130430F10411F40E945E17C701DF91CF911F915F
S11304400F91FF90EF9008950F931F93CF93DF9335
S1130450009791F1EC0124974A815B812091C007B8
S11304603091C107BA0162237323672B29F1688194
S11304707981672B09F520953095242335233B8317
S11304802A830E94700C8A819B812091C807309135
S1130490C907820F931F9093C9078093C807CE01A1
S11304A0E0DE8091C2079091C30701969093C30741
S11304B08093C2070E94B00DDF91CF911F910F91DD
S11304C00895FC010396928381834FEF5FEFBA0195
S11304D04383548365837683908787839287818758
S11304E010820895FC011386128608950F931F93BA
S11304F0CF93DF93EB01088119812A813B810F3F60
S11305004FEF14072407340721F4FC01A185B285B9
S113051011C0DC01139601C0DF011496ED91FC912A
S1130520159740815181628173810417150726074D
S1130530370790F71496ED91FC911597FD83EC83A2
S1130540D783C683BF83AE831596DC93CE9314976B
S11305509B878A87FC0120812F5F2083DF91CF91C5
S11305601F910F910895CF93DF93FC01A285B3856A
S1130570C481D581868197819F838E83C681D781EB
S1130580848195819D838C8311968D919C91129782
S1130590E817F90731F48681978112969C938E931C
S11305A01197138612868C9181508C938C91DF91D4
S11305B0CF910895A89590EC88E10FB6F894A8958A
S11305C0809360000FBE909360000895FC016083E7
S11305D0319770833197108231971082319720E8D8
S11305E02083319710823197108231971082779748
S11305F040833197508386970895DCDFA0913B16A2
S1130600B0913C16CD91CDBFDD91DEBFFF91EF914E
S1130610DF91CF91BF91AF919F918F917F916F9116
S11306205F914F913F912F911F910F91FF90EF9008
S1130630DF90CF90BF90AF909F908F907F906F90FE
S11306405F904F903F902F901F900F900CBE0F9093
S11306500BBE0F900FBE0F90089581E008950F9286
S11306600FB6F8940F920BB60F920CB60F921F921E
S113067011242F923F924F925F926F927F928F92AA
S11306809F92AF92BF92CF92DF92EF92FF920F931D
S11306901F932F933F934F935F936F937F938F9306
S11306A09F93AF93BF93CF93DF93EF93FF93A09167
S11306B03B16B0913C160DB60D920EB60D920E94EB
S11306C00C0FA0913B16B0913C16CD91CDBFDD919E
S11306D0DEBFFF91EF91DF91CF91BF91AF919F91D9
S11306E08F917F916F915F914F913F912F911F91C6
S11306F00F91FF90EF90DF90CF90BF90AF909F90BD
S11307008F907F906F905F904F903F902F901F90AD
S11307100F900CBE0F900BBE0F900FBE0F9008955C
S11307200F920FB6F8940F920BB60F920CB60F926D
S11307301F9211242F923F924F925F926F927F9259
S11307408F929F92AF92BF92CF92DF92EF92FF92DD
S11307500F931F932F933F934F935F936F937F93C5
S11307608F939F93AF93BF93CF93DF93EF93FF93B5
S1130770A0913B16B0913C160DB60D920EB60D929B
S113078013BE0E94840C81110E940C0FA0913B1691
S1130790B0913C16CD91CDBFDD91DEBFFF91EF91BD
S11307A0DF91CF91BF91AF919F918F917F916F9185
S11307B05F914F913F912F911F910F91FF90EF9077
S11307C0DF90CF90BF90AF909F908F907F906F906D
S11307D05F904F903F902F901F900F900CBE0F9002
S11307E00BBE0F900FBE0F9008959ADF18950FB6A9
S11307F0F8940F92FC01868D811102C081E001C042
S113080080E00F900FBE08950FB6F8940F92FC018C
S1130810268D878D281302C081E001C080E00F90EF
S11308200FBE08950F931F93CF93DF93EC01042F12
S11308301E8D48A141110CC088819981892B09F032
S113084042C08C819D810E941D111D821C8242C068
S1130850011117C050E08A819B810E94112C28A1AC
S11308608A819B81820F911D9B838A832C813D8188
S11308708217930750F1888199819B838A8380E052
S113088029C050E08E819F810E94112C88A190E0A4
S11308909195819591092E813F81280F391F3F83BE
S11308A02E83488159812417350730F42C813D81EA
S11308B0820F931F9F838E83023049F4112349F0E2
S11308C0115080E007C080E005C080E003C080E0F4
S11308D001C080E01F5F1E8FDF91CF911F910F91A8
S11308E00895FC0140A14423A9F050E026813781FA
S11308F0240F351F37832683848195812817390770
S113090020F08081918197838683CB0166817781F2
S11309100C94112C08951F93CF93DF93EC010FB621
S1130920F8940F921AA10BC08B89882351F0CE0141
S113093043960E94CA0F81110E940611115011168C
S11309409CF38FEF8AA30F900FBE0FB6F8940F920B
S113095019A10BC08885882351F0CE0108960E9406
S1130960CA0F81110E940611115011169CF38FEFCA
S113097089A30F900FBEDF91CF911F910895CF935C
S1130980DF93EC010FB6F8940F92E881F9818F8D13
S113099028A190E030E0829FA001839F500D929F98
S11309A0500D11244E0F5F1F5D834C831E8EFB83FD
S11309B0EA830197289FA001299F500D389F500D6D
S11309C01124CF01840F951F9F838E838FEF89A3FA
S11309D08AA361110BC08885882371F0CE01089623
S11309E00E94CA0F882341F03ADE06C0CE01089661
S11309F068DDCE01439665DD0F900FBE81E0DF9187
S1130A00CF9108950F931F93F801611103C01183CF
S1130A10008302C051834083878F60A361E0CF01CC
S1130A20AEDF1F910F910895DF92EF92FF920F9323
S1130A301F93CF93DF93F82EE62ED42E869FC0010A
S1130A401124839658DCEC01009741F08C012D2D84
S1130A50AC014D5D5F4F6E2D8F2DD4DFCE01DF9144
S1130A60CF911F910F91FF90EF90DF900895CF9257
S1130A70DF92EF92FF920F931F93CF93DF93CDB743
S1130A80DEB729970FB6F894DEBF0FBECDBF7C0149
S1130A906B012E833F834887598710E00FB6F89483
S1130AA00F92F701968D878D981710F00230B1F4EC
S1130AB0402FB601C701B6DEF7019389992341F0AF
S1130AC0C70143960E94CA0F882321F0C8DD02C0E3
S1130AD08111C5DD0F900FBE81E04AC08E819F81D8
S1130AE0A885B985892B8A2B8B2B21F40F900FBEF7
S1130AF080E03EC0111105C0CE0101960E948F1006
S1130B0011E00F900FBEECD60FB6F8940F92F701D8
S1130B1081A18F3F09F411A2F70182A18F3F09F44B
S1130B2012A20F900FBEBE016A5F7F4FCE010196E5
S1130B300E94A010811118C0C70166DE882381F0CD
S1130B404E815F8168857985C70108960E94710F7F
S1130B50C701E1DE0E94B00D8111A0CF80DD9ECFE0
S1130B60C701D9DEFDD79ACFC701D5DEF9D780E01A
S1130B7029960FB6F894DEBF0FBECDBFDF91CF919B
S1130B801F910F91FF90EF90DF90CF900895EF9217
S1130B90FF920F931F93CF93DF938A01FC01568D2D
S1130BA0378D531710F02230F9F4422F7801EC01FD
S1130BB01AA18E8DCE0136DE1F3F81F48B898823E6
S1130BC0A9F0CE0143960E94CA0F882389F0E1144C
S1130BD0F10481F081E0F70180830DC0FF24F394D8
S1130BE0F10EFAA281E007C080E005C081E003C0F5
S1130BF081E001C081E0DF91CF911F910F91FF90BF
S1130C00EF900895CF92DF92EF92FF920F931F938C
S1130C10CF93DF93CDB7DEB729970FB6F894DEBF35
S1130C200FBECDBF8C016B012E833F83488759874C
S1130C30E12C0FB6F8940F92F801F68CFF2099F08E
S1130C40B601C8014EDEFA94F801F68E8085882339
S1130C5031F0C80108960E94CA0F811100DD0F907F
S1130C600FBE81E04FC08E819F81A885B985892BF5
S1130C708A2B8B2B21F40F900FBE80E043C0E11030
S1130C8006C0CE0101960E948F10EE24E3940F90CB
S1130C900FBE26D60FB6F8940F92F80181A18F3FAC
S1130CA009F411A2F80182A18F3F09F412A20F9056
S1130CB00FBEBE016A5F7F4FCE0101960E94A01055
S1130CC0811117C0C80193DD882379F04E815F81BB
S1130CD068857985C80143960E94710FC8011BDE9F
S1130CE03FD78111A6CFBBDCA4CFC80114DE38D70F
S1130CF0A0CFC80110DE34D7C80179DD882309F4F8
S1130D0098CF80E029960FB6F894DEBF0FBECDBF12
S1130D10DF91CF911F910F91FF90EF90DF90CF90D3
S1130D200895CF93DF93EC010FB6F8940F9289A145
S1130D308F3F09F419A28AA18F3F09F41AA20F90D8
S1130D400FBE8E8D811104C0CE0143960E94880F80
S1130D50CE01E1DDDF91CF910895FC0144815581FD
S1130D6022813381240F351F80819181B901681B51
S1130D70790BCB016417750710F0841B950B08954C
S1130D800F93FC018FE0DF011D928A95E9F77587C7
S1130D906487558344833783268306870F91089598
S1130DA0AF92BF92CF92DF92EF92FF920F931F9375
S1130DB0CF93DF936C015B017A01FC01C281D38183
S1130DC0048115810C1B1D0B4017510708F48A017F
S1130DD0F60184859585A801B5018C0F9D1F0E949D
S1130DE0112C0E151F0558F4A701401B510BB5011A
S1130DF0600F711FF601848595850E94112CCE0128
S1130E008E0D9F1DF601248135818217930710F002
S1130E10821B930BF60193838283C701DF91CF91E9
S1130E201F910F91FF90EF90DF90CF90BF90AF9004
S1130E300895CF92DF92EF92FF920F931F93CF9377
S1130E40DF931F921F92CDB7DEB77C016B015A83EB
S1130E50498321153105C1F0FC01868580FD08C058
S1130E604217530708F49A013A83298381E00FC09B
S1130E702017310758F042E050E0BE016F5F7F4F0A
S1130E80C7018EDF81E003C080E001C080E08823D9
S1130E9031F049815A81B601C70182DF02C080E086
S1130EA090E00F900F90DF91CF911F910F91FF90E1
S1130EB0EF90DF90CF900895AF92BF92CF92DF92E0
S1130EC0EF92FF920F931F93CF93DF937C015B010B
S1130ED0E9014217530708F4EA01209781F1F70169
S1130EE00081118184819581801B910B6E018C1787
S1130EF09D0708F46C01F70164857585600F711F07
S1130F00A601C5010E94112CCC16DD0658F4AE01D1
S1130F104C195D09F70164857585C5018C0D9D1D0E
S1130F200E94112C0C0F1D1FF70184819581081755
S1130F30190710F0081B190BF70111830083CE0168
S1130F40DF91CF911F910F91FF90EF90DF90CF90A1
S1130F50BF90AF9008956F927F928F929F92AF92BD
S1130F60BF92CF92DF92EF92FF920F931F93CF9392
S1130F70DF931F921F92CDB7DEB76C014B015A016C
S1130F80790101151105B1F0FC0160807180A8019F
S1130F90BE016F5F7F4F90DF89819A81E01AF10A69
S1130FA0A816B90630F4F60171826082A12CB12C26
S1130FB001C05C019701A501B401C6017DDF0F905A
S1130FC00F90DF91CF911F910F91FF90EF90DF90E1
S1130FD0CF90BF90AF909F908F907F906F90089527
S1130FE0CF92DF92EF92FF920F93CF93DF93EC01B6
S1130FF06B01413011F401E001C000E0C114D104DF
S113100019F4CC24C394D12CCE014096C817D90727
S113101020F4219670D97C0102C0E12CF12CE1145A
S1131020F10439F09601AE01B701615F7F4FC7014A
S1131030A7DEC701DF91CF910F91FF90EF90DF9072
S1131040CF9008950F930FB6F8940F92FC0120856A
S11310503185232B71F422853385232B61F426817A
S113106037814481558164857585068589DE81E0F3
S113107003C080E001C080E00F900FBE0F9108957F
S1131080FC012481358180819181820F931F4281EB
S11310905381841B950B01978217930710F0821BD1
S11310A0930B08952F923F924F925F926F927F928B
S11310B08F929F92AF92BF92CF92DF92EF92FF9264
S11310C00F931F93CF93DF93CDB7DEB72B970FB654
S11310D0F894DEBF0FBECDBF4C017B876A871A012F
S11310E00E831F8328873987FC01848195810197AA
S11310F0268520FF0CC02A01F2E04F0E511C8415F6
S1131100950558F41E821F821886198606C0841716
S1131110950710F02A0101C02C018E819F81A885BA
S1131120B985892B8A2B8B2B09F436C0CE01019605
S1131130E0D70FB6F8940F92C401A2DF3C018415E6
S1131140950538F560E080E090E00E9438140E9434
S11311500A11F401938782870F900FBEAE80BF807F
S1131160C884D984E12CF12C00E010E0980140E01F
S113117050E0BA0180E00E947811F40113861286CF
S1131180BE016A5F7F4FCE010196DAD7882389F2C8
S113119005C00F900FBE02C0612C712C6114710444
S11311A019F4C4016DDF3C0182019301A1016A8538
S11311B07B85C4013EDE6C01892BE9F0C401CDDDE1
S11311C0F4012681378182179307A8F089D3F401AB
S11311D080859185892B71F080859185E12CF12C96
S11311E000E020E030E0A90160E00E941F12F40159
S11311F011861086B5D4C6012B960FB6F894DEBFBF
S11312000FBECDBFDF91CF911F910F91FF90EF9053
S1131210DF90CF90BF90AF909F908F907F906F9012
S11312205F904F903F902F900895AF92BF92CF92CE
S1131230DF92EF92FF920F931F93CF93DF93EC0112
S11312407B015A0169018E8580FF04C08A010E5F0B
S11312501F4F01C08A01CE0113DF9C01A501B70114
S1131260CE01E7DD5C01892BC1F0CE0176DD2E8154
S11312703F818217930788F088859985892B69F0C7
S113128088859985E12CF12C00E020E030E0A9016B
S113129060E00E94161319861886C501DF91CF916C
S11312A01F910F91FF90EF90DF90CF90BF90AF9080
S11312B008954F925F926F927F928F929F92AF9216
S11312C0BF92CF92DF92EF92FF920F931F93CF932F
S11312D0DF93EC012B013A01580169018E8580FFEF
S11312E005C06894882481F8912C02C0812C912C2B
S11312F0A114B104C104D10431F10FB6F8940F92D2
S1131300CE012BDD7C018816990640F060E080E078
S113131090E00E9438147ED7998788870F900FBE7B
S11313208E149F0498F0E12CF12C00E010E0980159
S113133040E050E0BA0180E0DBD719861886CE0180
S11313400CDD7C0103C0CE0108DD7C018E149F04FA
S1131350E8F484019701A301B201CE01FCDD6C0124
S1131360892BB1F0BDD28A859B85892B69F08A854A
S11313709B85E12CF12C00E020E030E0A90160E045
S11313800E941F121B861A86EBD302C0C12CD12CDB
S1131390C601DF91CF911F910F91FF90EF90DF90E5
S11313A0CF90BF90AF909F908F907F906F905F9001
S11313B04F900895E091B515F091B6158081811193
S11313C00CC08FEF9FEFDC0180937F159093801505
S11313D0A0938115B09382150895E091B515F0910D
S11313E0B6150780F085E02D80819181A281B381BB
S11313F080937F1590938015A0938115B0938215E7
S11314000895CF93DF93EC018B8D9C8D1DD8CE0175
S11314101BD8DF91CF9108954F925F926F927F9284
S11314208F929F92AF92BF92CF92DF92EF92FF92F0
S11314300F93CF93DF932C015B014A013901E6013D
S113144065EA70E08B8D9C8D0E941A2C8B8D9C8D8F
S113145021E0821A9108880E991EA114B10489F41E
S113146015C0822F90E0F501E80FF91F3081DE01ED
S1131470A80FB91F5D963C938081882329F02F5FC4
S113148001C020E0203168F31CA601C01D8E0A3083
S113149008F009E00A8F0DA71EA6CE01029622D8F5
S11314A0CE010E961FD8DB87CA878AE090E0A0E0C1
S11314B0B0E0801B9109A109B1098E879F87A88B91
S11314C0B98BDF8BCE8B84E0FE01BF96DF011D92CA
S11314D08A95E9F71BAAA301B201C40177D89983BD
S11314E08883E114F10419F0F701D183C083DF91FB
S11314F0CF910F91FF90EF90DF90CF90BF90AF907E
S11315009F908F907F906F905F904F900895CF93AE
S1131510C0E009C02BE0C29FC001112483539A4E3E
S11315200E946102CF5FCA30A8F382EC95E10E9469
S1131530610287EB95E10E94610288EA95E10E94CD
S113154061028DE995E10E94610281E995E10E94C1
S1131550610282EC95E19093B6158093B51587EB03
S113156095E19093B4158093B315CF910895CF93DB
S1131570DF93EC010FB6F8940F92809190158F5F72
S11315808093901580913B1690913C16892B51F4D1
S1131590D0933C16C0933B1680919015813091F402
S11315A0B6DF10C080918A1581110CC0E0913B1602
S11315B0F0913C16928D8A8D891720F0D0933C16B9
S11315C0C0933B16809183158F5F80938315EA8DBA
S11315D080918B158E1710F4E0938B158BE08E9F02
S11315E0F0011124E353FA4E0180F281E02DFF83D0
S11315F0EE832681378139872887A681B7819E01AA
S11316002E5F3F4F15963C932E9314973783268372
S1131610EA8D8E9FF0011124E353FA4EFD87EC8787
S113162080818F5F80830F900FBE80918A158823FD
S113163049F0E0913B16F0913C16928D8A8D9817F3
S113164008F40DD8DF91CF910895CF93DF931BC099
S11316500FB6F8940F92E091A415F091A515C085EA
S1131660D185CE0102960E94B302809190158150DB
S11316708093901580919C15815080939C150F90B8
S11316800FBECE01BEDE80919C158111E1CFDF91AA
S1131690CF9108958F929F92AF92BF92CF92DF9293
S11316A0EF92FF92CF93DF936B017C01C42F809064
S11316B08C1590908D15A0908E15B0908F158091FB
S11316C03B1690913C1602960E94B3028FEFC81607
S11316D0D806E806F806B1F5CC23A1F1E1E9F5E175
S11316E0A181B281C0913B16D0913C16BF83AE83D9
S11316F0C0913B16D0913C1616968D919C911797EC
S1131700998788871696CD91DC91179780913B161F
S113171090913C1602969D838C8380913B16909108
S11317203C16029617969C938E931697A0913B169F
S1131730B0913C161D96FC93EE931C9780818F5FAD
S113174080833FC0C80CD91CEA1CFB1CE0913B16EB
S1131750F0913C16C282D382E482F582C814D90483
S1131760EA04FB0468F460913B1670913C16809186
S1131770B3159091B4156E5F7F4F0E94760221C01D
S113178060913B1670913C168091B5159091B615F9
S11317906E5F7F4F0E94760280917F159091801535
S11317A0A0918115B0918215C816D906EA06FB06E8
S11317B040F4C0927F15D0928015E0928115F0928A
S11317C08215DF91CF91FF90EF90DF90CF90BF9083
S11317D0AF909F908F9008952F923F924F925F9277
S11317E06F927F928F929F92AF92BF92CF92DF922D
S11317F0EF92FF920F93CF93DF933C011B014A01B9
S11318002901CA010E947B016C01892B71F084E3D8
S113181090E00E947B01EC01892B19F0DC8ECB8EC9
S113182006C0C6010E94240202C0C0E0D0E0209796
S113183061F0A12CB12C6E019201A401B101C3018C
S1131840EBDDCE0194DE81E001C08FEFDF91CF911B
S11318500F91FF90EF90DF90CF90BF90AF909F904B
S11318608F907F906F905F904F903F902F9008954E
S1131870EF92FF920F930F2EFDE7EF2EF5E1FF2E6F
S1131880F02D00E020E030E040EC50E06FE672E044
S11318908DEC90E0A1DF813011F40E94DC148130E2
S11318A0C9F4F8948FEF9FEFDC0180937F15909338
S11318B08015A0938115B093821581E080938A15D9
S11318C010928C1510928D1510928E1510928F1502
S11318D00E94FD02809106020F91FF90EF900895FF
S11318E080917C158F5F80937C1508950FB6F894D2
S11318F00F9260918C1570918D1580918E15909139
S11319008F150F900FBE0895CF92DF92EF92FF9242
S1131910CF93DF9380917C15811105C1C0908C1504
S1131920D0908D15E0908E15F0908F158FEFC81A1A
S1131930D80AE80AF80AC0928C15D0928D15E09264
S11319408E15F0928F15C114D104E104F104B1F4A1
S11319508091B5159091B6152091B3153091B415B9
S11319603093B6152093B5159093B4158093B315A1
S1131970809184158F5F809384151CDD80917F1581
S113198090918015A0918115B0918215C816D90641
S1131990EA06FB0620F480E0B2C081E001C080E0EA
S11319A0E091B515F091B615908191110CC04FEFEF
S11319B05FEFBA0140937F155093801560938115B2
S11319C0709382159CC0E091B515F091B61507800F
S11319D0F085E02D0084F185E02D428153816481FE
S11319E07581C416D506E606F70648F440937F15BC
S11319F050938015609381157093821580C0A485DF
S1131A00B585C681D781208531853F832E83C085E6
S1131A10D185268137813D832C8311964D915C912C
S1131A2012979F012E5F3F4F4217530731F44085B1
S1131A30518512965C934E931197158614869C914A
S1131A4091509C93A08DB18D109709F1C289D389CF
S1131A50448955895F834E83C489D58942895389D2
S1131A605D834C8311966D917C911297AF01425F17
S1131A705F4F6417750731F44489558912965C9356
S1131A804E931197118E108E9C9191509C93A28D20
S1131A9090918B159A1710F4A0938B159BE09A9F45
S1131AA0D0011124A353BA4E11960D90BC91A02DD0
S1131AB0B783A68316964D915C91179751874087FB
S1131AC01696CD91DC9117973D832C8317963C9302
S1131AD02E931697A28D9A9FD0011124A353BA4E28
S1131AE0B587A4879C919F5F9C93228DE0913B16C0
S1131AF0F0913C16928D291708F04FCF51CFE09109
S1131B003B16F0913C16E28D9BE0E99FF001112415
S1131B10E353FA4E9081923008F081E0909185155C
S1131B20911116C016C08091861590918715A091C9
S1131B308815B09189150196A11DB11D8093861554
S1131B4090938715A0938815B093891580E001C000
S1131B5081E0DF91CF91FF90EF90DF90CF900895D7
S1131B60CF92DF92EF92FF92CF93DF930FB6F89468
S1131B700F9280917C15815080937C1580917C1507
S1131B808111BEC080919015811188C0BCC0E091C4
S1131B90AF15F091B0150084F185E02DA08DB18DC5
S1131BA0C289D389848995899F838E83C489D58981
S1131BB0828993899D838C8311962D913C911297F0
S1131BC0CF010E962817390731F484899589129626
S1131BD09C938E931197118E108E8C9181508C93BF
S1131BE0A485B585C681D781808591859F838E83A1
S1131BF0C085D185868197819D838C8311968D9133
S1131C009C9112979F012E5F3F4F8217930731F4E7
S1131C108085918512969C938E93119715861486D0
S1131C208C9181508C93A28D80918B158A1710F41E
S1131C30A0938B158BE08A9FD0011124A353BA4E35
S1131C4011960D90BC91A02DB783A68316964D9145
S1131C505C911797518740871696CD91DC91179721
S1131C603D832C8317963C932E931697A28D8A9FBF
S1131C70D0011124A353BA4EB587A4878C918F5FEA
S1131C808C93928DA0913B16B0913C165A968C91F0
S1131C90981730F081E08093851502C0E0E0F0E011
S1131CA08091A815811173CFEF2B09F083DBC090CD
S1131CB08615D0908715E0908815F0908915C11489
S1131CC0D104E104F104A1F01FDE882319F081E0BE
S1131CD08093851581E0C81AD108E108F108A1F7BD
S1131CE010928615109287151092881510928915F6
S1131CF080918515882331F00E942F0381E003C071
S1131D0080E001C080E00F900FBEDF91CF91FF9083
S1131D10EF90DF90CF9008958F929F92AF92BF92F1
S1131D20CF92DF92EF92FF921F93CF93DF93EC0158
S1131D306A017B01D5DD80908C1590908D15A09063
S1131D408E15B0908F1588819981AA81BB81AC01D1
S1131D50BD014C0D5D1D6E1D7F1D88169906AA06DA
S1131D60BB0660F4481759076A077B0798F4841682
S1131D709506A606B70680F010E013C04817590769
S1131D806A077B0758F084169506A606B70640F046
S1131D9010E007C010E005C011E003C011E001C06D
S1131DA011E0488359836A837B83112341F0CB017B
S1131DB0BA01681979098A099B0940E06BDCD0DE15
S1131DC0811102C00E942F03812FDF91CF911F91B7
S1131DD0FF90EF90DF90CF90BF90AF909F908F9047
S1131DE00895CF92DF92EF92FF926B017C01672BF3
S1131DF0682B692B39F074DD40E0C701B6014ADC79
S1131E00AFDE01C080E0811102C00E942F03FF9069
S1131E10EF90DF90CF90089580917C15882321F076
S1131E2081E080938515089510928515E0913B1605
S1131E30F0913C1620813181E0913B16F0913C16E3
S1131E40838D948D8217930760F060913B16709197
S1131E503C16635E7F4F80913B1690913C160E9426
S1131E606A1780918B1501C08150282F30E09BE0C8
S1131E70929FF001939FF00D1124E353FA4E908149
S1131E80992391F39BE0929FA001939F500D1124FD
S1131E90DF010180F281E02D0480F581E02D1296AE
S1131EA0FC93EE93119740535A4EE417F50729F427
S1131EB044815581FD01528341839BE0929FF0014F
S1131EC0939FF00D1124E353FA4E0180F281E02D2B
S1131ED02085318530933C1620933B1680938B15D7
S1131EE00895CF92DF92EF92FF926A017B01609195
S1131EF03B1670913C16625F7F4F0E94760241E070
S1131F00C701B601C7DBFF90EF90DF90CF90089533
S1131F10CF93DF93FC01CB01BA01A181B281C091BF
S1131F203B16D0913C16BB8BAA8BC0913B16D0912B
S1131F303C1616964D915C9117975D8B4C8B1696BB
S1131F40CD91DC91179740913B1650913C16425F1E
S1131F505F4F5D834C8340913B1650913C16425F2A
S1131F605F4F17965C934E931697A0913B16B091D2
S1131F703C165996FC93EE93589730813F5F30831B
S1131F80222319F06FEF7FEFCB01422F83DBDF9128
S1131F90CF910895CF93DF93DC011796ED91FC91D7
S1131FA018970084F185E02DA08DB18DC289D38965
S1131FB0848995899F838E83C489D58982899389ED
S1131FC09D838C8311968D919C9112979F01225F22
S1131FD03F4F8217930731F48489958912969C9315
S1131FE08E931197118E108E8C9181508C938091C9
S1131FF07C15811152C0A485B585C681D7818085A1
S113200091859F838E83C085D185868197819D83A9
S11320108C8311968D919C9112979F012E5F3F4F57
S11320208217930731F48085918512969C938E9341
S11320301197158614868C9181508C93A28D809172
S11320408B158A1710F4A0938B158BE08A9FD0010F
S11320501124A353BA4E11960D90BC91A02DB783B1
S1132060A68316964D915C911797518740871696D3
S1132070CD91DC9117973D832C8317963C932E9337
S11320801697A28D8A9FD0011124A353BA4EB58707
S1132090A4878C918F5F8C931CC048EA55E1DA01C8
S11320A01196CD91DC911297D38BC28B8E819F8137
S11320B0958B848B8E819F81DC0115963C932E93A6
S11320C014973F832E83518F408FDA018C918F5F59
S11320D08C93928DE0913B16F0913C16828D89177A
S11320E020F481E08093851501C080E0DF91CF91D9
S11320F008950FB6F8940F9220918415FC01208363
S113210040918C1550918D1560918E1570918F159D
S113211041835283638374830F900FBE089520918B
S11321208415FC01208340918C1550918D1560918C
S11321308E1570918F154183528363837483089540
S11321408F929F92AF92BF92CF92DF92EF92FF92C3
S11321500F931F93CF93DF93FB010FB6F8940F9265
S1132160C0908C15D0908D15E0908E15F0908F1541
S1132170DC0111960D911D912D913C91149746010E
S11321805701801A910AA20AB30A408151816281DF
S113219073814F3FBFEF5B076B077B0739F1EC019E
S11321A0B881A0918415BA1759F0C016D106E20679
S11321B0F30630F0108211821282138281E017C07C
S11321C084169506A606B70658F4481959096A09EB
S11321D07B094083518362837383A1DF80E007C05E
S11321E0108211821282138281E001C080E00F907C
S11321F00FBEDF91CF911F910F91FF90EF90DF9071
S1132200CF90BF90AF909F908F90089581E080937E
S11322108515089580913B1690913C160895809100
S11322208A15882331F080917C15811104C082E0E5
S1132230089581E0089580E008950F931F93CF934C
S1132240DF93FC01892B09F449C086A5815086A738
S1132250228D95A5291709F443C0811143C0EF01CC
S11322608F010E5F1F4FC8010E94B302EDA5EA8FD4
S11322708AE090E0A0E0B0E08E1B9109A109B109C9
S11322808E879F87A88BB98B80918B158E1710F43E
S1132290E0938B158BE08E9FF0011124E353FA4EEB
S11322A00180F281E02DFF83EE8326813781398717
S11322B02887A681B78115961C930E9314971783CC
S11322C00683EA8D8E9FF0011124E353FA4EFD87B5
S11322D0EC8780818F5F808381E005C080E003C04C
S11322E080E001C080E0DF91CF911F910F910895AC
S11322F04F925F926F927F92AF92BF92CF92DF9292
S1132300EF92FF920F931F93CF93DF93280139012C
S11323100FB6F8940F92E0913B16F0913C16C82F3B
S1132320D0E0EC0FFD1F83A9823071F1E0913B16E0
S1132330F0913C16CE01880F991F880F991FE80F62
S1132340F91F87A590A9A1A9B2A9409550956095B8
S11323507095482359236A237B2347A750AB61AB6D
S113236072ABE0913B16F0913C16EC0FFD1F81E03F
S113237083ABA114B104C104D10431F041E0C6011E
S1132380B50188D90E942F030F900FBE0FB6F894A1
S11323900F92E114F104A1F0E0913B16F0913C1688
S11323A0CE01880F991F880F991FE80FF91F87A581
S11323B090A9A1A9B2A9F70180839183A283B383D1
S11323C0E0913B16F0913C16EC0FFD1F83A982307F
S11323D0E9F4E0913B16F0913C16CE01880F991F69
S11323E0880F991FE80FF91F87A590A9A1A9B2A981
S11323F04094509460947094482259226A227B221B
S113240047A650AA61AA72AA81E001C080E0209187
S11324103B1630913C16C20FD31F1BAA0F900FBE60
S1132420DF91CF911F910F91FF90EF90DF90CF90AC
S1132430BF90AF907F906F905F904F9008958F9270
S11324409F92AF92BF92EF92FF920F93CF93DF933D
S1132450DC010FB6F8940F92E114F10489F0E62F31
S1132460F0E0EE0FFF1FEE0FFF1FE80FF91F87A428
S113247090A8A1A8B2A8F70180829182A282B38217
S113248070E0FD01E60FF71F83A992E093AB0230E1
S113249001F118F4013031F04DC0033079F104300A
S11324A0D1F148C0660F771F660F771FFD01E60F55
S11324B0F71F87A490A8A1A8B2A8BA01A901482926
S11324C059296A297B2947A750AB61AB72AB01E05C
S11324D034C0660F771F660F771FFD01E60FF71FE5
S11324E047A550A961A972A94F5F5F4F6F4F7F4FF6
S11324F047A750AB61AB72AB01E01FC0660F771FFB
S1132500660F771FFD01E60FF71F27A730AB41AB1E
S113251052AB01E012C0823079F0660F771F660F6C
S1132520771FFD01E60FF71F27A730AB41AB52AB76
S113253001E003C001E001C000E0813009F069C09E
S11325401C96ED91FC911D971696CD91DC911797F1
S113255018968D919C9119979F838E831896CD918F
S1132560DC91199716968D919C9117979D838C8376
S1132570818192819D012E5F3F4F8217930731F431
S113258018968D919C911997928381831D961C9224
S11325901E921C978081815080835A96EC915A97A1
S11325A080918B158E1710F4E0938B158BE08E9F22
S11325B0F0011124E353FA4E0180F281E02D1796C5
S11325C0FC93EE9316974681578119965C934E932C
S11325D01897C681D7813D832C83378326835A96E7
S11325E0EC915A978E9FF0011124E353FA4E1D96F5
S11325F0FC93EE931C9780818F5F80835A969C9105
S1132600E0913B16F0913C16828D891710F40E94DC
S11326102F030F900FBE802FDF91CF910F91FF906A
S1132620EF90BF90AF909F908F9008958F929F925C
S1132630AF92BF92CF92DF92EF92FF920F93CF931C
S1132640DF93DC01E114F10489F0E62FF0E0EE0FF2
S1132650FF1FEE0FFF1FE80FF91F87A490A8A1A882
S1132660B2A8F70180829182A282B38270E0FD0158
S1132670E60FF71F93A982E083AB023001F118F44F
S1132680013031F04DC0033079F10430D1F148C04C
S1132690660F771F660F771FFD01E60FF71F87A4EC
S11326A090A8A1A8B2A8BA01A901482959296A2960
S11326B07B2947A750AB61AB72AB81E034C0660F96
S11326C0771F660F771FFD01E60FF71F47A550A977
S11326D061A972A94F5F5F4F6F4F7F4F47A750AB00
S11326E061AB72AB81E01FC0660F771F660F771F67
S11326F0FD01E60FF71F27A730AB41AB52AB81E0DA
S113270012C0923079F0660F771F660F771FFD01B4
S1132710E60FF71F27A730AB41AB52AB81E003C0F4
S113272081E001C080E0913009F096C090917C1561
S113273091115FC01C96ED91FC911D971696CD9159
S1132740DC91179718962D913C9119973F832E830E
S11327501896CD91DC91199716962D913C91179767
S11327603D832C83418152819D012E5F3F4F42174F
S1132770530731F418964D915C9119975283418314
S11327801D961C921E921C979081915090835A968C
S1132790EC915A9790918B159E1710F4E0938B153A
S11327A09BE09E9FF0011124E353FA4E0180F281D5
S11327B0E02D1796FC93EE93169746815781199650
S11327C05C934E931897C681D7813D832C833783BE
S11327D026835A96EC915A979E9FF0011124E35355
S11327E0FA4E1D96FC93EE931C9790819F5F908305
S11327F021C068EA75E1FB01C181D2815396DC9363
S1132800CE9352972E813F8155963C932E935497A5
S11328104E815F819D01225F3F4FFA0135832483FE
S11328203F832E8359967C936E935897FB01908136
S11328309F5F90835A962C91E0913B16F0913C1641
S1132840928D921748F4C114D10419F091E0F60165
S1132850908391E090938515DF91CF910F91FF9034
S1132860EF90DF90CF90BF90AF909F908F9008959E
S1132870009721F480913B1690913C160FB6F89482
S11328800F9270E0FC01E60FF71F23A9223031F408
S1132890FC01E60FF71F13AA81E001C080E00F904E
S11328A00FBE0895DC01E0914716F091481680812F
S11328B091E0811190E09C93911108C00780F0850C
S11328C0E02D6081718182819381089560E070E0E0
S11328D0CB010895CF92DF92EF92FF920F931F9353
S11328E0FC0142835383648375839387828704172F
S11328F0150726073707C0F00C191D092E093F09D3
S113290086859785A089B189081719072A073B0787
S113291000F5BF016E5F7F4F80914516909146167A
S11329200E94760280E018C00C151D052E053F0597
S113293028F44C155D056E057F0568F4BF016E5FD4
S11329407F4F80914716909148160E94760280E04E
S113295003C081E001C081E01F910F91FF90EF90CF
S1132960DF90CF9008950FB6F8940F92809143169C
S113297090914416892BE9F484E596E10E94610262
S113298089E496E10E94610284E596E190934816F9
S11329908093471689E496E19093461680934516F2
S11329A040E067E08AE00E94140590934416809307
S11329B043160F900FBE0895EF92FF920F93D3DF4B
S11329C08091431690914416892B91F00F2EF1E4D7
S11329D0EF2EF6E1FF2EF02D03E020E030E040EC96
S11329E050E064E772E087ED90E00E94EC0B01C0D8
S11329F080E00F91FF90EF9008958F929F92AF9295
S1132A00BF92CF92DF92EF92FF920F931F93CF93D7
S1132A10DF93CDB7DEB727970FB6F894DEBF0FBEAE
S1132A20CDBFE0914316F0914416309781F169834C
S1132A302A833B834C835D839F838E836630F4F4C7
S1132A40EEDB823069F400E0A7019601BE016F5FFE
S1132A507F4F80914316909144160E94370518C009
S1132A6000E020E030E0A901BE016F5F7F4F80915C
S1132A704316909144160E9437050AC020E0A8012D
S1132A80BE016F5F7F4FCF010E94C70501C080E088
S1132A9027960FB6F894DEBF0FBECDBFDF91CF915E
S1132AA01F910F91FF90EF90DF90CF90BF90AF9068
S1132AB09F908F9008958F929F92AF92BF92CF92E2
S1132AC0DF92EF92FF920F931F93CF93DF933BC05C
S1132AD00780F085E02D80809180A280B380C0853E
S1132AE0D1858E010E5F1F4FC8010E94B302EC898D
S1132AF0FD89CE0119958E8982FF25C08E859F851B
S1132B00A889B989880D991DAA1DBB1D8816990627
S1132B10AA06BB0670F48A839B83AC83BD83DB87E0
S1132B20CA87B80180914716909148160E94760290
S1132B300AC0C12CD12C760100E010E0A50194015B
S1132B4060E0CE015ADFE0914716F091481680818B
S1132B508111BECF809145169091461690934816E8
S1132B6080934716F0934616E0934516DF91CF9174
S1132B701F910F91FF90EF90DF90CF90BF90AF9097
S1132B809F908F900895CF92DF92EF92FF92CF9310
S1132B90DF93EC010E94760C6B017C0180913D1661
S1132BA090913E16A0913F16B0914016C816D906D2
S1132BB0EA06FB0620F47FDF81E0888301C01882E7
S1132BC0C0923D16D0923E16E0923F16F092401607
S1132BD0C701B601DF91CF91FF90EF90DF90CF90C6
S1132BE008954F925F926F927F928F929F92AF92CD
S1132BF0BF92CF92DF92EF92FF920F931F93CF93E6
S1132C00DF934B015C0129013A01E0914716F091F1
S1132C1048160780F085E02DC085D185CE01029647
S1132C200E94B3028E8982FF1BC04E855F8568892E
S1132C307989480D591D6A1D7B1D75016401930135
S1132C408201CE0147DE882369F0C12CD12C7601A4
S1132C5000E010E0A501940160E0CE01CEDE02C0E8
S1132C608E7F8E8BEC89FD89CE011995DF91CF91F2
S1132C701F910F91FF90EF90DF90CF90BF90AF9096
S1132C809F908F907F906F905F904F9008958F9258
S1132C909F92AF92BF92CF92DF92EF92FF921F93D7
S1132CA0CF93DF931F92CDB7DEB76B017C01142F56
S1132CB00E94700CCE01019666DF4B015C01898194
S1132CC081112DC011110DC08C149D04AE04BF04DC
S1132CD040F00E94B00DA5019401C701B60181DF47
S1132CE020C0112341F0E0914516F09146168081F1
S1132CF011E0811110E0B701A601481959096A09C8
S1132D007B09212F80914316909144160E949106CD
S1132D100E94B00D811105C00E942F0302C00E94C1
S1132D20B00D0F90DF91CF911F91FF90EF90DF9046
S1132D30CF90BF90AF909F908F900895AF92BF9225
S1132D40CF92DF92EF92FF920F931F93CF93DF9373
S1132D50CDB7DEB728970FB6F894DEBF0FBECDBF50
S1132D6082C0898188230CF47EC0AE80BF80D501E7
S1132D701C968D919C911D97892B21F0C50102967B
S1132D800E94B302CE010896FEDE8B019C01E9810C
S1132D900E2E000CFF0BEA30F10508F064C0882702
S1132DA0EE58FF4F8F4F0C94E42AF5018689816019
S1132DB0868BCA80DB80EC80FD80468557856089E0
S1132DC071894C0D5D1D6E1D7F1DC50183DD88233A
S1132DD009F449C0D5015496ED91FC915597C5016C
S1132DE01995F501868982FF3EC04A815B816C8119
S1132DF07D8186859785A089B1899A01AB01280FC9
S1132E00391F4A1F5B1FC12CD12C760100E010E052
S1132E1060E0C501F2DD27C0D50156968C91569726
S1132E208E7F56968C931FC0F50186898160868BB0
S1132E304A815B816C817D8146875787608B718B6A
S1132E40400F511F621F731F68017901C50142DDE4
S1132E500AC0F501868981FD04C0C5010E942402CF
S1132E6002C08E7F868B20E030E0A901BE016F5F37
S1132E707F4F80914316909144160E94020681115F
S1132E8070CF28960FB6F894DEBF0FBECDBFDF918A
S1132E90CF911F910F91FF90EF90DF90CF90BF9053
S1132EA0AF900895089584B1806884B985B180682D
S1132EB085B9089583B1806883B90895F4DF2FEF4D
S1132EC080E792E0215080409040E1F700C000008C
S1132ED0F1DFF5CFE8DF2FEF87EA91E6215080405C
S1132EE09040E1F700C00000E5DFF5CF83E00C94EB
S1132EF0CB1F08950E94F01F882321F08CE792E0F5
S1132F000E94832C8FE190E29093B1178093B017C5
S1132F109F938F9381E992E09F938F930E94702CEB
S1132F2064E771E080E090E00E94F10E0F900F9052
S1132F300F900F900895DEDFFECFEF92FF920F9374
S1132F40E12CF12C01E020E030E040EC50E06AE9B3
S1132F5072E08BE997E10E94EC0B0F91FF90EF90E8
S1132F600895D1C20895E7D281113FC066E070E0B0
S1132F7080E090E00E94F10EF3D281112DC063E055
S1132F8070E080E090E00E94F10E10D39093B517AA
S1132F908093B41730D38093B2179093B3179F9351
S1132FA08F938EE992E09F938F930E94702C80916F
S1132FB0B5178F938091B4178F9388EA92E09F930B
S1132FC08F930E94702C8DB79EB708960FB6F89415
S1132FD09EBF0FBE8DBF11C083EB92E09F938F9372
S1132FE00E94702C0F900F9008C08DED92E09F937B
S1132FF08F930E94702C0F900F9064E771E080E033
S113300090E00C94F10EAFDFFECFEF92FF920F939E
S1133010E12CF12C01E020E030E040EC50E066E0EF
S113302073E083E098E10E94EC0B0F91FF90EF9026
S113303008950F931F93CF93DF93CDB7DEB76097B7
S11330400FB6F894DEBF0FBECDBF813079F58AEBA1
S113305097E10E946A26811129C06091BA17709184
S1133060BB178091BC179091BD17C6D16093BE1752
S11330707093BF177F936F938AE193E09F938F932D
S11330808E010F5F1F4F1F930F930E94B32CC80133
S11330900E94832C64E771E080E090E00E94F10ECE
S11330A00F900F900F900F900F900F9060960FB6A7
S11330B0F894DEBF0FBECDBFDF91CF911F910F916A
S11330C0089589E198E10C94282608950E944326E6
S11330D00C9458260895FADFFECFEF92FF920F93D7
S11330E0E12CF12C01E020E030E040EC50E062E221
S11330F073E08BE698E10E94EC0B0F91FF90EF9048
S113310008950F931F93CF93DF93CDB7DEB76497E2
S11331100FB6F894DEBF0FBECDBF81E00E944225FA
S1133120E1D35DD69F938F9388E293E09F938F932F
S11331300E94702C55D553D69F938F938BE393E0C5
S11331409F938F930E94702C8E010F5F1F4FC801B5
S1133150DBD345D61F930F939F938F9384E593E01E
S11331609F938F930E94702CC801EAD338D69F9303
S11331708F931F930F9388E693E09F938F930E94FE
S1133180702CA8016DE773E08EE993E007D627D68B
S11331909F938F931F930F938DE793E09F938F9348
S11331A08EE993E09F938F938FEA93E09F938F939D
S11331B00E94702CF8D313D69F938F9385EE93E0DF
S11331C09F938F930E94702C0FB6F894DEBF0FBEAE
S11331D0CDBF81E0E2D403D69F938F9384EF93E035
S11331E09F938F930E94702C84EF91E0E1D4F7D5E4
S11331F09F938F9381E08F9384EF8F9385E194E085
S11332009F938F930E94702C0FB6F894DEBF0FBE6D
S1133210CDBF1AE080E0CDD3082FE1D59F938F93E3
S11332201F921F9385E394E09F938F930E94702CC9
S11332300F900F900F900F900F900F90083059F04F
S113324080E00E94A62566E371E080E090E00E94A1
S1133250F10E1150F9F6083021F481E00E9488251E
S113326009C081E00E94972580E00E9465250E94A4
S11332702F03FDCF64960FB6F894DEBF0FBECDBF0B
S1133280DF91CF911F910F910895CF93DF9300D0D9
S11332901F92CDB7DEB781E017D362E070E080E023
S11332A090E00E94F10E80E00FD366E970E080E0C8
S11332B090E00E94F10EC1D224DFEFE5F6E188E050
S11332C0818382E080830E94760C69837A838B8376
S11332D09C8348EA58E460E070E0CE0101960E94C5
S11332E08C0EB090B417A090B517D090B217C090C0
S11332F0B317F090B017E090B1171091BE1700917A
S1133300BF17CF92DF9285E594E09F938F930E943D
S1133310702C8091B5178F938091B4178F938BE69F
S113332094E09F938F930E94702CEF92FF9282E817
S113333094E09F938F930E94702C0F931F9387E9BF
S113334094E09F938F930E94702CEFE5F6E1A282A4
S1133350B382C482D582E682F7820087118783E034
S11333600E94B8256FE576E180E04CD338D59F9371
S11333708F938CEA94E09F938F930E94702C0FB6E6
S1133380F894DEBF0FBECDBFA4CFEF92FF920F9390
S1133390E12CF12C082F20E030E048E851E061EC0A
S11333A074E085E499E10E94EC0B0F91FF90EF909B
S11333B0089588EC94E00E94832C98DDD2DD81DEB0
S11333C060E070E081E040C20895B7DD1EDE85CE86
S11333D0089580E00E94ED2383E0D7DFEADFF5DF84
S11333E085E00E94F42480EE94E00E94832C0E94E5
S11333F0380C80E090E0089504D06894B11150C076
S1133400089533D088F09F5790F0B92F9927B7517A
S1133410A0F0D1F0660F771F881F991F1AF0BA9594
S1133420C9F712C0B13081F03AD0B1E0089537C085
S1133430672F782F8827B85F39F0B93FCCF386958A
S113344077956795B395D9F73EF4909580957095E7
S113345061957F4F8F4F9F4F089557FD9058440FAC
S1133460551F59F05F3F71F04795880F97FB991FDF
S113347061F09F3F79F0879508951216130614069C
S1133480551FF2CF4695F1DF08C016161706180629
S1133490991FF1CF86957105610508940895E89404
S11334A0BB2766277727CB0197F908956530F1F498
S11334B0FA0180818F7390E0982F88272181822BD5
S11334C090930A02809309028281F0E48F9FC001E5
S11334D01124FA01238126952695822B90930802C4
S11334E08093070281E0809375160895643051F04B
S11334F080E090E4909308028093070290930A027C
S11335008093090208950F931F9306E51AE120E0C2
S113351034E244EF50E060E087E20E945427909345
S113352077168093761621E0892B09F020E0822F0C
S11335301F910F91089580917616909177160097B8
S113354059F040E060E070E00E94A527843031F437
S11335501092751680E0089582E0089583E008953E
S11335608091761690917716009739F064E00E9466
S1133570F127853021F083E0089582E0089580E00A
S113358008956091090270910A0280E090E00E941F
S1133590CF2920E030E048EC52E40E94382A20E0B1
S11335A038EF4FE756E40C9464290895EADF20E0ED
S11335B030E040E251E40E94382A23DFCB01089531
S11335C0609107027091080280E090E00E94CF2988
S11335D020E030E045E253E40E94382A20E038EF4E
S11335E04FE756E40E94642920E030E040E252E4D0
S11335F00C94FD280895E4DF20E030E040E251E43B
S11336000E94382AF9DECB0108950F931F93CF93BC
S1133610DF931F921F92CDB7DEB78C0119822DC0A4
S1133620E091AF16EC3250F481E08E0F8093AF1628
S1133630F0E0EF51F94E8A81808302C01092AF16F8
S11336408A818A30D1F44091AF1650E0FA01E152F8
S1133650F94E1082415051099E012F5F3F4F61EE98
S113366076E18091B2169091B3160E941509898172
S113367081110E942F031092AF16BE016E5F7F4F1F
S1133680C80115D6882361F20F900F90DF91CF9176
S11336901F910F9108950F931F93CF93DF938C0184
S11336A0EB018091B2169091B3160E942208B801E2
S11336B088E796E10E94512C209779F0E8E7F6E13B
S11336C001900020E9F7319780E290E091838083B4
S11336D0BE0188E796E10E94462CE8E7F6E1DF01A7
S11336E00D900020E9F711978DE09AE011969C93D4
S11336F08E9312961C9201900020E9F73197E857B7
S1133700F641AE2F88E796E1AC016A2F8091B4169A
S11337109091B51677D5811111C008E215E020E02B
S113372030E04DE250E06BE377E18091B216909186
S1133730B3160E9459098BE397E102C080E090E040
S1133740DF91CF911F910F9108952F923F924F9245
S11337505F926F927F928F929F92AF92BF92CF921D
S1133760DF92EF92FF920F931F93CF93DF935C014D
S1133770FC0101900020E9F731976F01C81AD90ABA
S11337805C2C0F2EF5E88F2EF7E09F2EF02DE12C08
S1133790F12C4C2C3701F40101811281E8010990CC
S11337A00020E9F72197C01BD10B3C2EF9E0CF167E
S11337B0D10458F0F4012080FEE02F1206C0B801B5
S11337C0C5010E94212C892B09F5442D351408F4D8
S11337D04C2F50E0B801C5010E94582C892B49F4A4
S11337E0F301EE0FFF1FE60DF71DEB57F84F208096
S11337F00DC08FEFE81AF80AE3E08E0E911CF1E198
S1133800EF16F10439F66894222424F8822DDF910E
S1133810CF911F910F91FF90EF90DF90CF90BF90C9
S1133820AF909F908F907F906F905F904F903F905C
S11338302F90089530DF89CF08958091B21690912A
S1133840B3160C94220808958F929F92AF92CF9250
S1133850EF920F931F93CF93C82F8B0141E060E049
S113386070E088EC90E00E94F0079093B316809388
S1133870B2161093B1160093B0160F2EF5E08F2EEA
S1133880FBE19F2EF02D6894AA24A6F86894CC241A
S1133890C6F8E12C00E023E040E051EE60E070E087
S11338A08C2FDED39093B5168093B416E7E0F1E045
S11338B0808180618083CF911F910F91EF90CF9091
S11338C0AF909F908F900895882331F0E8E0F1E065
S11338D080818F7E80830895E8E0F1E080818061BB
S11338E08083089560E070E08BE095E0D4DEEBE344
S11338F0F7E101900020E9F73197EB53F74181E0BC
S1133900759708F080E00895CF93DF93EC0160E0B1
S113391070E08CE195E0BFDEEBE3F7E1019000207D
S1133920E9F7EC54F74139F46BE377E1CE010E94F7
S1133930512C80E002C0188281E0DF91CF9108957C
S1133940FC0101900020E9F79F012151310928175A
S1133950390729F4BC018AE495E06CCF089589E025
S11339600895FC0101900020E9F79F0121513109DC
S11339702817390729F4BC0189E595E05BCF089540
S113398089E00895FC0101900020E9F79F0121528C
S113399031092817390729F4BC0188E695E04ACF94
S11339A0089589E0089560E070E087EA95E042CFE9
S11339B008950F931F93E82FF0E0EE0FFF1FEF57CA
S11339C0F84F6081718180EB95E034DF811114C080
S11339D008E215E020E030E04DE250E06BE377E1EF
S11339E08091B2169091B3160E945909882321F050
S11339F08BE397E1AADE03C08BE397E1A6DE1F9178
S1133A000F9108950F931F93CF93DF931F92CDB718
S1133A10DEB7DB0111969C911197953108F0B4C083
S1133A20992381F160E070E0272F30E0462F50E0C9
S1133A30FD01E40FF51F928192959F709A3010F06A
S1133A40995C01C0905DF901E453F94E90832F5FB6
S1133A503F4FFD01E40FF51F92819F70492F50E005
S1133A604A30510514F0995C01C0905DF901E453AA
S1133A70F94E90837E5F6F5F11969C911197691741
S1133A8098F201C070E0E72FF0E0E453F94E1082A1
S1133A904C91811103C089EB95E002C08BEB95E05A
S1133AA02CEC36E13F932F931F924F939F938F9368
S1133AB08FEB95E09F938F938EE097E19F938F9385
S1133AC00E94B32C60E070E08EE097E1B3DE0FB6A5
S1133AD0F894DEBF0FBECDBF811159C008E215E0D6
S1133AE020E030E04DE250E06BE377E18091B216E4
S1133AF09091B3160E945909882309F447C08BE3B7
S1133B0097E123DE8E3009F042C087E089838091FB
S1133B10B0169091B116892BA9F1BE016F5F7F4F4A
S1133B208BE397E168D18093B616E981F0E0E55C18
S1133B30F84EDF010D900020E9F71197AE1BBF0B83
S1133B40AA2391F0BB27CD0101979C0112F42F5FAA
S1133B503F4F359527952093B716AF014F5F5F4FC1
S1133B6064E188EB96E173D101E010E020E030E0FD
S1133B7046E150E066EB76E18091B0169091B11683
S1133B800E9452088EE003C084E101C080E00F90DF
S1133B90DF91CF911F910F910895813019F06FEC4F
S1133BA075E002C068EA76E083ED95E043CE0895BF
S1133BB09F938F9384E096E09F938F938EE097E199
S1133BC09F938F930E94B32C60E070E08EE097E1A6
S1133BD031DE0F900F900F900F900F900F9008957B
S1133BE02F923F924F925F926F927F928F929F9209
S1133BF0AF92BF92CF92DF92EF92FF920F931F93F7
S1133C00CF93DF93CDB7DEB7A0970FB6F894DEBF9E
S1133C100FBECDBF61E376E08DE396E03CDD95DD3C
S1133C208111A3C080E2E2E2F2E0DE01119601908C
S1133C300D928A95E1F79E012F5F3F4F6901E12CB8
S1133C40F12C0F2EF9E4AF2EF6E0BF2EF02D0EE08E
S1133C5017E10F2EF2E64F2EF6E05F2EF02D0F2E19
S1133C60F9E78F2EF6E09F2EF02D0F2EF3E96F2E3D
S1133C70F6E07F2EF02D3E2C2F2CFF92EF92BF9278
S1133C80AF921F930F930E94B32C60E070E0C801C1
S1133C9002DD5BDD0F900F900F900F900F900F904F
S1133CA0811163C032E03E15E8F4F60183818F93FD
S1133CB082818F9381818F9380818F93FF92EF9282
S1133CC05F924F921F930F930E94B32C60E070E0B9
S1133CD0C801E1DC3ADD0FB6F894DEBF0FBECDBFFC
S1133CE0811143C02F923F929F928F921F930F9303
S1133CF00E94B32C60E070E0C801CDDC26DD0F909B
S1133D000F900F900F900F900F9081112EC02F9253
S1133D103F927F926F921F930F930E94B32C60E0A7
S1133D2070E0C801B8DC11DD0F900F900F900F9078
S1133D300F900F90811119C03FEFE31AF30A84E04A
S1133D40C80ED11C98E0E916F10409F094CF60E0A4
S1133D5070E08BEA96E09FDCF8DC811106C060E03D
S1133D6070E08CEB96E097DCF0DCA0960FB6F8944C
S1133D70DEBF0FBECDBFDF91CF911F910F91FF909A
S1133D80EF90DF90CF90BF90AF909F908F907F90F7
S1133D906F905F904F903F902F900895EF92FF9215
S1133DA00F931F93CF93DF93EC018B017A0181E092
S1133DB0F4DE81110DC0CE01D4DD811109C0C8012A
S1133DC0E1DD811105C0C701BBDD811101C0EBDD5F
S1133DD0DF91CF911F910F91FF90EF90089590E0A4
S1133DE0FC01EE0FFF1F8E0F9F1FFC01EB57F84FD6
S1133DF0818192810895DC01009729F1FB012081E2
S1133E00FC0101900020E9F73197E81BF90B822FA0
S1133E1090E0E817F907C8F080E008C0880F382F51
S1133E20330F330F830F8053890F2F5FFD01E20F90
S1133E30F11D908130ED390F3A3010F49111EECF2D
S1133E40FB012083089580E0089580E008950F9396
S1133E501F93CF93DF93DC01EA012097E1F1FA018C
S1133E6001900020E9F73197E41BF50B329710F528
S1133E7032C08D01040F151F30E0AE01420F531FF5
S1133E80FA019081913428F09753592F5295507F1D
S1133E9003C0592F5295507F2C0F3D1FF90191817A
S1133EA0913410F0975301C09053950FF80190830B
S1133EB08F5F01C080E0282F220F482F50E0FE01C1
S1133EC001900020E9F73197EC1BFD0B4E175F07BB
S1133ED010F48613CECFDF91CF911F910F910895E7
S1133EE080916B17860F80936B1790916E179130AA
S1133EF079F028F09230A9F0933019F108956F3FCA
S1133F0009F048C010926B1781E080936E170895F2
S1133F10663809F03FC010926A1782E080936E17EA
S1133F200895E0916A1781E08E0F80936A17F0E09C
S1133F30E859F84E6083823069F583E080936E1708
S1133F40089590916A1721E0290F20936A179630FB
S1133F5009F581110EC0E8E6F7E1808190E0982F21
S1133F6088272181820F911D9093701780936F177A
S1133F7004C01092701710926F1710926E17E09190
S1133F806C17F0916D17309729F080916F1790910D
S1133F907017199508958F929F92AF92CF92EF92D6
S1133FA00F930F2EF0E78F2EFFE19F2EF02D6894D4
S1133FB0AA24A4F86894CC24C4F8E12C00E023E0FB
S1133FC040E855E260E070E04BD090937217809324
S1133FD071170F91EF90CF90AF909F908F900895AD
S1133FE0CF93DF93CDB7DEB729970FB6F894DEBF32
S1133FF00FBECDBF89E0E2E4F2E09E012F5F3F4FA8
S1134000D90101900D928A95E1F7109270171092E0
S11340106F178091711790917217009731F0422FAA
S1134020532F69E0EFD080E001C082E029960FB6FB
S1134030F894DEBF0FBECDBFDF91CF9108952091DC
S11340406F17309170172115310529F4FC01118285
S1134050108281E00895FC013183208380E008957B
S11340602F923F924F925F926F927F928F929F9284
S1134070AF92CF92EF92FF920F931F93CF93DF9360
S1134080CDB7DEB7F82E2A013B0188E090E00E940C
S1134090EC2A8C018F2D90E0FC01EE0FFF1FED58F0
S11340A0F84E118300830115110509F46EC0880FC1
S11340B0991FFC01E55FFD4F80819181D8018D93AB
S11340C09C938C2D90E0880F991F880F991F0E9454
S11340D0EC2A1C0186E090E00E94EC2A7C014C2D25
S11340E0B1010E94E128F801F582E4828A2D90E072
S11340F0880F991F880F991F0E94EC2A1C0186E0E3
S113410090E00E94EC2A7C014A2DB1010E94E12832
S1134110D8011396FC92EE92129717969C928E9267
S11341201697FFB6F894ED91FC911197369780811C
S1134130826080838D909C90C301B2010E94CF293C
S113414020E030E040E051E40E94382A9B01AC01B9
S113415060E074E284E79BE40E94642920E030E09C
S113416040E85FE30E94FD284CD9F4013297608354
S1134170D801ED91FC911197359788E98083ED91F1
S1134180FC91349786E08083FFBEC801DF91CF9114
S11341901F910F91FF90EF90CF90AF909F908F90D1
S11341A07F906F905F904F903F902F900895CF93A2
S11341B0DF93DC01892B01F11296ED91FC911397A9
S11341C0938182812581981B922384819817B1F071
S11341D0838126952823C081D181C20FD11D688394
S11341E08F5F958189238383ED91FC91359780813D
S11341F08062808380E003C081E001C082E0DF91BF
S1134200CF910895EF92FF920F931F93CF93DF9373
S11342107C01009709F441C0DC011296ED91FC91F8
S1134220139793818281981B858198238481891BAC
S11342308617A8F1662341F1842F952FDC01615084
S1134240462F50E04F5F5F4F480F591FE701EA8147
S1134250FB81938182812581981B92238481981705
S113426079F08C91938126952923608171818B014A
S1134270020F111DE80188839F5F85819823938332
S11342801196A417B50711F7D701ED91FC91359755
S113429080818062808380E003C081E001C082E08D
S11342A0DF91CF911F910F91FF90EF9008950097A8
S11342B0D1F0DC011496ED91FC91159793818281E4
S11342C0981799F09281858186958923A081B1817F
S11342D0A80FB11D8C91DB018C939F5F858198237E
S11342E0928380E0089581E0089583E008951F9209
S11342F00F920FB60F9211240BB60F922F933F9388
S11343004F935F936F937F938F939F93AF93BF93D9
S1134310CF93DF93EF93FF93A0917317B09174172A
S1134320109711F16091C6001496ED91FC911597C8
S1134330938182812581981B92238481981761F04F
S1134340838126952823C081D181C20FD11D688322
S11343508F5F9581892383831696ED91FC9117973E
S1134360309711F0CD011995FF91EF91DF91CF9125
S1134370BF91AF919F918F917F916F915F914F9179
S11343803F912F910F900BBE0F900FBE0F901F9077
S113439018951F920F920FB60F9211240BB60F921D
S11343A02F938F939F93AF93BF93EF93FF93E091DA
S11343B07317F09174173097B9F00280F381E02DF0
S11343C0938182819817B1F092818581282F269557
S11343D02923A081B181A20FB11D2C919F5F892354
S11343E082832093C6000BC0E1ECF0E080818F7DD6
S11343F0808305C0E1ECF0E080818F7D8083FF91B4
S1134400EF91BF91AF919F918F912F910F900BBE20
S11344100F900FBE0F901F9018951F920F920FB61A
S11344200F9211240BB60F922F933F934F935F93E8
S11344306F937F938F939F93AF93BF93CF93DF93A8
S1134440EF93FF93A0917517B0917617109711F120
S11344506091CE001496ED91FC9115979381828121
S11344602581981B92238481981761F08381269576
S11344702823C081D181C20FD11D68838F5F9581AC
S1134480892383831696ED91FC911797309711F049
S1134490CD011995FF91EF91DF91CF91BF91AF912C
S11344A09F918F917F916F915F914F913F912F9148
S11344B00F900BBE0F900FBE0F901F9018951F9278
S11344C00F920FB60F9211240BB60F922F938F9366
S11344D09F93AF93BF93EF93FF93E0917517F09180
S11344E076173097B9F00280F381E02D93818281B1
S11344F09817B1F092818581282F26952923A081D0
S1134500B181A20FB11D2C919F5F892382832093D7
S1134510CE000BC0E9ECF0E080818F7D808305C084
S1134520E9ECF0E080818F7D8083FF91EF91BF9172
S1134530AF919F918F912F910F900BBE0F900FBE53
S11345400F901F9018951F920F920FB60F9211247F
S11345500BB60F922F933F934F935F936F937F9379
S11345608F939F93AF93BF93CF93DF93EF93FF9377
S1134570A0917717B0917817109711F16091D60038
S11345801496ED91FC911597938182812581981B56
S113459092238481981761F0838126952823C08112
S11345A0D181C20FD11D68838F5F95818923838355
S11345B01696ED91FC911797309711F0CD0119954E
S11345C0FF91EF91DF91CF91BF91AF919F918F9127
S11345D07F916F915F914F913F912F910F900BBEFF
S11345E00F900FBE0F901F9018951F920F920FB649
S11345F00F9211240BB60F922F938F939F93AF9327
S1134600BF93EF93FF93E0917717F091781730976A
S1134610B9F00280F381E02D938182819817B1F083
S113462092818581282F26952923A081B181A20F0B
S1134630B11D2C919F5F892382832093D6000BC0E8
S1134640E1EDF0E080818F7D808305C0E1EDF0E055
S113465080818F7D8083FF91EF91BF91AF919F9176
S11346608F912F910F900BBE0F900FBE0F901F9044
S113467018951F920F920FB60F9211240BB60F923A
S11346802F933F934F935F936F937F938F939F9356
S1134690AF93BF93CF93DF93EF93FF93A0917917D9
S11346A0B0917A17109711F1609136011496ED913B
S11346B0FC911597938182812581981B9223848193
S11346C0981761F0838126952823C081D181C20F78
S11346D0D11D68838F5F9581892383831696ED911D
S11346E0FC911797309711F0CD011995FF91EF9137
S11346F0DF91CF91BF91AF919F918F917F916F91F6
S11347005F914F913F912F910F900BBE0F900FBE71
S11347100F901F9018951F920F920FB60F921124AD
S11347200BB60F922F938F939F93AF93BF93EF93F7
S1134730FF93E0917917F0917A173097B9F00280DE
S1134740F381E02D938182819817B1F09281858164
S1134750282F26952923A081B181A20FB11D2C9168
S11347609F5F89238283209336010BC0E1E3F1E04C
S113477080818F7D808305C0E1E3F1E080818F7DBE
S11347808083FF91EF91BF91AF919F918F912F9172
S11347900F900BBE0F900FBE0F901F901895CF93E4
S11347A0DF931F92CDB7DEB7BE016F5F7F4F80915D
S11347B07B1790917C177BDD8111F6CF898190E086
S11347C00F90DF91CF910895682F80917B1790917E
S11347D07C17EDDC80E090E008958F929F92AF9279
S11347E0CF92EF920F93812C912C6894AA24A7F86E
S11347F06894CC24C7F8E12C00E023E040E051EEBB
S113480060E070E02DDC90937C1780937B17E6ECDE
S1134810F7E183E192E091838083938382830F9114
S1134820EF90CF90AF909F908F90089590E0FC010F
S1134830EE0FFF1FE80FF91FEE0FFF1FE358F84EAE
S1134840238121111FC09C01220F331FF901E80F9E
S1134850F91FEE0FFF1FE358F84EA081B1814C9170
S1134860F901E80FF91FEE0FFF1FE358F84E81E03E
S113487090E0028002C0880F991F0A94E2F7842B0B
S11348808C930895FC01EE0FFF1FDF01A80FB91FE1
S1134890AA0FBB1FA358B84E0D90BC91A02D2C910C
S11348A0E80FF91FEE0FFF1FE358F84E81E090E088
S11348B0028002C0880F991F0A94E2F78095822330
S11348C08C93089590E0FC01EE0FFF1FE80FF91F91
S11348D0EE0FFF1FE358F84E2381211120C09C01E5
S11348E0220F331FF901E80FF91FEE0FFF1FE358E2
S11348F0F84EA081B1814C91F901E80FF91FEE0F38
S1134900FF1FE358F84E81E090E0028002C0880F58
S1134910991F0A94E2F7809584238C930895FC01EF
S1134920EE0FFF1FDF01A80FB91FAA0FBB1FA3586B
S1134930B84E0D90BC91A02D2C91E80FF91FEE0FED
S1134940FF1FE358F84E81E090E0028002C0880F18
S1134950991F0A94E2F7822B8C930895CC24C39474
S1134960D12C6894BB24B2F8CDE7D7E110E08C8158
S1134970813081F018F1823061F5E881F98120817C
S1134980C6010A8002C0880F991F0A94E2F78227A1
S113499080831FC08D818F5F863010F48D8319C092
S11349A01D82E881F9812081C6010A8002C0880F36
S11349B0991F0A94E2F7822780830BC00D8100239C
S11349C029F0812F7FDF01500D8303C0BC82812F2A
S11349D02DDF1F5F2696143051F66CE070E080E006
S11349E090E00E94F10EC0CFEF92FF920F931F93BD
S11349F0CF93DF93082F80E487B9CDE7D7E10F2E5B
S1134A00F8E2EF2EF12CF02DF982E88286E08A8319
S1134A101B8214E01C8380E009DF80E887B9FF82F1
S1134A20EE8287E0888719861A8781E0FFDE80E2BC
S1134A3083BB84E390E09D878C8785E08E871F8607
S1134A40188B82E0F3DE80E18093010182E091E043
S1134A509B8B8A8B1C8B1D8A1E8B83E0E7DEE12CEB
S1134A60F12C20E030E040EC50E068EB77E08EEA97
S1134A7094E20E94EC0BDF91CF911F910F91FF9074
S1134A80EF900895CF93DF9390E0FC01EE0FFF1FAA
S1134A90DF01A80FB91FAA0FBB1FA358B84ECD91B1
S1134AA0DC911197488121E030E012960C90129726
S1134AB002C0220F331F0A94E2F724272883FD0142
S1134AC081E08483DF91CF910895CF93DF9390E0C9
S1134AD0FC01EE0FFF1FDF01A80FB91FAA0FBB1FB8
S1134AE0A358B84ECD91DC911197488121E030E074
S1134AF012960C90129702C0220F331F0A94E2F709
S1134B0024272883FD0182E08483DF91CF910895D7
S1134B10282F30E0F901EE0FFF1FE20FF31FEE0F15
S1134B20FF1FE358F84E93E09483CCCE0895282FCA
S1134B3030E0F901EE0FFF1FE20FF31FEE0FFF1F2E
S1134B40E358F84E94E0948371CE089590E0FC010C
S1134B50EE0FFF1FDF01A80FB91FAA0FBB1FA35839
S1134B60B84E26E015962C931597FD0114820895EE
S1134B7090E0FC01EE0FFF1FDF01A80FB91FAA0F81
S1134B80BB1FA358B84E15961C921597FD011482AD
S1134B900895E0919D17F0919E17309709F01995AB
S1134BA008956450623008F03BC020919C17223075
S1134BB079F018F4213031F030C0233081F0243002
S1134BC0A1F02BC022E020939C1761E00AC2089553
S1134BD0FA0180818093991782E0DBCF089524E065
S1134BE020939C1764E0FDC10895FA01818190E04F
S1134BF0982F88272081822B90939817809397175A
S1134C00838190E0982F88272281822B9093961796
S1134C108093951781E0BDCF089580E0BACF0895C1
S1134C2010929C1786E0B5CF089520919F1730917C
S1134C30A0172115310541F0462FBC01C90185D1CA
S1134C40823021F080E0089587E0089585E008959A
S1134C500F931F9390939E1780939D1701ED15E278
S1134C6020E034E244EF50E060E089E21DD190930B
S1134C70A01780939F17892B11F080E001C088E072
S1134C801F910F910895CF93DF931F921F92CDB779
S1134C90DEB780EA898383E08A8310929C1762E0FE
S1134CA0CE010196C2DF0F900F90DF91CF9108954E
S1134CB0CF93DF931F92CDB7DEB784EB898383E074
S1134CC080939C1761E0CE010196AFDF0F90DF91D6
S1134CD0CF9108952F923F924F925F926F927F925D
S1134CE08F929F92AF92BF92CF92DF92EF92FF92F8
S1134CF00F931F93CF93DF93C0919517D09196177D
S1134D00CF3F2FEFD20741F060919717709198171A
S1134D106F3FEFEF7E0759F44FEF5FEF6FE77FE7E9
S1134D20FC01408351836283738383E099C01C0137
S1134D3080E090E034D32B013C01BE0180E090E0A0
S1134D402ED34B015C0180919A1790E0019624E6E2
S1134D50289FB001299F700D112480919B178032E8
S1134D6069F08033A1F08031E1F40F2EC12CD12CF5
S1134D70F8ECEF2EF1E4FF2EF02D1BC00F2EC12C0A
S1134D80D12CF6EDEF2EF3E4FF2EF02D12C00F2EF2
S1134D90C12CF0E5DF2EFAE1EF2EF6E4FF2EF02D24
S1134DA008C00F2EC12CD12CF0E8EF2EFFE3FF2E0C
S1134DB0F02D072E000C880B990BF3D2A701960156
S1134DC057D320E030E04CEC53E47ED26B017C01FD
S1134DD025E83BEE41ED5FE3C501B40149D39B01F6
S1134DE0AC01C301B20109D2A70196016DD2162FFD
S1134DF0D72FC82F092F2DE33AE047E15FE3C30122
S1134E00B20136D32B013C0126EF38E24CE55FE3D7
S1134E10C501B4012DD39B01AC01C301B201EDD195
S1134E20A701960151D2C62ED72EE82EF92E262F91
S1134E30372F482F592F612F7D2F8C2F902F14D36C
S1134E40181624F01C2DDD2DCE2D0F2D412F5D2F96
S1134E506C2F702FF101408351836283738380E050
S1134E60DF91CF911F910F91FF90EF90DF90CF9042
S1134E70BF90AF909F908F907F906F905F904F9076
S1134E803F902F9008958091AF1781110CC08CE052
S1134E908093B8008FEF8093BB0084E08093BC00C4
S1134EA081E08093AF170895AF92BF92CF92DF92C3
S1134EB0EF92FF920F931F93CF93DF93A82EB62EFA
S1134EC069017A0184E090E087D3EC01892B61F1D8
S1134ED0A88281E0B81212C0C701B60120EA36E800
S1134EE041E050E04FD3DA01C9014097A109B1096B
S1134EF0B695A79597958795898311C0C701B60183
S1134F0020E83AE146E050E03DD3DA01C901409798
S1134F10A109B109B695A7959795879589831B83B0
S1134F200A838C2F9D2F02C080E090E0DF91CF9107
S1134F301F910F91FF90EF90DF90CF90BF90AF90B3
S1134F4008958091BC0081700895FF920F931F9380
S1134F50CF93DF930097D1F14A30D0F5F42E8B0133
S1134F60EC01EFDF811136C08091A2179091A31755
S1134F70C817D90741F087DF89818093B800D0939F
S1134F80A317C093A21781E08F0D8093A417888183
S1134F90880F8093A517FF2089F0F801A6EAB7E1EE
S1134FA04FEF4F0D642F70E0CB010196B801680FED
S1134FB0791F81918D93E617F707D9F788EF8093CE
S1134FC0210285EA8093BC0084E005C086E003C02A
S1134FD087E001C082E0DF91CF911F910F91FF9094
S1134FE008951F93CF93DF93009729F16B3028F531
S1134FF0162FEC01A6DF811122C08091A217909197
S1135000A317C817D90741F03EDF89818093B80000
S1135010D093A317C093A2171093A4178881880F65
S113502081608093A51788EF8093210285EA80939D
S1135030BC0085E005C086E003C087E001C082E0D3
S1135040DF91CF911F9108951F920F920FB60F9287
S113505011240BB60F922F933F934F935F936F934B
S11350607F938F939F93AF93BF93EF93FF93E091BD
S1135070B9008E2F90E0FC013897E135F10508F076
S113508075C08827E458FF4F8F4F9EC21092A11716
S1135090E091A1178091A417E81770F481E08E0FB6
S11350A08093A117F0E0EB55F84E80818093BB000C
S11350B085E88093BC0072C084E98093BC00809131
S11350C0A2179091A317DC011296ED91FC9113970E
S11350D0309709F463C020E040E050E064E01995A3
S11350E05DC0E091A11781E08E0F8093A11780919C
S11350F0BB00F0E0EB55F84E80838091B90080341A
S113510011F41092A1172091A11730E08091A417F7
S113511090E001972817390724F485EC8093BC00AC
S11351203DC085E88093BC0039C08091BB00E0910C
S1135130A117F0E0EB55F84E808384E98093BC001E
S11351408091A2179091A317DC011296ED91FC9126
S11351501397309719F12091A41745EA57E165E0B8
S113516019951CC085EA8093BC0018C08091B900D1
S11351708093210284E08093BC008091A2179091D7
S1135180A317DC011296ED91FC911397309731F03F
S113519020E040E050E0609121021995FF91EF91E9
S11351A0BF91AF919F918F917F916F915F914F913B
S11351B03F912F910F900BBE0F900FBE0F901F9039
S11351C01895FC01411101C028D3842F90E09C0163
S11351D02150310982239323892B09F01ED34138AE
S11351E008F01BD3128213824483440F4150458339
S11351F07183608380E090E008955058BB27AA270C
S11352000ED021C112D130F017D120F031F49F3FDC
S113521011F41EF407C10EF4E095E7FBFDC0E92F7D
S11352200E942D1A78F3BA1762077307840795074B
S113523020F079F4A6F50C944F1A0EF4E0950B2E99
S1135240BA2FA02D0B01B90190010C01CA01A001D4
S11352501124FF27591B99F0593F50F4503E68F12F
S11352601A16F040A22F232F342F4427585FF3CF70
S1135270469537952795A795F0405395C9F77EF441
S11352801F16BA0B620B730B840BBAF09150A1F08A
S1135290FF0FBB1F661F771F881FC2F70EC0BA0F10
S11352A0621F731F841F48F4879577956795B79598
S11352B0F7959E3F08F0B1CF9395880F08F0992792
S11352C0EE0F9795879508950DD0BDC0B5D048F0E1
S11352D0ACD038F021F45F3F21F09EC051110C9402
S11352E0501AA0C00E942D1A88F39923B9F35523AC
S11352F0A1F3951B550BBB27AA27621773078407D5
S113530038F09F5F5F4F220F331F441FAA1FA9F37A
S113531034D00E2E3AF0E0E831D091505040E6956A
S1135320001CCAF72AD0FE2F28D0660F771F881FCB
S1135330BB1F261737074807AB07B0E809F0BB0BBC
S1135340802DBF01FF2793585F4F32F09E3F5105D8
S113535070F062C00C94501A5F3FE4F3983ED4F3AB
S1135360869577956795B795F7959F5FC9F7880FE9
S1135370911D9695879597F90895E1E0660F771F3B
S1135380881FBB1F621773078407BA0720F0621BCC
S1135390730B840BBA0BEE1F88F7E0950895E8941D
S11353A009C097FB3EF490958095709561957F4F69
S11353B08F4F9F4F9923A9F0F92F96E9BB27939517
S11353C0F695879577956795B795F111F8CFFAF427
S11353D0BB0F11F460FF1BC06F5F7F4F8F4F9F4F58
S11353E016C0882311F096E911C0772321F09EE8B6
S11353F0872F762F05C0662371F096E8862F70E01C
S113540060E02AF09A95660F771F881FDAF7880FF5
S11354109695879597F9089597F99F6780E870E0C6
S113542060E008959FEF80EC089500240A94161616
S1135430170618060906089500240A94121613067E
S1135440140605060895092E0394000C11F488230C
S113545052F0BB0F40F4BF2B11F460FF04C06F5F28
S11354607F4F8F4F9F4F089569D008F48FEF0895B1
S11354700CD0E9CFDADF28F0DFDF18F0952309F04C
S1135480CBCFD0CF11240C94501A0E942D1A90F334
S1135490959FC1F3950F50E0551F629FF001729FD5
S11354A0BB27F00DB11D639FAA27F00DB11DAA1FE4
S11354B0649F6627B00DA11D661F829F2227B00D31
S11354C0A11D621F739FB00DA11D621F839FA00DBC
S11354D0611D221F749F3327A00D611D231F849F0C
S11354E0600D211D822F762F6A2F11249F57504063
S11354F092F0E9F088234AF0EE0FFF1FBB1F661FEE
S1135500771F881F91505040A9F79E3F510578F0AE
S113551083CF0C94501A5F3FE4F3983ED4F38695FE
S113552077956795B795F795E7959F5FC1F7FE2B3C
S1135530880F911D9695879597F90895990F0008FE
S1135540550FAA0BE0E8FEEF16161706E807F90751
S1135550C0F012161306E407F50798F0621B730BEC
S1135560840B950B39F40A2661F0232B242B252B6D
S113557021F408950A2609F4A140A6958FEF811D10
S1135580811D0895A1E21A2EAA1BBB1BFD010DC0AB
S1135590AA1FBB1FEE1FFF1FA217B307E407F507DF
S11355A020F0A21BB30BE40BF50B661F771F881FBB
S11355B0991F1A9469F760957095809590959B0151
S11355C0AC01BD01CF010895EE0FFF1F881F8BBFF3
S11355D00790F691E02D19940F931F93CF93DF93C7
S11355E08230910510F482E090E0E091C417F091CC
S11355F0C51720E030E0A0E0B0E0309719F1408119
S113560051810281138148175907C8F084179507FF
S113561069F4109731F012960C93129713961C9319
S113562027C00093C4171093C51722C02115310554
S113563019F04217530718F49A01BD01EF01DF0175
S1135640F801DBCF21153105F9F0281B390B243083
S1135650310580F48A819B816115710521F0FB017C
S11356609383828304C09093C5178093C417FE016B
S1135670329644C0FE01E20FF31F819391932250AE
S11356803109398328833AC02091C2173091C31756
S1135690232B41F420910202309103023093C3176B
S11356A02093C21720910002309101022115310587
S11356B041F42DB73EB74091040250910502241BDA
S11356C0350BE091C217F091C317E217F307A0F46A
S11356D02E1B3F0B2817390778F0AC014E5F5F4F44
S11356E02417350748F04E0F5F1F5093C31740939C
S11356F0C2178193919302C0E0E0F0E0CF01DF9103
S1135700CF911F910F910895CF93DF93009709F4E0
S113571081C0FC01329713821282A091C417B09108
S1135720C517109781F420813181820F931F209136
S1135730C2173091C3172817390751F5F093C317CF
S1135740E093C21767C0ED0120E030E0CE17DF0719
S113575040F44A815B819E0141155105F1F0EA0153
S1135760F5CFD383C28340815181840F951FC8171D
S1135770D90759F488819981840F951F02969183E2
S113578080838A819B81938382832115310529F447
S1135790F093C517E093C4173DC0E901FB83EA8386
S11357A049915991C40FD51FEC17FD0761F480810D
S11357B09181840F951F0296E901998388838281E0
S11357C093819B838A83E0E0F0E012968D919C9113
S11357D01397009719F0FD01DC01F7CF8D919C918F
S11357E011979D012E5F3F4F820F931F2091C21787
S11357F03091C3172817390769F4309729F41092A8
S1135800C5171092C41702C013821282B093C31733
S1135810A093C217DF91CF91089581E090E0F894AE
S11358207DC3FB01DC0102C001900D924150504048
S1135830D8F70895DC0101C06D9341505040E0F762
S11358400895FB0151915523B1F0BF01DC01052EF0
S11358504D91442369F010D0D9F7CD010190002077
S113586049F04D91411108D0C9F3FB014111EECF2C
S113587081E090E001970895402539F0403229F401
S113588040294B57465E08F018940895FB01DC014B
S11358900D900020E9F7119701900D920020E1F797
S11358A00895FB01DC0101900D920020E1F70895B9
S11358B0FB01DC014150504088F08D9181341CF093
S11358C08B350CF4805E619161341CF06B350CF403
S11358D0605E861B611171F3990B0895881BFCCFE0
S11358E0CF93DF93CDB7DEB7AE014A5F5F4FFA01C6
S11358F061917191AF018091C8179091C91761D0DE
S1135900DF91CF9108950F931F93CF93DF93E0918D
S1135910C817F091C917238121FF1BC08C01D0E067
S1135920C0E0F80181918F016091C8177091C91787
S1135930DB011896ED91FC911997882331F01995A4
S1135940892B79F3DFEFCFEFECCF8AE01995892B20
S113595019F08FEF9FEF02C08D2F9C2FDF91CF9115
S11359601F910F9108950F931F93CF93DF93CDB79A
S1135970DEB72E970FB6F894DEBF0FBECDBF0E89EB
S11359801F8986E08C831A8309838FEF9FE79E83A8
S11359908D83AE01465E5F4F688D798DCE01019691
S11359A010D0EF81F885E00FF11F10822E960FB60C
S11359B0F894DEBF0FBECDBFDF91CF911F910F9141
S11359C008952F923F924F925F926F927F928F929F
S11359D09F92AF92BF92CF92DF92EF92FF920F937A
S11359E01F93CF93DF93CDB7DEB72B970FB6F89401
S11359F0DEBF0FBECDBF6C017B018A01FC011782A3
S1135A001682838181FFBFC1CE0101963C01F6015C
S1135A109381F70193FD859193FF81917F01882301
S1135A2009F4ADC1853239F493FD859193FF8191D9
S1135A307F01853221F4B60190E0D6D1E8CF912CD4
S1135A40212C312CFFE1F315D8F08B3279F038F4A6
S1135A50803279F08332A1F4232D20611DC08D3270
S1135A6061F0803369F4232D216016C0832D826098
S1135A70382EE32DE4603E2E2AC0F32DF8601DC0BD
S1135A8037FC2DC020ED280F2A3040F08E32B9F4B7
S1135A9036FC75C1232D2064322E19C036FE06C093
S1135AA08AE0989E200D1124922E11C0EAE02E9EC9
S1135AB0200D1124222EF32DF0623F2E08C08C36C7
S1135AC021F4832D8068382E02C0883641F4F70112
S1135AD093FD859193FF81917F018111B3CF982F1D
S1135AE09F7D9554933028F40C5F1F4F9FE3998357
S1135AF00DC0833631F0833771F0833509F055C01A
S1135B0020C0F801808189830E5F1F4F882483940D
S1135B10912C530112C02801F2E04F0E511CF801E0
S1135B20A080B18036FE03C0692D70E002C06FEF23
S1135B307FEFC5014ED14C018201F32DFF773F2E3B
S1135B4015C0280122E0420E511CF801A080B1804A
S1135B5036FE03C0692D70E002C06FEF7FEFC50110
S1135B602DD14C01F32DF0683F2E820133FC19C076
S1135B70822D90E088169906A0F4B60180E290E0A8
S1135B8033D12A94F5CFF50137FC859137FE819105
S1135B905F01B60190E028D121102A9421E0821AF5
S1135BA091088114910479F7E1C0843611F08936A3
S1135BB039F5F80137FE07C06081718182819381D4
S1135BC00C5F1F4F08C060817181072E000C880B89
S1135BD0990B0E5F1F4FF32DFF763F2E97FF09C0E1
S1135BE090958095709561957F4F8F4F9F4FF0688A
S1135BF03F2E2AE030E0A30133D1882E861844C01A
S1135C00853731F4232D2F7EB22E2AE030E025C0D3
S1135C10932D997FB92E8F36C1F018F4883579F019
S1135C20AEC0803719F0883721F0A9C0E92FE061B0
S1135C30BE2EB4FE0DC0FB2DF460BF2E09C034FE91
S1135C400AC0292F2660B22E06C028E030E005C025
S1135C5020E130E002C020E132E0F801B7FE07C0E5
S1135C6060817181828193810C5F1F4F06C06081C6
S1135C70718180E090E00E5F1F4FA301F1D0882E68
S1135C808618FB2DFF773F2E36FE0DC0232D2E7F69
S1135C90A22E891458F434FE0BC032FC09C0832DA3
S1135CA08E7EA82E05C0B82CA32C03C0B82C01C02E
S1135CB0B92CA4FE0FC0FE01E80DF11D80818033D4
S1135CC021F49A2D997EA92E09C0A2FE06C0B39490
S1135CD0B39404C08A2D867809F0B394A3FC10C051
S1135CE0A0FE06C0B21480F4280C922C9B180DC0A0
