S0100000534550345F494F542E73726563AD
S1130000E5C0000004C1000002C1000000C10000FE
S1130010FEC00000FCC00000FAC00000F8C00000F0
S1130020F6C00000F4C00000F2C00000F0C0000000
S1130030DCC30000ECC00000EAC00000E8C000001F
S1130040E6C00000E4C00000E2C00000E0C0000020
S1130050DEC00000DCC00000DAC00000D8C0000030
S1130060D6C000000C94B21E0C94041FD0C0000033
S1130070CEC00000CCC00000CAC00000C8C0000050
S1130080C6C00000C4C00000C2C00000C0C0000060
S11300900C94481F0C949A1FBAC000000C9451236E
S11300A0B6C00000B4C00000B2C00000B0C0000080
S11300B0AEC00000ACC00000AAC00000A8C0000090
S11300C0A6C00000A4C00000A2C000000C94DE1F63
S11300D00C9430209CC000000C9474200C94C62016
S11300E096C00000D516D516D5160C171417291767
S11300F0D516D5160C1714177323E323E323E32330
S1130100E323E323E323E3237323E323E323E3232B
S1130110E323E323E323E3237523E323E323E32319
S1130120E323E323E323E323E323E323E323E3239B
S1130130E323E323E323E3237523E323E323E323F9
S1130140E323E323E323E323E323E323E323E3237B
S1130150E323E323E323E323DF23E323E323E3236F
S1130160E323E323E323E323AA23E323E323E32394
S1130170E323E323E323E323E323E323E323E3234B
S1130180E323E323E323E3239E23E323E323E32380
S1130190E323E323E323E323C2230E94250B80917B
S11301A0FF14823008F05BD20E945217F6CFCF932F
S11301B0DF931F92CDB7DEB7CE0101960E94521491
S11301C049810E9447160E949E16F6CF11241FBE35
S11301D0CFEFD1E2DEBFCDBF00E00CBF16E0A0E060
S11301E0B2E0E4ECF5E500E00BBF02C007900D922D
S11301F0A23FB107D9F726E1A2EFB6E001C01D92F4
S1130200A43DB207E1F70E94B9180C94E02AF8CE95
S1130210EEEFF6E0A2E0B7E0B183A083138212828E
S1130220EAEAF4E1F093FD06E093FC0613821282FD
S11302301182108288EA9DE013969C938E93129704
S1130240ED93FC939093F9068093F8069093FB0644
S11302508093FA0680E090E89093F3068093F20688
S11302600895CF93DF93EC01AEEFB6E001C0DF0158
S1130270ED91FC911197EC17FD07C8F312968D913F
S11302809C9113979D01280F391FC217D30749F476
S11302902A813B81820F931F13969C938E9312970E
S11302A0ED018A819B819E01280F391FE217F30714
S11302B0C1F42091FC063091FD06E217F30771F0BA
S11302C022813381820F931F9B838A83ED91FC915A
S11302D01197808191819983888305C0398328830C
S11302E002C0F983E883CA17DB0711F0CD93DC93CE
S11302F0DF91CF910895EF92FF920F931F93CF93C5
S1130300DF938C010E94700C8091FC069091FD0695
S1130310892B09F47DDF8091F2069091F306802306
S11303209123892B09F076C00115110549F0C80104
S113033004960817190718F000E010E001C08C01BA
S11303400115110509F469C08091FA069091FB0624
S11303508017910708F464C0C091FE06D091FF068F
S1130360EEEFF6E002C0FE01EC018A819B8180176A
S1130370910720F4888199810097A9F78091FC0660
S11303809091FD06C817D90709F44DC0E080F180AB
S113039084E0E80EF11C88819981918380832A810D
S11303A03B81201B310B2930310548F0CE01800FF1
S11303B0911FFC01338322831B830A8352DF2A812A
S11303C03B818091FA069091FB06821B930B9093DC
S11303D0FB068093FA064091F8065091F9068417BB
S11303E0950720F49093F9068093F8068091F2061D
S11303F09091F306282B392B3B832A831982188288
S11304008091F6069091F70601969093F7068093F3
S1130410F6060BC0E12CF12C08C0E12CF12C05C030
S1130420E12CF12C02C0E12CF12C0E94B00DE1145E
S1130430F10411F40E945E17C701DF91CF911F915F
S11304400F91FF90EF9008950F931F93CF93DF9335
S1130450009791F1EC0124974A815B812091F20687
S11304603091F306BA0162237323672B29F1688163
S11304707981672B09F520953095242335233B8317
S11304802A830E94700C8A819B812091FA06309104
S1130490FB06820F931F9093FB068093FA06CE010E
S11304A0E0DE8091F4069091F50601969093F506AE
S11304B08093F4060E94B00DDF91CF911F910F91AC
S11304C00895FC010396928381834FEF5FEFBA0195
S11304D04383548365837683908787839287818758
S11304E010820895FC011386128608950F931F93BA
S11304F0CF93DF93EB01088119812A813B810F3F60
S11305004FEF14072407340721F4FC01A185B285B9
S113051011C0DC01139601C0DF011496ED91FC912A
S1130520159740815181628173810417150726074D
S1130530370790F71496ED91FC911597FD83EC83A2
S1130540D783C683BF83AE831596DC93CE9314976B
S11305509B878A87FC0120812F5F2083DF91CF91C5
S11305601F910F910895CF93DF93FC01A285B3856A
S1130570C481D581868197819F838E83C681D781EB
S1130580848195819D838C8311968D919C91129782
S1130590E817F90731F48681978112969C938E931C
S11305A01197138612868C9181508C938C91DF91D4
S11305B0CF910895A89590EC88E10FB6F894A8958A
S11305C0809360000FBE909360000895FC016083E7
S11305D0319770833197108231971082319720E8D8
S11305E02083319710823197108231971082779748
S11305F040833197508386970895DCDFA0916D1571
S1130600B0916E15CD91CDBFDD91DEBFFF91EF911D
S1130610DF91CF91BF91AF919F918F917F916F9116
S11306205F914F913F912F911F910F91FF90EF9008
S1130630DF90CF90BF90AF909F908F907F906F90FE
S11306405F904F903F902F901F900F900CBE0F9093
S11306500BBE0F900FBE0F90089581E008950F9286
S11306600FB6F8940F920BB60F920CB60F921F921E
S113067011242F923F924F925F926F927F928F92AA
S11306809F92AF92BF92CF92DF92EF92FF920F931D
S11306901F932F933F934F935F936F937F938F9306
S11306A09F93AF93BF93CF93DF93EF93FF93A09167
S11306B06D15B0916E150DB60D920EB60D920E9489
S11306C00C0FA0916D15B0916E15CD91CDBFDD913C
S11306D0DEBFFF91EF91DF91CF91BF91AF919F91D9
S11306E08F917F916F915F914F913F912F911F91C6
S11306F00F91FF90EF90DF90CF90BF90AF909F90BD
S11307008F907F906F905F904F903F902F901F90AD
S11307100F900CBE0F900BBE0F900FBE0F9008955C
S11307200F920FB6F8940F920BB60F920CB60F926D
S11307301F9211242F923F924F925F926F927F9259
S11307408F929F92AF92BF92CF92DF92EF92FF92DD
S11307500F931F932F933F934F935F936F937F93C5
S11307608F939F93AF93BF93CF93DF93EF93FF93B5
S1130770A0916D15B0916E150DB60D920EB60D9239
S113078013BE0E94840C81110E940C0FA0916D1560
S1130790B0916E15CD91CDBFDD91DEBFFF91EF918C
S11307A0DF91CF91BF91AF919F918F917F916F9185
S11307B05F914F913F912F911F910F91FF90EF9077
S11307C0DF90CF90BF90AF909F908F907F906F906D
S11307D05F904F903F902F901F900F900CBE0F9002
S11307E00BBE0F900FBE0F9008959ADF18950FB6A9
S11307F0F8940F92FC01868D811102C081E001C042
S113080080E00F900FBE08950FB6F8940F92FC018C
S1130810268D878D281302C081E001C080E00F90EF
S11308200FBE08950F931F93CF93DF93EC01042F12
S11308301E8D48A141110CC088819981892B09F032
S113084042C08C819D810E941D111D821C8242C068
S1130850011117C050E08A819B810E94632728A15F
S11308608A819B81820F911D9B838A832C813D8188
S11308708217930750F1888199819B838A8380E052
S113088029C050E08E819F810E94632788A190E057
S11308909195819591092E813F81280F391F3F83BE
S11308A02E83488159812417350730F42C813D81EA
S11308B0820F931F9F838E83023049F4112349F0E2
S11308C0115080E007C080E005C080E003C080E0F4
S11308D001C080E01F5F1E8FDF91CF911F910F91A8
S11308E00895FC0140A14423A9F050E026813781FA
S11308F0240F351F37832683848195812817390770
S113090020F08081918197838683CB0166817781F2
S11309100C94632708951F93CF93DF93EC010FB6D4
S1130920F8940F921AA10BC08B89882351F0CE0141
S113093043960E94CA0F81110E940611115011168C
S11309409CF38FEF8AA30F900FBE0FB6F8940F920B
S113095019A10BC08885882351F0CE0108960E9406
S1130960CA0F81110E940611115011169CF38FEFCA
S113097089A30F900FBEDF91CF911F910895CF935C
S1130980DF93EC010FB6F8940F92E881F9818F8D13
S113099028A190E030E0829FA001839F500D929F98
S11309A0500D11244E0F5F1F5D834C831E8EFB83FD
S11309B0EA830197289FA001299F500D389F500D6D
S11309C01124CF01840F951F9F838E838FEF89A3FA
S11309D08AA361110BC08885882371F0CE01089623
S11309E00E94CA0F882341F03ADE06C0CE01089661
S11309F068DDCE01439665DD0F900FBE81E0DF9187
S1130A00CF9108950F931F93F801611103C01183CF
S1130A10008302C051834083878F60A361E0CF01CC
S1130A20AEDF1F910F910895DF92EF92FF920F9323
S1130A301F93CF93DF93F82EE62ED42E869FC0010A
S1130A401124839658DCEC01009741F08C012D2D84
S1130A50AC014D5D5F4F6E2D8F2DD4DFCE01DF9144
S1130A60CF911F910F91FF90EF90DF900895CF9257
S1130A70DF92EF92FF920F931F93CF93DF93CDB743
S1130A80DEB729970FB6F894DEBF0FBECDBF7C0149
S1130A906B012E833F834887598710E00FB6F89483
S1130AA00F92F701968D878D981710F00230B1F4EC
S1130AB0402FB601C701B6DEF7019389992341F0AF
S1130AC0C70143960E94CA0F882321F0C8DD02C0E3
S1130AD08111C5DD0F900FBE81E04AC08E819F81D8
S1130AE0A885B985892B8A2B8B2B21F40F900FBEF7
S1130AF080E03EC0111105C0CE0101960E948F1006
S1130B0011E00F900FBEECD60FB6F8940F92F701D8
S1130B1081A18F3F09F411A2F70182A18F3F09F44B
S1130B2012A20F900FBEBE016A5F7F4FCE010196E5
S1130B300E94A010811118C0C70166DE882381F0CD
S1130B404E815F8168857985C70108960E94710F7F
S1130B50C701E1DE0E94B00D8111A0CF80DD9ECFE0
S1130B60C701D9DEFDD79ACFC701D5DEF9D780E01A
S1130B7029960FB6F894DEBF0FBECDBFDF91CF919B
S1130B801F910F91FF90EF90DF90CF900895EF9217
S1130B90FF920F931F93CF93DF938A01FC01568D2D
S1130BA0378D531710F02230F9F4422F7801EC01FD
S1130BB01AA18E8DCE0136DE1F3F81F48B898823E6
S1130BC0A9F0CE0143960E94CA0F882389F0E1144C
S1130BD0F10481F081E0F70180830DC0FF24F394D8
S1130BE0F10EFAA281E007C080E005C081E003C0F5
S1130BF081E001C081E0DF91CF911F910F91FF90BF
S1130C00EF900895CF92DF92EF92FF920F931F938C
S1130C10CF93DF93CDB7DEB729970FB6F894DEBF35
S1130C200FBECDBF8C016B012E833F83488759874C
S1130C30E12C0FB6F8940F92F801F68CFF2099F08E
S1130C40B601C8014EDEFA94F801F68E8085882339
S1130C5031F0C80108960E94CA0F811100DD0F907F
S1130C600FBE81E04FC08E819F81A885B985892BF5
S1130C708A2B8B2B21F40F900FBE80E043C0E11030
S1130C8006C0CE0101960E948F10EE24E3940F90CB
S1130C900FBE26D60FB6F8940F92F80181A18F3FAC
S1130CA009F411A2F80182A18F3F09F412A20F9056
S1130CB00FBEBE016A5F7F4FCE0101960E94A01055
S1130CC0811117C0C80193DD882379F04E815F81BB
S1130CD068857985C80143960E94710FC8011BDE9F
S1130CE03FD78111A6CFBBDCA4CFC80114DE38D70F
S1130CF0A0CFC80110DE34D7C80179DD882309F4F8
S1130D0098CF80E029960FB6F894DEBF0FBECDBF12
S1130D10DF91CF911F910F91FF90EF90DF90CF90D3
S1130D200895CF93DF93EC010FB6F8940F9289A145
S1130D308F3F09F419A28AA18F3F09F41AA20F90D8
S1130D400FBE8E8D811104C0CE0143960E94880F80
S1130D50CE01E1DDDF91CF910895FC0144815581FD
S1130D6022813381240F351F80819181B901681B51
S1130D70790BCB016417750710F0841B950B08954C
S1130D800F93FC018FE0DF011D928A95E9F77587C7
S1130D906487558344833783268306870F91089598
S1130DA0AF92BF92CF92DF92EF92FF920F931F9375
S1130DB0CF93DF936C015B017A01FC01C281D38183
S1130DC0048115810C1B1D0B4017510708F48A017F
S1130DD0F60184859585A801B5018C0F9D1F0E949D
S1130DE063270E151F0558F4A701401B510BB501CD
S1130DF0600F711FF601848595850E946327CE01DB
S1130E008E0D9F1DF601248135818217930710F002
S1130E10821B930BF60193838283C701DF91CF91E9
S1130E201F910F91FF90EF90DF90CF90BF90AF9004
S1130E300895CF92DF92EF92FF920F931F93CF9377
S1130E40DF931F921F92CDB7DEB77C016B015A83EB
S1130E50498321153105C1F0FC01868580FD08C058
S1130E604217530708F49A013A83298381E00FC09B
S1130E702017310758F042E050E0BE016F5F7F4F0A
S1130E80C7018EDF81E003C080E001C080E08823D9
S1130E9031F049815A81B601C70182DF02C080E086
S1130EA090E00F900F90DF91CF911F910F91FF90E1
S1130EB0EF90DF90CF900895AF92BF92CF92DF92E0
S1130EC0EF92FF920F931F93CF93DF937C015B010B
S1130ED0E9014217530708F4EA01209781F1F70169
S1130EE00081118184819581801B910B6E018C1787
S1130EF09D0708F46C01F70164857585600F711F07
S1130F00A601C5010E946327CC16DD0658F4AE0184
S1130F104C195D09F70164857585C5018C0D9D1D0E
S1130F200E9463270C0F1D1FF70184819581081708
S1130F30190710F0081B190BF70111830083CE0168
S1130F40DF91CF911F910F91FF90EF90DF90CF90A1
S1130F50BF90AF9008956F927F928F929F92AF92BD
S1130F60BF92CF92DF92EF92FF920F931F93CF9392
S1130F70DF931F921F92CDB7DEB76C014B015A016C
S1130F80790101151105B1F0FC0160807180A8019F
S1130F90BE016F5F7F4F90DF89819A81E01AF10A69
S1130FA0A816B90630F4F60171826082A12CB12C26
S1130FB001C05C019701A501B401C6017DDF0F905A
S1130FC00F90DF91CF911F910F91FF90EF90DF90E1
S1130FD0CF90BF90AF909F908F907F906F90089527
S1130FE0CF92DF92EF92FF920F93CF93DF93EC01B6
S1130FF06B01413011F401E001C000E0C114D104DF
S113100019F4CC24C394D12CCE014096C817D90727
S113101020F4219670D97C0102C0E12CF12CE1145A
S1131020F10439F09601AE01B701615F7F4FC7014A
S1131030A7DEC701DF91CF910F91FF90EF90DF9072
S1131040CF9008950F930FB6F8940F92FC0120856A
S11310503185232B71F422853385232B61F426817A
S113106037814481558164857585068589DE81E0F3
S113107003C080E001C080E00F900FBE0F9108957F
S1131080FC012481358180819181820F931F4281EB
S11310905381841B950B01978217930710F0821BD1
S11310A0930B08952F923F924F925F926F927F928B
S11310B08F929F92AF92BF92CF92DF92EF92FF9264
S11310C00F931F93CF93DF93CDB7DEB72B970FB654
S11310D0F894DEBF0FBECDBF4C017B876A871A012F
S11310E00E831F8328873987FC01848195810197AA
S11310F0268520FF0CC02A01F2E04F0E511C8415F6
S1131100950558F41E821F821886198606C0841716
S1131110950710F02A0101C02C018E819F81A885BA
S1131120B985892B8A2B8B2B09F436C0CE01019605
S1131130E0D70FB6F8940F92C401A2DF3C018415E6
S1131140950538F560E080E090E00E9438140E9434
S11311500A11F401938782870F900FBEAE80BF807F
S1131160C884D984E12CF12C00E010E0980140E01F
S113117050E0BA0180E00E947811F40113861286CF
S1131180BE016A5F7F4FCE010196DAD7882389F2C8
S113119005C00F900FBE02C0612C712C6114710444
S11311A019F4C4016DDF3C0182019301A1016A8538
S11311B07B85C4013EDE6C01892BE9F0C401CDDDE1
S11311C0F4012681378182179307A8F089D3F401AB
S11311D080859185892B71F080859185E12CF12C96
S11311E000E020E030E0A90160E00E941F12F40159
S11311F011861086B5D4C6012B960FB6F894DEBFBF
S11312000FBECDBFDF91CF911F910F91FF90EF9053
S1131210DF90CF90BF90AF909F908F907F906F9012
S11312205F904F903F902F900895AF92BF92CF92CE
S1131230DF92EF92FF920F931F93CF93DF93EC0112
S11312407B015A0169018E8580FF04C08A010E5F0B
S11312501F4F01C08A01CE0113DF9C01A501B70114
S1131260CE01E7DD5C01892BC1F0CE0176DD2E8154
S11312703F818217930788F088859985892B69F0C7
S113128088859985E12CF12C00E020E030E0A9016B
S113129060E00E94161319861886C501DF91CF916C
S11312A01F910F91FF90EF90DF90CF90BF90AF9080
S11312B008954F925F926F927F928F929F92AF9216
S11312C0BF92CF92DF92EF92FF920F931F93CF932F
S11312D0DF93EC012B013A01580169018E8580FFEF
S11312E005C06894882481F8912C02C0812C912C2B
S11312F0A114B104C104D10431F10FB6F8940F92D2
S1131300CE012BDD7C018816990640F060E080E078
S113131090E00E9438147ED7998788870F900FBE7B
S11313208E149F0498F0E12CF12C00E010E0980159
S113133040E050E0BA0180E0DBD719861886CE0180
S11313400CDD7C0103C0CE0108DD7C018E149F04FA
S1131350E8F484019701A301B201CE01FCDD6C0124
S1131360892BB1F0BDD28A859B85892B69F08A854A
S11313709B85E12CF12C00E020E030E0A90160E045
S11313800E941F121B861A86EBD302C0C12CD12CDB
S1131390C601DF91CF911F910F91FF90EF90DF90E5
S11313A0CF90BF90AF909F908F907F906F905F9001
S11313B04F900895E091E714F091E8148081811131
S11313C00CC08FEF9FEFDC018093B1149093B214A3
S11313D0A093B314B093B4140895E091E714F0917A
S11313E0E8140780F085E02D80819181A281B3818A
S11313F08093B1149093B214A093B314B093B41423
S11314000895CF93DF93EC018B8D9C8D1DD8CE0175
S11314101BD8DF91CF9108954F925F926F927F9284
S11314208F929F92AF92BF92CF92DF92EF92FF92F0
S11314300F93CF93DF932C015B014A013901E6013D
S113144065EA70E08B8D9C8D0E946C278B8D9C8D42
S113145021E0821A9108880E991EA114B10489F41E
S113146015C0822F90E0F501E80FF91F3081DE01ED
S1131470A80FB91F5D963C938081882329F02F5FC4
S113148001C020E0203168F31CA601C01D8E0A3083
S113149008F009E00A8F0DA71EA6CE01029622D8F5
S11314A0CE010E961FD8DB87CA878AE090E0A0E0C1
S11314B0B0E0801B9109A109B1098E879F87A88B91
S11314C0B98BDF8BCE8B84E0FE01BF96DF011D92CA
S11314D08A95E9F71BAAA301B201C40177D89983BD
S11314E08883E114F10419F0F701D183C083DF91FB
S11314F0CF910F91FF90EF90DF90CF90BF90AF907E
S11315009F908F907F906F905F904F900895CF93AE
S1131510C0E009C02BE0C29FC001112481509B4E42
S11315200E946102CF5FCA30A8F384EF94E10E9465
S1131530610289EE94E10E9461028AED94E10E94C5
S113154061028FEC94E10E94610283EC94E10E94B9
S1131550610284EF94E19093E8148093E71489EE98
S113156094E19093E6148093E514CF910895CF937A
S1131570DF93EC010FB6F8940F928091C2148F5F41
S11315808093C21480916D1590916E15892B51F43E
S1131590D0936E15C0936D158091C214813091F46F
S11315A0B6DF10C08091BC1481110CC0E0916D15A0
S11315B0F0916E15928D8A8D891720F0D0936E1557
S11315C0C0936D158091B5148F5F8093B514EA8D27
S11315D08091BD148E1710F4E093BD148BE08E9FA0
S11315E0F0011124E150FB4E0180F281E02DFF83D4
S11315F0EE832681378139872887A681B7819E01AA
S11316002E5F3F4F15963C932E9314973783268372
S1131610EA8D8E9FF0011124E150FB4EFD87EC878B
S113162080818F5F80830F900FBE8091BC148823CC
S113163049F0E0916D15F0916E15928D8A8D981791
S113164008F40DD8DF91CF910895CF93DF931BC099
S11316500FB6F8940F92E091D614F091D714C08588
S1131660D185CE0102960E94B3028091C2148150AA
S11316708093C2148091CE1481508093CE140F9025
S11316800FBECE01BEDE8091CE148111E1CFDF9179
S1131690CF9108958F929F92AF92BF92CF92DF9293
S11316A0EF92FF92CF93DF936B017C01C42F809064
S11316B0BE149090BF14A090C014B090C114809137
S11316C06D1590916E1502960E94B3028FEFC816A5
S11316D0D806E806F806B1F5CC23A1F1E3ECF4E171
S11316E0A181B281C0916D15D0916E15BF83AE8377
S11316F0C0916D15D0916E1516968D919C9117978A
S1131700998788871696CD91DC91179780916D15EE
S113171090916E1502969D838C8380916D159091A6
S11317206E15029617969C938E931697A0916D153D
S1131730B0916E151D96FC93EE931C9780818F5F7C
S113174080833FC0C80CD91CEA1CFB1CE0916D15BA
S1131750F0916E15C282D382E482F582C814D90452
S1131760EA04FB0468F460916D1570916E15809124
S1131770E5149091E6146E5F7F4F0E94760221C0BB
S113178060916D1570916E158091E7149091E81435
S11317906E5F7F4F0E9476028091B1149091B214D3
S11317A0A091B314B091B414C816D906EA06FB0686
S11317B040F4C092B114D092B214E092B314F092F7
S11317C0B414DF91CF91FF90EF90DF90CF90BF9052
S11317D0AF909F908F9008952F923F924F925F9277
S11317E06F927F928F929F92AF92BF92CF92DF922D
S11317F0EF92FF920F93CF93DF933C011B014A01B9
S11318002901CA010E947B016C01892B71F084E3D8
S113181090E00E947B01EC01892B19F0DC8ECB8EC9
S113182006C0C6010E94240202C0C0E0D0E0209796
S113183061F0A12CB12C6E019201A401B101C3018C
S1131840EBDDCE0194DE81E001C08FEFDF91CF911B
S11318500F91FF90EF90DF90CF90BF90AF909F904B
S11318608F907F906F905F904F903F902F9008954E
S1131870EF92FF920F930F2EFFEAEF2EF4E1FF2E6B
S1131880F02D00E020E030E040EC50E062E472E053
S11318908DEC90E0A1DF813011F40E94DC148130E2
S11318A0C9F4F8948FEF9FEFDC018093B114909307
S11318B0B214A093B314B093B41481E08093BC1415
S11318C01092BE141092BF141092C0141092C1143E
S11318D00E94FD02809106020F91FF90EF900895FF
S11318E08091AE148F5F8093AE1408950FB6F89470
S11318F00F926091BE147091BF148091C0149091A6
S1131900C1140F900FBE0895CF92DF92EF92FF9211
S1131910CF93DF938091AE14811105C1C090BE14A2
S1131920D090BF14E090C014F090C1148FEFC81A87
S1131930D80AE80AF80AC092BE14D092BF14E09202
S1131940C014F092C114C114D104E104F104B1F43F
S11319508091E7149091E8142091E5143091E614F5
S11319603093E8142093E7149093E6148093E514DD
S11319708091B6148F5F8093B6141CDD8091B114EE
S11319809091B214A091B314B091B414C816D906AE
S1131990EA06FB0620F480E0B2C081E001C080E0EA
S11319A0E091E714F091E814908191110CC04FEF8D
S11319B05FEFBA014093B1145093B2146093B3141F
S11319C07093B4149CC0E091E714F091E81407807C
S11319D0F085E02D0084F185E02D428153816481FE
S11319E07581C416D506E606F70648F44093B1148B
S11319F05093B2146093B3147093B41480C0A4854C
S1131A00B585C681D781208531853F832E83C085E6
S1131A10D185268137813D832C8311964D915C912C
S1131A2012979F012E5F3F4F4217530731F44085B1
S1131A30518512965C934E931197158614869C914A
S1131A4091509C93A08DB18D109709F1C289D389CF
S1131A50448955895F834E83C489D58942895389D2
S1131A605D834C8311966D917C911297AF01425F17
S1131A705F4F6417750731F44489558912965C9356
S1131A804E931197118E108E9C9191509C93A28D20
S1131A909091BD149A1710F4A093BD149BE09A9FE3
S1131AA0D0011124A150BB4E11960D90BC91A02DD4
S1131AB0B783A68316964D915C91179751874087FB
S1131AC01696CD91DC9117973D832C8317963C9302
S1131AD02E931697A28D9A9FD0011124A150BB4E2C
S1131AE0B587A4879C919F5F9C93228DE0916D158F
S1131AF0F0916E15928D291708F04FCF51CFE091D8
S1131B006D15F0916E15E28D9BE0E99FF0011124B3
S1131B10E150FB4E9081923008F081E09091B7142F
S1131B20911116C016C08091B8149091B914A09167
S1131B30BA14B091BB140196A11DB11D8093B814C1
S1131B409093B914A093BA14B093BB1480E001C06D
S1131B5081E0DF91CF91FF90EF90DF90CF900895D7
S1131B60CF92DF92EF92FF92CF93DF930FB6F89468
S1131B700F928091AE1481508093AE148091AE1474
S1131B808111BEC08091C214811188C0BCC0E09193
S1131B90E114F091E2140084F185E02DA08DB18D63
S1131BA0C289D389848995899F838E83C489D58981
S1131BB0828993899D838C8311962D913C911297F0
S1131BC0CF010E962817390731F484899589129626
S1131BD09C938E931197118E108E8C9181508C93BF
S1131BE0A485B585C681D781808591859F838E83A1
S1131BF0C085D185868197819D838C8311968D9133
S1131C009C9112979F012E5F3F4F8217930731F4E7
S1131C108085918512969C938E93119715861486D0
S1131C208C9181508C93A28D8091BD148A1710F4ED
S1131C30A093BD148BE08A9FD0011124A150BB4E08
S1131C4011960D90BC91A02DB783A68316964D9145
S1131C505C911797518740871696CD91DC91179721
S1131C603D832C8317963C932E931697A28D8A9FBF
S1131C70D0011124A150BB4EB587A4878C918F5FEE
S1131C808C93928DA0916D15B0916E155A968C918E
S1131C90981730F081E08093B71402C0E0E0F0E0E0
S1131CA08091DA14811173CFEF2B09F083DBC0909C
S1131CB0B814D090B914E090BA14F090BB14C114C5
S1131CC0D104E104F104A1F01FDE882319F081E0BE
S1131CD08093B71481E0C81AD108E108F108A1F78C
S1131CE01092B8141092B9141092BA141092BB1432
S1131CF08091B714882331F00E942F0381E003C040
S1131D0080E001C080E00F900FBEDF91CF91FF9083
S1131D10EF90DF90CF9008958F929F92AF92BF92F1
S1131D20CF92DF92EF92FF921F93CF93DF93EC0158
S1131D306A017B01D5DD8090BE149090BF14A09001
S1131D40C014B090C11488819981AA81BB81AC016F
S1131D50BD014C0D5D1D6E1D7F1D88169906AA06DA
S1131D60BB0660F4481759076A077B0798F4841682
S1131D709506A606B70680F010E013C04817590769
S1131D806A077B0758F084169506A606B70640F046
S1131D9010E007C010E005C011E003C011E001C06D
S1131DA011E0488359836A837B83112341F0CB017B
S1131DB0BA01681979098A099B0940E06BDCD0DE15
S1131DC0811102C00E942F03812FDF91CF911F91B7
S1131DD0FF90EF90DF90CF90BF90AF909F908F9047
S1131DE00895CF92DF92EF92FF926B017C01672BF3
S1131DF0682B692B39F074DD40E0C701B6014ADC79
S1131E00AFDE01C080E0811102C00E942F03FF9069
S1131E10EF90DF90CF9008958091AE14882321F045
S1131E2081E08093B71408951092B714E0916D1572
S1131E30F0916E1520813181E0916D15F0916E1550
S1131E40838D948D8217930760F060916D15709166
S1131E506E15635E7F4F80916D1590916E150E9493
S1131E606A178091BD1401C08150282F30E09BE097
S1131E70929FF001939FF00D1124E150FB4E90814D
S1131E80992391F39BE0929FA001939F500D1124FD
S1131E90DF010180F281E02D0480F581E02D1296AE
S1131EA0FC93EE9311974E5F5A4EE417F50729F40D
S1131EB044815581FD01528341839BE0929FF0014F
S1131EC0939FF00D1124E150FB4E0180F281E02D2F
S1131ED02085318530936E1520936D158093BD1444
S1131EE00895CF92DF92EF92FF926A017B01609195
S1131EF06D1570916E15625F7F4F0E94760241E00E
S1131F00C701B601C7DBFF90EF90DF90CF90089533
S1131F10CF93DF93FC01CB01BA01A181B281C091BF
S1131F206D15D0916E15BB8BAA8BC0916D15D09198
S1131F306E1516964D915C9117975D8B4C8B16968A
S1131F40CD91DC91179740916D1550916E15425FBC
S1131F505F4F5D834C8340916D1550916E15425FC8
S1131F605F4F17965C934E931697A0916D15B091A1
S1131F706E155996FC93EE93589730813F5F3083EA
S1131F80222319F06FEF7FEFCB01422F83DBDF9128
S1131F90CF910895CF93DF93DC011796ED91FC91D7
S1131FA018970084F185E02DA08DB18DC289D38965
S1131FB0848995899F838E83C489D58982899389ED
S1131FC09D838C8311968D919C9112979F01225F22
S1131FD03F4F8217930731F48489958912969C9315
S1131FE08E931197118E108E8C9181508C938091C9
S1131FF0AE14811152C0A485B585C681D781808570
S113200091859F838E83C085D185868197819D83A9
S11320108C8311968D919C9112979F012E5F3F4F57
S11320208217930731F48085918512969C938E9341
S11320301197158614868C9181508C93A28D809172
S1132040BD148A1710F4A093BD148BE08A9FD001AD
S11320501124A150BB4E11960D90BC91A02DB783B5
S1132060A68316964D915C911797518740871696D3
S1132070CD91DC9117973D832C8317963C932E9337
S11320801697A28D8A9FD0011124A150BB4EB5870B
S1132090A4878C918F5F8C931CC04AED54E1DA01C4
S11320A01196CD91DC911297D38BC28B8E819F8137
S11320B0958B848B8E819F81DC0115963C932E93A6
S11320C014973F832E83518F408FDA018C918F5F59
S11320D08C93928DE0916D15F0916E15828D891718
S11320E020F481E08093B71401C080E0DF91CF91A8
S11320F008950FB6F8940F922091B614FC01208332
S11321004091BE145091BF146091C0147091C114D9
S113211041835283638374830F900FBE089520918B
S1132120B614FC0120834091BE145091BF146091F9
S1132130C0147091C11441835283638374830895DE
S11321408F929F92AF92BF92CF92DF92EF92FF92C3
S11321500F931F93CF93DF93FB010FB6F8940F9265
S1132160C090BE14D090BF14E090C014F090C1147D
S1132170DC0111960D911D912D913C91149746010E
S11321805701801A910AA20AB30A408151816281DF
S113219073814F3FBFEF5B076B077B0739F1EC019E
S11321A0B881A091B614BA1759F0C016D106E20648
S11321B0F30630F0108211821282138281E017C07C
S11321C084169506A606B70658F4481959096A09EB
S11321D07B094083518362837383A1DF80E007C05E
S11321E0108211821282138281E001C080E00F907C
S11321F00FBEDF91CF911F910F91FF90EF90DF9071
S1132200CF90BF90AF909F908F90089581E080937E
S1132210B714089580916D1590916E15089580916D
S1132220BC14882331F08091AE14811104C082E083
S1132230089581E0089580E008950F931F93CF934C
S1132240DF93FC01892B09F449C086A5815086A738
S1132250228D95A5291709F443C0811143C0EF01CC
S11322608F010E5F1F4FC8010E94B302EDA5EA8FD4
S11322708AE090E0A0E0B0E08E1B9109A109B109C9
S11322808E879F87A88BB98B8091BD148E1710F40D
S1132290E093BD148BE08E9FF0011124E150FB4EBE
S11322A00180F281E02DFF83EE8326813781398717
S11322B02887A681B78115961C930E9314971783CC
S11322C00683EA8D8E9FF0011124E150FB4EFD87B9
S11322D0EC8780818F5F808381E005C080E003C04C
S11322E080E001C080E0DF91CF911F910F910895AC
S11322F04F925F926F927F92AF92BF92CF92DF9292
S1132300EF92FF920F931F93CF93DF93280139012C
S11323100FB6F8940F92E0916D15F0916E15C82FD9
S1132320D0E0EC0FFD1F83A9823071F1E0916D15AF
S1132330F0916E15CE01880F991F880F991FE80F31
S1132340F91F87A590A9A1A9B2A9409550956095B8
S11323507095482359236A237B2347A750AB61AB6D
S113236072ABE0916D15F0916E15EC0FFD1F81E0DD
S113237083ABA114B104C104D10431F041E0C6011E
S1132380B50188D90E942F030F900FBE0FB6F894A1
S11323900F92E114F104A1F0E0916D15F0916E1526
S11323A0CE01880F991F880F991FE80FF91F87A581
S11323B090A9A1A9B2A9F70180839183A283B383D1
S11323C0E0916D15F0916E15EC0FFD1F83A982301D
S11323D0E9F4E0916D15F0916E15CE01880F991F07
S11323E0880F991FE80FF91F87A590A9A1A9B2A981
S11323F04094509460947094482259226A227B221B
S113240047A650AA61AA72AA81E001C080E0209187
S11324106D1530916E15C20FD31F1BAA0F900FBEFE
S1132420DF91CF911F910F91FF90EF90DF90CF90AC
S1132430BF90AF907F906F905F904F9008958F9270
S11324409F92AF92BF92EF92FF920F93CF93DF933D
S1132450DC010FB6F8940F92E114F10489F0E62F31
S1132460F0E0EE0FFF1FEE0FFF1FE80FF91F87A428
S113247090A8A1A8B2A8F70180829182A282B38217
S113248070E0FD01E60FF71F83A992E093AB0230E1
S113249001F118F4013031F04DC0033079F104300A
S11324A0D1F148C0660F771F660F771FFD01E60F55
S11324B0F71F87A490A8A1A8B2A8BA01A901482926
S11324C059296A297B2947A750AB61AB72AB01E05C
S11324D034C0660F771F660F771FFD01E60FF71FE5
S11324E047A550A961A972A94F5F5F4F6F4F7F4FF6
S11324F047A750AB61AB72AB01E01FC0660F771FFB
S1132500660F771FFD01E60FF71F27A730AB41AB1E
S113251052AB01E012C0823079F0660F771F660F6C
S1132520771FFD01E60FF71F27A730AB41AB52AB76
S113253001E003C001E001C000E0813009F069C09E
S11325401C96ED91FC911D971696CD91DC911797F1
S113255018968D919C9119979F838E831896CD918F
S1132560DC91199716968D919C9117979D838C8376
S1132570818192819D012E5F3F4F8217930731F431
S113258018968D919C911997928381831D961C9224
S11325901E921C978081815080835A96EC915A97A1
S11325A08091BD148E1710F4E093BD148BE08E9FC0
S11325B0F0011124E150FB4E0180F281E02D1796C9
S11325C0FC93EE9316974681578119965C934E932C
S11325D01897C681D7813D832C83378326835A96E7
S11325E0EC915A978E9FF0011124E150FB4E1D96F9
S11325F0FC93EE931C9780818F5F80835A969C9105
S1132600E0916D15F0916E15828D891710F40E947A
S11326102F030F900FBE802FDF91CF910F91FF906A
S1132620EF90BF90AF909F908F9008958F929F925C
S1132630AF92BF92CF92DF92EF92FF920F93CF931C
S1132640DF93DC01E114F10489F0E62FF0E0EE0FF2
S1132650FF1FEE0FFF1FE80FF91F87A490A8A1A882
S1132660B2A8F70180829182A282B38270E0FD0158
S1132670E60FF71F93A982E083AB023001F118F44F
S1132680013031F04DC0033079F10430D1F148C04C
S1132690660F771F660F771FFD01E60FF71F87A4EC
S11326A090A8A1A8B2A8BA01A901482959296A2960
S11326B07B2947A750AB61AB72AB81E034C0660F96
S11326C0771F660F771FFD01E60FF71F47A550A977
S11326D061A972A94F5F5F4F6F4F7F4F47A750AB00
S11326E061AB72AB81E01FC0660F771F660F771F67
S11326F0FD01E60FF71F27A730AB41AB52AB81E0DA
S113270012C0923079F0660F771F660F771FFD01B4
S1132710E60FF71F27A730AB41AB52AB81E003C0F4
S113272081E001C080E0913009F096C09091AE1430
S113273091115FC01C96ED91FC911D971696CD9159
S1132740DC91179718962D913C9119973F832E830E
S11327501896CD91DC91199716962D913C91179767
S11327603D832C83418152819D012E5F3F4F42174F
S1132770530731F418964D915C9119975283418314
S11327801D961C921E921C979081915090835A968C
S1132790EC915A979091BD149E1710F4E093BD14D8
S11327A09BE09E9FF0011124E150FB4E0180F281D9
S11327B0E02D1796FC93EE93169746815781199650
S11327C05C934E931897C681D7813D832C833783BE
S11327D026835A96EC915A979E9FF0011124E1505A
S11327E0FB4E1D96FC93EE931C9790819F5F908304
S11327F021C06AED74E1FB01C181D2815396DC935F
S1132800CE9352972E813F8155963C932E935497A5
S11328104E815F819D01225F3F4FFA0135832483FE
S11328203F832E8359967C936E935897FB01908136
S11328309F5F90835A962C91E0916D15F0916E15DF
S1132840928D921748F4C114D10419F091E0F60165
S1132850908391E09093B714DF91CF910F91FF9003
S1132860EF90DF90CF90BF90AF909F908F9008959E
S1132870009721F480916D1590916E150FB6F89420
S11328800F9270E0FC01E60FF71F23A9223031F408
S1132890FC01E60FF71F13AA81E001C080E00F904E
S11328A00FBE0895DC01E0917915F0917A158081CD
S11328B091E0811190E09C93911108C00780F0850C
S11328C0E02D6081718182819381089560E070E0E0
S11328D0CB010895CF92DF92EF92FF920F931F9353
S11328E0FC0142835383648375839387828704172F
S11328F0150726073707C0F00C191D092E093F09D3
S113290086859785A089B189081719072A073B0787
S113291000F5BF016E5F7F4F809177159091781518
S11329200E94760280E018C00C151D052E053F0597
S113293028F44C155D056E057F0568F4BF016E5FD4
S11329407F4F8091791590917A150E94760280E0EC
S113295003C081E001C081E01F910F91FF90EF90CF
S1132960DF90CF9008950FB6F8940F92809175156B
S113297090917615892BE9F486E895E10E9461022D
S11329808BE795E10E94610286E895E190937A15C0
S1132990809379158BE795E190937815809377155B
S11329A040E067E08AE00E941405909376158093D6
S11329B075150F900FBE0895EF92FF920F93D3DF1A
S11329C08091751590917615892B91F00F2EF3E770
S11329D0EF2EF5E1FF2EF02D03E020E030E040EC97
S11329E050E067E472E087ED90E00E94EC0B01C0D8
S11329F080E00F91FF90EF9008958F929F92AF9295
S1132A00BF92CF92DF92EF92FF920F931F93CF93D7
S1132A10DF93CDB7DEB727970FB6F894DEBF0FBEAE
S1132A20CDBFE0917515F0917615309781F16983EA
S1132A302A833B834C835D839F838E836630F4F4C7
S1132A40EEDB823069F400E0A7019601BE016F5FFE
S1132A507F4F80917515909176150E94370518C0A7
S1132A6000E020E030E0A901BE016F5F7F4F80915C
S1132A707515909176150E9437050AC020E0A801CB
S1132A80BE016F5F7F4FCF010E94C70501C080E088
S1132A9027960FB6F894DEBF0FBECDBFDF91CF915E
S1132AA01F910F91FF90EF90DF90CF90BF90AF9068
S1132AB09F908F9008958F929F92AF92BF92CF92E2
S1132AC0DF92EF92FF920F931F93CF93DF933BC05C
S1132AD00780F085E02D80809180A280B380C0853E
S1132AE0D1858E010E5F1F4FC8010E94B302EC898D
S1132AF0FD89CE0119958E8982FF25C08E859F851B
S1132B00A889B989880D991DAA1DBB1D8816990627
S1132B10AA06BB0670F48A839B83AC83BD83DB87E0
S1132B20CA87B8018091791590917A150E9476022E
S1132B300AC0C12CD12C760100E010E0A50194015B
S1132B4060E0CE015ADFE0917915F0917A15808129
S1132B508111BECF809177159091781590937A1555
S1132B6080937915F0937815E0937715DF91CF91E1
S1132B701F910F91FF90EF90DF90CF90BF90AF9097
S1132B809F908F900895CF92DF92EF92FF92CF9310
S1132B90DF93EC010E94760C6B017C0180916F1530
S1132BA090917015A0917115B0917215C816D9063F
S1132BB0EA06FB0620F47FDF81E0888301C01882E7
S1132BC0C0926F15D0927015E0927115F092721543
S1132BD0C701B601DF91CF91FF90EF90DF90CF90C6
S1132BE008954F925F926F927F928F929F92AF92CD
S1132BF0BF92CF92DF92EF92FF920F931F93CF93E6
S1132C00DF934B015C0129013A01E0917915F091C0
S1132C107A150780F085E02DC085D185CE01029616
S1132C200E94B3028E8982FF1BC04E855F8568892E
S1132C307989480D591D6A1D7B1D75016401930135
S1132C408201CE0147DE882369F0C12CD12C7601A4
S1132C5000E010E0A501940160E0CE01CEDE02C0E8
S1132C608E7F8E8BEC89FD89CE011995DF91CF91F2
S1132C701F910F91FF90EF90DF90CF90BF90AF9096
S1132C809F908F907F906F905F904F9008958F9258
S1132C909F92AF92BF92CF92DF92EF92FF921F93D7
S1132CA0CF93DF931F92CDB7DEB76B017C01142F56
S1132CB00E94700CCE01019666DF4B015C01898194
S1132CC081112DC011110DC08C149D04AE04BF04DC
S1132CD040F00E94B00DA5019401C701B60181DF47
S1132CE020C0112341F0E0917715F091781580818F
S1132CF011E0811110E0B701A601481959096A09C8
S1132D007B09212F80917515909176150E9491066B
S1132D100E94B00D811105C00E942F0302C00E94C1
S1132D20B00D0F90DF91CF911F91FF90EF90DF9046
S1132D30CF90BF90AF909F908F900895AF92BF9225
S1132D40CF92DF92EF92FF920F931F93CF93DF9373
S1132D50CDB7DEB728970FB6F894DEBF0FBECDBF50
S1132D6082C0898188230CF47EC0AE80BF80D501E7
S1132D701C968D919C911D97892B21F0C50102967B
S1132D800E94B302CE010896FEDE8B019C01E9810C
S1132D900E2E000CFF0BEA30F10508F064C0882702
S1132DA0EE58FF4F8F4F0C943626F50186898160CB
S1132DB0868BCA80DB80EC80FD80468557856089E0
S1132DC071894C0D5D1D6E1D7F1DC50183DD88233A
S1132DD009F449C0D5015496ED91FC915597C5016C
S1132DE01995F501868982FF3EC04A815B816C8119
S1132DF07D8186859785A089B1899A01AB01280FC9
S1132E00391F4A1F5B1FC12CD12C760100E010E052
S1132E1060E0C501F2DD27C0D50156968C91569726
S1132E208E7F56968C931FC0F50186898160868BB0
S1132E304A815B816C817D8146875787608B718B6A
S1132E40400F511F621F731F68017901C50142DDE4
S1132E500AC0F501868981FD04C0C5010E942402CF
S1132E6002C08E7F868B20E030E0A901BE016F5F37
S1132E707F4F80917515909176150E9402068111FD
S1132E8070CF28960FB6F894DEBF0FBECDBFDF918A
S1132E90CF911F910F91FF90EF90DF90CF90BF9053
S1132EA0AF900895089584B1806884B985B180682D
S1132EB085B9089583B1806883B90895F4DF2FEF4D
S1132EC080E792E0215080409040E1F700C000008C
S1132ED0F1DFF5CFE8DF2FEF87EA91E6215080405C
S1132EE09040E1F700C00000E5DFF5CF0F931F939A
S1132EF0CF93DF93CDB7DEB764970FB6F894DEBFF8
S1132F000FBECDBF81E00E947D22EDD269D59F9393
S1132F108F938FE492E09F938F930E94C22761D492
S1132F205FD59F938F9382E692E09F938F930E9445
S1132F30C2278E010F5F1F4FC801E7D251D51F93DF
S1132F400F939F938F938BE792E09F938F930E94AD
S1132F50C227C801F6D244D59F938F931F930F9332
S1132F608FE892E09F938F930E94C227A80164EA9E
S1132F7072E085EC92E013D533D59F938F931F9322
S1132F800F9384EA92E09F938F9385EC92E09F9352
S1132F908F9386ED92E09F938F930E94C22704D370
S1132FA01FD59F938F938CE093E09F938F930E9400
S1132FB0C2270FB6F894DEBF0FBECDBF81E0EED3BB
S1132FC00FD59F938F938BE193E09F938F930E94F0
S1132FD0C22784EF91E0EDD303D59F938F9381E0D3
S1132FE08F9384EF8F938CE393E09F938F930E944E
S1132FF0C2270FB6F894DEBF0FBECDBF1AE080E043
S1133000D9D2082FEDD49F938F931F921F938CE5F1
S113301093E09F938F930E94C2270F900F900F907D
S11330200F900F900F90083059F080E00E94E12239
S113303066E371E080E090E00E94F10E1150F9F631
S1133040083021F481E00E94C32209C081E00E947B
S1133050D22280E00E94A0220E942F03FDCF64961A
S11330600FB6F894DEBF0FBECDBFDF91CF911F9195
S11330700F910895CF93DF9300D01F92CDB7DEB7A1
S113308081E023D262E070E080E090E00E94F10EE3
S113309080E01BD266E970E080E090E00E94F10ECF
S11330A0CDD124DFE1E9F5E186E0818382E080830C
S11330B00E94760C69837A838B839C8348EA58E464
S11330C060E070E0CE0101960E948C0EE1E9F5E12A
S11330D080E3828389E3838382E0848383EA858334
S11330E084E086838AE1878383E00E94F32261E996
S11330F075E180E088D274D49F938F938CE793E03A
S11331009F938F930E94C2270F900F900F900F9060
S1133110D5CFEF92FF920F93E12CF12C082F20E0F2
S113312030E048E851E061E973E08AE398E10E9405
S1133130EC0B0F91FF90EF90089581B1806381B9FA
S113314080E00E94282185E00E942F2260E070E048
S113315081E07BD183E0DDDF41D0811105C088EEC1
S113316093E00C94D52708958CEF93E00C94D52725
S11331700895E3DF8BE094E00E94D5270E94380C89
S1133180FFCF6530F1F4FA0180818F7390E0982FBE
S113319088272181822B90930A02809309028281DD
S11331A0F0E48F9FC0011124FA012381269526950E
S11331B0822B909308028093070281E08093A715E5
S11331C00895643051F080E090E490930802809375
S11331D0070290930A028093090208950F931F93A4
S11331E001EC18E120E034E244EF50E060E087E2D3
S11331F00E9404239093A9158093A81521E0892B9C
S113320009F020E0822F1F910F9108950F931F93CF
S1133210CF93DF931F921F92CDB7DEB78C01198233
S11332202DC0E091E115EC3250F481E08E0F8093D3
S1133230E115F0E0ED5EF94E8A81808302C01092C0
S1133240E1158A818A30D1F44091E11550E0FA0108
S1133250EF5EF94E1082415051099E012F5F3F4F9E
S113326063E176E18091E4159091E5150E941509DA
S1133270898181110E942F031092E115BE016E5FB6
S11332807F4FC8014FD5882361F20F900F90DF91D3
S1133290CF911F910F9108950F931F93CF93DF93B5
S11332A08C01EB018091E4159091E5150E942208B0
S11332B0B8018AEA95E10E94A327209779F0EAEA07
S11332C0F5E101900020E9F7319780E290E09183E5
S11332D08083BE018AEA95E10E949827EAEAF5E133
S11332E0DF010D900020E9F711978DE09AE0119627
S11332F09C938E9312961C9201900020E9F73197CB
S1133300EA5AF541AE2F8AEA95E1AC016A2F809121
S1133310E6159091E715B1D4811111C008E215E0CA
S113332020E030E04DE250E06DE676E18091E41576
S11333309091E5150E9459098DE696E102C080E05E
S113334090E0DF91CF911F910F9108952F923F92BA
S11333504F925F926F927F928F929F92AF92BF92A1
S1133360CF92DF92EF92FF920F931F93CF93DF934D
S11333705C01FC0101900020E9F731976F01C81A44
S1133380D90A5C2C0F2EF6EB8F2EF6E09F2EF02D33
S1133390E12CF12C4C2C3701F40101811281E8015C
S11333A009900020E9F72197C01BD10B3C2EF9E0CE
S11333B0CF16D10458F0F4012080FEE02F1206C08D
S11333C0B801C5010E947327892B09F5442D3514D2
S11333D008F44C2F50E0B801C5010E94AA27892B9C
S11333E049F4F301EE0FFF1FE60DF71DEA54F94F00
S11333F020800DC08FEFE81AF80AE3E08E0E911CCE
S1133400F1E1EF16F10439F66894222424F8822DB0
S1133410DF91CF911F910F91FF90EF90DF90CF90AC
S1133420BF90AF909F908F907F906F905F904F90E0
S11334303F902F90089530DF89CF08958091E4154F
S11334409091E5150C94220808958F929F92AF9263
S1133450CF92EF920F931F93CF93C82F8B0141E02C
S113346060E070E088EC90E00E94F0079093E5152E
S11334708093E4151093E3150093E2150F2EF6E004
S11334808F2EF9E19F2EF02D6894AA24A6F8689453
S1133490CC24C6F8E12C00E023E040E051EE60E0EB
S11334A070E08C2F1ED39093E7158093E615E7E028
S11334B0F1E0808180618083CF911F910F91EF9023
S11334C0CF90AF909F908F900895882331F0E8E0DB
S11334D0F1E080818F7E80830895E8E0F1E08081CF
S11334E080618083089560E070E08CE394E0D4DE32
S11334F0EDE6F6E101900020E9F73197ED56F6414B
S113350081E0759708F080E00895CF93DF93EC0194
S113351060E070E08DE494E0BFDEEDE6F6E101905A
S11335200020E9F7EE57F64139F46DE676E1CE0175
S11335300E94A32780E002C0188281E0DF91CF912E
S11335400895FC0101900020E9F79F012151310900
S11335502817390729F4BC018BE794E06CCF089550
S113356089E00895FC0101900020E9F79F012151B1
S113357031092817390729F4BC018AE894E05BCFA4
S1133580089589E00895FC0101900020E9F79F0166
S1133590215231092817390729F4BC0189E994E03B
S11335A04ACF089589E0089560E070E088ED94E0E2
S11335B042CF08950F931F93E82FF0E0EE0FFF1F03
S11335C0EE54F94F6081718181EE94E034DF811112
S11335D014C008E215E020E030E04DE250E06DE672
S11335E076E18091E4159091E5150E9459098823AC
S11335F021F08DE696E1AADE03C08DE696E1A6DE13
S11336001F910F9108950F931F93CF93DF931F92F0
S1133610CDB7DEB7DB0111969C911197953108F077
S1133620B4C0992381F160E070E0272F30E0462F89
S113363050E0FD01E40FF51F928192959F709A303E
S113364010F0995C01C0905DF901E250FA4E90834C
S11336502F5F3F4FFD01E40FF51F92819F70492FAB
S113366050E04A30510514F0995C01C0905DF901B5
S1133670E250FA4E90837E5F6F5F11969C91119792
S1133680691798F201C070E0E72FF0E0E250FA4EBB
S113369010824C91811103C08AEE94E002C08CEE3A
S11336A094E02EEF35E13F932F931F924F939F9316
S11336B08F9380EF94E09F938F9380E496E19F93A0
S11336C08F930E94052860E070E080E496E1B3DE09
S11336D00FB6F894DEBF0FBECDBF811159C008E20A
S11336E015E020E030E04DE250E06DE676E18091B7
S11336F0E4159091E5150E945909882309F447C0FF
S11337008DE696E123DE8E3009F042C087E089839E
S11337108091E2159091E315892BA9F1BE016F5FA9
S11337207F4F8DE696E168D18093E815E981F0E05A
S1133730E359F94EDF010D900020E9F71197AE1B14
S1133740BF0BAA2391F0BB27CD0101979C0112F472
S11337502F5F3F4F359527952093E915AF014F5FB4
S11337605F4F64E18AEE95E173D101E010E020E05F
S113377030E046E150E068EE75E18091E215909109
S1133780E3150E9452088EE003C084E101C080E08A
S11337900F90DF91CF911F910F910895813019F00F
S11337A060E075E002C069ED75E084E095E043CE29
S11337B008959F938F9385E395E09F938F9380E47F
S11337C096E19F938F930E94052860E070E080E467
S11337D096E131DE0F900F900F900F900F900F90A5
S11337E008952F923F924F925F926F927F928F92A1
S11337F09F92AF92BF92CF92DF92EF92FF920F937C
S11338001F93CF93DF93CDB7DEB7A0970FB6F8948D
S1133810DEBF0FBECDBF62E675E08EE695E03CDD0F
S113382095DD8111A3C080E2E2E2F2E0DE011196AF
S113383001900D928A95E1F79E012F5F3F4F690138
S1133840E12CF12C0F2EFAE7AF2EF5E0BF2EF02D70
S113385000E416E10F2EF3E94F2EF5E05F2EF02D74
S11338600F2EFAEA8F2EF5E09F2EF02D0F2EF4EC9A
S11338706F2EF5E07F2EF02D3E2C2F2CFF92EF9231
S1133880BF92AF921F930F930E94052860E070E0EF
S1133890C80102DD5BDD0F900F900F900F900F9029
S11338A00F90811163C032E03E15E8F4F601838184
S11338B08F9382818F9381818F9380818F93FF92E5
S11338C0EF925F924F921F930F930E94052860E03E
S11338D070E0C801E1DC3ADD0FB6F894DEBF0FBE3C
S11338E0CDBF811143C02F923F929F928F921F931D
S11338F00F930E94052860E070E0C801CDDC26DD4E
S11339000F900F900F900F900F900F9081112EC079
S11339102F923F927F926F921F930F930E940528DC
S113392060E070E0C801B8DC11DD0F900F900F90DB
S11339300F900F900F90811119C03FEFE31AF30A13
S113394084E0C80ED11C98E0E916F10409F094CF84
S113395060E070E08CED95E09FDCF8DC811106C03E
S113396060E070E08DEE95E097DCF0DCA0960FB699
S1133970F894DEBF0FBECDBFDF91CF911F910F91A1
S1133980FF90EF90DF90CF90BF90AF909F908F907B
S11339907F906F905F904F903F902F900895EF929B
S11339A0FF920F931F93CF93DF93EC018B017A0166
S11339B081E0F4DE81110DC0CE01D4DD811109C096
S11339C0C801E1DD811105C0C701BBDD811101C062
S11339D0EBDDDF91CF911F910F91FF90EF90089550
S11339E090E0FC01EE0FFF1F8E0F9F1FFC01EA54B5
S11339F0F94F818192810895DC01009729F1FB013F
S1133A002081FC0101900020E9F73197E81BF90BB4
S1133A10822F90E0E817F907C8F080E008C0880F0B
S1133A20382F330F330F830F8053890F2F5FFD011E
S1133A30E20FF11D908130ED390F3A3010F49111FD
S1133A40EECFFB012083089580E0089580E008957F
S1133A500F931F93CF93DF93DC01EA012097E1F1E9
S1133A60FA0101900020E9F73197E41BF50B329736
S1133A7010F532C08D01040F151F30E0AE01420F66
S1133A80531FFA019081913428F09753592F52957E
S1133A90507F03C0592F5295507F2C0F3D1FF901C1
S1133AA09181913410F0975301C09053950FF80110
S1133AB090838F5F01C080E0282F220F482F50E0B1
S1133AC0FE0101900020E9F73197EC1BFD0B4E1726
S1133AD05F0710F48613CECFDF91CF911F910F9122
S1133AE008952F923F924F925F926F927F928F929E
S1133AF09F92AF92CF92EF92FF920F931F93CF9327
S1133B00DF93CDB7DEB7F82E2A013B0188E090E0C1
S1133B100E943E268C018F2D90E0FC01EE0FFF1FCA
S1133B20E656F94E118300830115110509F468C0A6
S1133B30880F991FFC01E55FFD4F80819181D801B9
S1133B408D939C938C2D90E0880F991F880F991F5B
S1133B500E943E261C0186E090E00E943E267C01E5
S1133B604C2DB1015BD6F801F582E4828A2D90E0F8
S1133B70880F991F880F991F0E943E261C0186E01A
S1133B8090E00E943E267C014A2DB10147D6D8011F
S1133B901396FC92EE92129717969C928E92169719
S1133BA0FFB6F894ED91FC9111973697808182606D
S1133BB080838D909C90C301B20145D720E030E012
S1133BC040E051E4CED79B01AC0160E074E284E7AD
S1133BD09BE4A5D620E030E040E85FE33BD607D77E
S1133BE0F40132976083D801ED91FC9111973597D8
S1133BF088E98083ED91FC91349786E08083FFBE51
S1133C00C801DF91CF911F910F91FF90EF90CF905A
S1133C10AF909F908F907F906F905F904F903F9068
S1133C202F900895CF93DF93DC01892B01F1129635
S1133C30ED91FC911397938182812581981B9223A6
S1133C4084819817B1F0838126952823C081D1817E
S1133C50C20FD11D68838F5F958189238383ED9182
S1133C60FC91359780818062808380E003C081E08D
S1133C7001C082E0DF91CF910895EF92FF920F93FC
S1133C801F93CF93DF937C01009709F441C0DC01BB
S1133C901296ED91FC91139793818281981B8581F3
S1133CA098238481891B8617A8F1662341F1842F08
S1133CB0952FDC016150462F50E04F5F5F4F480F56
S1133CC0591FE701EA81FB81938182812581981B39
S1133CD092238481981779F08C91938126952923D6
S1133CE0608171818B01020F111DE80188839F5F40
S1133CF08581982393831196A417B50711F7D701EB
S1133D00ED91FC91359780818062808380E003C0CF
S1133D1081E001C082E0DF91CF911F910F91FF906C
S1133D20EF9008950097D1F0DC011496ED91FC9189
S1133D30159793818281981799F092818581869550
S1133D408923A081B181A80FB11D8C91DB018C93D3
S1133D509F5F85819823928380E0089581E0089590
S1133D6083E008951F920F920FB60F9211240BB6A1
S1133D700F922F933F934F935F936F937F938F9300
S1133D809F93AF93BF93CF93DF93EF93FF93A09150
S1133D909A16B0919B16109711F16091C600149673
S1133DA0ED91FC911597938182812581981B922333
S1133DB08481981761F0838126952823C081D1815D
S1133DC0C20FD11D68838F5F9581892383831696E3
S1133DD0ED91FC911797309711F0CD011995FF9152
S1133DE0EF91DF91CF91BF91AF919F918F917F918F
S1133DF06F915F914F913F912F910F900BBE0F9058
S1133E000FBE0F901F9018951F920F920FB60F922E
S1133E1011240BB60F922F938F939F93AF93BF935D
S1133E20EF93FF93E0919A16F0919B163097B9F0B7
S1133E300280F381E02D938182819817B1F0928101
S1133E408581282F26952923A081B181A20FB11D38
S1133E502C919F5F892382832093C6000BC0E1ECE1
S1133E60F0E080818F7D808305C0E1ECF0E080810B
S1133E708F7D8083FF91EF91BF91AF919F918F913F
S1133E802F910F900BBE0F900FBE0F901F9018959F
S1133E901F920F920FB60F9211240BB60F922F930D
S1133EA03F934F935F936F937F938F939F93AF93BE
S1133EB0BF93CF93DF93EF93FF93A0919C16B091A0
S1133EC09D16109711F16091CE001496ED91FC911E
S1133ED01597938182812581981B92238481981759
S1133EE061F0838126952823C081D181C20FD11D21
S1133EF068838F5F9581892383831696ED91FC9166
S1133F001797309711F0CD011995FF91EF91DF913B
S1133F10CF91BF91AF919F918F917F916F915F915D
S1133F204F913F912F910F900BBE0F900FBE0F90AA
S1133F301F9018951F920F920FB60F9211240BB673
S1133F400F922F938F939F93AF93BF93EF93FF930E
S1133F50E0919C16F0919D163097B9F00280F381A0
S1133F60E02D938182819817B1F092818581282F69
S1133F7026952923A081B181A20FB11D2C919F5FA9
S1133F80892382832093CE000BC0E9ECF0E080818A
S1133F908F7D808305C0E9ECF0E080818F7D808394
S1133FA0FF91EF91BF91AF919F918F912F910F90BE
S1133FB00BBE0F900FBE0F901F9018951F920F927B
S1133FC00FB60F9211240BB60F922F933F934F937A
S1133FD05F936F937F938F939F93AF93BF93CF938D
S1133FE0DF93EF93FF93A0919E16B0919F161097C5
S1133FF011F16091D6001496ED91FC91159793817F
S113400082812581981B92238481981761F0838192
S113401026952823C081D181C20FD11D68838F5F6B
S11340209581892383831696ED91FC911797309798
S113403011F0CD011995FF91EF91DF91CF91BF91CF
S1134040AF919F918F917F916F915F914F913F912C
S11340502F910F900BBE0F900FBE0F901F901895CD
S11340601F920F920FB60F9211240BB60F922F933B
S11340708F939F93AF93BF93EF93FF93E0919E161B
S1134080F0919F163097B9F00280F381E02D93816F
S113409082819817B1F092818581282F2695292352
S11340A0A081B181A20FB11D2C919F5F89238283CE
S11340B02093D6000BC0E1EDF0E080818F7D8083FA
S11340C005C0E1EDF0E080818F7D8083FF91EF9169
S11340D0BF91AF919F918F912F910F900BBE0F9035
S11340E00FBE0F901F9018951F920F920FB60F924C
S11340F011240BB60F922F933F934F935F936F93BB
S11341007F938F939F93AF93BF93CF93DF93EF935B
S1134110FF93A091A016B091A116109711F1609190
S113412036011496ED91FC91159793818281258136
S1134130981B92238481981761F083812695282304
S1134140C081D181C20FD11D68838F5F958189237E
S113415083831696ED91FC911797309711F0CD015A
S11341601995FF91EF91DF91CF91BF91AF919F91FD
S11341708F917F916F915F914F913F912F910F900C
S11341800BBE0F900FBE0F901F9018951F920F92A9
S11341900FB60F9211240BB60F922F938F939F9308
S11341A0AF93BF93EF93FF93E091A016F091A11604
S11341B03097B9F00280F381E02D938182819817C2
S11341C0B1F092818581282F26952923A081B18180
S11341D0A20FB11D2C919F5F892382832093360106
S11341E00BC0E1E3F1E080818F7D808305C0E1E3D2
S11341F0F1E080818F7D8083FF91EF91BF91AF913A
S11342009F918F912F910F900BBE0F900FBE0F9027
S11342101F901895CF93DF931F92CDB7DEB7BE01E1
S11342206F5F7F4F8091A2169091A3167BDD811161
S1134230F6CF898190E00F90DF91CF910895682F98
S11342408091A2169091A316EDDC80E090E0089591
S11342508F929F92AF92CF92EF920F93812C912CD9
S11342606894AA24A7F86894CC24C7F8E12C00E049
S113427023E040E051EE60E070E033DC9093A3165D
S11342808093A216EEECF6E183E192E091838083C1
S1134290938382830F91EF90CF90AF909F908F90F4
S11342A0089590E0FC01EE0FFF1FE80FF91FEE0FD9
S11342B0FF1FEC55F94E238121111FC09C01220FD1
S11342C0331FF901E80FF91FEE0FFF1FEC55F94EEC
S11342D0A081B1814C91F901E80FF91FEE0FFF1F86
S11342E0EC55F94E81E090E0028002C0880F991FDE
S11342F00A94E2F7842B8C930895FC01EE0FFF1FC0
S1134300DF01A80FB91FAA0FBB1FAC55B94E0D9002
S1134310BC91A02D2C91E80FF91FEE0FFF1FEC5557
S1134320F94E81E090E0028002C0880F991F0A9440
S1134330E2F7809582238C93089590E0FC01EE0FC0
S1134340FF1FE80FF91FEE0FFF1FEC55F94E2381F5
S1134350211120C09C01220F331FF901E80FF91F1E
S1134360EE0FFF1FEC55F94EA081B1814C91F9017C
S1134370E80FF91FEE0FFF1FEC55F94E81E090E0B6
S1134380028002C0880F991F0A94E2F78095842363
S11343908C930895FC01EE0FFF1FDF01A80FB91FD6
S11343A0AA0FBB1FAC55B94E0D90BC91A02D2C91FA
S11343B0E80FF91FEE0FFF1FEC55F94E81E090E076
S11343C0028002C0880F991F0A94E2F7822B8C9313
S11343D00895CC24C394D12C6894BB24B2F8C4EAC5
S11343E0D6E110E08C81813081F018F1823061F5E2
S11343F0E881F9812081C6010A8002C0880F991FD3
S11344000A94E2F7822780831FC08D818F5F8630F4
S113441010F48D8319C01D82E881F9812081C601C1
S11344200A8002C0880F991F0A94E2F782278083CA
S11344300BC00D81002329F0812F7FDF01500D83F4
S113444003C0BC82812F2DDF1F5F2696143051F6E6
S11344506CE070E080E090E00E94F10EC0CFEF923B
S1134460FF920F931F93CF93DF93082F80E487B9B4
S1134470C4EAD6E10F2EF8E2EF2EF12CF02DF982EA
S1134480E88286E08A831B8214E01C8380E009DFD3
S113449080E887B9FF82EE8287E0888719861A87C9
S11344A081E0FFDE80E283BB84E390E09D878C871C
S11344B085E08E871F86188B82E0F3DE80E180938F
S11344C0010182E091E09B8B8A8B1C8B1D8A1E8BE1
S11344D083E0E7DEE12CF12C20E030E040EC50E01A
S11344E069EE76E089EE91E20E94EC0BDF91CF91C8
S11344F01F910F91FF90EF900895CF93DF9390E079
S1134500FC01EE0FFF1FDF01A80FB91FAA0FBB1F8D
S1134510AC55B94ECD91DC911197488121E030E042
S113452012960C90129702C0220F331F0A94E2F7DE
S113453024272883FD0181E08483DF91CF910895AE
S1134540CF93DF9390E0FC01EE0FFF1FDF01A80F74
S1134550B91FAA0FBB1FAC55B94ECD91DC91119771
S1134560488121E030E012960C90129702C0220F8D
S1134570331F0A94E2F724272883FD0182E0848311
S1134580DF91CF910895282F30E0F901EE0FFF1F3E
S1134590E20FF31FEE0FFF1FEC55F94E93E09483E7
S11345A0CCCE0895282F30E0F901EE0FFF1FE20F63
S11345B0F31FEE0FFF1FEC55F94E94E0948371CE78
S11345C0089590E0FC01EE0FFF1FDF01A80FB91F53
S11345D0AA0FBB1FAC55B94E26E015962C93159720
S11345E0FD011482089590E0FC01EE0FFF1FDF012E
S11345F0A80FB91FAA0FBB1FAC55B94E15961C9234
S11346001597FD0114820895AF92BF92CF92DF9265
S1134610EF92FF920F931F93CF93DF93A82EB62EA2
S113462069017A0184E090E029D3EC01892B61F1DE
S1134630A88281E0B81212C0C701B60120EA36E8A8
S113464041E050E0F1D2DA01C9014097A109B10972
S1134650B695A79597958795898311C0C701B6012B
S113466020E83AE146E050E0DFD2DA01C9014097A0
S1134670A109B109B695A7959795879589831B8359
S11346800A838C2F9D2F02C080E090E0DF91CF91B0
S11346901F910F91FF90EF90DF90CF90BF90AF905C
S11346A008951F920F920FB60F9211240BB60F921A
S11346B02F933F934F935F936F937F938F939F9326
S11346C0AF93BF93EF93FF93E091B9008E2F90E0E7
S11346D0FC013897E135F10508F075C08827E458E6
S11346E0FF4F8F4FC3C21092BC16E091BC1680914D
S11346F0BF16E81770F481E08E0F8093BC16F0E0CB
S1134700E054F94E80818093BB0085E88093BC001F
S113471072C084E98093BC008091BD169091BE164E
S1134720DC011296ED91FC911397309709F463C064
S113473020E040E050E064E019955DC0E091BC16D3
S113474081E08E0F8093BC168091BB00F0E0E054B2
S1134750F94E80838091B900803411F41092BC1614
S11347602091BC1630E08091BF1690E00197281785
S1134770390724F485EC8093BC003DC085E8809320
S1134780BC0039C08091BB00E091BC16F0E0E0545D
S1134790F94E808384E98093BC008091BD1690918A
S11347A0BE16DC011296ED91FC911397309719F126
S11347B02091BF1640EC56E165E019951CC085EACE
S11347C08093BC0018C08091B9008093210284E0DA
S11347D08093BC008091BD169091BE16DC011296A8
S11347E0ED91FC911397309731F020E040E050E0D8
S11347F0609121021995FF91EF91BF91AF919F9123
S11348008F917F916F915F914F913F912F910F9075
S11348100BBE0F900FBE0F901F901895FC01411115
S113482001C04DD3842F90E09C0121503109822393
S11348309323892B09F043D3413808F040D31282E3
S113484013824483440F415045837183608380E025
S113485090E008955058BB27AA270ED048C139D1FB
S113486030F03ED120F031F49F3F11F41EF42EC1FC
S11348700EF4E095E7FB24C1E92F4AD180F3BA177F
S1134880620773078407950718F071F49EF562C1F7
S11348900EF4E0950B2EBA2FA02D0B01B901900157
S11348A00C01CA01A0011124FF27591B99F0593F9B
S11348B050F4503E68F11A16F040A22F232F342FE3
S11348C04427585FF3CF469537952795A795F04031
S11348D05395C9F77EF41F16BA0B620B730B840B46
S11348E0BAF09150A1F0FF0FBB1F661F771F881FFE
S11348F0C2F70EC0BA0F621F731F841F48F4879556
S113490077956795B795F7959E3F08F0B3CF939544
S1134910880F08F09927EE0F9795879508950CD086
S1134920E6C0DED040F0D5D030F021F45F3F19F07E
S1134930C7C0511110C1CAC0EBD098F39923C9F371
S11349405523B1F3951B550BBB27AA276217730791
S1134950840738F09F5F5F4F220F331F441FAA1F45
S1134960A9F333D00E2E3AF0E0E830D09150504005
S1134970E695001CCAF729D0FE2F27D0660F771FB3
S1134980881FBB1F261737074807AB07B0E809F095
S1134990BB0B802DBF01FF2793585F4F2AF09E3F2A
S11349A0510568F08DC0D7C05F3FECF3983EDCF34F
S11349B0869577956795B795F7959F5FC9F7880FA3
S11349C0911D9695879597F90895E1E0660F771FF5
S11349D0881FBB1F621773078407BA0720F0621B86
S11349E0730B840BBA0BEE1F88F7E095089598D0EB
S11349F088F09F5790F0B92F9927B751A0F0D1F0C4
S1134A00660F771F881F991F1AF0BA95C9F712C04D
S1134A10B13081F09FD0B1E008959CC0672F782F0A
S1134A208827B85F39F0B93FCCF3869577956795B9
S1134A30B395D9F73EF490958095709561957F4F25
S1134A408F4F9F4F0895E89409C097FB3EF49095CB
S1134A508095709561957F4F8F4F9F4F9923A9F053
S1134A60F92F96E9BB279395F695879577956795E2
S1134A70B795F111F8CFFAF4BB0F11F460FF1BC026
S1134A806F5F7F4F8F4F9F4F16C0882311F096E9B9
S1134A9011C0772321F09EE8872F762F05C0662367
S1134AA071F096E8862F70E060E02AF09A95660F20
S1134AB0771F881FDAF7880F9695879597F90895D9
S1134AC097F99F6780E870E060E008959FEF80ECBD
S1134AD0089500240A941616170618060906089560
S1134AE000240A9412161306140605060895092EC6
S1134AF00394000C11F4882352F0BB0F40F4BF2B35
S1134B0011F460FF04C06F5F7F4F8F4F9F4F089574
S1134B1057FD9058440F551F59F05F3F71F047956A
S1134B20880F97FB991F61F09F3F79F0879508954F
S1134B30121613061406551FF2CF4695F1DF08C06E
S1134B40161617061806991FF1CF8695710561058B
S1134B5008940895E894BB2766277727CB0197F933
S1134B6008950BD0C4CFB5DF28F0BADF18F0952331
S1134B7009F0A6CFABCF1124EECFCADFA0F3959FE7
S1134B80D1F3950F50E0551F629FF001729FBB2730
S1134B90F00DB11D639FAA27F00DB11DAA1F649FDC
S1134BA06627B00DA11D661F829F2227B00DA11D8F
S1134BB0621F739FB00DA11D621F839FA00D611D15
S1134BC0221F749F3327A00D611D231F849F600D36
S1134BD0211D822F762F6A2F11249F5750408AF06F
S1134BE0E1F088234AF0EE0FFF1FBB1F661F771FFB
S1134BF0881F91505040A9F79E3F510570F060CF37
S1134C00AACF5F3FECF3983EDCF3869577956795E2
S1134C10B795F795E7959F5FC1F7FE2B880F911D18
S1134C209695879597F90895A1E21A2EAA1BBB1BA6
S1134C30FD010DC0AA1FBB1FEE1FFF1FA217B30764
S1134C40E407F50720F0A21BB30BE40BF50B661F7A
S1134C50771F881F991F1A9469F76095709580953E
S1134C6090959B01AC01BD01CF010895EE0FFF1F8C
S1134C70881F8BBF0790F691E02D19940F931F9313
S1134C80CF93DF938230910510F482E090E0E091BD
S1134C90CC16F091CD1620E030E0A0E0B0E03097E3
S1134CA019F1408151810281138148175907C8F0D5
S1134CB08417950769F4109731F012960C931297A4
S1134CC013961C9327C00093CC161093CD1622C0C4
S1134CD02115310519F04217530718F49A01BD0143
S1134CE0EF01DF01F801DBCF21153105F9F0281BB5
S1134CF0390B2430310580F48A819B81611571055B
S1134D0021F0FB019383828304C09093CD1680939A
S1134D10CC16FE01329644C0FE01E20FF31F8193CC
S1134D20919322503109398328833AC02091CA16BD
S1134D303091CB16232B41F42091020230910302CF
S1134D403093CB162093CA162091000230910102B1
S1134D502115310541F42DB73EB74091040250911D
S1134D600502241B350BE091CA16F091CB16E2170D
S1134D70F307A0F42E1B3F0B2817390778F0AC017A
S1134D804E5F5F4F2417350748F04E0F5F1F509357
S1134D90CB164093CA168193919302C0E0E0F0E0F1
S1134DA0CF01DF91CF911F910F910895CF93DF939E
S1134DB0009709F481C0FC01329713821282A091FA
S1134DC0CC16B091CD16109781F420813181820FD9
S1134DD0931F2091CA163091CB162817390751F525
S1134DE0F093CB16E093CA1667C0ED0120E030E0E3
S1134DF0CE17DF0740F44A815B819E0141155105BE
S1134E00F1F0EA01F5CFD383C28340815181840F4D
S1134E10951FC817D90759F488819981840F951F64
S1134E200296918380838A819B8193838283211557
S1134E30310529F4F093CD16E093CC163DC0E90179
S1134E40FB83EA8349915991C40FD51FEC17FD07E1
S1134E5061F480819181840F951F0296E901998301
S1134E608883828193819B838A83E0E0F0E01296B9
S1134E708D919C911397009719F0FD01DC01F7CFF8
S1134E808D919C9111979D012E5F3F4F820F931F2F
S1134E902091CA163091CB162817390769F4309738
S1134EA029F41092CD161092CC1602C013821282ED
S1134EB0B093CB16A093CA16DF91CF91089581E0E9
S1134EC090E0F8947DC3FB01DC0102C001900D92D7
S1134ED041505040D8F70895DC0101C06D93415012
S1134EE05040E0F70895FB0151915523B1F0BF0103
S1134EF0DC01052E4D91442369F010D0D9F7CD0182
S1134F000190002049F04D91411108D0C9F3FB01F3
S1134F104111EECF81E090E001970895402539F0EA
S1134F20403229F440294B57465E08F018940895FE
S1134F30FB01DC010D900020E9F7119701900D921F
S1134F400020E1F70895FB01DC0101900D9200209F
S1134F50E1F70895FB01DC014150504088F08D9148
S1134F6081341CF08B350CF4805E619161341CF04B
S1134F706B350CF4605E861B611171F3990B089517
S1134F80881BFCCFCF93DF93CDB7DEB7AE014A5F6A
S1134F905F4FFA0161917191AF018091D0169091A8
S1134FA0D11661D0DF91CF9108950F931F93CF93C2
S1134FB0DF93E091D016F091D116238121FF1BC01D
S1134FC08C01D0E0C0E0F80181918F016091D0168E
S1134FD07091D116DB011896ED91FC9119978823F5
S1134FE031F01995892B79F3DFEFCFEFECCF8AE01D
S1134FF01995892B19F08FEF9FEF02C08D2F9C2FED
S1135000DF91CF911F910F9108950F931F93CF9329
S1135010DF93CDB7DEB72E970FB6F894DEBF0FBE81
S1135020CDBF0E891F8986E08C831A8309838FEF95
S11350309FE79E838D83AE01465E5F4F688D798DB9
S1135040CE01019610D0EF81F885E00FF11F108298
S11350502E960FB6F894DEBF0FBECDBFDF91CF9171
S11350601F910F9108952F923F924F925F926F92EA
S11350707F928F929F92AF92BF92CF92DF92EF92E4
S1135080FF920F931F93CF93DF93CDB7DEB72B9788
S11350900FB6F894DEBF0FBECDBF6C017B018A0151
S11350A0FC0117821682838181FFBFC1CE01019664
S11350B03C01F6019381F70193FD859193FF819162
S11350C07F01882309F4ADC1853239F493FD8591BC
S11350D093FF81917F01853221F4B60190E0D6D10E
S11350E0E8CF912C212C312CFFE1F315D8F08B3231
S11350F079F038F4803279F08332A1F4232D2061E1
S11351001DC08D3261F0803369F4232D216016C0F7
S1135110832D8260382EE32DE4603E2E2AC0F32DC9
S1135120F8601DC037FC2DC020ED280F2A3040F058
S11351308E32B9F436FC75C1232D2064322E19C089
S113514036FE06C08AE0989E200D1124922E11C0CE
S1135150EAE02E9E200D1124222EF32DF0623F2E24
S113516008C08C3621F4832D8068382E02C088361E
S113517041F4F70193FD859193FF81917F018111A2
S1135180B3CF982F9F7D9554933028F40C5F1F4F15
S11351909FE399830DC0833631F0833771F08335F3
S11351A009F055C020C0F801808189830E5F1F4F2C
S11351B088248394912C530112C02801F2E04F0EED
S11351C0511CF801A080B18036FE03C0692D70E047
S11351D002C06FEF7FEFC5014ED14C018201F32D68
S11351E0FF773F2E15C0280122E0420E511CF80122
S11351F0A080B18036FE03C0692D70E002C06FEF5D
S11352007FEFC5012DD14C01F32DF0683F2E8201B3
S113521033FC19C0822D90E088169906A0F4B601DB
S113522080E290E033D12A94F5CFF50137FC8591E3
S113523037FE81915F01B60190E028D121102A94B4
S113524021E0821A91088114910479F7E1C084362F
S113525011F0893639F5F80137FE07C06081718194
S1135260828193810C5F1F4F08C060817181072E7A
S1135270000C880B990B0E5F1F4FF32DFF763F2E0A
S113528097FF09C090958095709561957F4F8F4FDA
S11352909F4FF0683F2E2AE030E0A30133D1882EDF
S11352A0861844C0853731F4232D2F7EB22E2AE090
S11352B030E025C0932D997FB92E8F36C1F018F4B4
S11352C0883579F0AEC0803719F0883721F0A9C04D
S11352D0E92FE061BE2EB4FE0DC0FB2DF460BF2E9D
S11352E009C034FE0AC0292F2660B22E06C028E069
S11352F030E005C020E130E002C020E132E0F801F6
S1135300B7FE07C060817181828193810C5F1F4F5A
S113531006C06081718180E090E00E5F1F4FA301A1
S1135320F1D0882E8618FB2DFF773F2E36FE0DC058
S1135330232D2E7FA22E891458F434FE0BC032FC88
S113534009C0832D8E7EA82E05C0B82CA32C03C0C3
S1135350B82C01C0B92CA4FE0FC0FE01E80DF11D4C
S11353608081803321F49A2D997EA92E09C0A2FE52
S113537006C0B394B39404C08A2D867809F0B3941C
S1135380A3FC10C0A0FE06C0B21480F4280C922C1A
S11353909B180DC0B21458F4B60180E290E076D0A8
S11353A0B394F8CFB21418F42B1802C0982C212C03
S11353B0A4FE0FC0B60180E390E068D0A2FE16C040
S11353C0A1FC03C088E790E002C088E590E0B60144
S11353D00CC08A2D867851F0A1FE02C08BE201C078
S11353E080E2A7FC8DE2B60190E050D0891430F43D
S11353F0B60180E390E04AD09A94F8CF8A94F301FE
S1135400E80DF11D8081B60190E040D08110F6CF07
S1135410222009F44ECEB60180E290E037D02A94DF
S1135420F7CFF6018681978102C08FEF9FEF2B960D
S11354300FB6F894DEBF0FBECDBFDF91CF911F91A1
S11354400F91FF90EF90DF90CF90BF90AF909F901F
S11354508F907F906F905F904F903F902F90089522
S1135460FC010590615070400110D8F7809590952B
S11354708E0F9F1F0895FC01615070400190011030
S1135480D8F7809590958E0F9F1F08950F931F93C3
S1135490CF93DF93FB01238121FD03C08FEF9FEFA7
S11354A02CC022FF16C046815781248135814217C2
S11354B0530744F4A081B1819D012F5F3F4F318395
S11354C020838C93268137812F5F3F4F3783268338
S11354D014C08B01EC01FB010084F185E02D1995CA
S11354E0892BE1F6D80116968D919C911797019618
S11354F017969C938E931697CE01DF91CF911F91AF
S11355000F910895FA01AA27283051F1203181F131
S1135510E8946F936E7F6E5F7F4F8F4F9F4FAF4FB7
S1135520B1E03ED0B4E03CD0670F781F891F9A1FCA
S1135530A11D680F791F8A1F911DA11D6A0F711D7E
S1135540811D911DA11D20D009F468943F912AE08A
S1135550269F11243019305D3193DEF6CF01089572
S1135560462F4770405D4193B3E00FD0C9F7F6CFA3
S1135570462F4F70405D4A3318F0495D31FD40526B
S1135580419302D0A9F7EACFB4E0A6959795879501
S113559077956795BA95C9F70097610571050895E0
S11355A09B01AC010A2E069457954795379527958C
S11355B0BA95C9F7620F731F841F951FA01D089524
S10755C0F894FFCF89
S11355C40000D41620000900400040C600CE00D6D6
S11355D400360100000003000000001F210A21001E
S11355E400F8A027BE33E034C1332042C43360E55D
S11355F4AE33A0F2B133E0FFB433200DB833601AF4
S1135604BB3349444C4500546D72205376630046C1
S11356146163746F72795265736574203E25733CBB
S11356240A00436F6E66696775726520746F20455E
S113563455383638203E25733C0A004765742048A3
S113564457455549203E25733C3A2025730A005397
S11356546574204465764555493A202573203E25D2
S1135664733C0A00464131354636343034414432C1
S113567444373746383738353134343033433734A4
S11356843232444400463244444532453832364486
S1135694453942413500536574204F5441412049F2
S11356A464656E74697479206170704555493A254E
S11356B473206170704B45593A25732064657645AF
S11356C455493A2573203E25733C0A005361766597
S11356D4206D6163203E25733C0A005365742041A8
S11356E464617074697665204461746120526174E4
S11356F4653A204F4E203E25733C0A0053657420BE
S113570452656365697665722044656C61793A20F3
S11357142564206D73203E25733C0A004A6F696E2C
S1135724204E6574776F726B2054726965734C658F
S113573466743A2564203E25733C0A0055706C6FE8
S11357446164204D657373616765203E25733C0A6B
S1135754004C5248616E64002D2D2D2D53746172DA
S1135764742D2D2D2D005479696E6720746F207764
S1135774616B652075700069737375652031004D24
S113578465617572696E67006973737565203200AB
S11357942D2D2D2D454E442D2D2D2D005461736B2F
S11357A432005461736B31006869683831323020D7
S11357B4494E495441494C49534544006869683841
S11357C4313230204641494C45440050726F67726F
S11357D4616D20537461727465642121007379735B
S11357E4207265736574006D6163207061757365FF
S11357F4006D616320726573756D65007379732040
S1135804666163746F7279524553455400737973B6
S113581420676574206877657569006D6163206726
S113582465742067776E62006D616320736574200C
S11358346C696E6B63686B202564006D616320730F
S1135844657420646576657569006D6163207365AC
S11358547420617070657569006D6163207365748B
S1135864206170706B6579006D61632073657420C9
S11358746E776B736B6579006D6163207365742057
S1135884617070736B6579006D6163207365742056
S113589464657661646472006D6163207361766526
S11358A4006D6163206A6F696E00756E636E6600D5
S11358B46D6163207478202573202564202573008A
S11358C46F6666006D6163207365742061647200A1
S11358D46D61632067657420616472006D61632087
S11358E4736574206472202564006D6163206765A8
S11358F474206472006D616320736574207278642B
S1135904656C617931202564006D6163207365746D
S1135914206172202573006D6163206765742061C2
S113592472003320383639353235303030006D6109
S1135934632073657420727832006D61632073652B
S11359447420636820646379636C6520256420375C
S11359543939006D6163207365742063682066724D
S1135964657120256420256C75006D616320736561
S11359747420636820647272616E676520256420F4
S1135984302037006D61632073657420636820736D
S11359947461747573202564206F6E006D616320D7
S11359A4736574207077726964782031006D616363
S11359B42073657420726574782037006F74616194
S11359C400616270004B4559535F4E4F545F494E1A
S11359D44954004E4F5F465245455F43480053497E
S11359E44C454E540042555359004D41435F504178
S11359F4555345440044454E4945440041434345B9
S1135A045054454400494E56414C49445F50415218
S1135A14414D004E4F545F4A4F494E454400494E50
S1135A2456414C49445F444154415F4C454E004601
S1135A3452414D455F434F554E5445525F45525272
S1135A445F52454A4F494E5F4E4545444544004DD7
S1135A5441435F54585F4F4B004D41435F525800DC
S1135A644D41435F4552524F5200554E4B4E4F5792
S1135A744E00FC05010600960601A4060205060371
S1135A841306041E06052506062A06073506083CE1
S1135A94060945060A53060B5E060C6F060D8F06AF
S1135AA40E99060FA00610AA0648414C5F4C4544C3
S1055AB40000EC
S9030000FC
