S0100000534550345F494F542E73726563AD
S1130000E5C0000004C1000002C1000000C10000FE
S1130010FEC00000FCC00000FAC00000F8C00000F0
S1130020F6C00000F4C00000F2C00000F0C0000000
S1130030DCC30000ECC00000EAC00000E8C000001F
S1130040E6C00000E4C00000E2C00000E0C0000020
S1130050DEC00000DCC00000DAC00000D8C0000030
S1130060D6C000000C94C1200C941321D0C0000011
S1130070CEC00000CCC00000CAC00000C8C0000050
S1130080C6C00000C4C00000C2C00000C0C0000060
S11300900C9457210C94A921BAC000000C94342765
S11300A0B6C00000B4C00000B2C00000B0C0000080
S11300B0AEC00000ACC00000AAC00000A8C0000090
S11300C0A6C00000A4C00000A2C000000C94ED2152
S11300D00C943F229CC000000C9483220C94D522E3
S11300E096C00000D516D516D5160C171417291767
S11300F0D516D5160C1714175627C627C627C62794
S1130100C627C627C627C6275627C627C627C627F3
S1130110C627C627C627C6275827C627C627C627E1
S1130120C627C627C627C627C627C627C627C62763
S1130130C627C627C627C6275827C627C627C627C1
S1130140C627C627C627C627C627C627C627C62743
S1130150C627C627C627C627C227C627C627C62737
S1130160C627C627C627C6278D27C627C627C6275C
S1130170C627C627C627C627C627C627C627C62713
S1130180C627C627C627C6278127C627C627C62748
S1130190C627C627C627C627A5270E94250B8091F8
S11301A0A115823008F05BD20E945217F6CFCF938C
S11301B0DF931F92CDB7DEB7CE0101960E94521491
S11301C049810E9447160E949E16F6CF11241FBE35
S11301D0CFEFD1E2DEBFCDBF00E00CBF17E0A0E05F
S11301E0B2E0E4EEFDE500E00BBF02C007900D9223
S11301F0A439B107D9F727E1A4E9B7E001C01D92FA
S1130200A839B207E1F70E948A190C94F02EF8CEAF
S1130210E0EAF7E0A4EAB7E0B183A0831382128294
S1130220ECE4F5E1F0939F07E0939E0713821282BA
S11302301182108288EA9DE013969C938E93129704
S1130240ED93FC9390939B0780939A0790939D075B
S113025080939C0780E090E890939507809394079F
S11302600895CF93DF93EC01A0EAB7E001C0DF016A
S1130270ED91FC911197EC17FD07C8F312968D913F
S11302809C9113979D01280F391FC217D30749F476
S11302902A813B81820F931F13969C938E9312970E
S11302A0ED018A819B819E01280F391FE217F30714
S11302B0C1F420919E0730919F07E217F30771F074
S11302C022813381820F931F9B838A83ED91FC915A
S11302D01197808191819983888305C0398328830C
S11302E002C0F983E883CA17DB0711F0CD93DC93CE
S11302F0DF91CF910895EF92FF920F931F93CF93C5
S1130300DF938C010E94700C80919E0790919F074F
S1130310892B09F47DDF80919407909195078023C0
S11303209123892B09F076C00115110549F0C80104
S113033004960817190718F000E010E001C08C01BA
S11303400115110509F469C080919C0790919D07DE
S11303508017910708F464C0C091A007D091A10749
S1130360E0EAF7E002C0FE01EC018A819B8180177C
S1130370910720F4888199810097A9F780919E07BD
S113038090919F07C817D90709F44DC0E080F18008
S113039084E0E80EF11C88819981918380832A810D
S11303A03B81201B310B2930310548F0CE01800FF1
S11303B0911FFC01338322831B830A8352DF2A812A
S11303C03B8180919C0790919D07821B930B909396
S11303D09D0780939C0740919A0750919B0784172F
S11303E0950720F490939B0780939A078091940734
S11303F090919507282B392B3B832A8319821882E5
S1130400809198079091990701969093990780930A
S113041098070BC0E12CF12C08C0E12CF12C05C08D
S1130420E12CF12C02C0E12CF12C0E94B00DE1145E
S1130430F10411F40E945E17C701DF91CF911F915F
S11304400F91FF90EF9008950F931F93CF93DF9335
S1130450009791F1EC0124974A815B8120919407E4
S113046030919507BA0162237323672B29F16881C0
S11304707981672B09F520953095242335233B8317
S11304802A830E94700C8A819B8120919C07309161
S11304909D07820F931F90939D0780939C07CE0125
S11304A0E0DE8091960790919707019690939707C5
S11304B0809396070E94B00DDF91CF911F910F9109
S11304C00895FC010396928381834FEF5FEFBA0195
S11304D04383548365837683908787839287818758
S11304E010820895FC011386128608950F931F93BA
S11304F0CF93DF93EB01088119812A813B810F3F60
S11305004FEF14072407340721F4FC01A185B285B9
S113051011C0DC01139601C0DF011496ED91FC912A
S1130520159740815181628173810417150726074D
S1130530370790F71496ED91FC911597FD83EC83A2
S1130540D783C683BF83AE831596DC93CE9314976B
S11305509B878A87FC0120812F5F2083DF91CF91C5
S11305601F910F910895CF93DF93FC01A285B3856A
S1130570C481D581868197819F838E83C681D781EB
S1130580848195819D838C8311968D919C91129782
S1130590E817F90731F48681978112969C938E931C
S11305A01197138612868C9181508C938C91DF91D4
S11305B0CF910895A89590EC88E10FB6F894A8958A
S11305C0809360000FBE909360000895FC016083E7
S11305D0319770833197108231971082319720E8D8
S11305E02083319710823197108231971082779748
S11305F040833197508386970895DCDFA0910F16CE
S1130600B0911016CD91CDBFDD91DEBFFF91EF917A
S1130610DF91CF91BF91AF919F918F917F916F9116
S11306205F914F913F912F911F910F91FF90EF9008
S1130630DF90CF90BF90AF909F908F907F906F90FE
S11306405F904F903F902F901F900F900CBE0F9093
S11306500BBE0F900FBE0F90089581E008950F9286
S11306600FB6F8940F920BB60F920CB60F921F921E
S113067011242F923F924F925F926F927F928F92AA
S11306809F92AF92BF92CF92DF92EF92FF920F931D
S11306901F932F933F934F935F936F937F938F9306
S11306A09F93AF93BF93CF93DF93EF93FF93A09167
S11306B00F16B09110160DB60D920EB60D920E9443
S11306C00C0FA0910F16B0911016CD91CDBFDD91F6
S11306D0DEBFFF91EF91DF91CF91BF91AF919F91D9
S11306E08F917F916F915F914F913F912F911F91C6
S11306F00F91FF90EF90DF90CF90BF90AF909F90BD
S11307008F907F906F905F904F903F902F901F90AD
S11307100F900CBE0F900BBE0F900FBE0F9008955C
S11307200F920FB6F8940F920BB60F920CB60F926D
S11307301F9211242F923F924F925F926F927F9259
S11307408F929F92AF92BF92CF92DF92EF92FF92DD
S11307500F931F932F933F934F935F936F937F93C5
S11307608F939F93AF93BF93CF93DF93EF93FF93B5
S1130770A0910F16B09110160DB60D920EB60D92F3
S113078013BE0E94840C81110E940C0FA0910F16BD
S1130790B0911016CD91CDBFDD91DEBFFF91EF91E9
S11307A0DF91CF91BF91AF919F918F917F916F9185
S11307B05F914F913F912F911F910F91FF90EF9077
S11307C0DF90CF90BF90AF909F908F907F906F906D
S11307D05F904F903F902F901F900F900CBE0F9002
S11307E00BBE0F900FBE0F9008959ADF18950FB6A9
S11307F0F8940F92FC01868D811102C081E001C042
S113080080E00F900FBE08950FB6F8940F92FC018C
S1130810268D878D281302C081E001C080E00F90EF
S11308200FBE08950F931F93CF93DF93EC01042F12
S11308301E8D48A141110CC088819981892B09F032
S113084042C08C819D810E941D111D821C8242C068
S1130850011117C050E08A819B810E94732B28A14B
S11308608A819B81820F911D9B838A832C813D8188
S11308708217930750F1888199819B838A8380E052
S113088029C050E08E819F810E94732B88A190E043
S11308909195819591092E813F81280F391F3F83BE
S11308A02E83488159812417350730F42C813D81EA
S11308B0820F931F9F838E83023049F4112349F0E2
S11308C0115080E007C080E005C080E003C080E0F4
S11308D001C080E01F5F1E8FDF91CF911F910F91A8
S11308E00895FC0140A14423A9F050E026813781FA
S11308F0240F351F37832683848195812817390770
S113090020F08081918197838683CB0166817781F2
S11309100C94732B08951F93CF93DF93EC010FB6C0
S1130920F8940F921AA10BC08B89882351F0CE0141
S113093043960E94CA0F81110E940611115011168C
S11309409CF38FEF8AA30F900FBE0FB6F8940F920B
S113095019A10BC08885882351F0CE0108960E9406
S1130960CA0F81110E940611115011169CF38FEFCA
S113097089A30F900FBEDF91CF911F910895CF935C
S1130980DF93EC010FB6F8940F92E881F9818F8D13
S113099028A190E030E0829FA001839F500D929F98
S11309A0500D11244E0F5F1F5D834C831E8EFB83FD
S11309B0EA830197289FA001299F500D389F500D6D
S11309C01124CF01840F951F9F838E838FEF89A3FA
S11309D08AA361110BC08885882371F0CE01089623
S11309E00E94CA0F882341F03ADE06C0CE01089661
S11309F068DDCE01439665DD0F900FBE81E0DF9187
S1130A00CF9108950F931F93F801611103C01183CF
S1130A10008302C051834083878F60A361E0CF01CC
S1130A20AEDF1F910F910895DF92EF92FF920F9323
S1130A301F93CF93DF93F82EE62ED42E869FC0010A
S1130A401124839658DCEC01009741F08C012D2D84
S1130A50AC014D5D5F4F6E2D8F2DD4DFCE01DF9144
S1130A60CF911F910F91FF90EF90DF900895CF9257
S1130A70DF92EF92FF920F931F93CF93DF93CDB743
S1130A80DEB729970FB6F894DEBF0FBECDBF7C0149
S1130A906B012E833F834887598710E00FB6F89483
S1130AA00F92F701968D878D981710F00230B1F4EC
S1130AB0402FB601C701B6DEF7019389992341F0AF
S1130AC0C70143960E94CA0F882321F0C8DD02C0E3
S1130AD08111C5DD0F900FBE81E04AC08E819F81D8
S1130AE0A885B985892B8A2B8B2B21F40F900FBEF7
S1130AF080E03EC0111105C0CE0101960E948F1006
S1130B0011E00F900FBEECD60FB6F8940F92F701D8
S1130B1081A18F3F09F411A2F70182A18F3F09F44B
S1130B2012A20F900FBEBE016A5F7F4FCE010196E5
S1130B300E94A010811118C0C70166DE882381F0CD
S1130B404E815F8168857985C70108960E94710F7F
S1130B50C701E1DE0E94B00D8111A0CF80DD9ECFE0
S1130B60C701D9DEFDD79ACFC701D5DEF9D780E01A
S1130B7029960FB6F894DEBF0FBECDBFDF91CF919B
S1130B801F910F91FF90EF90DF90CF900895EF9217
S1130B90FF920F931F93CF93DF938A01FC01568D2D
S1130BA0378D531710F02230F9F4422F7801EC01FD
S1130BB01AA18E8DCE0136DE1F3F81F48B898823E6
S1130BC0A9F0CE0143960E94CA0F882389F0E1144C
S1130BD0F10481F081E0F70180830DC0FF24F394D8
S1130BE0F10EFAA281E007C080E005C081E003C0F5
S1130BF081E001C081E0DF91CF911F910F91FF90BF
S1130C00EF900895CF92DF92EF92FF920F931F938C
S1130C10CF93DF93CDB7DEB729970FB6F894DEBF35
S1130C200FBECDBF8C016B012E833F83488759874C
S1130C30E12C0FB6F8940F92F801F68CFF2099F08E
S1130C40B601C8014EDEFA94F801F68E8085882339
S1130C5031F0C80108960E94CA0F811100DD0F907F
S1130C600FBE81E04FC08E819F81A885B985892BF5
S1130C708A2B8B2B21F40F900FBE80E043C0E11030
S1130C8006C0CE0101960E948F10EE24E3940F90CB
S1130C900FBE26D60FB6F8940F92F80181A18F3FAC
S1130CA009F411A2F80182A18F3F09F412A20F9056
S1130CB00FBEBE016A5F7F4FCE0101960E94A01055
S1130CC0811117C0C80193DD882379F04E815F81BB
S1130CD068857985C80143960E94710FC8011BDE9F
S1130CE03FD78111A6CFBBDCA4CFC80114DE38D70F
S1130CF0A0CFC80110DE34D7C80179DD882309F4F8
S1130D0098CF80E029960FB6F894DEBF0FBECDBF12
S1130D10DF91CF911F910F91FF90EF90DF90CF90D3
S1130D200895CF93DF93EC010FB6F8940F9289A145
S1130D308F3F09F419A28AA18F3F09F41AA20F90D8
S1130D400FBE8E8D811104C0CE0143960E94880F80
S1130D50CE01E1DDDF91CF910895FC0144815581FD
S1130D6022813381240F351F80819181B901681B51
S1130D70790BCB016417750710F0841B950B08954C
S1130D800F93FC018FE0DF011D928A95E9F77587C7
S1130D906487558344833783268306870F91089598
S1130DA0AF92BF92CF92DF92EF92FF920F931F9375
S1130DB0CF93DF936C015B017A01FC01C281D38183
S1130DC0048115810C1B1D0B4017510708F48A017F
S1130DD0F60184859585A801B5018C0F9D1F0E949D
S1130DE0732B0E151F0558F4A701401B510BB501B9
S1130DF0600F711FF601848595850E94732BCE01C7
S1130E008E0D9F1DF601248135818217930710F002
S1130E10821B930BF60193838283C701DF91CF91E9
S1130E201F910F91FF90EF90DF90CF90BF90AF9004
S1130E300895CF92DF92EF92FF920F931F93CF9377
S1130E40DF931F921F92CDB7DEB77C016B015A83EB
S1130E50498321153105C1F0FC01868580FD08C058
S1130E604217530708F49A013A83298381E00FC09B
S1130E702017310758F042E050E0BE016F5F7F4F0A
S1130E80C7018EDF81E003C080E001C080E08823D9
S1130E9031F049815A81B601C70182DF02C080E086
S1130EA090E00F900F90DF91CF911F910F91FF90E1
S1130EB0EF90DF90CF900895AF92BF92CF92DF92E0
S1130EC0EF92FF920F931F93CF93DF937C015B010B
S1130ED0E9014217530708F4EA01209781F1F70169
S1130EE00081118184819581801B910B6E018C1787
S1130EF09D0708F46C01F70164857585600F711F07
S1130F00A601C5010E94732BCC16DD0658F4AE0170
S1130F104C195D09F70164857585C5018C0D9D1D0E
S1130F200E94732B0C0F1D1FF701848195810817F4
S1130F30190710F0081B190BF70111830083CE0168
S1130F40DF91CF911F910F91FF90EF90DF90CF90A1
S1130F50BF90AF9008956F927F928F929F92AF92BD
S1130F60BF92CF92DF92EF92FF920F931F93CF9392
S1130F70DF931F921F92CDB7DEB76C014B015A016C
S1130F80790101151105B1F0FC0160807180A8019F
S1130F90BE016F5F7F4F90DF89819A81E01AF10A69
S1130FA0A816B90630F4F60171826082A12CB12C26
S1130FB001C05C019701A501B401C6017DDF0F905A
S1130FC00F90DF91CF911F910F91FF90EF90DF90E1
S1130FD0CF90BF90AF909F908F907F906F90089527
S1130FE0CF92DF92EF92FF920F93CF93DF93EC01B6
S1130FF06B01413011F401E001C000E0C114D104DF
S113100019F4CC24C394D12CCE014096C817D90727
S113101020F4219670D97C0102C0E12CF12CE1145A
S1131020F10439F09601AE01B701615F7F4FC7014A
S1131030A7DEC701DF91CF910F91FF90EF90DF9072
S1131040CF9008950F930FB6F8940F92FC0120856A
S11310503185232B71F422853385232B61F426817A
S113106037814481558164857585068589DE81E0F3
S113107003C080E001C080E00F900FBE0F9108957F
S1131080FC012481358180819181820F931F4281EB
S11310905381841B950B01978217930710F0821BD1
S11310A0930B08952F923F924F925F926F927F928B
S11310B08F929F92AF92BF92CF92DF92EF92FF9264
S11310C00F931F93CF93DF93CDB7DEB72B970FB654
S11310D0F894DEBF0FBECDBF4C017B876A871A012F
S11310E00E831F8328873987FC01848195810197AA
S11310F0268520FF0CC02A01F2E04F0E511C8415F6
S1131100950558F41E821F821886198606C0841716
S1131110950710F02A0101C02C018E819F81A885BA
S1131120B985892B8A2B8B2B09F436C0CE01019605
S1131130E0D70FB6F8940F92C401A2DF3C018415E6
S1131140950538F560E080E090E00E9438140E9434
S11311500A11F401938782870F900FBEAE80BF807F
S1131160C884D984E12CF12C00E010E0980140E01F
S113117050E0BA0180E00E947811F40113861286CF
S1131180BE016A5F7F4FCE010196DAD7882389F2C8
S113119005C00F900FBE02C0612C712C6114710444
S11311A019F4C4016DDF3C0182019301A1016A8538
S11311B07B85C4013EDE6C01892BE9F0C401CDDDE1
S11311C0F4012681378182179307A8F089D3F401AB
S11311D080859185892B71F080859185E12CF12C96
S11311E000E020E030E0A90160E00E941F12F40159
S11311F011861086B5D4C6012B960FB6F894DEBFBF
S11312000FBECDBFDF91CF911F910F91FF90EF9053
S1131210DF90CF90BF90AF909F908F907F906F9012
S11312205F904F903F902F900895AF92BF92CF92CE
S1131230DF92EF92FF920F931F93CF93DF93EC0112
S11312407B015A0169018E8580FF04C08A010E5F0B
S11312501F4F01C08A01CE0113DF9C01A501B70114
S1131260CE01E7DD5C01892BC1F0CE0176DD2E8154
S11312703F818217930788F088859985892B69F0C7
S113128088859985E12CF12C00E020E030E0A9016B
S113129060E00E94161319861886C501DF91CF916C
S11312A01F910F91FF90EF90DF90CF90BF90AF9080
S11312B008954F925F926F927F928F929F92AF9216
S11312C0BF92CF92DF92EF92FF920F931F93CF932F
S11312D0DF93EC012B013A01580169018E8580FFEF
S11312E005C06894882481F8912C02C0812C912C2B
S11312F0A114B104C104D10431F10FB6F8940F92D2
S1131300CE012BDD7C018816990640F060E080E078
S113131090E00E9438147ED7998788870F900FBE7B
S11313208E149F0498F0E12CF12C00E010E0980159
S113133040E050E0BA0180E0DBD719861886CE0180
S11313400CDD7C0103C0CE0108DD7C018E149F04FA
S1131350E8F484019701A301B201CE01FCDD6C0124
S1131360892BB1F0BDD28A859B85892B69F08A854A
S11313709B85E12CF12C00E020E030E0A90160E045
S11313800E941F121B861A86EBD302C0C12CD12CDB
S1131390C601DF91CF911F910F91FF90EF90DF90E5
S11313A0CF90BF90AF909F908F907F906F905F9001
S11313B04F900895E0918915F0918A1580818111EB
S11313C00CC08FEF9FEFDC0180935315909354155D
S11313D0A0935515B09356150895E0918915F09191
S11313E08A150780F085E02D80819181A281B381E7
S11313F08093531590935415A0935515B093561597
S11314000895CF93DF93EC018B8D9C8D1DD8CE0175
S11314101BD8DF91CF9108954F925F926F927F9284
S11314208F929F92AF92BF92CF92DF92EF92FF92F0
S11314300F93CF93DF932C015B014A013901E6013D
S113144065EA70E08B8D9C8D0E947C2B8B8D9C8D2E
S113145021E0821A9108880E991EA114B10489F41E
S113146015C0822F90E0F501E80FF91F3081DE01ED
S1131470A80FB91F5D963C938081882329F02F5FC4
S113148001C020E0203168F31CA601C01D8E0A3083
S113149008F009E00A8F0DA71EA6CE01029622D8F5
S11314A0CE010E961FD8DB87CA878AE090E0A0E0C1
S11314B0B0E0801B9109A109B1098E879F87A88B91
S11314C0B98BDF8BCE8B84E0FE01BF96DF011D92CA
S11314D08A95E9F71BAAA301B201C40177D89983BD
S11314E08883E114F10419F0F701D183C083DF91FB
S11314F0CF910F91FF90EF90DF90CF90BF90AF907E
S11315009F908F907F906F905F904F900895CF93AE
S1131510C0E009C02BE0C29FC00111248F559A4E30
S11315200E946102CF5FCA30A8F386E995E10E9468
S113153061028BE895E10E9461028CE795E10E94CB
S1131540610281E795E10E94610285E695E10E94CE
S1131550610286E995E190938A15809389158BE859
S113156095E19093881580938715CF910895CF9333
S1131570DF93EC010FB6F8940F92809164158F5F9E
S11315808093641580910F1690911016892B51F455
S1131590D0931016C0930F1680916415813091F486
S11315A0B6DF10C080915E1581110CC0E0910F165A
S11315B0F0911016928D8A8D891720F0D093101611
S11315C0C0930F16809157158F5F80935715EA8D3E
S11315D080915F158E1710F4E0935F158BE08E9F5A
S11315E0F0011124EF55FA4E0180F281E02DFF83C2
S11315F0EE832681378139872887A681B7819E01AA
S11316002E5F3F4F15963C932E9314973783268372
S1131610EA8D8E9FF0011124EF55FA4EFD87EC8779
S113162080818F5F80830F900FBE80915E15882329
S113163049F0E0910F16F0911016928D8A8D98174B
S113164008F40DD8DF91CF910895CF93DF931BC099
S11316500FB6F8940F92E0917815F0917915C08542
S1131660D185CE0102960E94B30280916415815007
S113167080936415809170158150809370150F903C
S11316800FBECE01BEDE809170158111E1CFDF91D6
S1131690CF9108958F929F92AF92BF92CF92DF9293
S11316A0EF92FF92CF93DF936B017C01C42F809064
S11316B0601590906115A0906215B09063158091AB
S11316C00F169091101602960E94B3028FEFC8165F
S11316D0D806E806F806B1F5CC23A1F1E5E6F5E174
S11316E0A181B281C0910F16D0911016BF83AE8331
S11316F0C0910F16D091101616968D919C91179744
S1131700998788871696CD91DC91179780910F164B
S11317109091101602969D838C8380910F16909160
S11317201016029617969C938E931697A0910F16F7
S1131730B09110161D96FC93EE931C9780818F5FD9
S113174080833FC0C80CD91CEA1CFB1CE0910F1617
S1131750F0911016C282D382E482F582C814D904AF
S1131760EA04FB0468F460910F16709110168091DE
S11317708715909188156E5F7F4F0E94760221C075
S113178060910F16709110168091891590918A15A9
S11317906E5F7F4F0E94760280915315909154158D
S11317A0A0915515B0915615C816D906EA06FB0640
S11317B040F4C0925315D0925415E0925515F0920E
S11317C05615DF91CF91FF90EF90DF90CF90BF90AF
S11317D0AF909F908F9008952F923F924F925F9277
S11317E06F927F928F929F92AF92BF92CF92DF922D
S11317F0EF92FF920F93CF93DF933C011B014A01B9
S11318002901CA010E947B016C01892B71F084E3D8
S113181090E00E947B01EC01892B19F0DC8ECB8EC9
S113182006C0C6010E94240202C0C0E0D0E0209796
S113183061F0A12CB12C6E019201A401B101C3018C
S1131840EBDDCE0194DE81E001C08FEFDF91CF911B
S11318500F91FF90EF90DF90CF90BF90AF909F904B
S11318608F907F906F905F904F903F902F9008954E
S1131870EF92FF920F930F2EF1E5EF2EF5E1FF2E7D
S1131880F02D00E020E030E040EC50E06FE672E044
S11318908DEC90E0A1DF813011F40E94DC148130E2
S11318A0C9F4F8948FEF9FEFDC0180935315909364
S11318B05415A0935515B093561581E080935E1589
S11318C010926015109261151092621510926315B2
S11318D00E94FD02809106020F91FF90EF900895FF
S11318E0809150158F5F8093501508950FB6F8942A
S11318F00F926091601570916115809162159091BD
S113190063150F900FBE0895CF92DF92EF92FF926E
S1131910CF93DF9380915015811105C1C09060155C
S1131920D0906115E0906215F09063158FEFC81A9E
S1131930D80AE80AF80AC0926015D0926115E092BC
S11319406215F0926315C114D104E104F104B1F4F9
S11319508091891590918A15209187153091881569
S113196030938A1520938915909388158093871551
S1131970809158158F5F809358151CDD8091531505
S113198090915415A0915515B0915615C816D906C5
S1131990EA06FB0620F480E0B2C081E001C080E0EA
S11319A0E0918915F0918A15908191110CC04FEF47
S11319B05FEFBA0140935315509354156093551536
S11319C0709356159CC0E0918915F0918A15078093
S11319D0F085E02D0084F185E02D428153816481FE
S11319E07581C416D506E606F70648F440935315E8
S11319F050935415609355157093561580C0A48563
S1131A00B585C681D781208531853F832E83C085E6
S1131A10D185268137813D832C8311964D915C912C
S1131A2012979F012E5F3F4F4217530731F44085B1
S1131A30518512965C934E931197158614869C914A
S1131A4091509C93A08DB18D109709F1C289D389CF
S1131A50448955895F834E83C489D58942895389D2
S1131A605D834C8311966D917C911297AF01425F17
S1131A705F4F6417750731F44489558912965C9356
S1131A804E931197118E108E9C9191509C93A28D20
S1131A9090915F159A1710F4A0935F159BE09A9F9D
S1131AA0D0011124AF55BA4E11960D90BC91A02DC2
S1131AB0B783A68316964D915C91179751874087FB
S1131AC01696CD91DC9117973D832C8317963C9302
S1131AD02E931697A28D9A9FD0011124AF55BA4E1A
S1131AE0B587A4879C919F5F9C93228DE0910F16EC
S1131AF0F0911016928D291708F04FCF51CFE09135
S1131B000F16F0911016E28D9BE0E99FF00111246D
S1131B10EF55FA4E9081923008F081E0909159157A
S1131B20911116C016C080915A1590915B15A09121
S1131B305C15B0915D150196A11DB11D80935A15D8
S1131B4090935B15A0935C15B0935D1580E001C084
S1131B5081E0DF91CF91FF90EF90DF90CF900895D7
S1131B60CF92DF92EF92FF92CF93DF930FB6F89468
S1131B700F9280915015815080935015809150158B
S1131B808111BEC080916415811188C0BCC0E091F0
S1131B908315F09184150084F185E02DA08DB18D1D
S1131BA0C289D389848995899F838E83C489D58981
S1131BB0828993899D838C8311962D913C911297F0
S1131BC0CF010E962817390731F484899589129626
S1131BD09C938E931197118E108E8C9181508C93BF
S1131BE0A485B585C681D781808591859F838E83A1
S1131BF0C085D185868197819D838C8311968D9133
S1131C009C9112979F012E5F3F4F8217930731F4E7
S1131C108085918512969C938E93119715861486D0
S1131C208C9181508C93A28D80915F158A1710F44A
S1131C30A0935F158BE08A9FD0011124AF55BA4E53
S1131C4011960D90BC91A02DB783A68316964D9145
S1131C505C911797518740871696CD91DC91179721
S1131C603D832C8317963C932E931697A28D8A9FBF
S1131C70D0011124AF55BA4EB587A4878C918F5FDC
S1131C808C93928DA0910F16B09110165A968C9148
S1131C90981730F081E08093591502C0E0E0F0E03D
S1131CA080917C15811173CFEF2B09F083DBC090F9
S1131CB05A15D0905B15E0905C15F0905D15C11439
S1131CC0D104E104F104A1F01FDE882319F081E0BE
S1131CD08093591581E0C81AD108E108F108A1F7E9
S1131CE010925A1510925B1510925C1510925D15A6
S1131CF080915915882331F00E942F0381E003C09D
S1131D0080E001C080E00F900FBEDF91CF91FF9083
S1131D10EF90DF90CF9008958F929F92AF92BF92F1
S1131D20CF92DF92EF92FF921F93CF93DF93EC0158
S1131D306A017B01D5DD8090601590906115A090BB
S1131D406215B090631588819981AA81BB81AC0129
S1131D50BD014C0D5D1D6E1D7F1D88169906AA06DA
S1131D60BB0660F4481759076A077B0798F4841682
S1131D709506A606B70680F010E013C04817590769
S1131D806A077B0758F084169506A606B70640F046
S1131D9010E007C010E005C011E003C011E001C06D
S1131DA011E0488359836A837B83112341F0CB017B
S1131DB0BA01681979098A099B0940E06BDCD0DE15
S1131DC0811102C00E942F03812FDF91CF911F91B7
S1131DD0FF90EF90DF90CF90BF90AF909F908F9047
S1131DE00895CF92DF92EF92FF926B017C01672BF3
S1131DF0682B692B39F074DD40E0C701B6014ADC79
S1131E00AFDE01C080E0811102C00E942F03FF9069
S1131E10EF90DF90CF90089580915015882321F0A2
S1131E2081E080935915089510925915E0910F1689
S1131E30F091101620813181E0910F16F091101667
S1131E40838D948D8217930760F060910F167091C3
S1131E501016635E7F4F80910F16909110160E94AA
S1131E606A1780915F1501C08150282F30E09BE0F4
S1131E70929FF001939FF00D1124EF55FA4E90813B
S1131E80992391F39BE0929FA001939F500D1124FD
S1131E90DF010180F281E02D0480F581E02D1296AE
S1131EA0FC93EE9311974C555A4EE417F50729F419
S1131EB044815581FD01528341839BE0929FF0014F
S1131EC0939FF00D1124EF55FA4E0180F281E02D1D
S1131ED0208531853093101620930F1680935F155B
S1131EE00895CF92DF92EF92FF926A017B01609195
S1131EF00F1670911016625F7F4F0E94760241E0C8
S1131F00C701B601C7DBFF90EF90DF90CF90089533
S1131F10CF93DF93FC01CB01BA01A181B281C091BF
S1131F200F16D0911016BB8BAA8BC0910F16D091AF
S1131F30101616964D915C9117975D8B4C8B1696E7
S1131F40CD91DC91179740910F1650911016425F76
S1131F505F4F5D834C8340910F1650911016425F82
S1131F605F4F17965C934E931697A0910F16B091FE
S1131F7010165996FC93EE93589730813F5F308347
S1131F80222319F06FEF7FEFCB01422F83DBDF9128
S1131F90CF910895CF93DF93DC011796ED91FC91D7
S1131FA018970084F185E02DA08DB18DC289D38965
S1131FB0848995899F838E83C489D58982899389ED
S1131FC09D838C8311968D919C9112979F01225F22
S1131FD03F4F8217930731F48489958912969C9315
S1131FE08E931197118E108E8C9181508C938091C9
S1131FF05015811152C0A485B585C681D7818085CD
S113200091859F838E83C085D185868197819D83A9
S11320108C8311968D919C9112979F012E5F3F4F57
S11320208217930731F48085918512969C938E9341
S11320301197158614868C9181508C93A28D809172
S11320405F158A1710F4A0935F158BE08A9FD00167
S11320501124AF55BA4E11960D90BC91A02DB783A3
S1132060A68316964D915C911797518740871696D3
S1132070CD91DC9117973D832C8317963C932E9337
S11320801697A28D8A9FD0011124AF55BA4EB587F9
S1132090A4878C918F5F8C931CC04CE755E1DA01C7
S11320A01196CD91DC911297D38BC28B8E819F8137
S11320B0958B848B8E819F81DC0115963C932E93A6
S11320C014973F832E83518F408FDA018C918F5F59
S11320D08C93928DE0910F16F0911016828D8917D2
S11320E020F481E08093591501C080E0DF91CF9105
S11320F008950FB6F8940F9220915815FC0120838F
S1132100409160155091611560916215709163154D
S113211041835283638374830F900FBE089520918B
S11321205815FC0120834091601550916115609110
S11321306215709163154183528363837483089598
S11321408F929F92AF92BF92CF92DF92EF92FF92C3
S11321500F931F93CF93DF93FB010FB6F8940F9265
S1132160C0906015D0906115E0906215F0906315F1
S1132170DC0111960D911D912D913C91149746010E
S11321805701801A910AA20AB30A408151816281DF
S113219073814F3FBFEF5B076B077B0739F1EC019E
S11321A0B881A0915815BA1759F0C016D106E206A5
S11321B0F30630F0108211821282138281E017C07C
S11321C084169506A606B70658F4481959096A09EB
S11321D07B094083518362837383A1DF80E007C05E
S11321E0108211821282138281E001C080E00F907C
S11321F00FBEDF91CF911F910F91FF90EF90DF9071
S1132200CF90BF90AF909F908F90089581E080937E
S11322105915089580910F16909110160895809184
S11322205E15882331F080915015811104C082E03D
S1132230089581E0089580E008950F931F93CF934C
S1132240DF93FC01892B09F449C086A5815086A738
S1132250228D95A5291709F443C0811143C0EF01CC
S11322608F010E5F1F4FC8010E94B302EDA5EA8FD4
S11322708AE090E0A0E0B0E08E1B9109A109B109C9
S11322808E879F87A88BB98B80915F158E1710F46A
S1132290E0935F158BE08E9FF0011124EF55FA4E09
S11322A00180F281E02DFF83EE8326813781398717
S11322B02887A681B78115961C930E9314971783CC
S11322C00683EA8D8E9FF0011124EF55FA4EFD87A7
S11322D0EC8780818F5F808381E005C080E003C04C
S11322E080E001C080E0DF91CF911F910F910895AC
S11322F04F925F926F927F92AF92BF92CF92DF9292
S1132300EF92FF920F931F93CF93DF93280139012C
S11323100FB6F8940F92E0910F16F0911016C82F93
S1132320D0E0EC0FFD1F83A9823071F1E0910F160C
S1132330F0911016CE01880F991F880F991FE80F8E
S1132340F91F87A590A9A1A9B2A9409550956095B8
S11323507095482359236A237B2347A750AB61AB6D
S113236072ABE0910F16F0911016EC0FFD1F81E097
S113237083ABA114B104C104D10431F041E0C6011E
S1132380B50188D90E942F030F900FBE0FB6F894A1
S11323900F92E114F104A1F0E0910F16F0911016E0
S11323A0CE01880F991F880F991FE80FF91F87A581
S11323B090A9A1A9B2A9F70180839183A283B383D1
S11323C0E0910F16F0911016EC0FFD1F83A98230D7
S11323D0E9F4E0910F16F0911016CE01880F991FC1
S11323E0880F991FE80FF91F87A590A9A1A9B2A981
S11323F04094509460947094482259226A227B221B
S113240047A650AA61AA72AA81E001C080E0209187
S11324100F1630911016C20FD31F1BAA0F900FBEB8
S1132420DF91CF911F910F91FF90EF90DF90CF90AC
S1132430BF90AF907F906F905F904F9008958F9270
S11324409F92AF92BF92EF92FF920F93CF93DF933D
S1132450DC010FB6F8940F92E114F10489F0E62F31
S1132460F0E0EE0FFF1FEE0FFF1FE80FF91F87A428
S113247090A8A1A8B2A8F70180829182A282B38217
S113248070E0FD01E60FF71F83A992E093AB0230E1
S113249001F118F4013031F04DC0033079F104300A
S11324A0D1F148C0660F771F660F771FFD01E60F55
S11324B0F71F87A490A8A1A8B2A8BA01A901482926
S11324C059296A297B2947A750AB61AB72AB01E05C
S11324D034C0660F771F660F771FFD01E60FF71FE5
S11324E047A550A961A972A94F5F5F4F6F4F7F4FF6
S11324F047A750AB61AB72AB01E01FC0660F771FFB
S1132500660F771FFD01E60FF71F27A730AB41AB1E
S113251052AB01E012C0823079F0660F771F660F6C
S1132520771FFD01E60FF71F27A730AB41AB52AB76
S113253001E003C001E001C000E0813009F069C09E
S11325401C96ED91FC911D971696CD91DC911797F1
S113255018968D919C9119979F838E831896CD918F
S1132560DC91199716968D919C9117979D838C8376
S1132570818192819D012E5F3F4F8217930731F431
S113258018968D919C911997928381831D961C9224
S11325901E921C978081815080835A96EC915A97A1
S11325A080915F158E1710F4E0935F158BE08E9F7A
S11325B0F0011124EF55FA4E0180F281E02D1796B7
S11325C0FC93EE9316974681578119965C934E932C
S11325D01897C681D7813D832C83378326835A96E7
S11325E0EC915A978E9FF0011124EF55FA4E1D96E7
S11325F0FC93EE931C9780818F5F80835A969C9105
S1132600E0910F16F0911016828D891710F40E9434
S11326102F030F900FBE802FDF91CF910F91FF906A
S1132620EF90BF90AF909F908F9008958F929F925C
S1132630AF92BF92CF92DF92EF92FF920F93CF931C
S1132640DF93DC01E114F10489F0E62FF0E0EE0FF2
S1132650FF1FEE0FFF1FE80FF91F87A490A8A1A882
S1132660B2A8F70180829182A282B38270E0FD0158
S1132670E60FF71F93A982E083AB023001F118F44F
S1132680013031F04DC0033079F10430D1F148C04C
S1132690660F771F660F771FFD01E60FF71F87A4EC
S11326A090A8A1A8B2A8BA01A901482959296A2960
S11326B07B2947A750AB61AB72AB81E034C0660F96
S11326C0771F660F771FFD01E60FF71F47A550A977
S11326D061A972A94F5F5F4F6F4F7F4F47A750AB00
S11326E061AB72AB81E01FC0660F771F660F771F67
S11326F0FD01E60FF71F27A730AB41AB52AB81E0DA
S113270012C0923079F0660F771F660F771FFD01B4
S1132710E60FF71F27A730AB41AB52AB81E003C0F4
S113272081E001C080E0913009F096C0909150158D
S113273091115FC01C96ED91FC911D971696CD9159
S1132740DC91179718962D913C9119973F832E830E
S11327501896CD91DC91199716962D913C91179767
S11327603D832C83418152819D012E5F3F4F42174F
S1132770530731F418964D915C9119975283418314
S11327801D961C921E921C979081915090835A968C
S1132790EC915A9790915F159E1710F4E0935F1592
S11327A09BE09E9FF0011124EF55FA4E0180F281C7
S11327B0E02D1796FC93EE93169746815781199650
S11327C05C934E931897C681D7813D832C833783BE
S11327D026835A96EC915A979E9FF0011124EF5547
S11327E0FA4E1D96FC93EE931C9790819F5F908305
S11327F021C06CE775E1FB01C181D2815396DC9362
S1132800CE9352972E813F8155963C932E935497A5
S11328104E815F819D01225F3F4FFA0135832483FE
S11328203F832E8359967C936E935897FB01908136
S11328309F5F90835A962C91E0910F16F091101699
S1132840928D921748F4C114D10419F091E0F60165
S1132850908391E090935915DF91CF910F91FF9060
S1132860EF90DF90CF90BF90AF909F908F9008959E
S1132870009721F480910F16909110160FB6F894DA
S11328800F9270E0FC01E60FF71F23A9223031F408
S1132890FC01E60FF71F13AA81E001C080E00F904E
S11328A00FBE0895DC01E0911B16F0911C16808187
S11328B091E0811190E09C93911108C00780F0850C
S11328C0E02D6081718182819381089560E070E0E0
S11328D0CB010895CF92DF92EF92FF920F931F9353
S11328E0FC0142835383648375839387828704172F
S11328F0150726073707C0F00C191D092E093F09D3
S113290086859785A089B189081719072A073B0787
S113291000F5BF016E5F7F4F8091191690911A16D2
S11329200E94760280E018C00C151D052E053F0597
S113293028F44C155D056E057F0568F4BF016E5FD4
S11329407F4F80911B1690911C160E94760280E0A6
S113295003C081E001C081E01F910F91FF90EF90CF
S1132960DF90CF9008950FB6F8940F9280911716C8
S113297090911816892BE9F488E296E10E9461028D
S11329808DE196E10E94610288E296E190931C1623
S113299080931B168DE196E190931A168093191675
S11329A040E067E08AE00E94140590931816809333
S11329B017160F900FBE0895EF92FF920F93D3DF77
S11329C08091171690911816892B91F00F2EF5E12E
S11329D0EF2EF6E1FF2EF02D03E020E030E040EC96
S11329E050E064E772E087ED90E00E94EC0B01C0D8
S11329F080E00F91FF90EF9008958F929F92AF9295
S1132A00BF92CF92DF92EF92FF920F931F93CF93D7
S1132A10DF93CDB7DEB727970FB6F894DEBF0FBEAE
S1132A20CDBFE0911716F0911816309781F16983A4
S1132A302A833B834C835D839F838E836630F4F4C7
S1132A40EEDB823069F400E0A7019601BE016F5FFE
S1132A507F4F80911716909118160E94370518C061
S1132A6000E020E030E0A901BE016F5F7F4F80915C
S1132A701716909118160E9437050AC020E0A80185
S1132A80BE016F5F7F4FCF010E94C70501C080E088
S1132A9027960FB6F894DEBF0FBECDBFDF91CF915E
S1132AA01F910F91FF90EF90DF90CF90BF90AF9068
S1132AB09F908F9008958F929F92AF92BF92CF92E2
S1132AC0DF92EF92FF920F931F93CF93DF933BC05C
S1132AD00780F085E02D80809180A280B380C0853E
S1132AE0D1858E010E5F1F4FC8010E94B302EC898D
S1132AF0FD89CE0119958E8982FF25C08E859F851B
S1132B00A889B989880D991DAA1DBB1D8816990627
S1132B10AA06BB0670F48A839B83AC83BD83DB87E0
S1132B20CA87B80180911B1690911C160E947602E8
S1132B300AC0C12CD12C760100E010E0A50194015B
S1132B4060E0CE015ADFE0911B16F0911C168081E3
S1132B508111BECF8091191690911A1690931C166C
S1132B6080931B16F0931A16E0931916DF91CF91F8
S1132B701F910F91FF90EF90DF90CF90BF90AF9097
S1132B809F908F900895CF92DF92EF92FF92CF9310
S1132B90DF93EC010E94760C6B017C01809111168D
S1132BA090911216A0911316B0911416C816D90656
S1132BB0EA06FB0620F47FDF81E0888301C01882E7
S1132BC0C0921116D0921216E0921316F0921416B7
S1132BD0C701B601DF91CF91FF90EF90DF90CF90C6
S1132BE008954F925F926F927F928F929F92AF92CD
S1132BF0BF92CF92DF92EF92FF920F931F93CF93E6
S1132C00DF934B015C0129013A01E0911B16F0911D
S1132C101C160780F085E02DC085D185CE01029673
S1132C200E94B3028E8982FF1BC04E855F8568892E
S1132C307989480D591D6A1D7B1D75016401930135
S1132C408201CE0147DE882369F0C12CD12C7601A4
S1132C5000E010E0A501940160E0CE01CEDE02C0E8
S1132C608E7F8E8BEC89FD89CE011995DF91CF91F2
S1132C701F910F91FF90EF90DF90CF90BF90AF9096
S1132C809F908F907F906F905F904F9008958F9258
S1132C909F92AF92BF92CF92DF92EF92FF921F93D7
S1132CA0CF93DF931F92CDB7DEB76B017C01142F56
S1132CB00E94700CCE01019666DF4B015C01898194
S1132CC081112DC011110DC08C149D04AE04BF04DC
S1132CD040F00E94B00DA5019401C701B60181DF47
S1132CE020C0112341F0E0911916F0911A16808149
S1132CF011E0811110E0B701A601481959096A09C8
S1132D007B09212F80911716909118160E94910625
S1132D100E94B00D811105C00E942F0302C00E94C1
S1132D20B00D0F90DF91CF911F91FF90EF90DF9046
S1132D30CF90BF90AF909F908F900895AF92BF9225
S1132D40CF92DF92EF92FF920F931F93CF93DF9373
S1132D50CDB7DEB728970FB6F894DEBF0FBECDBF50
S1132D6082C0898188230CF47EC0AE80BF80D501E7
S1132D701C968D919C911D97892B21F0C50102967B
S1132D800E94B302CE010896FEDE8B019C01E9810C
S1132D900E2E000CFF0BEA30F10508F064C0882702
S1132DA0EE58FF4F8F4F0C94462AF50186898160B7
S1132DB0868BCA80DB80EC80FD80468557856089E0
S1132DC071894C0D5D1D6E1D7F1DC50183DD88233A
S1132DD009F449C0D5015496ED91FC915597C5016C
S1132DE01995F501868982FF3EC04A815B816C8119
S1132DF07D8186859785A089B1899A01AB01280FC9
S1132E00391F4A1F5B1FC12CD12C760100E010E052
S1132E1060E0C501F2DD27C0D50156968C91569726
S1132E208E7F56968C931FC0F50186898160868BB0
S1132E304A815B816C817D8146875787608B718B6A
S1132E40400F511F621F731F68017901C50142DDE4
S1132E500AC0F501868981FD04C0C5010E942402CF
S1132E6002C08E7F868B20E030E0A901BE016F5F37
S1132E707F4F80911716909118160E9402068111B7
S1132E8070CF28960FB6F894DEBF0FBECDBFDF918A
S1132E90CF911F910F91FF90EF90DF90CF90BF9053
S1132EA0AF900895089584B1806884B985B180682D
S1132EB085B9089583B1806883B90895F4DF2FEF4D
S1132EC080E792E0215080409040E1F700C000008C
S1132ED0F1DFF5CFE8DF2FEF87EA91E6215080405C
S1132EE09040E1F700C00000E5DFF5CFC2D78823AA
S1132EF021F08CE792E00E94E52B88E69FE1909315
S1132F008517809384179F938F9381E992E09F9311
S1132F108F930E94D22B64E771E080E090E00E94DE
S1132F20F10E0F900F900F900F900895DFDFFECFFA
S1132F30EF92FF920F93E12CF12C01E020E030E0BE
S1132F4040EC50E06AE972E086E997E10E94EC0BFC
S1132F500F91FF90EF90089535D281113FC066E044
S1132F6070E080E090E00E94F10E41D281112DC00A
S1132F7063E070E080E090E00E94F10E5ED29093F6
S1132F808917809388177FD2809386179093871729
S1132F909F938F938EE992E09F938F930E94D22BFD
S1132FA0809189178F93809188178F9388EA92E094
S1132FB09F938F930E94D22B8DB79EB708960FB61E
S1132FC0F8949EBF0FBE8DBF11C083EB92E09F9318
S1132FD08F930E94D22B0F900F9008C08DED92E03A
S1132FE09F938F930E94D22B0F900F9064E771E010
S1132FF080E090E00C94F10EAFDFFECFEF92FF92F1
S11330000F93E12CF12C01E020E030E040EC50E0A3
S113301066E073E08CEF97E10E94EC0B0F91FF9058
S1133020EF9008950F931F93CF93DF93CDB7DEB73F
S113303064970FB6F894DEBF0FBECDBF81E00E9447
S11330408C2499D315D69F938F938AE193E09F9311
S11330508F930E94D22B0DD50BD69F938F938DE225
S113306093E09F938F930E94D22B8E010F5F1F4F8B
S1133070C80193D3FDD51F930F939F938F9386E439
S113308093E09F938F930E94D22BC801A2D3F0D5D3
S11330909F938F931F930F938AE593E09F938F934E
S11330A00E94D22BA8016FE673E080E993E0BFD5BC
S11330B0DFD59F938F931F930F938FE693E09F9396
S11330C08F9380E993E09F938F9381EA93E09F939A
S11330D08F930E94D22BB0D3CBD59F938F9387ED40
S11330E093E09F938F930E94D22B0FB6F894DEBF88
S11330F00FBECDBF81E09AD4BBD59F938F9386EE4C
S113310093E09F938F930E94D22B84EF91E099D404
S1133110AFD59F938F9381E08F9384EF8F9387E054
S113312094E09F938F930E94D22B0FB6F894DEBF46
S11331300FBECDBF1AE080E085D3082F99D59F93A9
S11331408F931F921F9387E294E09F938F930E9423
S1133150D22B0F900F900F900F900F900F9008307C
S113316059F080E00E94F02466E371E080E090E092
S11331700E94F10E1150F9F6083021F481E00E940A
S1133180D22409C081E00E94E12480E00E94AF249F
S11331900E942F03FDCF64960FB6F894DEBF0FBED6
S11331A0CDBFDF91CF911F910F910895CF93DF93FE
S11331B000D01F92CDB7DEB781E0CFD262E070E0DD
S11331C080E090E00E94F10E80E0C7D266E970E0F2
S11331D080E090E00E94F10E79D224DFE3E3F6E18F
S11331E088E0818382E080830E94760C69837A83FD
S11331F08B839C8348EA58E460E070E0CE0101963A
S11332000E948C0ED0908817C0908917F090861772
S1133210E09087171091841700918517EF92FF9221
S113322087E494E09F938F930E94D22B8091891717
S11332308F93809188178F938DE594E09F938F935C
S11332400E94D22BE3E3F6E1C282D382E482F582C8
S1133250068317830087118783E00E94022563E3B6
S113326076E180E018D304D59F938F9384E794E0AC
S11332709F938F930E94D22B0FB6F894DEBF0FBE9C
S1133280CDBFB8CFEF92FF920F93E12CF12C082F12
S113329020E030E048E851E069E874E086ED98E128
S11332A00E94EC0B0F91FF90EF9008958130F1F4A0
S11332B08AE897E10E947A25811118C080918D17C0
S11332C08F9380918C178F9380918B178F9380911C
S11332D08A178F9380E994E09F938F930E94D22B57
S11332E00F900F900F900F900F900F9008958CE90E
S11332F094E00E94E52B83E097D54CD086E599E1D4
S11333000E945F2560E070E081E0E7C1089510DE6F
S113331075CE089580E00E94372383E0B3DFE7DFB2
S1133320F6DF85E00E943E2484EB94E00E94E52BC6
S11333300E94380C80E090E008956530F1F4FA01C1
S113334080818F7390E0982F88272181822B90931E
S11333500A02809309028281F0E48F9FC001112444
S1133360FA01238126952695822B90930802809357
S1133370070281E0809349160895643051F080E09B
S113338090E4909308028093070290930A0280933A
S1133390090208950F931F930DE919E120E034E227
S11333A044EF50E060E087E20E94642690934B165D
S11333B080934A1621E0892B09F020E0822F1F9187
S11333C00F91089580914A1690914B16009759F0E9
S11333D040E060E070E00E94B526843031F4109241
S11333E0491680E0089582E0089583E0089580916D
S11333F04A1690914B16009739F064E00E94012719
S1133400853021F083E0089582E0089580E00895F6
S11334106091090270910A0280E090E00E940B29F9
S113342020E030E048EC52E40E949D2920E038EF8F
S11334304FE756E40C9472280895EADF20E030E068
S113344040E251E40E949D290E94DF28CB010895A7
S1133450609107027091080280E090E00E940B29BD
S113346020E030E045E253E40E949D2920E038EF5B
S11334704FE756E40E94722820E030E040E252E434
S11334800C940D280895E4DF20E030E040E251E49C
S11334900E949D290E94DA28CB0108950F931F935F
S11334A0CF93DF931F921F92CDB7DEB78C011982A1
S11334B02DC0E0918316EC3250F481E08E0F80939E
S11334C08316F0E0EB54F94E8A81808302C0109297
S11334D083168A818A30D1F44091831650E0FA0130
S11334E0ED54F94E1082415051099E012F5F3F4F18
S11334F065EB76E180918616909187160E941509F6
S1133500898181110E942F0310928316BE016E5F80
S11335107F4FC80116D6882361F20F900F90DF9178
S1133520CF911F910F9108950F931F93CF93DF9322
S11335308C01EB0180918616909187160E942208D7
S1133540B8018CE496E10E94B32B209779F0ECE467
S1133550F6E101900020E9F7319780E290E0918351
S11335608083BE018CE496E10E94A82BECE4F6E192
S1133570DF010D900020E9F711978DE09AE0119694
S11335809C938E9312961C9201900020E9F7319738
S1133590EC54F641AE2F8CE496E1AC016A2F809195
S11335A088169091891678D5811111C008E215E02A
S11335B020E030E04DE250E06FE077E18091861644
S11335C0909187160E9459098FE097E102C080E02C
S11335D090E0DF91CF911F910F9108952F923F9228
S11335E04F925F926F927F928F929F92AF92BF920F
S11335F0CF92DF92EF92FF920F931F93CF93DF93BB
S11336005C01FC0101900020E9F731976F01C81AB1
S1133610D90A5C2C0F2EF9E58F2EF7E09F2EF02DA2
S1133620E12CF12C4C2C3701F40101811281E801C9
S113363009900020E9F72197C01BD10B3C2EF9E03B
S1133640CF16D10458F0F4012080FEE02F1206C0FA
S1133650B801C5010E94832B892B09F5442D35142B
S113366008F44C2F50E0B801C5010E94BA2B892BF5
S113367049F4F301EE0FFF1FE60DF71DE75AF84F6B
S113368020800DC08FEFE81AF80AE3E08E0E911C3B
S1133690F1E1EF16F10439F66894222424F8822D1E
S11336A0DF91CF911F910F91FF90EF90DF90CF901A
S11336B0BF90AF909F908F907F906F905F904F904E
S11336C03F902F90089530DF89CF0895809186161A
S11336D0909187160C94220808958F929F92AF922E
S11336E0CF92EF920F931F93CF93C82F8B0141E09A
S11336F060E070E088EC90E00E94F00790938716F9
S11337008093861610938516009384160F2EFEE47C
S11337108F2EFAE19F2EF02D6894AA24A6F86894BF
S1133720CC24C6F8E12C00E023E040E051EE60E058
S113373070E08C2FDED39093891680938816E7E08F
S1133740F1E0808180618083CF911F910F91EF9090
S1133750CF90AF909F908F900895882331F0E8E048
S1133760F1E080818F7E80830895E8E0F1E080813C
S113377080618083089560E070E08FED94E0D4DE92
S1133780EFE0F7E101900020E9F73197EF50F741BE
S113379081E0759708F080E00895CF93DF93EC0102
S11337A060E070E080EF94E0BFDEEFE0F7E10190CD
S11337B00020E9F7E052F74139F46FE077E1CE01F8
S11337C00E94B32B80E002C0188281E0DF91CF9188
S11337D00895FC0101900020E9F79F01215131096E
S11337E02817390729F4BC018EE195E06CCF0895C0
S11337F089E00895FC0101900020E9F79F0121511F
S113380031092817390729F4BC018DE295E05BCF13
S1133810089589E00895FC0101900020E9F79F01D3
S1133820215231092817390729F4BC018CE395E0AA
S11338304ACF089589E0089560E070E08BE795E051
S113384042CF08950F931F93E82FF0E0EE0FFF1F70
S1133850EB5AF84F6081718184E895E034DF81117F
S113386014C008E215E020E030E04DE250E06FE0E3
S113387077E180918616909187160E9459098823D2
S113388021F08FE097E1AADE03C08FE097E1A6DE86
S11338901F910F9108950F931F93CF93DF931F925E
S11338A0CDB7DEB7DB0111969C911197953108F0E5
S11338B0B4C0992381F160E070E0272F30E0462FF7
S11338C050E0FD01E40FF51F928192959F709A30AC
S11338D010F0995C01C0905DF901E056F94E9083B7
S11338E02F5F3F4FFD01E40FF51F92819F70492F19
S11338F050E04A30510514F0995C01C0905DF90123
S1133900E056F94E90837E5F6F5F11969C911197FC
S1133910691798F201C070E0E72FF0E0E056F94E25
S113392010824C91811103C08DE895E002C08FE8AC
S113393095E020EA36E13F932F931F924F939F9394
S11339408F9383E995E09F938F9382EE96E19F9303
S11339508F930E94152C60E070E082EE96E1B3DE56
S11339600FB6F894DEBF0FBECDBF811159C008E277
S113397015E020E030E04DE250E06FE077E1809127
S11339808616909187160E945909882309F447C026
S11339908FE097E123DE8E3009F042C087E089830F
S11339A08091841690918516892BA9F1BE016F5FD1
S11339B07F4F8FE097E168D180938A16E981F0E028
S11339C0E15FF84EDF010D900020E9F71197AE1B7F
S11339D0BF0BAA2391F0BB27CD0101979C0112F4E0
S11339E02F5F3F4F3595279520938B16AF014F5F7F
S11339F05F4F64E18CE896E173D101E010E020E0D0
S1133A0030E046E150E06AE876E1809184169091D6
S1133A1085160E9452088EE003C084E101C080E054
S1133A200F90DF91CF911F910F910895813019F07C
S1133A3063EA75E002C06CE776E087EA95E043CE7E
S1133A4008959F938F9388ED95E09F938F9382EED3
S1133A5096E19F938F930E94152C60E070E082EEB4
S1133A6096E131DE0F900F900F900F900F900F9012
S1133A7008952F923F924F925F926F927F928F920E
S1133A809F92AF92BF92CF92DF92EF92FF920F93E9
S1133A901F93CF93DF93CDB7DEB7A0970FB6F894FB
S1133AA0DEBF0FBECDBF65E076E081E196E03CDD90
S1133AB095DD8111A3C080E2E2E2F2E0DE0111961D
S1133AC001900D928A95E1F79E012F5F3F4F6901A6
S1133AD0E12CF12C0F2EFDE1AF2EF6E0BF2EF02DE0
S1133AE002EE16E10F2EF6E34F2EF6E05F2EF02DD8
S1133AF00F2EFDE48F2EF6E09F2EF02D0F2EF7E60D
S1133B006F2EF6E07F2EF02D3E2C2F2CFF92EF929D
S1133B10BF92AF921F930F930E94152C60E070E048
S1133B20C80102DD5BDD0F900F900F900F900F9096
S1133B300F90811163C032E03E15E8F4F6018381F1
S1133B408F9382818F9381818F9380818F93FF9252
S1133B50EF925F924F921F930F930E94152C60E097
S1133B6070E0C801E1DC3ADD0FB6F894DEBF0FBEA9
S1133B70CDBF811143C02F923F929F928F921F938A
S1133B800F930E94152C60E070E0C801CDDC26DDA7
S1133B900F900F900F900F900F900F9081112EC0E7
S1133BA02F923F927F926F921F930F930E94152C36
S1133BB060E070E0C801B8DC11DD0F900F900F9049
S1133BC00F900F900F90811119C03FEFE31AF30A81
S1133BD084E0C80ED11C98E0E916F10409F094CFF2
S1133BE060E070E08FE796E09FDCF8DC811106C0AE
S1133BF060E070E080E996E097DCF0DCA0960FB618
S1133C00F894DEBF0FBECDBFDF91CF911F910F910E
S1133C10FF90EF90DF90CF90BF90AF909F908F90E8
S1133C207F906F905F904F903F902F900895EF9208
S1133C30FF920F931F93CF93DF93EC018B017A01D3
S1133C4081E0F4DE81110DC0CE01D4DD811109C003
S1133C50C801E1DD811105C0C701BBDD811101C0CF
S1133C60EBDDDF91CF911F910F91FF90EF900895BD
S1133C7090E0FC01EE0FFF1F8E0F9F1FFC01E75A1F
S1133C80F84F818192810895DC01009729F1FB01AD
S1133C902081FC0101900020E9F73197E81BF90B22
S1133CA0822F90E0E817F907C8F080E008C0880F79
S1133CB0382F330F330F830F8053890F2F5FFD018C
S1133CC0E20FF11D908130ED390F3A3010F491116B
S1133CD0EECFFB012083089580E0089580E00895ED
S1133CE00F931F93CF93DF93DC01EA012097E1F157
S1133CF0FA0101900020E9F73197E41BF50B3297A4
S1133D0010F532C08D01040F151F30E0AE01420FD3
S1133D10531FFA019081913428F09753592F5295EB
S1133D20507F03C0592F5295507F2C0F3D1FF9012E
S1133D309181913410F0975301C09053950FF8017D
S1133D4090838F5F01C080E0282F220F482F50E01E
S1133D50FE0101900020E9F73197EC1BFD0B4E1793
S1133D605F0710F48613CECFDF91CF911F910F918F
S1133D70089580913F17860F80933F1790914217C3
S1133D80913079F028F09230A9F0933019F1089528
S1133D906F3F09F048C010923F1781E080934217AB
S1133DA00895663809F03FC010923E1782E0809370
S1133DB042170895E0913E1781E08E0F80933E17DD
S1133DC0F0E0E45CF84E6083823069F583E0809330
S1133DD04217089590913E1721E0290F20933E1732
S1133DE0963009F581110EC0ECE3F7E1808190E093
S1133DF0982F88272181820F911D909344178093D7
S1133E00431704C01092441710924317109242179C
S1133E10E0914017F0914117309729F080914317B2
S1133E2090914417199508958F929F92AF92CF92D3
S1133E30EF920F930F2EF9EB8F2EFEE19F2EF02DB4
S1133E406894AA24A4F86894CC24C4F8E12C00E073
S1133E5023E040E855E260E070E04BD090934617D1
S1133E60809345170F91EF90CF90AF909F908F90D4
S1133E700895CF93DF93CDB7DEB729970FB6F894A3
S1133E80DEBF0FBECDBF89E0E2E4F2E09E012F5F0A
S1133E903F4FD90101900D928A95E1F71092441792
S1133EA0109243178091451790914617009731F06F
S1133EB0422F532F69E0F0D080E001C082E02996C0
S1133EC00FB6F894DEBF0FBECDBFDF91CF9108953A
S1133ED020914317309144172115310529F4FC0131
S1133EE01182108281E00895FC013183208380E0F7
S1133EF008952F923F924F925F926F927F928F928A
S1133F009F92AF92CF92EF92FF920F931F93CF9312
S1133F10DF93CDB7DEB7F82E2A013B0188E090E0AD
S1133F200E944E2A8C018F2D90E0FC01EE0FFF1FA2
S1133F30E95BF84E118300830115110509F46FC084
S1133F40880F991FFC01E55FFD4F80819181D801A5
S1133F508D939C938C2D90E0880F991F880F991F47
S1133F600E944E2A1C0186E090E00E944E2A7C01A9
S1133F704C2DB1010E94F127F801F582E4828A2DCB
S1133F8090E0880F991F880F991F0E944E2A1C01E8
S1133F9086E090E00E944E2A7C014A2DB1010E94E5
S1133FA0F127D8011396FC92EE92129717969C92E1
S1133FB08E921697FFB6F894ED91FC91119736976F
S1133FC08081826080838D909C90C301B2010E94A5
S1133FD00B2920E030E040E051E40E949D299B0140
S1133FE0AC0160E074E284E79BE40E94722820E064
S1133FF030E040E85FE30E940D280E94DF28F401CE
S113400032976083D801ED91FC911197359788E937
S11340108083ED91FC91349786E08083FFBEC801D4
S1134020DF91CF911F910F91FF90EF90CF90AF90C0
S11340309F908F907F906F905F904F903F902F90C4
S11340400895CF93DF93DC01892B01F11296ED9152
S1134050FC911397938182812581981B92238481FB
S11340609817B1F0838126952823C081D181C20F8E
S1134070D11D68838F5F958189238383ED91FC91A2
S1134080359780818062808380E003C081E001C035
S113409082E0DF91CF910895EF92FF920F931F93E7
S11340A0CF93DF937C01009709F441C0DC011296A1
S11340B0ED91FC91139793818281981B85819823BC
S11340C08481891B8617A8F1662341F1842F952FDB
S11340D0DC016150462F50E04F5F5F4F480F591F7E
S11340E0E701EA81FB81938182812581981B9223D8
S11340F08481981779F08C91938126952923608186
S113410071818B01020F111DE80188839F5F8581F6
S1134110982393831196A417B50711F7D701ED914E
S1134120FC91359780818062808380E003C081E0C8
S113413001C082E0DF91CF911F910F91FF90EF902A
S113414008950097D1F0DC011496ED91FC91159738
S113415093818281981799F092818581869589232C
S1134160A081B181A80FB11D8C91DB018C939F5F5D
S113417085819823928380E0089581E0089583E007
S113418008951F920F920FB60F9211240BB60F923F
S11341902F933F934F935F936F937F938F939F934B
S11341A0AF93BF93CF93DF93EF93FF93A091471700
S11341B0B0914817109711F16091C6001496ED91D3
S11341C0FC911597938182812581981B9223848188
S11341D0981761F0838126952823C081D181C20F6D
S11341E0D11D68838F5F9581892383831696ED9112
S11341F0FC911797309711F0CD011995FF91EF912C
S1134200DF91CF91BF91AF919F918F917F916F91EA
S11342105F914F913F912F910F900BBE0F900FBE66
S11342200F901F9018951F920F920FB60F921124A2
S11342300BB60F922F938F939F93AF93BF93EF93EC
S1134240FF93E0914717F09148173097B9F0028037
S1134250F381E02D938182819817B1F09281858159
S1134260282F26952923A081B181A20FB11D2C915D
S11342709F5F892382832093C6000BC0E1ECF0E0AA
S113428080818F7D808305C0E1ECF0E080818F7DAB
S11342908083FF91EF91BF91AF919F918F912F9167
S11342A00F900BBE0F900FBE0F901F9018951F928A
S11342B00F920FB60F9211240BB60F922F933F93C8
S11342C04F935F936F937F938F939F93AF93BF931A
S11342D0CF93DF93EF93FF93A0914917B0914A17BF
S11342E0109711F16091CE001496ED91FC91159701
S11342F0938182812581981B92238481981761F090
S1134300838126952823C081D181C20FD11D688362
S11343108F5F9581892383831696ED91FC9117977E
S1134320309711F0CD011995FF91EF91DF91CF9165
S1134330BF91AF919F918F917F916F915F914F91B9
S11343403F912F910F900BBE0F900FBE0F901F90B7
S113435018951F920F920FB60F9211240BB60F925D
S11343602F938F939F93AF93BF93EF93FF93E0911A
S11343704917F0914A173097B9F00280F381E02D84
S1134380938182819817B1F092818581282F269597
S11343902923A081B181A20FB11D2C919F5F892394
S11343A082832093CE000BC0E9ECF0E080818F7D06
S11343B0808305C0E9ECF0E080818F7D8083FF91EC
S11343C0EF91BF91AF919F918F912F910F900BBE61
S11343D00F900FBE0F901F9018951F920F920FB65B
S11343E00F9211240BB60F922F933F934F935F9329
S11343F06F937F938F939F93AF93BF93CF93DF93E9
S1134400EF93FF93A0914B17B0914C17109711F1B4
S11344106091D6001496ED91FC9115979381828159
S11344202581981B92238481981761F083812695B6
S11344302823C081D181C20FD11D68838F5F9581EC
S1134440892383831696ED91FC911797309711F089
S1134450CD011995FF91EF91DF91CF91BF91AF916C
S11344609F918F917F916F915F914F913F912F9188
S11344700F900BBE0F900FBE0F901F9018951F92B8
S11344800F920FB60F9211240BB60F922F938F93A6
S11344909F93AF93BF93EF93FF93E0914B17F091EA
S11344A04C173097B9F00280F381E02D938182811B
S11344B09817B1F092818581282F26952923A08110
S11344C0B181A20FB11D2C919F5F89238283209318
S11344D0D6000BC0E1EDF0E080818F7D808305C0C4
S11344E0E1EDF0E080818F7D8083FF91EF91BF91BA
S11344F0AF919F918F912F910F900BBE0F900FBE94
S11345000F901F9018951F920F920FB60F921124BF
S11345100BB60F922F933F934F935F936F937F93B9
S11345208F939F93AF93BF93CF93DF93EF93FF93B7
S1134530A0914D17B0914E17109711F1609136016B
S11345401496ED91FC911597938182812581981B96
S113455092238481981761F0838126952823C08152
S1134560D181C20FD11D68838F5F95818923838395
S11345701696ED91FC911797309711F0CD0119958E
S1134580FF91EF91DF91CF91BF91AF919F918F9167
S11345907F916F915F914F913F912F910F900BBE3F
S11345A00F900FBE0F901F9018951F920F920FB689
S11345B00F9211240BB60F922F938F939F93AF9367
S11345C0BF93EF93FF93E0914D17F0914E173097FF
S11345D0B9F00280F381E02D938182819817B1F0C4
S11345E092818581282F26952923A081B181A20F4C
S11345F0B11D2C919F5F89238283209336010BC0C8
S1134600E1E3F1E080818F7D808305C0E1E3F1E0A7
S113461080818F7D8083FF91EF91BF91AF919F91B6
S11346208F912F910F900BBE0F900FBE0F901F9084
S11346301895CF93DF931F92CDB7DEB7BE016F5F9E
S11346407F4F80914F17909150177BDD8111F6CFEA
S1134650898190E00F90DF91CF910895682F809128
S11346604F1790915017EDDC80E090E008958F9201
S11346709F92AF92CF92EF920F93812C912C6894DA
S1134680AA24A7F86894CC24C7F8E12C00E023E01E
S113469040E051EE60E070E02CDC90935017809382
S11346A04F17E2E9F7E183E192E0918380839383FA
S11346B082830F91EF90CF90AF909F908F90089549
S11346C090E0FC01EE0FFF1FE80FF91FEE0FFF1F34
S11346D0EF5AF84E238121111FC09C01220F331F72
S11346E0F901E80FF91FEE0FFF1FEF5AF84EA081F2
S11346F0B1814C91F901E80FF91FEE0FFF1FEF5A3A
S1134700F84E81E090E0028002C0880F991F0A945D
S1134710E2F7842B8C930895FC01EE0FFF1FDF0159
S1134720A80FB91FAA0FBB1FAF5AB84E0D90BC916A
S1134730A02D2C91E80FF91FEE0FFF1FEF5AF84E32
S113474081E090E0028002C0880F991F0A94E2F78A
S1134750809582238C93089590E0FC01EE0FFF1F57
S1134760E80FF91FEE0FFF1FEF5AF84E23812111B6
S113477020C09C01220F331FF901E80FF91FEE0F2F
S1134780FF1FEF5AF84EA081B1814C91F901E80F57
S1134790F91FEE0FFF1FEF5AF84E81E090E0028000
S11347A002C0880F991F0A94E2F7809584238C93A2
S11347B00895FC01EE0FFF1FDF01A80FB91FAA0F18
S11347C0BB1FAF5AB84E0D90BC91A02D2C91E80F91
S11347D0F91FEE0FFF1FEF5AF84E81E090E00280C0
S11347E002C0880F991F0A94E2F7822B8C930895D4
S11347F0CC24C394D12C6894BB24B2F8C1E5D7E18E
S113480010E08C81813081F018F1823061F5E8810B
S1134810F9812081C6010A8002C0880F991F0A9479
S1134820E2F7822780831FC08D818F5F863010F46A
S11348308D8319C01D82E881F9812081C6010A8017
S113484002C0880F991F0A94E2F7822780830BC065
S11348500D81002329F0812F7FDF01500D8303C0D8
S1134860BC82812F2DDF1F5F2696143051F66CE039
S113487070E080E090E00E94F10EC0CFEF92FF92D2
S11348800F931F93CF93DF93082F80E487B9C1E57B
S1134890D7E10F2EF8E2EF2EF12CF02DF982E88209
S11348A086E08A831B8214E01C8380E009DF80E8B1
S11348B087B9FF82EE8287E0888719861A8781E0AC
S11348C0FFDE80E283BB84E390E09D878C8785E0F4
S11348D08E871F86188B82E0F3DE80E180930101CE
S11348E082E091E09B8B8A8B1C8B1D8A1E8B83E05C
S11348F0E7DEE12CF12C20E030E040EC50E06CE805
S113490077E088EF93E20E94EC0BDF91CF911F9147
S11349100F91FF90EF900895CF93DF9390E0FC0107
S1134920EE0FFF1FDF01A80FB91FAA0FBB1FAF5A5D
S1134930B84ECD91DC911197488121E030E0129678
S11349400C90129702C0220F331F0A94E2F7242717
S11349502883FD0181E08483DF91CF910895CF9373
S1134960DF9390E0FC01EE0FFF1FDF01A80FB91FDA
S1134970AA0FBB1FAF5AB84ECD91DC911197488155
S113498021E030E012960C90129702C0220F331FE0
S11349900A94E2F724272883FD0182E08483DF91CF
S11349A0CF910895282F30E0F901EE0FFF1FE20F99
S11349B0F31FEE0FFF1FEF5AF84E93E09483CCCE13
S11349C00895282F30E0F901EE0FFF1FE20FF31FC7
S11349D0EE0FFF1FEF5AF84E94E0948371CE0895C2
S11349E090E0FC01EE0FFF1FDF01A80FB91FAA0F13
S11349F0BB1FAF5AB84E26E015962C931597FD01B0
S1134A001482089590E0FC01EE0FFF1FDF01A80F50
S1134A10B91FAA0FBB1FAF5AB84E15961C92159713
S1134A20FD0114820895E0917117F0917217309787
S1134A3009F0199508956450623008F03BC0209144
S1134A407017223079F018F4213031F030C023305F
S1134A5081F02430A1F02BC022E02093701761E094
S1134A60D0C10895FA01808180936D1782E0DBCF75
S1134A70089524E02093701764E0C3C10895FA01F7
S1134A80818190E0982F88272081822B90936C1746
S1134A9080936B17838190E0982F88272281822B43
S1134AA090936A178093691781E0BDCF089580E0E1
S1134AB0BACF08951092701786E0B5CF08950F937A
S1134AC01F9390937217809371170BE115E220E006
S1134AD034E244EF50E060E089E2F6D0909374173A
S1134AE080937317892B11F080E001C088E01F9137
S1134AF00F9108952F923F924F925F926F927F92FF
S1134B008F929F92AF92BF92CF92DF92EF92FF92D9
S1134B100F931F93CF93DF93C0916917D0916A17B6
S1134B20CF3F2FEFD20741F060916B1770916C1754
S1134B306F3FEFEF7E0759F44FEF5FEF6FE77FE7CB
S1134B40FC01408351836283738383E099C01C0119
S1134B5080E090E060D32B013C01BE0180E090E056
S1134B605AD34B015C0180916E1790E0019624E6C4
S1134B70289FB001299F700D112480916F178032F6
S1134B8069F08033A1F08031E1F40F2EC12CD12CD7
S1134B90F8ECEF2EF1E4FF2EF02D1BC00F2EC12CEC
S1134BA0D12CF6EDEF2EF3E4FF2EF02D12C00F2ED4
S1134BB0C12CF0E5DF2EFAE1EF2EF6E4FF2EF02D06
S1134BC008C00F2EC12CD12CF0E8EF2EFFE3FF2EEE
S1134BD0F02D072E000C880B990B1FD3A70196010B
S1134BE0ACD320E030E04CEC53E47CD26B017C018C
S1134BF025E83BEE41ED5FE3C501B4019ED39B0183
S1134C00AC01C301B20109D2A70196016BD2162FE0
S1134C10D72FC82F092F2DE33AE047E15FE3C30103
S1134C20B2018BD32B013C0126EF38E24CE55FE364
S1134C30C501B40182D39B01AC01C301B201EDD122
S1134C40A70196014FD2C62ED72EE82EF92E262F75
S1134C50372F482F592F612F7D2F8C2F902F69D3F9
S1134C60181624F01C2DDD2DCE2D0F2D412F5D2F78
S1134C706C2F702FF101408351836283738380E032
S1134C80DF91CF911F910F91FF90EF90DF90CF9024
S1134C90BF90AF909F908F907F906F905F904F9058
S1134CA03F902F9008958091831781110CC08CE060
S1134CB08093B8008FEF8093BB0084E08093BC00A6
S1134CC081E0809383170895AF92BF92CF92DF92D1
S1134CD0EF92FF920F931F93CF93DF93A82EB62EDC
S1134CE069017A0184E090E0D9D3EC01892B61F168
S1134CF0A88281E0B81212C0C701B60120EA36E8E2
S1134D0041E050E0A1D3DA01C9014097A109B109FA
S1134D10B695A79597958795898311C0C701B60164
S1134D2020E83AE146E050E08FD3DA01C901409728
S1134D30A109B109B695A7959795879589831B8392
S1134D400A838C2F9D2F02C080E090E0DF91CF91E9
S1134D501F910F91FF90EF90DF90CF90BF90AF9095
S1134D6008958091BC0081700895FF920F931F9362
S1134D70CF93DF930097D1F14A30D0F5F42E8B0115
S1134D80EC01EFDF811136C080917617909177178F
S1134D90C817D90741F087DF89818093B800D09381
S1134DA07717C093761781E08F0D809378178881E9
S1134DB0880F80937917FF2089F0F801AAE7B7E1FB
S1134DC04FEF4F0D642F70E0CB010196B801680FCF
S1134DD0791F81918D93E617F707D9F788EF8093B0
S1134DE0210285EA8093BC0084E005C086E003C00C
S1134DF087E001C082E0DF91CF911F910F91FF9076
S1134E0008951F93CF93DF93009729F16B3028F512
S1134E10162FEC01A6DF811122C0809176179091A4
S1134E207717C817D90741F03EDF89818093B8000E
S1134E30D0937717C0937617109378178881880FCB
S1134E4081608093791788EF8093210285EA8093AB
S1134E50BC0085E005C086E003C087E001C082E0B5
S1134E60DF91CF911F9108951F920F920FB60F9269
S1134E7011240BB60F922F933F934F935F936F932D
S1134E807F938F939F93AF93BF93EF93FF93E0919F
S1134E90B9008E2F90E0FC013897E135F10508F058
S1134EA075C08827E458FF4F8F4FF0C210927517D2
S1134EB0E091751780917817E81770F481E08E0FF0
S1134EC080937517F0E0E758F84E80818093BB001B
S1134ED085E88093BC0072C084E98093BC00809113
S1134EE0761790917717DC011296ED91FC91139748
S1134EF0309709F463C020E040E050E064E0199585
S1134F005DC0E091751781E08E0F809375178091D5
S1134F10BB00F0E0E758F84E80838091B9008034FC
S1134F2011F4109275172091751730E0809178175D
S1134F3090E001972817390724F485EC8093BC008E
S1134F403DC085E88093BC0039C08091BB00E091EE
S1134F507517F0E0E758F84E808384E98093BC002D
S1134F608091761790917717DC011296ED91FC9160
S1134F701397309719F12091781749E757E165E0C5
S1134F8019951CC085EA8093BC0018C08091B900B3
S1134F908093210284E08093BC00809176179091E5
S1134FA07717DC011296ED91FC911397309731F04D
S1134FB020E040E050E0609121021995FF91EF91CB
S1134FC0BF91AF919F918F917F916F915F914F911D
S1134FD03F912F910F900BBE0F900FBE0F901F901B
S1134FE01895FC01411101C07AD3842F90E09C01F3
S1134FF02150310982239323892B09F070D341383E
S113500008F06DD3128213824483440F41504583C8
S11350107183608380E090E008955058BB27AA27ED
S11350200ED04DC13ED130F043D120F031F49F3F3A
S113503011F41EF433C10EF4E095E7FB29C1E92F06
S11350404FD180F3BA17620773078407950718F0E6
S113505071F49EF567C10EF4E0950B2EBA2FA02DC6
S11350600B01B90190010C01CA01A0011124FF2711
S1135070591B99F0593F50F4503E68F11A16F0400C
S1135080A22F232F342F4427585FF3CF469537950B
S11350902795A795F0405395C9F77EF41F16BA0BD0
S11350A0620B730B840BBAF09150A1F0FF0FBB1F7E
S11350B0661F771F881FC2F70EC0BA0F621F731FC7
S11350C0841F48F4879577956795B795F7959E3F24
S11350D008F0B3CF9395880F08F09927EE0F9795B2
S11350E0879508950CD0EBC0E3D040F0DAD030F0CF
S11350F021F45F3F19F0CCC0511115C1CFC0F0D0DD
S113510098F39923C9F35523B1F3951B550BBB278A
S1135110AA2762177307840738F09F5F5F4F220F37
S1135120331F441FAA1FA9F333D00E2E3AF0E0E830
S113513030D091505040E695001CCAF729D0FE2F7C
S113514027D0660F771F881FBB1F2617370748070E
S1135150AB07B0E809F0BB0B802DBF01FF279358C4
S11351605F4F2AF09E3F510568F092C0DCC05F3F5C
S1135170ECF3983EDCF3869577956795B795F795AC
S11351809F5FC9F7880F911D9695879597F90895A4
S1135190E1E0660F771F881FBB1F62177307840740
S11351A0BA0720F0621B730B840BBA0BEE1F88F74F
S11351B0E095089504D06894B111B5C0089598D0CD
S11351C088F09F5790F0B92F9927B751A0F0D1F0EC
S11351D0660F771F881F991F1AF0BA95C9F712C076
S11351E0B13081F09FD0B1E008959CC0672F782F33
S11351F08827B85F39F0B93FCCF3869577956795E2
S1135200B395D9F73EF490958095709561957F4F4D
S11352108F4F9F4F0895E89409C097FB3EF49095F3
S11352208095709561957F4F8F4F9F4F9923A9F07B
S1135230F92F96E9BB279395F6958795779567950A
S1135240B795F111F8CFFAF4BB0F11F460FF1BC04E
S11352506F5F7F4F8F4F9F4F16C0882311F096E9E1
S113526011C0772321F09EE8872F762F05C066238F
S113527071F096E8862F70E060E02AF09A95660F48
S1135280771F881FDAF7880F9695879597F9089501
S113529097F99F6780E870E060E008959FEF80ECE5
S11352A0089500240A941616170618060906089588
S11352B000240A9412161306140605060895092EEE
S11352C00394000C11F4882352F0BB0F40F4BF2B5D
S11352D011F460FF04C06F5F7F4F8F4F9F4F08959D
S11352E057FD9058440F551F59F05F3F71F0479593
S11352F0880F97FB991F61F09F3F79F08795089578
S1135300121613061406551FF2CF4695F1DF08C096
S1135310161617061806991FF1CF869571056105B3
S113532008940895E894BB2766277727CB0197F95B
S1135330089566D008F48FEF08950BD0C0CFB1DF85
S113534028F0B6DF18F0952309F0A2CFA7CF1124D7
S1135350EACFC6DFA0F3959FD1F3950F50E0551F18
S1135360629FF001729FBB27F00DB11D639FAA27B6
S1135370F00DB11DAA1F649F6627B00DA11D661F05
S1135380829F2227B00DA11D621F739FB00DA11D26
S1135390621F839FA00D611D221F749F3327A00DE0
S11353A0611D231F849F600D211D822F762F6A2F7C
S11353B011249F5750408AF0E1F088234AF0EE0F01
S11353C0FF1FBB1F661F771F881F91505040A9F70E
S11353D09E3F510570F05CCFA6CF5F3FECF3983E43
S11353E0DCF3869577956795B795F795E7959F5F75
S11353F0C1F7FE2B880F911D9695879597F908950F
S1135400990F0008550FAA0BE0E8FEEF16161706D1
S1135410E807F907C0F012161306E407F50798F039
S1135420621B730B840B950B39F40A2661F0232B52
S1135430242B252B21F408950A2609F4A140A695CE
S11354408FEF811D811D0895A1E21A2EAA1BBB1B9B
S1135450FD010DC0AA1FBB1FEE1FFF1FA217B3073C
S1135460E407F50720F0A21BB30BE40BF50B661F52
S1135470771F881F991F1A9469F760957095809516
S113548090959B01AC01BD01CF010895EE0FFF1F64
S1135490881F8BBF0790F691E02D19940F931F93EB
S11354A0CF93DF938230910510F482E090E0E09195
S11354B09017F091911720E030E0A0E0B0E0309731
S11354C019F1408151810281138148175907C8F0AD
S11354D08417950769F4109731F012960C9312977C
S11354E013961C9327C0009390171093911722C012
S11354F02115310519F04217530718F49A01BD011B
S1135500EF01DF01F801DBCF21153105F9F0281B8C
S1135510390B2430310580F48A819B816115710532
S113552021F0FB019383828304C0909391178093AD
S11355309017FE01329644C0FE01E20FF31F8193DF
S1135540919322503109398328833AC020918E17D0
S113555030918F17232B41F42091020230910302E2
S113556030938F1720938E172091000230910102FF
S11355702115310541F42DB73EB7409104025091F5
S11355800502241B350BE0918E17F0918F17E2175B
S1135590F307A0F42E1B3F0B2817390778F0AC0152
S11355A04E5F5F4F2417350748F04E0F5F1F50932F
S11355B08F1740938E178193919302C0E0E0F0E03F
S11355C0CF01DF91CF911F910F910895CF93DF9376
S11355D0009709F481C0FC01329713821282A091D2
S11355E09017B0919117109781F420813181820F27
S11355F0931F20918E1730918F172817390751F573
S1135600F0938F17E0938E1767C0ED0120E030E030
S1135610CE17DF0740F44A815B819E014115510595
S1135620F1F0EA01F5CFD383C28340815181840F25
S1135630951FC817D90759F488819981840F951F3C
S11356400296918380838A819B819383828321152F
S1135650310529F4F0939117E09390173DC0E901C7
S1135660FB83EA8349915991C40FD51FEC17FD07B9
S113567061F480819181840F951F0296E9019983D9
S11356808883828193819B838A83E0E0F0E0129691
S11356908D919C911397009719F0FD01DC01F7CFD0
S11356A08D919C9111979D012E5F3F4F820F931F07
S11356B020918E1730918F172817390769F4309786
S11356C029F4109291171092901702C0138212823B
S11356D0B0938F17A0938E17DF91CF91089581E037
S11356E090E0F8947DC3FB01DC0102C001900D92AF
S11356F041505040D8F70895DC0101C06D934150EA
S11357005040E0F70895FB0151915523B1F0BF01DA
S1135710DC01052E4D91442369F010D0D9F7CD0159
S11357200190002049F04D91411108D0C9F3FB01CB
S11357304111EECF81E090E001970895402539F0C2
S1135740403229F440294B57465E08F018940895D6
S1135750FB01DC010D900020E9F7119701900D92F7
S11357600020E1F70895FB01DC0101900D92002077
S1135770E1F70895FB01DC014150504088F08D9120
S113578081341CF08B350CF4805E619161341CF023
S11357906B350CF4605E861B611171F3990B0895EF
S11357A0881BFCCFCF93DF93CDB7DEB7AE014A5F42
S11357B05F4FFA0161917191AF01809194179091BB
S11357C0951761D0DF91CF9108950F931F93CF93D5
S11357D0DF93E0919417F0919517238121FF1BC06B
S11357E08C01D0E0C0E0F80181918F0160919417A1
S11357F070919517DB011896ED91FC911997882308
S113580031F01995892B79F3DFEFCFEFECCF8AE0F4
S11358101995892B19F08FEF9FEF02C08D2F9C2FC4
S1135820DF91CF911F910F9108950F931F93CF9301
S1135830DF93CDB7DEB72E970FB6F894DEBF0FBE59
S1135840CDBF0E891F8986E08C831A8309838FEF6D
S11358509FE79E838D83AE01465E5F4F688D798D91
S1135860CE01019610D0EF81F885E00FF11F108270
S11358702E960FB6F894DEBF0FBECDBFDF91CF9149
S11358801F910F9108952F923F924F925F926F92C2
S11358907F928F929F92AF92BF92CF92DF92EF92BC
S11358A0FF920F931F93CF93DF93CDB7DEB72B9760
S11358B00FB6F894DEBF0FBECDBF6C017B018A0129
S11358C0FC0117821682838181FFBFC1CE0101963C
S11358D03C01F6019381F70193FD859193FF81913A
S11358E07F01882309F4ADC1853239F493FD859194
S11358F093FF81917F01853221F4B60190E0D6D1E6
S1135900E8CF912C212C312CFFE1F315D8F08B3208
S113591079F038F4803279F08332A1F4232D2061B8
S11359201DC08D3261F0803369F4232D216016C0CF
S1135930832D8260382EE32DE4603E2E2AC0F32DA1
S1135940F8601DC037FC2DC020ED280F2A3040F030
S11359508E32B9F436FC75C1232D2064322E19C061
S113596036FE06C08AE0989E200D1124922E11C0A6
S1135970EAE02E9E200D1124222EF32DF0623F2EFC
S113598008C08C3621F4832D8068382E02C08836F6
S113599041F4F70193FD859193FF81917F0181117A
S11359A0B3CF982F9F7D9554933028F40C5F1F4FED
S11359B09FE399830DC0833631F0833771F08335CB
S11359C009F055C020C0F801808189830E5F1F4F04
S11359D088248394912C530112C02801F2E04F0EC5
S11359E0511CF801A080B18036FE03C0692D70E01F
S11359F002C06FEF7FEFC5014ED14C018201F32D40
S1135A00FF773F2E15C0280122E0420E511CF801F9
S1135A10A080B18036FE03C0692D70E002C06FEF34
S1135A207FEFC5012DD14C01F32DF0683F2E82018B
S1135A3033FC19C0822D90E088169906A0F4B601B3
S1135A4080E290E033D12A94F5CFF50137FC8591BB
S1135A5037FE81915F01B60190E028D121102A948C
S1135A6021E0821A91088114910479F7E1C0843607
S1135A7011F0893639F5F80137FE07C0608171816C
S1135A80828193810C5F1F4F08C060817181072E52
S1135A90000C880B990B0E5F1F4FF32DFF763F2EE2
S1135AA097FF09C090958095709561957F4F8F4FB2
S1135AB09F4FF0683F2E2AE030E0A30133D1882EB7
S1135AC0861844C0853731F4232D2F7EB22E2AE068
S1135AD030E025C0932D997FB92E8F36C1F018F48C
S1135AE0883579F0AEC0803719F0883721F0A9C025
S1135AF0E92FE061BE2EB4FE0DC0FB2DF460BF2E75
S1135B0009C034FE0AC0292F2660B22E06C028E040
S1135B1030E005C020E130E002C020E132E0F801CD
S1135B20B7FE07C060817181828193810C5F1F4F32
S1135B3006C06081718180E090E00E5F1F4FA30179
S1135B40F1D0882E8618FB2DFF773F2E36FE0DC030
S1135B50232D2E7FA22E891458F434FE0BC032FC60
S1135B6009C0832D8E7EA82E05C0B82CA32C03C09B
S1135B70B82C01C0B92CA4FE0FC0FE01E80DF11D24
S1135B808081803321F49A2D997EA92E09C0A2FE2A
S1135B9006C0B394B39404C08A2D867809F0B394F4
S1135BA0A3FC10C0A0FE06C0B21480F4280C922CF2
S1135BB09B180DC0B21458F4B60180E290E076D080
S1135BC0B394F8CFB21418F42B1802C0982C212CDB
S1135BD0A4FE0FC0B60180E390E068D0A2FE16C018
S1135BE0A1FC03C088E790E002C088E590E0B6011C
S1135BF00CC08A2D867851F0A1FE02C08BE201C050
S1135C0080E2A7FC8DE2B60190E050D0891430F414
S1135C10B60180E390E04AD09A94F8CF8A94F301D5
S1135C20E80DF11D8081B60190E040D08110F6CFDF
S1135C30222009F44ECEB60180E290E037D02A94B7
S1135C40F7CFF6018681978102C08FEF9FEF2B96E5
S1135C500FB6F894DEBF0FBECDBFDF91CF911F9179
S1135C600F91FF90EF90DF90CF90BF90AF909F90F7
S1135C708F907F906F905F904F903F902F900895FA
S1135C80FC010590615070400110D8F78095909503
S1135C908E0F9F1F0895FC01615070400190011008
S1135CA0D8F7809590958E0F9F1F08950F931F939B
S1135CB0CF93DF93FB01238121FD03C08FEF9FEF7F
S1135CC02CC022FF16C0468157812481358142179A
S1135CD0530744F4A081B1819D012F5F3F4F31836D
S1135CE020838C93268137812F5F3F4F3783268310
